:100000000C94B8340C94D9340C94D9340C94D9345D
:100010000C94D9340C94D9340C94D9340C94D9342C
:100020000C94D9340C94D9340C94D9340C94438660
:100030000C94D9340C94D9340C94B4820C94D934E3
:100040000C94D9340C94D9340C94D9340C94D934FC
:100050000C94D9340C94D9340C94D9340C94D934EC
:100060000C94D9340C94DB890C947F890C94D9348A
:100070000C94CF8D0C94728D0C94AC8D0C94D9345F
:100080000C94CC860C94D9340C94D9340C94D93477
:100090000C94D9340C94D9340C94D9340C94D934AC
:1000A0000C94D9340C94D9340C94D9340C94F06257
:1000B0000C9498630C94D9340C94D9340C944782E2
:1000C0000C94D9340C94D9340C94D9340C94D9347C
:1000D0000C94D9340C94D9340C94D9340C94D9346C
:1000E0000C94CB910C94D9340C94D9340C94D9340D
:1000F0000C94D9340C94D9340C94D9340C94D9344C
:100100000C941A630C94C2630C949C620C94446328
:100110000C94D9340C94D9340C94D9340C94D9342B
:100120000C94D9340C94D9340C94D9340C94D9341B
:100130000C94D9340C9472820C94D9340C94D93424
:100140000C94D9340C94D9340C94D9340C94D934FB
:100150000C94D9340C94D9340C94C1910C94D934A6
:100160000C94D9340C94D9340C94D9340C94D934DB
:100170000C94D9340C94D9340C94D9340C94D934CB
:100180000C94D9340C94D9340C94D9340C94D934BB
:100190000C94D9340C94D9340C94D9340C94D934AB
:1001A0000C94C6620C946E630C94D9340C94D934BC
:1001B0000C9426810C94D9340C94D9340C94D934F1
:1001C0000C94D9340C94D9340C94D9340C94D9347B
:1001D0000C94D9340C94D9340C94D9340C94D9346B
:1001E0000C94D9340C94D9342D6042605760366237
:1001F0003662AF5F035E36626C6081609660D66087
:10020000395FC0603662C45F3662AB60D95FA25F9F
:10021000366236623662EE5F03601860084AD73B8A
:100220003BCE016E84BCBFFDC12F3D6C74319ABDC5
:1002300056833DDA3D00C77F11BED9E4BB4C3E91E9
:100240006BAAAABE000000803F05A84CCDB2D44ED8
:10025000B93836A9020C50B9918688083CA6AAAADA
:100260002ABE000000803F07634236B79BD8A71A1A
:1002700039685618AEBAAB558C1D3CB7CC5763BD28
:100280006DEDFD753EF6177231BF000000803F082E
:10029000000000BE922449123EABAAAA2ABECDCCD1
:1002A000CC4C3E00000080BEABAAAAAA3E000000D3
:1002B00000BF000000803F0000000000084178D32C
:1002C000BB4387D1133D190E3CC3BD4282AD2B3ECB
:1002D00068EC8276BED98FE1A93E4C80EFFFBE016B
:1002E000C4FF7F3F00000000006E616E00696E6613
:1002F00000B82EE64CF7475D473D313333733FE49A
:100300002EE64CF7475D474131D783AA439D2EA582
:100310004C1F475D47453100000000652EE64CD874
:10032000472147203400004843582E624A5E4A97CE
:1003300055453100000000162EA54C4F4A7A4769FA
:100340003000000000F42D5B4C51495D4745310001
:10035000000000D12D294C424A5D47453100000084
:1003600000AE2D294C354A5D474531000000008B19
:100370002D294C284A5D47453100000000682D2991
:100380004C1B4A5D47453100000000452D294C0EAD
:100390004A5D47453100000000342E5B4CED495D5D
:1003A00047453100000000222D294C44495D474556
:1003B0003100000000FF2C294CE0495D4745310029
:1003C000000000DC2C294CD3495D4745310000007A
:1003D00000B92C294CC6495D474531000000009604
:1003E0002C294CB9495D47453100000000732C2988
:1003F0004CAC495D47453100000000502C294C9F12
:10040000495D47453100000000312CD64B8C495DD9
:1004100047453100000000122CD64B8C495D474502
:100420003100000000F32BD64B8C495D474531006D
:10043000000000D42BD64B8C495D474531000000AD
:1004400000B52BD64B8C495D474531000000009626
:100450002BD64B8C495D47453100000000722BD6EE
:100460004B79495D474531000000004E2BD64B7952
:10047000495D474531000000002A2BD64B79495D84
:1004800047453100000000062BD64B79495D4745B2
:100490003100000000E22AD64B79495D4745310022
:1004A000000000BE2AD64B79495D47453100000067
:1004B000009A2A5B4C51495D479D30000000007650
:1004C0002A5B4C51495D47A13000000000522A5B75
:1004D0004C51495D47A530000000002E2A924BF791
:1004E000475D47A930000000000A2A924BF7475D9C
:1004F00047AD3000000000E629924BF7475D47B159
:100500003000000000D4293D65B947A78549310076
:10051000000000DD290865B4475D47453100000053
:1005200000CB295E65B4477F56453100000000BF0F
:1005300029294CB4475D474531000000008B2958FC
:100540004BB9475F471734000000005929584BB991
:10055000475F4718340000803F2729584BB9475F51
:100560004716340000803FF328584BB9475F4719BE
:100570003400000040C128584BB9475F471A340087
:10058000000000B428184819486C494531000000A3
:100590000088285B4C5149B54A11340050C3475C70
:1005A000285B4C5149B54A05340AD7A33D30285B36
:1005B0004C5149B54A0934CDCCCC3D01285B4CF7B0
:1005C0004798470D3400409C45C627584BB94767AC
:1005D000551B34000000009727584BB9474A551C5B
:1005E00034000000006827584BB9472D551D3400D2
:1005F00000803F3927584BB94710551E3400008002
:100600003F0A27584BB9475F471F340000803FD748
:1006100026584BB9475F47F63400000000AF2692DA
:100620004BF747A84AFA346666E63F7D265B4C5195
:1006300049F34AFE348D1758424E26584BB947327B
:1006400051F734000000412326584BB9472349F89D
:10065000340000803FF325584BB9475F47F9340019
:10066000000000C025584BB9475F470635000080A1
:100670003F9825924BF747A84A0A356666E63F66DB
:10068000255B4C5149F34A0E3589410942372558BB
:100690004BB94732510735000000410C25584BB982
:1006A00047234908350000803FDC24584BB9475F99
:1006B00047093500000000A924584BB9475F471689
:1006C00035000000408124924BF747A84A1A3500B4
:1006D0000070414F245B4C5149F34A1E3531081CD0
:1006E000402024584BB9473251173500000040F5DF
:1006F00023584BB947234918350000803FC523587C
:100700004BB9475F4719350000803F9223584BB9DA
:10071000475F472635000040406A23924BF747A8C1
:100720004A2A356666E63F38235B4C5149F34A2E28
:1007300035000034430923584BB94732512735005F
:10074000000041DE22584BB947234928350000807C
:100750003FAE22584BB9475F472935000000008C57
:1007600022144B5B48DF5036350000803F30225B5F
:100770004C5149B54A3B3500606A465E225B4C519C
:1007800049B54A373500007A4408225B4C5149B5D7
:100790004A3F350000A043DB215B4C5149B54A4339
:1007A00035A493564E9B215B4C5149B54A47350AB7
:1007B000D7233C6E21584BB947BD504F35000080C0
:1007C0003F41215B4C5149B54A50350000FAC40FF6
:1007D000215B4C5149B54A54350000C842E2205BC8
:1007E0004C5149B54A583500002041BC205B4C5162
:1007F00049B54A5C350000803F9A20144B5B48DFC6
:100800005060350000803F3E205B4C5149B54A6541
:100810003500606A466C205B4C5149B54A61350031
:10082000007A4416205B4C5149B54A693500008076
:10083000BFE91F5B4C5149B54A6D35A493564EA98B
:100840001F5B4C5149B54A71350AD7233C7C1F5870
:100850004BB947BD507935000000004F1F5B4C512C
:1008600049B54A7A3500007AC41D1F5B4C5149B521
:100870004A7E3500007A44F01E5B4C5149B54A82ED
:10088000350000803FCA1E5B4C5149B54A86350091
:1008900000803FA81E144B5B48DF508A3500008063
:1008A0003F4C1E5B4C5149B54A8F3500401C467A7F
:1008B0001E5B4C5149B54A8B350000FA43241E5B40
:1008C0004C5149B54A93350000C841F71D5B4C5166
:1008D00049B54A9735A493564EB71D5B4C5149B55F
:1008E0004A9B350AD7233C8A1D584BB947BD50A3B4
:1008F000350000803F5D1D5B4C5149B54AA4350071
:1009000000FA432B1D5B4C5149B54AA8350000C87D
:1009100042FE1C5B4C5149B54AAC350000A040D8A2
:100920001C5B4C5149B54AB0350000803FB61C14E1
:100930004B5B48DF50B4350000803F5A1C924BF7A8
:10094000479847B93500606A47881C924BF747982B
:1009500047B5350000E145301C924BF7479847BD3D
:10096000350080BB43031C924BF7479847C1355E67
:10097000D0B250D61B924BF7479847C535CDCCCC5B
:100980003DB01B924BF7479847C9350000803F8325
:100990001B584BB947BD50CD350000803F561B92C8
:1009A0004BF7479847CE350080BB45241B924BF749
:1009B000479847D23500001644F71A924BF74798EC
:1009C00047D63500007041D11A924BF7479847DA65
:1009D000350000803FAF1A144B5B48DF50DE350016
:1009E000000000531A924BF7479847E33500006127
:1009F00045811A924BF7479847DF35000061452B38
:100A00001A924BF7479847E735000080BFFE1992CE
:100A10004BF7479847EB35A493564ED119924BF7B5
:100A2000479847EF350AD7233CAB19924BF74798C5
:100A300047F3350000803F7E19584BB947BD50F74A
:100A4000350000803F5119924BF7479847F8350021
:100A50000016C41F19924BF7479847FC350000C891
:100A600042F218924BF747984700360000A0C0CCDE
:100A700018924BF7479847043600000040AA181414
:100A80004B5B48DF500836000000004E18924BF7D1
:100A90004798470D36000061457C18924BF7479800
:100AA000470936000061452618924BF747984711D1
:100AB00036000080BFF917924BF74798471536A4C8
:100AC00093564ECC17924BF747984719360AD723BF
:100AD0003CA617924BF74798471D360000803F7998
:100AE00017584BB947BD5021360000803F4C179234
:100AF0004BF74798472236000016C41A17924BF757
:100B000047984726360000C842ED16924BF74798A3
:100B1000472A360000A0C0C716924BF74798472EC9
:100B200036000000409F165B4C5149B54A663400C0
:100B300000000077165B4C5149B54A6A340000004A
:100B4000004F165B4C5149B54A6E34000000002737
:100B5000165B4C5149B54A723400000000FF155B2A
:100B60004C5149B54A763400000000D7155B4C5112
:100B700049B54A7A3400000000AF155B4C5149B5C5
:100B80004A7E340000000087155B4C5149B54A820B
:100B900034000000005F155B4C5149B54A863400B3
:100BA00000000037155B4C5149B54A8A34000000FB
:100BB000000F155B4C5149B54A8E3400000000E728
:100BC000145B4C5149B54A923400000000BF145BDD
:100BD0004C5149B54A96340000000097145B4C51C3
:100BE00049B54A9A34000000006F145B4C5149B576
:100BF0004A9E340000000047145B4C5149B54AA29C
:100C000034000000001F145B4C5149B54AA6340063
:100C1000000000F7135B4C5149B54AAA34000000AC
:100C200000CF135B4C5149B54AAE3400000000A719
:100C3000135B4C5149B54AB234000000007F135B8E
:100C40004C5149B54AB6340000000057135B4C5173
:100C500049B54ABA34000000002F135B4C5149B526
:100C60004ABE340000000007135B4C5149B54AC22C
:100C70003400000000DF125B4C5149B54AC6340015
:100C8000000000B7125B4C5149B54ACA340000005D
:100C9000008F125B4C5149B54ACE3400000000670A
:100CA000125B4C5149B54AD234000000003F125B40
:100CB0004C5149B54AD6340000000017125B4C5124
:100CC00049B54ADA3400000000EF115B4C5149B5D8
:100CD0004ADE3400000000C7115B4C5149B54AE2BE
:100CE00034000000009F115B4C5149B54AE63400C6
:100CF00000000077115B4C5149B54AEA340000000E
:100D0000004F115B4C5149B54AEE340000000027FA
:100D1000115B4C5149B54AF234000000001C111817
:100D200048D8477A4724340000000011111848D8E9
:100D3000477A4726340000000006111848D8477A41
:100D400047283400000000FB101848D8477A472A8B
:100D50003400000000F0101848D8477A472C3400BF
:100D6000000000E5101848D8477A472E34000000EC
:100D700000DA101848D8477A47303400000000CF16
:100D8000101848D8477A47323400000000C41018C1
:100D900048D8477A47343400000000B9101848D8C2
:100DA000477A47363400000000AE101848D8477A1A
:100DB00047383400000000A3101848D8477A473A53
:100DC000340000000098101848D8477A473C340097
:100DD0000000008D101848D8477A473E34000000C4
:100DE0000082101848D8477A474034000000007746
:100DF000101848D8477A474234000000006C101899
:100E000048D8477A4744340000000061101848D899
:100E1000477A4746340000000056101848D8477AF1
:100E2000474834000000004B101848D8477A474A1A
:100E30003400000000D10F1848DC4E6856453100E0
:100E4000000000CC0F1848DC4E6856453100000009
:100E50000046101848664E685645310000000041B3
:100E6000101848664E68564531000000003C1018C6
:100E700048664E6856453100000000371018486635
:100E80004E685645310000000032101848664E6822
:100E9000564531000000002D101848664E68564532
:100EA000310000000028101848664E685645310091
:100EB00000000023101848664E68564531000000B7
:100EC000001E101848664E68564531000000001993
:100ED000101848664E685645310000000010101882
:100EE00048664E68564531000000000710184866F5
:100EF0004E6856453100000000FE0F1848664E68E7
:100F000056453100000000F50F1848664E685645FA
:100F10003100000000EC0F1848664E68564531005D
:100F2000000000E30F1848664E6856453100000087
:100F300000DA0F1848664E6856453100000000C3BD
:100F40000F1848664E6856453100000000BA0F1869
:100F500048664E6856453100000000B50F1848231A
:100F6000545D47453100000000B00F184808545D3B
:100F700047453100000000AB0F1848ED535D474571
:100F80003100000000A60F18483E545D474531006F
:100F9000000000A10F0865B4475D4745310000001F
:100FA00000682C682C00242C242C006F2C6F2C0043
:100FB0006E2C6E2C006D2C6D2C006D706F2C6D7076
:100FC0006F2C00706F732C706F732C00732C732C4C
:100FD000007379732C7379732C006739322C67395D
:100FE000322C006735392C6735392C006735382CA1
:100FF0006735382C006735372C6735372C00673557
:10100000362C6735362C006735352C6735352C0086
:101010006735342C6735342C00632C632C00622C2C
:10102000622C00612C612C007A2C7A2C00792C79AE
:101030002C00782C782C00342C342C00332C332CBE
:1010400000322C322C00312C312C00737231392CAF
:10105000737231392C00737231382C737231382C21
:1010600000737231372C737231372C007372313642
:101070002C737231362C00737231352C737231350A
:101080002C00737231342C737231342C0073723132
:10109000332C737231332C00737231322C737231F2
:1010A000322C00737231312C737231312C00737217
:1010B00031302C737231302C00737230392C7372D2
:1010C00030392C00737230382C737230382C007326
:1010D0007230372C737230372C00737230362C73A9
:1010E0007230362C00737230352C737230352C0010
:1010F000737230342C737230342C00737230332C92
:10110000737230332C00737230322C737230322C85
:1011100000737230312C737230312C0073723030A6
:101120002C737230302C00673539632C6735395F8A
:10113000632C5B673539635D206735395F635F6FAB
:1011400066667365742532302E336625530A006750
:101150003539622C6735395F622C5B673539625DE2
:10116000206735395F625F6F66667365742532305C
:101170002E336625530A00673539612C6735395F90
:10118000612C5B673539615D206735395F615F6F61
:1011900066667365742532302E336625530A006700
:1011A00035397A2C6735395F7A2C5B6735397A5D4A
:1011B000206735395F7A5F6F6666736574253230F4
:1011C0002E336625530A00673539792C6735395F28
:1011D000792C5B673539795D206735395F795F6FC9
:1011E00066667365742532302E336625530A0067B0
:1011F0003539782C6735395F782C5B673539785D00
:10120000206735395F785F6F6666736574253230A5
:101210002E336625530A00673538632C6735385FEF
:10122000632C5B673538635D206735385F635F6FBC
:1012300066667365742532302E336625530A00675F
:101240003538622C6735385F622C5B673538625DF4
:10125000206735385F625F6F66667365742532306C
:101260002E336625530A00673538612C6735385FA1
:10127000612C5B673538615D206735385F615F6F72
:1012800066667365742532302E336625530A00670F
:1012900035387A2C6735385F7A2C5B6735387A5D5C
:1012A000206735385F7A5F6F666673657425323004
:1012B0002E336625530A00673538792C6735385F39
:1012C000792C5B673538795D206735385F795F6FDA
:1012D00066667365742532302E336625530A0067BF
:1012E0003538782C6735385F782C5B673538785D12
:1012F000206735385F785F6F6666736574253230B6
:101300002E336625530A00673537632C6735375F00
:10131000632C5B673537635D206735375F635F6FCD
:1013200066667365742532302E336625530A00676E
:101330003537622C6735375F622C5B673537625D06
:10134000206735375F625F6F66667365742532307C
:101350002E336625530A00673537612C6735375FB2
:10136000612C5B673537615D206735375F615F6F83
:1013700066667365742532302E336625530A00671E
:1013800035377A2C6735375F7A2C5B6735377A5D6E
:10139000206735375F7A5F6F666673657425323014
:1013A0002E336625530A00673537792C6735375F4A
:1013B000792C5B673537795D206735375F795F6FEB
:1013C00066667365742532302E336625530A0067CE
:1013D0003537782C6735375F782C5B673537785D24
:1013E000206735375F785F6F6666736574253230C6
:1013F0002E336625530A00673536632C6735365F12
:10140000632C5B673536635D206735365F635F6FDE
:1014100066667365742532302E336625530A00677D
:101420003536622C6735365F622C5B673536625D18
:10143000206735365F625F6F66667365742532308C
:101440002E336625530A00673536612C6735365FC3
:10145000612C5B673536615D206735365F615F6F94
:1014600066667365742532302E336625530A00672D
:1014700035367A2C6735365F7A2C5B6735367A5D80
:10148000206735365F7A5F6F666673657425323024
:101490002E336625530A00673536792C6735365F5B
:1014A000792C5B673536795D206735365F795F6FFC
:1014B00066667365742532302E336625530A0067DD
:1014C0003536782C6735365F782C5B673536785D36
:1014D000206735365F785F6F6666736574253230D6
:1014E0002E336625530A00673535632C6735355F23
:1014F000632C5B673535635D206735355F635F6FF0
:1015000066667365742532302E336625530A00678C
:101510003535622C6735355F622C5B673535625D2A
:10152000206735355F625F6F66667365742532309C
:101530002E336625530A00673535612C6735355FD4
:10154000612C5B673535615D206735355F615F6FA5
:1015500066667365742532302E336625530A00673C
:1015600035357A2C6735355F7A2C5B6735357A5D92
:10157000206735355F7A5F6F666673657425323034
:101580002E336625530A00673535792C6735355F6C
:10159000792C5B673535795D206735355F795F6F0D
:1015A00066667365742532302E336625530A0067EC
:1015B0003535782C6735355F782C5B673535785D48
:1015C000206735355F785F6F6666736574253230E6
:1015D0002E336625530A00673534632C6735345F34
:1015E000632C5B673534635D206735345F635F6F01
:1015F00066667365742532302E336625530A00679C
:101600003534622C6735345F622C5B673534625D3C
:10161000206735345F625F6F6666736574253230AC
:101620002E336625530A00673534612C6735345FE5
:10163000612C5B673534615D206735345F615F6FB6
:1016400066667365742532302E336625530A00674B
:1016500035347A2C6735345F7A2C5B6735347A5DA4
:10166000206735345F7A5F6F666673657425323044
:101670002E336625530A00673534792C6735345F7D
:10168000792C5B673534795D206735345F795F6F1E
:1016900066667365742532302E336625530A0067FB
:1016A0003534782C6735345F782C5B673534785D5A
:1016B000206735345F785F6F6666736574253230F6
:1016C0002E336625530A00637A622C635F7A2C5BA3
:1016D000637A625D20635F7A65726F5F6261636BDC
:1016E0006F66662531392E336625530A00636C62B6
:1016F0002C635F6C617463685F622C5B636C625D1A
:1017000020635F6C617463685F6261636B6F6666C0
:101710002531382E336625530A00636C762C635FBF
:101720006C617463685F762C5B636C765D20635FCD
:101730006C617463685F76656C6F63697479253179
:10174000372E336625532F6D696E0A006373762C2E
:10175000635F732C5B6373765D20635F7365617297
:1017600063685F76656C6F636974792531362E33F3
:101770006625532F6D696E0A0063736D2C635F736A
:101780002C5B63736D5D20635F7377697463685F5F
:101790006D6F646525313664205B302C312C322C22
:1017A000332C345D0A006372612C635F722C5B63BF
:1017B00072615D20635F7261646975735F76616CED
:1017C00075652532302E346625530A00636A642C11
:1017D000635F6A752C5B636A645D20635F6A756E24
:1017E0006374696F6E5F646576696174696F6E2595
:1017F00031342E346625530A00636A6D2C635F6AA8
:10180000652C5B636A6D5D20635F6A65726B5F6DFB
:101810006178696D756D2531352E306625532F6DD4
:10182000696E5E330A0063746D2C635F742C5B63B6
:10183000746D5D20635F74726176656C5F6D617855
:10184000696D756D2531372E336625530A00637631
:101850006D2C635F762C5B63766D5D20635F7665D0
:101860006C6F636974795F6D6178696D756D253131
:10187000352E336625532F6D696E0A006366722C10
:10188000635F662C5B6366725D20635F666565649B
:10189000726174655F6D6178696D756D2531352E86
:1018A000336625532F6D696E0A0063616D2C635F8B
:1018B000612C5B63616D5D20635F617869735F6D4F
:1018C0006F6465253138642025530A00627A622CE2
:1018D000625F7A2C5B627A625D20625F7A65726F0A
:1018E0005F6261636B6F66662531392E33662553FF
:1018F0000A00626C622C625F6C617463685F622CC8
:101900005B626C625D20625F6C617463685F6261E0
:10191000636B6F66662531382E336625530A006285
:101920006C762C625F6C617463685F762C5B626CB2
:10193000765D20625F6C617463685F76656C6F636F
:101940006974792531372E336625532F6D696E0AF8
:10195000006273762C625F732C5B6273765D20622B
:101960005F7365617263685F76656C6F63697479D4
:101970002531362E336625532F6D696E0A0062734A
:101980006D2C625F732C5B62736D5D20625F737799
:10199000697463685F6D6F646525313664205B3000
:1019A0002C312C322C332C345D0A006272612C6293
:1019B0005F722C5B6272615D20625F726164697547
:1019C000735F76616C75652532302E346625530A57
:1019D00000626A642C625F6A752C5B626A645D20D7
:1019E000625F6A756E6374696F6E5F646576696164
:1019F00074696F6E2531342E346625530A00626A8D
:101A00006D2C625F6A652C5B626A6D5D20625F6A45
:101A100065726B5F6D6178696D756D2531352E303E
:101A20006625532F6D696E5E330A0062746D2C62F9
:101A30005F742C5B62746D5D20625F7472617665A9
:101A40006C5F6D6178696D756D2531372E33662554
:101A5000530A0062766D2C625F762C5B62766D5D58
:101A600020625F76656C6F636974795F6D61786918
:101A70006D756D2531352E336625532F6D696E0AD0
:101A8000006266722C625F662C5B6266725D206229
:101A90005F66656564726174655F6D6178696D75B7
:101AA0006D2531352E336625532F6D696E0A006220
:101AB000616D2C625F612C5B62616D5D20625F61B4
:101AC0007869735F6D6F6465253138642025530A2A
:101AD00000617A622C615F7A2C5B617A625D2061C1
:101AE0005F7A65726F5F6261636B6F66662531391D
:101AF0002E336625530A00616C622C615F6C617441
:101B000063685F622C5B616C625D20615F6C617415
:101B100063685F6261636B6F66662531382E33667A
:101B200025530A00616C762C615F6C617463685F99
:101B3000762C5B616C765D20615F6C617463685FBD
:101B400076656C6F636974792531372E336625535A
:101B50002F6D696E0A006173762C615F732C5B6177
:101B600073765D20615F7365617263685F76656C33
:101B70006F636974792531362E336625532F6D696D
:101B80006E0A0061736D2C615F732C5B61736D5D18
:101B900020615F7377697463685F6D6F6465253179
:101BA0003664205B302C312C322C332C345D0A000F
:101BB0006172612C615F722C5B6172615D20615F9B
:101BC0007261646975735F76616C75652532302E5C
:101BD000346625530A00616A642C615F6A752C5B68
:101BE000616A645D20615F6A756E6374696F6E5FC0
:101BF000646576696174696F6E2531342E346625AB
:101C0000530A00616A6D2C615F6A652C5B616A6DC5
:101C10005D20615F6A65726B5F6D6178696D756D7E
:101C20002531352E306625532F6D696E5E330A00DF
:101C300061746D2C615F742C5B61746D5D20615FFC
:101C400074726176656C5F6D6178696D756D202069
:101C50002531352E336625530A0061766D2C615F80
:101C6000762C5B61766D5D20615F76656C6F636974
:101C700074795F6D6178696D756D2531352E3366C8
:101C800025532F6D696E0A006166722C615F662CA8
:101C90005B6166725D20615F666565647261746533
:101CA0005F6D6178696D756D2531352E336625530D
:101CB0002F6D696E0A0061616D2C615F612C5B6143
:101CC000616D5D20615F617869735F6D6F6465252B
:101CD0003138642025530A007A7A622C7A5F7A2C94
:101CE0005B7A7A625D207A5F7A65726F5F626163A8
:101CF0006B6F66662531392E336625530A007A6C80
:101D0000622C7A5F6C617463685F622C5B7A6C62D0
:101D10005D207A5F6C617463685F6261636B6F669C
:101D2000662531382E336625530A007A6C762C7A74
:101D30005F6C617463685F762C5B7A6C765D207A89
:101D40005F6C617463685F76656C6F636974792535
:101D500031372E336625532F6D696E0A007A7376FC
:101D60002C7A5F732C5B7A73765D207A5F73656182
:101D70007263685F76656C6F636974792531362E9E
:101D8000336625532F6D696E0A007A736D2C7A5F66
:101D9000732C5B7A736D5D207A5F73776974636807
:101DA0005F6D6F646525313664205B302C312C32D9
:101DB0002C332C345D0A007A6A642C7A5F6A752CA5
:101DC0005B7A6A645D207A5F6A756E6374696F6EB0
:101DD0005F646576696174696F6E2531342E34668F
:101DE000255320286C6172676572206973206661D3
:101DF00073746572290A007A6A6D2C7A5F6A652CA1
:101E00005B7A6A6D5D207A5F6A65726B5F6D61787F
:101E1000696D756D2531352E306625532F6D696ED0
:101E20005E330A007A746D2C7A5F742C5B7A746D61
:101E30005D207A5F74726176656C5F6D6178696D43
:101E4000756D2531372E336625530A007A766D2C51
:101E50007A5F762C5B7A766D5D207A5F76656C6F43
:101E6000636974795F6D6178696D756D2531352EA3
:101E7000336625532F6D696E0A007A66722C7A5F7D
:101E8000662C5B7A66725D207A5F66656564726156
:101E900074655F6D6178696D756D2531352E3366BA
:101EA00025532F6D696E0A007A616D2C7A5F612C63
:101EB0005B7A616D5D207A5F617869735F6D6F64D5
:101EC00065253138642025530A00797A622C795FC0
:101ED0007A2C5B797A625D20795F7A65726F5F62D6
:101EE00061636B6F66662531392E336625530A00B0
:101EF000796C622C795F6C617463685F622C5B79CA
:101F00006C625D20795F6C617463685F6261636BB2
:101F10006F66662531382E336625530A00796C7654
:101F20002C795F6C617463685F762C5B796C765D8D
:101F300020795F6C617463685F76656C6F63697448
:101F4000792531372E336625532F6D696E0A007956
:101F500073762C795F732C5B7973765D20795F7370
:101F600065617263685F76656C6F6369747925314A
:101F7000362E336625532F6D696E0A0079736D2CEA
:101F8000795F732C5B79736D5D20795F737769740A
:101F900063685F6D6F646525313664205B302C317A
:101FA0002C322C332C345D0A00796A642C795F6AF8
:101FB000752C5B796A645D20795F6A756E637469FC
:101FC0006F6E5F646576696174696F6E2531342E5A
:101FD0003466255320286C6172676572206973200E
:101FE000666173746572290A00796A6D2C795F6A7B
:101FF000652C5B796A6D5D20795F6A65726B5F6DD8
:102000006178696D756D2531352E306625532F6DDC
:10201000696E5E330A0079746D2C795F742C5B797C
:10202000746D5D20795F74726176656C5F6D617847
:10203000696D756D2531372E336625530A00797623
:102040006D2C795F762C5B79766D5D20795F766596
:102050006C6F636974795F6D6178696D756D253139
:10206000352E336625532F6D696E0A007966722C02
:10207000795F662C5B7966725D20795F6665656461
:10208000726174655F6D6178696D756D2531352E8E
:10209000336625532F6D696E0A0079616D2C795F67
:1020A000612C5B79616D5D20795F617869735F6D2B
:1020B0006F6465253138642025530A00787A622CD4
:1020C000785F7A2C5B787A625D20785F7A65726FD0
:1020D0005F6261636B6F66662531392E3366255307
:1020E0000A00786C622C785F6C617463685F622CA4
:1020F0005B786C625D20785F6C617463685F6261BD
:10210000636B6F66662531382E336625530A007877
:102110006C762C785F6C617463685F762C5B786C8E
:10212000765D20785F6C617463685F76656C6F6361
:102130006974792531372E336625532F6D696E0A00
:10214000007873762C785F732C5B7873765D2078DB
:102150005F7365617263685F76656C6F63697479DC
:102160002531362E336625532F6D696E0A0078733C
:102170006D2C785F732C5B78736D5D20785F73775F
:10218000697463685F6D6F646525313664205B3008
:102190002C312C322C332C345D0A00786A642C7874
:1021A0005F6A752C5B786A645D20785F6A756E6320
:1021B00074696F6E5F646576696174696F6E2531ED
:1021C000342E3466255320286C617267657220694D
:1021D0007320666173746572290A00786A6D2C78C1
:1021E0005F6A652C5B786A6D5D20785F6A65726BEB
:1021F0005F6D6178696D756D2531352E30662553BB
:102200002F6D696E5E330A0078746D2C785F742CC4
:102210005B78746D5D20785F74726176656C5F6D5C
:102220006178696D756D2531372E336625530A0047
:1022300078766D2C785F762C5B78766D5D20785F94
:1022400076656C6F636974795F6D6178696D756DC2
:102250002531352E336625532F6D696E0A00786659
:10226000722C785F662C5B7866725D20785F66659D
:102270006564726174655F6D6178696D756D253136
:10228000352E336625532F6D696E0A0078616D2CEB
:10229000785F612C5B78616D5D20785F6178697330
:1022A0005F6D6F6465253138642025530A003470F2
:1022B0006D2C6D345F706F772C5B34706D5D206DAD
:1022C000345F706F7765725F6D616E6167656D65B4
:1022D0006E7425313064205B302C315D0A0034701F
:1022E0006F2C6D345F706F6C2C5B34706F5D206D84
:1022F000345F706F6C6172697479202020253135EC
:1023000064205B302C315D0A00346D692C6D345FC4
:102310006D692C205B346D695D206D345F6D696380
:10232000726F73746570732025313564205B312CB6
:10233000322C342C385D0A003474722C6D345F7486
:10234000722C205B3474725D206D345F7472617620
:10235000656C5F7065725F7265766F6C7574696FBE
:102360006E25392E336625530A003473612C6D3483
:102370005F732C20205B3473615D206D345F737458
:1023800065705F616E676C652532302E336625534C
:102390000A00346D612C6D345F6D612C205B346DEF
:1023A000615D206D345F6D61705F746F5F6178692E
:1023B0007325313564205B303D582C20313D592E3A
:1023C0002E2E5D0A0033706D2C6D335F706F772C8D
:1023D0005B33706D5D206D335F706F7765725F6D1D
:1023E000616E6167656D656E7425313064205B30A8
:1023F0002C315D0A0033706F2C6D335F706F6C2C65
:102400005B33706F5D206D335F706F6C61726974E8
:102410007920202025313564205B302C315D0A0085
:10242000336D692C6D335F6D692C205B336D695D95
:10243000206D335F6D6963726F73746570732025EF
:10244000313564205B312C322C342C385D0A00335A
:1024500074722C6D335F74722C205B3374725D2048
:102460006D335F74726176656C5F7065725F726503
:10247000766F6C7574696F6E25392E336625530A35
:10248000003373612C6D335F732C20205B337361D9
:102490005D206D335F737465705F616E676C652579
:1024A00032302E336625530A00336D612C6D335F55
:1024B0006D612C205B336D615D206D335F6D6170EC
:1024C0005F746F5F6178697325313564205B303DDF
:1024D000582C20313D592E2E2E5D0A0032706D2C65
:1024E0006D325F706F772C5B32706D5D206D325F87
:1024F000706F7765725F6D616E6167656D656E7433
:1025000025313064205B302C315D0A0032706F2C35
:102510006D325F706F6C2C5B32706F5D206D325F5F
:10252000706F6C61726974792020202531356420C8
:102530005B302C315D0A00326D692C6D325F6D6944
:102540002C205B326D695D206D325F6D6963726F47
:1025500073746570732025313564205B312C322C07
:10256000342C385D0A003274722C6D325F74722C18
:10257000205B3274725D206D325F74726176656CBF
:102580005F7065725F7265766F6C7574696F6E25CA
:10259000392E336625530A003273612C6D325F7316
:1025A0002C20205B3273615D206D325F7374657027
:1025B0005F616E676C652532302E336625530A00E5
:1025C000326D612C6D325F6D612C205B326D615D0F
:1025D000206D325F6D61705F746F5F617869732524
:1025E000313564205B303D582C20313D592E2E2E44
:1025F0005D0A0031706D2C6D315F706F772C5B312F
:10260000706D5D206D315F706F7765725F6D616EAB
:102610006167656D656E7425313064205B302C31E7
:102620005D0A0031706F2C6D315F706F6C2C5B3107
:10263000706F5D206D315F706F6C617269747920AD
:10264000202025313564205B302C315D0A00316D4E
:10265000692C6D315F6D692C205B316D695D206D7A
:10266000315F6D6963726F737465707320253135E6
:1026700064205B312C322C342C385D0A00317472AA
:102680002C6D315F74722C205B3174725D206D3162
:102690005F74726176656C5F7065725F7265766F8C
:1026A0006C7574696F6E25392E336625530A0031B7
:1026B00073612C6D315F732C20205B3173615D2061
:1026C0006D315F737465705F616E676C6525323064
:1026D0002E336625530A00316D612C6D315F6D61BB
:1026E0002C205B316D615D206D315F6D61705F74B9
:1026F0006F5F6178697325313564205B303D582CFC
:1027000020313D592E2E2E5D0A00656A2C656E61C2
:10271000626C655F6A2C5B656A5D2020656E616234
:102720006C655F6A736F6E5F6D6F64652025313213
:1027300064205B302C315D0A0065782C656E616227
:102740006C655F782C5B65785D2020656E61626CDE
:10275000655F786F6E5F786F666620202531326422
:10276000205B302C315D0A0065652C656E61626C02
:10277000655F652C5B65655D2020656E61626C65DB
:102780005F6563686F20202020202025313264207F
:102790005B302C315D0A0065632C656E61626C658F
:1027A0005F632C5B65635D2020656E61626C655FB5
:1027B000435220286F6E2054582925313264205B03
:1027C000302C315D0A0069632C69676E6F72655F3A
:1027D000632C5B69635D202069676E6F72652043BF
:1027E00052206F72204C46206F6E205258202537A1
:1027F00064205B302C313D43522C323D4C465D0A07
:10280000006D742C6D696E5F732C5B6D745D2020A0
:102810006D696E5F7365676D656E745F74696D6514
:102820002020202531302E306620755365630A0044
:102830006D612C6D696E5F612C5B6D615D20206D3B
:10284000696E5F6172635F7365676D656E7420208A
:1028500020202531342E336625530A006D6C2C6DF3
:10286000696E5F6C2C5B6D6C5D20206D696E5F6CBA
:10287000696E655F7365676D656E74202020253114
:10288000342E336625530A006A612C6A756E632CF8
:102890005B6A615D20206A756E6374696F6E5F614B
:1028A0006363656C65726174696F6E25382E30667E
:1028B00025530A0067632C67636F642C5B67635D55
:1028C000006764692C67636F64655F642C205B67D5
:1028D00064695D2067636F64655F64697374616ECA
:1028E00063655F6D6F646525313064205B302C312A
:1028F0005D0A006770612C67636F64655F70612CAF
:102900005B6770615D2067636F64655F70617468A9
:102910005F636F6E74726F6C2025313064205B30A2
:102920002C312C325D0A0067636F2C67636F64651E
:102930005F632C205B67636F5D2067636F64655F17
:10294000636F6F72645F73797374656D20253130C6
:1029500064205B312D365D0A0067756E2C67636FEE
:1029600064655F752C205B67756E5D2067636F64BF
:10297000655F756E6974735F6D6F646520202025D7
:10298000313064205B302C315D0A0067706C2C673D
:10299000636F64655F706C2C5B67706C5D20676350
:1029A0006F64655F73656C6563745F706C616E65A1
:1029B0002025313064205B302C312C325D0A006DD3
:1029C00073672C6D73672C25730A0064652C64652E
:1029D00066612C0074652C746573742C0068652C1A
:1029E00068656C702C00673932632C673932632C50
:1029F00043206F726967696E206F66667365743A0B
:102A00002531302E336625530A00673932622C6730
:102A10003932622C42206F726967696E206F666678
:102A20007365743A2531302E336625530A006739B1
:102A300032612C673932612C41206F726967696E8F
:102A4000206F66667365743A2531302E33662553E0
:102A50000A006739327A2C6739327A2C5A206F7221
:102A60006967696E206F66667365743A2531302E2A
:102A7000336625530A00673932792C673932792C4D
:102A800059206F726967696E206F66667365743A64
:102A90002531302E336625530A00673932782C678A
:102AA0003932782C58206F726967696E206F6666BC
:102AB0007365743A2531302E336625530A006D70E4
:102AC0006F632C6D706F632C43206D6163682070A1
:102AD0006F736974696F6E3A2531302E33662553F2
:102AE0000A006D706F622C6D706F622C42206D61F8
:102AF000636820706F736974696F6E3A2531302E88
:102B0000336625530A006D706F612C6D706F612CF8
:102B100041206D61636820706F736974696F6E3AEC
:102B20002531302E336625530A006D706F7A2C6D77
:102B3000706F7A2C5A206D61636820706F736974AE
:102B4000696F6E3A2531302E336625530A006D7059
:102B50006F792C6D706F792C59206D6163682070CE
:102B60006F736974696F6E3A2531302E3366255361
:102B70000A006D706F782C6D706F782C58206D6125
:102B8000636820706F736974696F6E3A2531302EF7
:102B9000336625530A00706F73632C706F73632C58
:102BA0004320706F736974696F6E3A2531352E3327
:102BB0006625530A00706F73622C706F73622C422B
:102BC00020706F736974696F6E3A2531352E3366E4
:102BD00025530A00706F73612C706F73612C412054
:102BE000706F736974696F6E3A2531352E336625BF
:102BF000530A00706F737A2C706F737A2C5A20709E
:102C00006F736974696F6E3A2531352E33662553BB
:102C10000A00706F73792C706F73792C5920706F64
:102C2000736974696F6E3A2531352E336625530A00
:102C300000706F73782C706F73782C5820706F73DE
:102C40006974696F6E3A2531352E336625530A0053
:102C500066726D6F2C66726D6F2C466565642072AE
:102C6000617465206D6F64653A2020202020202546
:102C7000730A00646973742C646973742C446973F7
:102C800074616E6365206D6F64653A20202020209A
:102C9000202025730A00706174682C706174682CA0
:102CA00050617468204D6F64653A202020202020F8
:102CB000202020202025730A00706C616E2C706C1F
:102CC000616E2C506C616E653A20202020202020FF
:102CD000202020202020202025730A006D6F6D6F9A
:102CE0002C6D6F6D6F2C4D6F74696F6E206D6F64FE
:102CF000653A20202020202020202025730A006310
:102D00006F6F722C636F6F722C436F6F7264696E9A
:102D10006174652073797374656D3A202020257382
:102D20000A00756E69742C756E69742C556E697421
:102D3000733A202020202020202020202020202026
:102D40002025730A00686F6C642C686F6C642C46D5
:102D5000656564686F6C642073746174653A2020E3
:102D60002020202025730A006D6F74732C6D6F7402
:102D7000732C4D6F74696F6E2073746174653A20A3
:102D80002020202020202025730A00637963732CE3
:102D9000637963732C4379636C6520737461746524
:102DA0003A20202020202020202025730A006D6159
:102DB00063732C6D6163732C526177206D6163685E
:102DC000696E652073746174653A20202025730A4A
:102DD00000737461742C737461742C4D6163686941
:102DE0006E652073746174653A20202020202020B5
:102DF00025730A00666565642C666565642C466506
:102E0000656420726174653A2531362E3366255328
:102E10002F6D696E0A006C696E652C6C696E652C8D
:102E20004C696E65206E756D6265723A2531302E83
:102E300030660A0076656C2C76656C6F6369747910
:102E40002C56656C6F636974793A2531372E336679
:102E500025532F6D696E0A0073722C73746174753B
:102E6000735F722C0073692C7374617475735F697E
:102E70002C5B73695D20207374617475735F696E78
:102E800074657276616C202020202531302E3066EA
:102E9000206D73205B303D6F66665D0A0069642CAF
:102EA00069642C5B69645D202069645F6465766990
:102EB0006365253136640A0066762C6669726D7723
:102EC0006172655F762C5B66765D20206669726D47
:102ED000776172655F76657273696F6E2531362E24
:102EE00032660A0066622C6669726D776172655F90
:102EF000622C5B66625D20206669726D7761726527
:102F00005F6275696C642531382E32660A00CB2FFA
:102F1000D62FE12FED2FF62F00300A3014301F305E
:102F20002A303530413072308A30A730C730C73050
:102F3000DD30F3300231113120313D314F31683114
:102F40008931B031D031EA3104321E323832523256
:102F50006C32703275327A32803285328A328E32F9
:102F6000933297329F32A632AC32B232B832BD328F
:102F7000C132C532CA32D132D532E732FD320133E5
:102F800005332E000A007200626400736300736DE3
:102F900000627566006C6E00636B730025733A25E2
:102FA000312E33660025733A25312E3066002573A5
:102FB0003A2573000A002C0025312E336600253196
:102FC0002E3066002573000A002C005B6469736173
:102FD000626C65645D005B7374616E646172645DF4
:102FE000005B696E686962697465645D005B72614B
:102FF000646975735D005B736C61766520585D0074
:103000005B736C61766520595D005B736C617665FE
:10301000205A5D005B736C6176652058595D005BDA
:10302000736C61766520585A5D005B736C617665E0
:1030300020595A5D005B736C6176652058595A5D62
:1030400000473934202D20756E6974732D706572B8
:103050002D6D696E757465206D6F64652028692E0D
:10306000652E206665656472617465206D6F6465A8
:103070002900473933202D20696E766572736520EB
:1030800074696D65206D6F646500473930202D20AF
:103090006162736F6C7574652064697374616E63CB
:1030A00065206D6F646500473931202D20696E639E
:1030B00072656D656E74616C2064697374616E63B2
:1030C00065206D6F646500473631202D206578617D
:1030D00063742073746F70206D6F646500473634BD
:1030E000202D20636F6E74696E756F7573206D6F20
:1030F000646500473137202D20585920706C616E6F
:103100006500473138202D20585A20706C616E655B
:1031100000473139202D20595A20706C616E6500AE
:10312000473020202D206C696E65617220747261B9
:10313000766572736520287365656B2900473120B9
:10314000202D206C696E656172206665656400479C
:103150003220202D20636C6F636B7769736520616B
:103160007263206665656400473320202D20636FFD
:10317000756E74657220636C6F636B77697365201D
:10318000617263206665656400473830202D2063D6
:10319000616E63656C206D6F74696F6E206D6F6416
:1031A0006520286E6F6E65206163746976652900FD
:1031B000473533202D206D616368696E6520636F2C
:1031C0006F7264696E6174652073797374656D00E4
:1031D000473534202D20636F6F7264696E617465AA
:1031E0002073797374656D203100473535202D20AB
:1031F000636F6F7264696E6174652073797374654F
:103200006D203200473536202D20636F6F72646960
:103210006E6174652073797374656D203300473572
:1032200037202D20636F6F7264696E61746520733F
:10323000797374656D203400473538202D20636F15
:103240006F7264696E6174652073797374656D2043
:103250003500473539202D20636F6F7264696E61C8
:1032600074652073797374656D2036004F6666004F
:1032700053796E6300506C616E00446563656C0049
:10328000486F6C640053746F700052756E00486F25
:103290006C64004F66660053746172746564004824
:1032A0006F6D696E670050726F626500526573657D
:1032B00074004379636C650053746F7000456E64ED
:1032C0000052756E00486F6C6400486F6D696E67E0
:1032D000004A6F6700473230202D20696E636865B1
:1032E00073206D6F646500473231202D206D696C4D
:1032F0006C696D65746572206D6F64650020696E20
:1033000000206D6D0020646567002A330E334C6F1A
:103310006164696E6720636F6E66696773206672A9
:103320006F6D20454550524F4D003C6E756C6C20C2
:103330006D6573736167653E005B6D6D5D206F6BDE
:103340003E20005B696E63685D206F6B3E200074F9
:10335000696E796700273721371A3715370C37011F
:1033600037F936ED36E136D336BC36AD36A0368C7D
:1033700036743670366C3668366436603651363C94
:103380003627361836143610360C36083604360012
:1033900036FC35F835F435F035EC35E835E435E014
:1033A00035DC35D835C335AB35993580356A35547C
:1033B000353C3524351235F434E034DC34D834D49B
:1033C00034D034CC34C834C434C034BC34AB349777
:1033D000348534703458343C3428341434F933E1AF
:1033E00033417263207370656369666963617469F0
:1033F0006F6E206572726F72004D61782073706914
:103400006E646C65207370656564206578636565BE
:10341000646564004D61782074726176656C206526
:103420007863656564656400486F6D696E672063E5
:1034300079636C65206661696C65640047636F64DD
:1034400065206D6F64616C2067726F75702076699E
:103450006F6C6174696F6E0047636F64652061789B
:10346000697320776F7264206D697373696E67008A
:1034700047636F6465206665656472617465206585
:1034800072726F720047636F646520696E70757445
:10349000206572726F720047636F646520626C6FA3
:1034A000636B20736B6970706564005A65726F207E
:1034B0006C656E677468206D6F7665002335390022
:1034C00023353800233537002335360023353500C2
:1034D00023353400233533002335320023353100C2
:1034E0004F7574206F662062756666657220737012
:1034F000616365004A534F4E20696E707574206891
:10350000617320746F6F206D616E792070616972D4
:1035100073004A534F4E2073796E74617820657240
:10352000726F7200496E7075742076616C756520DB
:10353000756E737570706F7274656400496E707526
:10354000742076616C75652072616E6765206572A6
:10355000726F7200496E7075742076616C756520AB
:10356000746F6F206C6172676500496E70757420AE
:1035700076616C756520746F6F20736D616C6C0083
:10358000496E7075742065786365656473206D613C
:1035900078206C656E67746800426164206E756D9A
:1035A00062657220666F726D617400457870656344
:1035B00074656420636F6D6D616E64206C657474F6
:1035C000657200556E7265636F676E697A65642017
:1035D000636F6D6D616E64002333390023333800EF
:1035E00023333700233336002333350023333400AD
:1035F00023333300233332002333310023333000AD
:103600002332390023323800233237002332360088
:1036100023323500233234004469766964652062C0
:1036200079207A65726F00466C6F6174696E6720ED
:10363000706F696E74206572726F7200496E746586
:10364000726E616C2072616E6765206572726F7256
:1036500000496E7465726E616C206572726F7200E3
:10366000233139002331380023313700233136002C
:10367000233135004275666665722066756C6C2074
:103680002D206E6F6E2D666174616C0042756666EA
:1036900065722066756C6C202D20666174616C000B
:1036A00042756666657220656D707479004E6F2094
:1036B0007375636820646576696365004D61782081
:1036C00066696C652073697A6520657863656564F1
:1036D00065640046696C65206E6F74206F70656E5E
:1036E00000456E64206F662066696C6500456E64F7
:1036F000206F66206C696E650041626F727465644C
:10370000005465726D696E6174656400436F6D701D
:103710006C657465004E6F6F700045616761696E1E
:10372000004572726F72004F4B00456E64206F66E9
:1037300020636F6D6D616E642066696C650A00259B
:103740005325530025532553006572726F723A203A
:1037500025533A202573200A00232323232054696C
:103760006E79472048656C7020232323230A005478
:103770006865736520636F6D6D616E64732061723F
:1037800065206163746976652066726F6D20746868
:103790006520636F6D6D616E64206C696E653A0AB9
:1037A000205E78202020202041626F7274202863E0
:1037B0006F6E74726F6C207829202D20726573658E
:1037C00074732045564552595448494E47210A20A2
:1037D000203F20202020204D616368696E652070A5
:1037E0006F736974696F6E20616E642067636F64C4
:1037F00065206D6F64656C2073746174650A2020A8
:1038000024202020202053686F7720616E6420736D
:10381000657420636F6E66696775726174696F6E37
:103820002073657474696E67730A2020212020203C
:10383000202046656564686F6C64202D2073746F6A
:1038400070206D6F74696F6E20776974686F75741E
:10385000206C6F73696E6720706F736974696F6E27
:103860000A20207E20202020204379636C6520538D
:1038700074617274202D2072657374617274206695
:10388000726F6D2066656564686F6C640A202068DD
:10389000202020202053686F772074686973206887
:1038A000656C702073637265656E0A202024682041
:1038B00020202053686F7720636F6E66696775728A
:1038C0006174696F6E2068656C70207363726565E2
:1038D0006E0A20202474657374204C6973742073FD
:1038E000656C662D74657374730A202024646566A4
:1038F00061756C74733D3120526573746F7265200D
:10390000616C6C2073657474696E677320746F20CA
:1039100022666163746F7279222064656661756CDA
:1039200074730A000A4E6F74653A2054696E7947C1
:103930002067656E657261746573206175746F6D63
:103940006174696320737461747573207265706F3C
:103950007274732062792064656661756C740A54B0
:103960006869732063616E206265206469736162B7
:103970006C656420627920656E746572696E67207B
:103980002473693D300A5365652074686520776942
:103990006B692062656C6F7720666F72206D6F7245
:1039A000652064657461696C732E0A000A466F7243
:1039B0002064657461696C65642054696E79472080
:1039C000696E666F207365653A20687474703A2F6B
:1039D0002F7777772E73796E746865746F732E63A3
:1039E0006F6D2F77696B692F696E6465782E7068CB
:1039F000703F7469746C653D50726F6A656374736F
:103A00003A54696E79470A466F7220746865206C73
:103A10006174657374206669726D77617265207375
:103A200065653A2068747470733A2F2F67697468FB
:103A300075622E636F6D2F73796E746865746F7322
:103A40002F54696E79470A506C65617365206C6FFD
:103A50006720616E792069737375657320617420C6
:103A6000687474703A2F2F7777772E73796E746835
:103A700065746F732E636F6D2F666F72756D730A49
:103A8000486176652066756E0A002323232320543F
:103A9000696E794720434F4E464947555241544934
:103AA0004F4E2048656C7020232323230A0054685E
:103AB00065736520636F6D6D616E647320617265FF
:103AC0002061637469766520666F7220636F6E662D
:103AD000696775726174696F6E3A0A202024737980
:103AE000732053686F772073797374656D2028672E
:103AF000656E6572616C292073657474696E677395
:103B00000A2020243120202053686F77206D6F74A5
:103B10006F7220312073657474696E677320286F2B
:103B200072207768617465766572206D6F746F724C
:103B300020796F752077616E7420312C322C332CF4
:103B400034290A2020247820202053686F772058B9
:103B500020617869732073657474696E67732028B7
:103B60006F72207768617465766572206178697319
:103B700020796F752077616E7420782C792C7A2CDF
:103B8000612C622C63290A2020246D202020536898
:103B90006F7720616C6C206D6F746F722073657429
:103BA00074696E67730A2020246E20202053686F8A
:103BB0007720616C6C206178697320736574746917
:103BC0006E67730A2020242420202053686F7720FA
:103BD000616C6C2073657474696E67730A202024AD
:103BE0006820202053686F772074686973206865A7
:103BF0006C702073637265656E0A0A0045616368C4
:103C0000202420636F6D6D616E642061626F766544
:103C100020616C736F20646973706C6179732074B8
:103C2000686520746F6B656E20666F7220656163D6
:103C3000682073657474696E6720696E205B205D0F
:103C400020627261636B6574730A546F20766965D4
:103C5000772073657474696E677320656E7465721E
:103C6000206120746F6B656E3A0A0A2020243C7430
:103C70006F6B656E3E0A0A466F72206578616D70E3
:103C80006C65202479667220746F20646973706C8F
:103C90006179207468652059206D617820666565BA
:103CA0006420726174650A0A546F207570646174CF
:103CB000652073657474696E677320656E746572D0
:103CC00020746F6B656E20657175616C7320766111
:103CD0006C75653A0A0A2020243C746F6B656E3E51
:103CE0003D3C76616C75653E0A0A466F72206578C8
:103CF000616D706C6520247966723D3830302074B7
:103D00006F20736574207468652059206D61782078
:103D100066656564207261746520746F2038303088
:103D2000206D6D2F6D696E7574650A002323232342
:103D30002054696E79472053454C462054455354CE
:103D40002048656C7020232323230A00496E766F78
:103D50006B652073656C66207465737420627920CE
:103D6000656E746572696E672024746573743D4E68
:103D7000207768657265204E206973206F6E65201C
:103D80006F663A0A202024746573743D31202073D5
:103D90006D6F6B6520746573740A202024746573DD
:103DA000743D3220206D6F74696F6E20746573747A
:103DB000202020286120736572696573206F66205A
:103DC00073717561726520616E6420636972636CE2
:103DD00065206D6F766573290A20202474657374DD
:103DE0003D3320206172632074657374202020208D
:103DF000202028736F6D65206C6172676520636990
:103E000072636C6573290A202024746573743D34D1
:103E100020206477656C6C207465737420202020EA
:103E2000286D6F76657320737061636564206279B5
:103E30002031207365636F6E64206477656C6C73EA
:103E4000290A202024746573743D352020686F6D25
:103E5000696E67207465737420202028796F75203F
:103E60006D757374207472697020686F6D696E6708
:103E7000207377697463686573290A202024746548
:103E800073743D36202066656564686F6C642074C9
:103E90006573742028656E746572202120616E64DC
:103EA000207E20746F20686F6C6420616E642072C5
:103EB0006573746172742C207265737065637469C4
:103EC00076656C79290A202024746573743D372047
:103ED000204D20636F6465732074657374202028FF
:103EE0004D20636F64657320696E7465726D696ED1
:103EF000676C65642077697468206D6F76657329D7
:103F00000A202024746573743D3820204A534F4E94
:103F100020746573742020202020286D6F74696FD1
:103F20006E20746573742072756E207573696E6788
:103F3000204A534F4E20636F6D6D616E6473290A82
:103F4000202024746573743D392020696E76657273
:103F500073652074696D6520746573740A2020246C
:103F6000746573743D313020726F74617279206DA5
:103F70006F74696F6E20746573740A0023232323A2
:103F80002054696E794720524553544F524520447E
:103F9000454641554C54532048656C7020232323DB
:103FA000230A00456E746572202464656661756C31
:103FB00074733D3120746F2072657365742074686A
:103FC000652073797374656D20746F207468652043
:103FD000666163746F72792064656661756C7420C4
:103FE00076616C7565732E0A546869732077696C05
:103FF0006C206F766572777269746520616E7920C6
:104000006368616E67657320796F75206861766596
:10401000206D6164652E0A002A2A2A657865635F2F
:10402000616C696E6528292A2A2A204C494E452050
:10403000544F4F2053484F5254204C3A25660A00A3
:104040005F63616C63756C6174655F7472617065E8
:104050007A6F69642829206661696C656420746FD1
:1040600020636F6E7665726765007372004E312053
:1040700054314D360A4E32204731370A4E332047ED
:1040800032310A4E382046313830300A4E39204716
:10409000310A4E3130302047393220582D32352EFA
:1040A000313737592D33342E303732205A2D312EB7
:1040B000303030202854454D502C2052454D4F561D
:1040C00045204C41544552290A4E33343320582D53
:1040D00032352E353935592D33342E3334390A4E95
:1040E00033343420582D32352E373031592D333476
:1040F0002E3433360A4E33343520582D32352E3790
:104100003931592D33342E3532300A4E333436207E
:10411000582D32352E383634592D33342E36303131
:104120000A4E33343720582D32352E393230592D3E
:1041300033342E3637390A4E33343820582D323541
:104140002E393630592D33342E3735340A4E333428
:104150003920582D32352E393832592D33342E38F6
:1041600032360A4E33353020582D32352E39383715
:10417000592D33342E3839350A4E33353120582DE8
:1041800032352E393736592D33342E3936310A4EE1
:1041900033353220582D32352E393438592D3335B8
:1041A0002E3032330A4E33353320582D32352E39E6
:1041B0003033592D33352E3038320A4E33353420D2
:1041C000582D32352E383431592D33352E31333880
:1041D0000A4E33353520582D32352E373633592D8A
:1041E00033352E3139300A4E33353620582D32359D
:1041F0002E363639592D33352E3233390A4E333572
:104200003720582D32352E353539592D33352E324C
:1042100038340A4E33353820582D32352E34333366
:10422000592D33352E3332350A4E33353920582D3A
:1042300032352E323931592D33352E3336330A4E3D
:1042400033363020582D32352E313334592D333515
:104250002E3339370A4E33363120582D32342E3929
:104260003633592D33352E3432380A4E3336322018
:10427000582D32342E373737592D33352E343535C6
:104280000A4E33363320582D32342E353737592DD8
:1042900033352E3437370A4E33363420582D3234E6
:1042A0002E333637592D33352E3439360A4E3336C0
:1042B0003520582D32342E313434592D33352E35A6
:1042C00031310A4E33363620582D32332E393039BB
:1042D000592D33352E3532320A4E33363720582D8C
:1042E00032332E363631592D33352E3532390A4E8A
:1042F00033363820582D32332E343033592D333560
:104300002E3533320A4E33363920582D32332E3182
:104310003333592D33352E3533320A4E333730206F
:10432000582D32322E383533592D33352E3532371C
:104330000A2F4E3235313820473058302E3332373D
:10434000592D33332E3532315A2D312E3030300A3B
:104350004E32353139204D3330004E312047323026
:104360000A4E3520473430204731370A4E3130204D
:104370005431204D30360A284E313520473930200F
:104380004730205830205930205A30290A4E3230D8
:10439000205335303030204D3033200A4E32352016
:1043A00058302E3036342059302E333236205A30A1
:1043B0000A4E343020473031204631362E300A4EF6
:1043C00035302058302E3036342059302E333236A6
:1043D0000A4E35352058302E3036302059302E32A6
:1043E00039330A4E36302058302E30373720593086
:1043F0002E3236370A4E36352058302E31313120A4
:1044000059302E3235370A4E37302058302E31345D
:10441000392059302E3235320A4E37352058302E59
:104420003138382059302E3235350A4E3830205840
:10443000302E3232372059302E3236380A4E383547
:104440002058302E3235372059302E3237310A4E2F
:1044500039302058302E3333352059302E3236350E
:104460000A4E39352058302E3431322059302E3210
:1044700037310A4E3130302058302E3437342059FD
:10448000302E3238370A4E3130352058302E3439FC
:10449000312059302E3238390A4E313130205830DF
:1044A0002E3531372059302E3237330A4E313135DF
:1044B0002058302E3534342059302E3236330A4EBF
:1044C0003132302058302E3538302059302E3236A7
:1044D000310A4E3132352058302E35393520593099
:1044E0002E3236330A4E3133302058302E363231A8
:1044F0002059302E3237340A4E3133352058302E81
:104500003635392059302E3330360A4E313430208A
:1045100058302E3637332059302E3333350A4E314A
:1045200034352058302E3637392059302E33363135
:104530000A4E3135302058302E3637382059302E3B
:104540003338390A4E3135352058302E3637302041
:1045500059302E3432300A4E3136302058302E3613
:1045600037302059302E3434360A4E313635205803
:10457000302E3638302059302E3437340A4E313709
:10458000302058302E3730342059302E3439370A05
:104590004E3137352058302E3733322059302E35B2
:1045A00031350A4E3138302058302E3739342059C1
:1045B000302E3533350A4E3138352058302E3837C5
:1045C000322059302E3536370A4E313930205830A6
:1045D0002E3935302059302E3630340A4E313935A7
:1045E0002058312E3033312059302E3634370A4E90
:1045F0003230302058312E3134392059302E373274
:10460000320A4E3230352058312E3330382059306E
:104610002E3835340A4E3231302058312E34333072
:104620002059302E3938340A4E3231352058312E47
:104630003434372059302E3938360A4E3232302051
:1046400058312E3632382059302E3832320A4E3216
:1046500032352058312E3733322059302E3731340D
:104660000A4E3233302058322E3030392059302E15
:104670003338310A4E3233352058322E313136201C
:1046800059302E3236360A4E3234302058322E32DD
:1046900032382059302E3135370A4E3234352058D1
:1046A000322E3238302059302E3132330A4E3235E4
:1046B000302058322E3333322059302E3039340ADC
:1046C0004E3235352058322E3432332059302E3088
:1046D00037300A4E3236302058322E34383920598D
:1046E000302E3036350A4E3236352058322E35359A
:1046F000372059302E3036360A4E32373020583275
:104700002E3632372059302E3038340A4E32373573
:104710002058322E3639332059302E3130390A4E56
:104720003238302058322E3733302059302E313342
:10473000330A4E3238352058322E38303520593031
:104740002E3139300A4E3239302058322E38323933
:104750002059302E3231360A4E3239352058322E19
:104760003838302059302E3239310A4E333030202B
:1047700058322E3838342059302E3330300A4E33E8
:1047800030352058322E3839382059302E333332D4
:104790000A4E3331302058322E3930352059302EE0
:1047A0003336370A4E3331352058322E39313020E6
:1047B00059302E3430370A4E3332302058322E39A9
:1047C00030382059302E3434360A4E3332352058A2
:1047D000322E3930312059302E3439350A4E3333A8
:1047E000302058322E3839372059302E3439350A96
:1047F0004E3333352058322E3839302059302E354B
:1048000032340A4E3334302058322E383432205964
:10481000302E3630340A4E3334352058322E38316B
:10482000342059302E3636350A4E33353020583242
:104830002E3739342059302E3735300A4E3335353E
:104840002058322E3739312059302E3833380A4E1D
:104850003336302058322E3831392059302E3937FE
:10486000360A4E3336352058322E383337205931F8
:104870002E3034340A4E3337302058322E38363208
:104880002059312E3131320A4E3337352058322EED
:104890003837372059312E3134350A4E33383020ED
:1048A00058322E3931322059312E3231370A4E33B7
:1048B00038352058322E3931372059312E323236A0
:1048C0000A4E3339302058322E3935312059312EA5
:1048D0003238310A4E3339352058322E39373020AC
:1048E00059312E3239350A4E3430302058322E3973
:1048F00039362059312E3239350A4E343035205868
:10490000332E3031332059312E3237350A4E34317F
:10491000302058332E3032342059312E3235340A7B
:104920004E3431352058332E3037302059312E3126
:1049300035310A4E3432302058332E303737205933
:10494000312E3133340A4E3432352058332E313241
:10495000352059312E3033390A4E34333020583314
:104960002E3133382059312E3031390A4E34333517
:104970002058332E3230352059302E3930380A4EF7
:104980003434302058332E3238322059302E3739D3
:10499000370A4E3434352058332E333631205930CF
:1049A0002E3639310A4E3435302058332E343236D3
:1049B0002059302E3539320A4E3435352058332EB1
:1049C0003435362059302E3534330A4E34363020C3
:1049D00058332E3437392059302E3439330A4E3477
:1049E00036352058332E3439342059302E3437326E
:1049F0000A4E3437302058332E3530352059302E7A
:104A00003434360A4E3437352058332E3531382079
:104A100059302E3431370A4E3438302058332E3541
:104A200033302059302E3339310A4E34383520583E
:104A3000332E3536342059302E3330300A4E343947
:104A4000302058332E3537372059302E3235330A3F
:104A50004E3439352058332E3536382059302E32E1
:104A600031320A4E3530302058332E353434205907
:104A7000302E3137360A4E3530352058332E353406
:104A8000312059302E3134360A4E353130205833EA
:104A90002E3535332059302E3131390A4E353135E6
:104AA0002058332E3537362059302E3130360A4EC5
:104AB0003532302058332E3539372059302E3130A9
:104AC000320A4E3532352058332E3631382059309F
:104AD0002E3130390A4E3533302058332E363339A3
:104AE0002059302E3132390A4E3533352058332E85
:104AF0003635302059302E3135390A4E3534302094
:104B000058332E3636332059302E3137380A4E3549
:104B100034352058332E3637382059302E3139323B
:104B20000A4E3535302058332E3639392059302E3B
:104B30003139370A4E3535352058332E3732332048
:104B400059302E3139360A4E3536302058332E370B
:104B500036342059302E3137390A4E353635205803
:104B6000332E3830352059302E3136350A4E353710
:104B7000302058332E3838342059302E3135390A08
:104B80004E3537352058332E3934392059302E31AF
:104B900036350A4E3538302058332E3936362059BE
:104BA000302E3137350A4E3538352058332E3937C7
:104BB000382059302E3139340A4E353930205833A7
:104BC0002E3937382059302E3232330A4E353935A6
:104BD0002058332E3936302059302E3234350A4E93
:104BE0003630302058332E3833342059302E33317C
:104BF000310A4E3630352058332E37363220593070
:104C00002E3334350A4E3631302058332E37323673
:104C10002059302E3338390A4E3631352058332E4C
:104C20003730332059302E3435380A4E3632302062
:104C300058332E3638322059302E3533300A4E361E
:104C400032352058332E3637392059302E3533340B
:104C50000A4E3633302058332E3632362059302E15
:104C60003638310A4E3633352058332E3536382013
:104C700059302E3832380A4E3634302058332E34DC
:104C800034342059312E3038300A4E3634352058DD
:104C9000332E3430352059312E3136370A4E3635E1
:104CA000302058332E3430342059312E3136370AE3
:104CB0004E3635352058332E3338372059312E3281
:104CC00030380A4E3636302058332E333834205997
:104CD000312E3230380A4E3636352058332E3336A0
:104CE000352059312E3236350A4E3637302058337A
:104CF0002E3335352059312E3238350A4E36373578
:104D00002058332E3334382059312E3330380A4E60
:104D10003638302058332E3333332059312E333543
:104D2000300A4E3638352058332E3332312059313F
:104D30002E3339310A4E3639302058332E33313143
:104D40002059312E3432380A4E3639352058332E18
:104D50003333392059312E3432330A4E3730302034
:104D600058332E3434302059312E3430360A4E37F1
:104D700030352058332E3531302059312E343038EB
:104D80000A4E3731302058332E3538352059312EE0
:104D90003432310A4E3731352058332E36313120F6
:104DA00059312E3433390A4E3732302058332E36AB
:104DB00031312059312E3434310A4E3732352058B2
:104DC000332E3631352059312E3434310A4E3733B3
:104DD000302058332E3633362059312E3438380AA5
:104DE0004E3733352058332E3633342059312E3553
:104DF00031370A4E3734302058332E36323220596C
:104E0000312E3534330A4E3734352058332E363070
:104E1000352059312E3536330A4E37353020583348
:104E20002E3537362059312E3537350A4E37353540
:104E30002058332E3534342059312E3538310A4E2E
:104E40003736302058332E3437392059312E353902
:104E5000320A4E3736352058332E34353120593109
:104E60002E3539380A4E3737302058332E333837FD
:104E70002059312E3632360A4E3737352058332EE8
:104E80003339302059312E3633360A4E37383020F8
:104E900058332E3533322059312E3630320A4E37C0
:104EA00038352058332E3630312059312E353937A8
:104EB0000A4E3739302058332E3636382059312EA5
:104EC0003539380A4E3739352058332E37383220A5
:104ED00059312E3631320A4E3830302058332E3781
:104EE00039342059312E3631380A4E383035205871
:104EF000332E3836382059312E3633360A4E383173
:104F0000302058332E3931382059312E3635350A74
:104F10004E3831352058332E3934352059312E361C
:104F200036370A4E3832302058332E39363420592D
:104F3000312E3638350A4E3832352058332E393630
:104F4000372059312E3638350A4E38333020583311
:104F50002E3937342059312E3639390A4E38333507
:104F60002058332E3938342059312E3732350A4EF5
:104F70003834302058332E3938342059312E3735D3
:104F8000380A4E3834352058332E393730205931CD
:104F90002E3739300A4E3835302058332E393435D3
:104FA0002059312E3831370A4E3835352058332EB6
:104FB0003931382059312E3832360A4E38363020C1
:104FC00058332E3839312059312E3832370A4E387D
:104FD00036352058332E3834322059312E38303976
:104FE0000A4E3837302058332E3739382059312E71
:104FF0003738340A4E3837352058332E3734362078
:1050000059312E3737320A4E3838302058332E3641
:1050100039382059312E3736340A4E383835205831
:10502000332E3633352059312E3736360A4E38393D
:10503000302058332E3535332059312E3738350A44
:105040004E3839352058332E3437382059312E38E0
:1050500032300A4E3930302058332E34303920590E
:10506000312E3836340A4E3930352058332E333409
:10507000352059312E3931380A4E393130205833E4
:105080002E3236342059322E3032330A4E393135F1
:105090002058332E3234382059322E3035310A4ED2
:1050A0003932302058332E3234302059322E3038B5
:1050B000310A4E3932352058332E333136205932A9
:1050C0002E3038360A4E3933302058332E333930AB
:1050D0002059322E3130340A4E3933352058332E90
:1050E0003431342059322E3132310A4E39343020A5
:1050F00058332E3433312059322E3135330A4E395C
:1051000034352058332E3433332059322E31383051
:105110000A4E3935302058332E3432372059322E4A
:105120003230350A4E3935352058332E343133205C
:1051300059322E3232340A4E3936302058332E331B
:1051400039322059322E3234320A4E39363520580F
:10515000332E3333352059322E3234340A4E393718
:10516000302058332E3237382059322E3233360A17
:105170004E3937352058332E3235362059322E32BB
:1051800034320A4E3938302058332E3233392059D0
:10519000322E3235310A4E3938352058332E3231DD
:1051A000312059322E3238300A4E393930205833B6
:1051B0002E3137342059322E3335360A4E393935AF
:1051C0002058332E3135392059322E3339370A4E93
:1051D000313030302058332E3135302059322E3492
:1051E00033380A4E313030352058332E31343020A8
:1051F00059322E3438310A4E313031302058332E66
:105200003133322059322E3531300A4E313031357A
:105210002058332E3131382059322E3534330A4E4E
:10522000313032302058332E3039392059322E3532
:1052300037360A4E313032352058332E3035312052
:1052400059322E3633310A4E313033302058332E16
:105250003030332059322E3636360A4E313033351F
:105260002058322E3935372059322E3638350A4EED
:10527000313034302058322E3930372059322E36E2
:1052800039390A4E313034352058322E38363020F4
:1052900059322E3731310A4E313035302058322EC6
:1052A0003831392059322E3732370A4E31303535C0
:1052B0002058322E3736382059322E3734350A4EA0
:1052C000313036302058322E3731362059322E3791
:1052D00035370A4E313036352058322E36373520A4
:1052E00059322E3735370A4E313037302058322E6A
:1052F0003537392059322E3733310A4E3130373570
:105300002058322E3537302059322E3732330A4E5C
:10531000313038302058322E3535392059322E3739
:1053200032300A4E313038352058322E3533302065
:1053300059322E3730310A4E313039302058322E22
:105340003530312059322E3639330A4E3130393525
:105350002058322E3437312059322E3638330A4E07
:10536000313130302058322E3434332059322E36F9
:1053700036380A4E313130352058322E3339362006
:1053800059322E3633340A4E313131302058322ED4
:105390003335342059322E3539310A4E31313135D9
:1053A0002058322E3335322059322E3539310A4EBB
:1053B000313132302058322E3332352059322E35A9
:1053C00034330A4E313132352058322E33313520C4
:1053D00059322E3532310A4E313133302058322E87
:1053E0003330372059322E3439380A4E3131333583
:1053F0002058322E3239362059322E3436340A4E65
:10540000313134302058322E3239332059322E3453
:1054100032370A4E313134352058322E3239352068
:1054200059322E3336360A4E313135302058322E2D
:105430003332312059322E3330330A4E3131353543
:105440002058322E3335382059322E3234370A4E16
:10545000313136302058322E3431392059322E3203
:1054600030330A4E313136352058322E343139201E
:1054700059322E3137390A4E313137302058322ED9
:105480003430352059322E3135380A4E31313735E6
:105490002058322E3336322059322E3132330A4ED2
:1054A000313138302058322E3335342059322E31B4
:1054B00030340A4E313138352058322E33353420CD
:1054C00059322E3039310A4E313139302058322E8E
:1054D0003338302059322E3036350A4E3131393595
:1054E0002058322E3431302059322E3035310A4E88
:1054F000313230302058322E3431302059322E3073
:1055000034370A4E313230352058322E343035207F
:1055100059322E3032380A4E313231302058322E44
:105520003430382059322E3031300A4E3132313554
:105530002058322E3431362059312E3939350A4E21
:10554000313232302058322E3433332059312E3913
:1055500038320A4E313232352058322E3433382028
:1055600059312E3936330A4E313233302058322EEB
:105570003434372059312E3934380A4E31323335EC
:105580002058322E3436312059312E3933380A4ED4
:10559000313234302058322E3438302059312E39BF
:1055A00033310A4E313234352058322E34373820D8
:1055B00059312E3839390A4E313235302058322E91
:1055C0003438372059312E3837350A4E3132353597
:1055D0002058322E3530342059312E3835340A4E89
:1055E000313236302058322E3532372059312E386C
:1055F00034380A4E313236352058322E353439207F
:1056000059312E3834390A4E313237302058322E43
:105610003537372059312E3836310A4E3132373549
:105620002058322E3630342059312E3836360A4E34
:10563000313238302058322E3633312059312E381D
:1056400035340A4E313238352058322E3634302037
:1056500059312E3832370A4E313239302058322EF5
:105660003634302059312E3739320A4E31323935FD
:105670002058322E3632392059312E3735390A4EDC
:10568000313330302058322E3631322059312E37D6
:1056900032370A4E313330352058322E35373620E6
:1056A00059312E3639340A4E313331302058322EAA
:1056B0003533362059312E3636320A4E31333135B4
:1056C0002058322E3437302059312E3631360A4E9A
:1056D000313332302058322E3334352059312E3583
:1056E00035310A4E313332352058322E333037209F
:1056F00059312E3532310A4E313333302058322E63
:105700003236302059312E3438320A4E3133333567
:105710002058322E3234332059312E3437370A4E46
:10572000313334302058322E3232382059312E3431
:1057300036390A4E313334352058322E3232322047
:1057400059312E3434380A4E313335302058322E08
:105750003232382059312E3432350A4E3133353514
:105760002058322E3235342059312E3430350A4EFD
:10577000313336302058322E3236382059312E33DC
:1057800037330A4E313336352058322E32373920EE
:1057900059312E3334320A4E313337302058322EBD
:1057A0003330382059312E3238370A4E31333735BD
:1057B0002058322E3334302059312E3235340A4EAF
:1057C000313338302058322E3430372059312E3290
:1057D00030310A4E313338352058322E34343120AE
:1057E00059312E3135360A4E313339302058322E68
:1057F0003435342059312E3133310A4E3133393575
:105800002058322E3436302059312E3130360A4E5F
:10581000313430302058322E3436342059312E3144
:1058200030320A4E313430352058322E3437312060
:1058300059312E3033360A4E313431302058322E21
:105840003436362059302E3937310A4E313431351D
:105850002058322E3435312059302E3839370A4EFF
:10586000313432302058322E3431352059302E37F1
:1058700039310A4E313432352058322E343033200B
:1058800059302E3736370A4E313433302058322EC5
:105890003338382059302E3736350A4E31343335C7
:1058A0002058322E3330362059302E3834310A4EBB
:1058B000313434302058322E3232322059302E39A1
:1058C00031310A4E313434352058322E31313420C2
:1058D00059302E3939350A4E313435302058322E70
:1058E0003030322059312E3037360A4E313435358A
:1058F0002058312E3930352059312E3133390A4E66
:10590000313436302058312E3735342059312E324B
:1059100032330A4E313436352058312E3633372063
:1059200059312E3237380A4E313437302058312E23
:105930003538322059312E3330310A4E3134373533
:105940002058312E3535382059312E3331350A4E15
:10595000313438302058312E3436302059312E33FE
:1059600035320A4E313438352058312E333939200A
:1059700059312E3336300A4E313439302058312ED9
:105980003333382059312E3335340A4E31343935DA
:105990002058312E3238372059312E3332390A4EC1
:1059A000313530302058312E3234382059312E32B2
:1059B00039340A4E313530352058312E32313720C6
:1059C00059312E3235340A4E313531302058312E8E
:1059D0003231342059312E3235320A4E313531359B
:1059E0002058312E3137322059312E3139350A4E77
:1059F000313532302058312E3132382059312E3164
:105A000033390A4E313532352058312E313130207C
:105A100059312E3131370A4E313533302058302E3E
:105A20003935382059302E3934310A4E3135333535
:105A30002058302E3839312059302E3837330A4E1D
:105A4000313534302058302E3832352059302E3808
:105A500030380A4E313534352058302E3735352020
:105A600059302E3734370A4E313535302058302EE4
:105A70003631392059302E3633330A4E31353535EB
:105A80002058302E3437372059302E3532360A4ED2
:105A9000313536302058302E3437372059302E35B6
:105AA00032340A4E313536352058302E34313120DB
:105AB00059302E3437360A4E313537302058302E93
:105AC0003333312059302E3435340A4E31353735A1
:105AD0002058302E3237382059302E3432370A4E83
