:100000000C9401360C9422360C9422360C94223631
:100010000C9422360C9422360C9422360C94223600
:100020000C9422360C9422360C9422360C94EC89D3
:100030000C9422360C9422360C9470860C94223642
:100040000C9422360C9422360C9422360C942236D0
:100050000C9422360C9422360C9422360C942236C0
:100060000C9422360C94848D0C94288D0C9422369A
:100070000C9478910C941B910C9455910C9422360D
:100080000C94758A0C9422360C9422360C942236E9
:100090000C9422360C9422360C9422360C94223680
:1000A0000C9422360C9422360C9422360C948A65D9
:1000B0000C9432660C9422360C9422360C940386EF
:1000C0000C9422360C9422360C9422360C94223650
:1000D0000C9422360C9422360C9422360C94223640
:1000E0000C9474950C9422360C9422360C9422367F
:1000F0000C9422360C9422360C9422360C94223620
:100100000C94B4650C945C660C9436650C94DE65B6
:100110000C9422360C9422360C9422360C942236FF
:100120000C9422360C9422360C9422360C942236EF
:100130000C9422360C942E860C9422360C94223683
:100140000C9422360C9422360C9422360C942236CF
:100150000C9422360C9422360C946A950C94223618
:100160000C9422360C9422360C9422360C942236AF
:100170000C9422360C9422360C9422360C9422369F
:100180000C9422360C9422360C9422360C9422368F
:100190000C9422360C9422360C9422360C9422367F
:1001A0000C9460650C9408660C9422360C942236EC
:1001B0000C94E2840C9422360C9422360C94223651
:1001C0000C9422360C9422360C9422360C9422364F
:1001D0000C9422360C9422360C9422360C9422363F
:1001E0000C9422360C942236C762DC62F162D06431
:1001F000D06449629D60D06406631B6330637063A2
:10020000D3615A63D0645E62D064456373623C62BA
:10021000D064D064D06488629D62B262084AD73BE1
:100220003BCE016E84BCBFFDC12F3D6C74319ABDC5
:1002300056833DDA3D00C77F11BED9E4BB4C3E91E9
:100240006BAAAABE000000803F05A84CCDB2D44ED8
:10025000B93836A9020C50B9918688083CA6AAAADA
:100260002ABE000000803F07634236B79BD8A71A1A
:1002700039685618AEBAAB558C1D3CB7CC5763BD28
:100280006DEDFD753EF6177231BF000000803F082E
:10029000000000BE922449123EABAAAA2ABECDCCD1
:1002A000CC4C3E00000080BEABAAAAAA3E000000D3
:1002B00000BF000000803F0000000000084178D32C
:1002C000BB4387D1133D190E3CC3BD4282AD2B3ECB
:1002D00068EC8276BED98FE1A93E4C80EFFFBE016B
:1002E000C4FF7F3F00000000006E616E00696E6613
:1002F000004B31804F914AF7493F313333733F7799
:1003000031804F914AF7494331D783AA4330313F77
:100310004FB949F749473100000000F830804F726B
:100320004ABB49223400004843EB30FC4CF84C31C6
:1003300058473100000000A9303F4FE94C144A6B88
:1003400030000000008730F54EEB4BF74947310095
:100350000000006430C34EDC4CF749473100000018
:10036000004130C34ECF4CF7494731000000001E1A
:1003700030C34EC24CF749473100000000FB2FC389
:100380004EB54CF749473100000000D82FC34EA8A6
:100390004CF749473100000000C730F54E874CF755
:1003A00049473100000000B52FC34EDE4BF74947E7
:1003B0003100000000922FC34E7A4CF749473100BC
:1003C0000000006F2FC34E6D4CF74947310000000D
:1003D000004C2FC34E604CF7494731000000002904
:1003E0002FC34E534CF749473100000000062FC37E
:1003F0004E464CF749473100000000E32EC34E390A
:100400004CF749473100000000C42E704E264CF7CF
:1004100049473100000000A52E704E264CF7494791
:100420003100000000862E704E264CF749473100FF
:10043000000000672E704E264CF74947310000003F
:1004400000482E704E264CF7494731000000002925
:100450002E704E264CF749473100000000052E70E3
:100460004E134CF749473100000000E12D704E1348
:100470004CF749473100000000BD2D704E134CF77A
:1004800049473100000000992D704E134CF7494741
:100490003100000000752D704E134CF749473100B4
:1004A000000000512D704E134CF7494731000000F9
:1004B000002D2DF54EEB4BF7499F30000000000951
:1004C0002DF54EEB4BF749A33000000000E52CF56D
:1004D0004EEB4BF749A73000000000C12C2C4E9189
:1004E0004AF749AB30000000009D2C2C4E914AF792
:1004F00049AF3000000000792C2C4E914AF749B3E7
:100500003000000000672CD767534A50894B3100F8
:10051000000000702CA2674E4AF7494731000000E6
:10052000005E2CF8674E4A1959473100000000520E
:100530002CC34E4E4AF7494731000000001E2CF2F2
:100540004D534AF949193400000000EC2BF24D5389
:100550004AF9491A340000803FBA2BF24D534AF948
:100560004918340000803F862BF24D534AF9491B4D
:100570003400000040542BF24D534AF9491C34001A
:10058000000000472BB24AB34A064C473100000036
:10059000001B2BF54EEB4B4F4D13340050C347EF70
:1005A0002AF54EEB4B4F4D07340AD7A33DC32AF52E
:1005B0004EEB4B4F4D0B34CDCCCC3D942AF54E91A8
:1005C0004A324A0F3400409C45592AF24D534A01A1
:1005D000581D34000000002A2AF24D534AE4571EE9
:1005E0003400000000FB29F24D534AC7571F340066
:1005F00000803FCC29F24D534AAA57203400008096
:100600003F9D29F24D534AF94921340000803F6A49
:1006100029F24D534AF949F8340000000042292CD0
:100620004E914A424DFC346666E63F1029F54EEB8A
:100630004B8D4D00358D175842E128F24D534ACC71
:1006400053F93400000041B628F24D534ABD4BFA2D
:10065000340000803F8628F24D534AF949FB3400AC
:1006600000803F5328F24D534AF949083500008075
:100670003F2B282C4E914A424D0C356666E63FF9D9
:1006800027F54EEB4B8D4D103589410942CA27F2B3
:100690004D534ACC530935000000419F27F24D537A
:1006A0004ABD4B0A350000803F6F27F24D534AF98F
:1006B000490B350000803F3C27F24D534AF9491859
:1006C000350000004014272C4E914A424D1C350045
:1006D000007041E226F54EEB4B8D4D203531081C64
:1006E00040B326F24D534ACC531935000080408860
:1006F00026F24D534ABD4B1A350000803F5826F272
:100700004D534AF9491B350000803F2526F24D53D1
:100710004AF949283500004040FD252C4E914A42B7
:100720004D2C356666E63FCB25F54EEB4B8D4D30B7
:1007300035000034439C25F24D534ACC53293500F3
:100740000000417125F24D534ABD4B2A350000800F
:100750003F4125F24D534AF9492B350000803F1F98
:1007600025AE4DF54A795338350000803FC324F556
:100770004EEB4B4F4D3D3500606A46F124F54EEB94
:100780004B4F4D393500007A449B24F54EEB4B4FCF
:100790004D41350000A0436E24F54EEB4B4F4D45C7
:1007A00035A493564E2E24F54EEB4B4F4D49350A4A
:1007B000D7233C0124F24D534A5753513500008052
:1007C0003FD423F54EEB4B4F4D52350000FAC4A2F7
:1007D00023F54EEB4B4F4D56350000C8427523F5BF
:1007E0004EEB4B4F4D5A35000010414F23F54EEB69
:1007F0004B4F4D5E350000803F2D23AE4DF54A79BD
:100800005362350000803FD122F54EEB4B4F4D67D0
:100810003500606A46FF22F54EEB4B4F4D633500C5
:10082000007A44A922F54EEB4B4F4D6B350000800A
:10083000BF7C22F54EEB4B4F4D6F35A493564E3C8B
:1008400022F54EEB4B4F4D73350AD7233C0F22F266
:100850004D534A57537B3500000000E221F54EEB23
:100860004B4F4D7C3500007AC4B021F54EEB4B4F19
:100870004D803500007A448321F54EEB4B4F4D847B
:10088000350000803F5D21F54EEB4B4F4D88350024
:1008900000803F3B21AE4DF54A79538C35000080F6
:1008A0003FDF20F54EEB4B4F4D913500401C460D80
:1008B00021F54EEB4B4F4D8D3500007A44B720F5B6
:1008C0004EEB4B4F4D95350000C8418A20F54EEB5D
:1008D0004B4F4D9935A493564E4A20F54EEB4B4F56
:1008E0004D9D350AD7233C1D20F24D534A5753A541
:1008F000350000803FF01FF54EEB4B4F4DA6350005
:10090000007A44BE1FF54EEB4B4F4DAA350000FA5E
:1009100043911FF54EEB4B4F4DAE35000010416B30
:100920001FF54EEB4B4F4DB2350000A441491FAEB1
:100930004DF54A7953B6350000803FED1E2C4E919F
:100940004A324ABB3500606A471B1F2C4E914A321F
:100950004AB7350000E145C31E2C4E914A324ABFCA
:10096000350080BB43961E2C4E914A324AC3355EF9
:10097000D0B250691E2C4E914A324AC735CDCCCCEC
:100980003D431E2C4E914A324ACB350000803F1623
:100990001EF24D534A5753CF350000803FE91D2CBE
:1009A0004E914A324AD0350080BB45B71D2C4E913E
:1009B0004A324AD435000016448A1D2C4E914A32E0
:1009C0004AD83500007041641D2C4E914A324ADCF1
:1009D000350000803F421DAE4DF54A7953E03500A9
:1009E000000000E61C2C4E914A324AE535000061B9
:1009F00045141D2C4E914A324AE13500006145BE36
:100A00001C2C4E914A324AE935000080BF911C2CC3
:100A10004E914A324AED35A493564E641C2C4E91A9
:100A20004A324AF1350AD7233C3E1C2C4E914A32B9
:100A30004AF5350000803F111CF24D534A5753F9D7
:100A4000350000803FE41B2C4E914A324AFA3500B3
:100A50000016C4B21B2C4E914A324AFE350000C823
:100A600042851B2C4E914A324A02360000A0C05FDC
:100A70001B2C4E914A324A0636000000403D1BAE08
:100A80004DF54A79530A3600000000E11A2C4E91C8
:100A90004A324A0F36000061450F1B2C4E914A32F4
:100AA0004A0B3600006145B91A2C4E914A324A135E
:100AB00036000080BF8C1A2C4E914A324A1736A459
:100AC00093564E5F1A2C4E914A324A1B360AD72350
:100AD0003C391A2C4E914A324A1F360000803F0C96
:100AE0001AF24D534A575323360000803FDF192C2A
:100AF0004E914A324A2436000016C4AD192C4E914C
:100B00004A324A28360000C84280192C4E914A3297
:100B10004A2C360000A0C05A192C4E914A324A3055
:100B2000360000004030192C4E914A324A343600CB
:100B300000C84202192C4E914A324A383600007AD7
:100B400044D4182C4E914A324A3C360000FA449D57
:100B5000182C4E914A324A4036CDCCCC3D67182CE9
:100B60004E914A324A4436CDCC4C3E38182C4E91E8
:100B70004A324A483600007A4409182C4E914A32CB
:100B80004A4C360000FA44D1172C4E914A324A5052
:100B900036CDCCCC3D99172C4E914A324A5436CDA5
:100BA000CC4C3E66172C4E914A324A5836CDCCCCAE
:100BB0003D3E17F54EEB4B4F4D68340000000016DC
:100BC00017F54EEB4B4F4D6C3400000000EE16F560
:100BD0004EEB4B4F4D703400000000C616F54EEB47
:100BE0004B4F4D7434000000009E16F54EEB4B4FFA
:100BF0004D7834000000007616F54EEB4B4F4D7CDF
:100C000034000000004E16F54EEB4B4F4D80340083
:100C10000000002616F54EEB4B4F4D8434000000CB
:100C200000FE15F54EEB4B4F4D883400000000D60A
:100C300015F54EEB4B4F4D8C3400000000AE15F512
:100C40004EEB4B4F4D9034000000008615F54EEBF7
:100C50004B4F4D9434000000005E15F54EEB4B4FAA
:100C60004D9834000000003615F54EEB4B4F4D9C6F
:100C700034000000000E15F54EEB4B4F4DA0340034
:100C8000000000E614F54EEB4B4F4DA4340000007D
:100C900000BE14F54EEB4B4F4DA8340000000096FB
:100CA00014F54EEB4B4F4DAC34000000006E14F5C4
:100CB0004EEB4B4F4DB034000000004614F54EEBA8
:100CC0004B4F4DB434000000001E14F54EEB4B4F5B
:100CD0004DB83400000000F613F54EEB4B4F4DBC01
:100CE0003400000000CE13F54EEB4B4F4DC03400E6
:100CF000000000A613F54EEB4B4F4DC4340000002E
:100D0000007E13F54EEB4B4F4DC8340000000056EB
:100D100013F54EEB4B4F4DCC34000000002E13F575
:100D20004EEB4B4F4DD034000000000613F54EEB58
:100D30004B4F4DD43400000000DE12F54EEB4B4F0C
:100D40004DD83400000000B612F54EEB4B4F4DDC91
:100D500034000000008E12F54EEB4B4F4DE0340096
:100D60000000006612F54EEB4B4F4DE434000000DE
:100D7000003E12F54EEB4B4F4DE8340000000016DC
:100D800012F54EEB4B4F4DEC3400000000EE11F528
:100D90004EEB4B4F4DF03400000000C611F54EEB0A
:100DA0004B4F4DF43400000000BB11B24A724A149C
:100DB0004A263400000000B011B24A724A144A2890
:100DC0003400000000A511B24A724A144A2A3400C5
:100DD0000000009A11B24A724A144A2C34000000F2
:100DE000008F11B24A724A144A2E34000000008467
:100DF00011B24A724A144A3034000000007911B22C
:100E00004A724A144A3234000000006E11B24A722B
:100E10004A144A3434000000006311B24A724A1482
:100E20004A3634000000005811B24A724A144A3857
:100E300034000000004D11B24A724A144A3A34009C
:100E40000000004211B24A724A144A3C34000000C9
:100E5000003711B24A724A144A3E34000000002C96
:100E600011B24A724A144A4034000000002111B203
:100E70004A724A144A4234000000001611B24A7203
:100E80004A144A4434000000000B11B24A724A145A
:100E90004A4634000000000011B24A724A144A481F
:100EA0003400000000F510B24A724A144A4A340075
:100EB000000000EA10B24A724A144A4C34000000A2
:100EC000006B10B24A7651025947310000000066AB
:100ED00010B24A76510259473100000000E510B2C5
:100EE0004A00510259473100000000E010B24A00A8
:100EF000510259473100000000DB10B24A00510294
:100F000059473100000000D610B24A00510259473B
:100F10003100000000D110B24A005102594731009F
:100F2000000000CC10B24A005102594731000000C5
:100F300000C710B24A00510259473100000000C2F8
:100F400010B24A00510259473100000000BD10B2F2
:100F50004A00510259473100000000B810B24A005F
:100F6000510259473100000000B310B24A0051024B
:100F700059473100000000AA10B24A0051025947F7
:100F80003100000000A110B24A005102594731005F
:100F90000000009810B24A00510259473100000089
:100FA000008F10B24A0051025947310000000086FC
:100FB00010B24A005102594731000000007D10B2C2
:100FC0004A005102594731000000007410B24A0033
:100FD0005102594731000000005D10B24A00510231
:100FE000594731000000005410B24A0051025947DD
:100FF00031000000004F10B24ABD56F7494731009A
:101000000000004A10B24AA256F7494731000000DA
:10101000004510B24A8756F74947310000000040AA
:1010200010B24AD856F7494731000000003B10A2E1
:10103000674E4AF749473100000000682C682C00D1
:10104000242C242C006F2C6F2C006E2C6E2C006D29
:101050002C6D2C006D706F2C6D706F2C00706F7389
:101060002C706F732C00732C732C007379732C739A
:1010700079732C006739322C6739322C0067353987
:101080002C6735392C006735382C6735382C0067CC
:1010900035372C6735372C006735362C6735362CBD
:1010A000006735352C6735352C006735342C6735AE
:1010B000342C00702C702C00632C632C00622C628A
:1010C0002C00612C612C007A2C7A2C00792C792C44
:1010D00000782C782C00342C342C00332C332C004A
:1010E000322C322C00312C312C00737231392C739C
:1010F0007231392C00737231382C737231382C00F4
:10110000737231372C737231372C00737231362C75
:10111000737231362C00737231352C737231352C69
:1011200000737231342C737231342C00737231338A
:101130002C737231332C00737231322C7372313252
:101140002C00737231312C737231312C0073723177
:10115000302C737231302C00737230392C73723032
:10116000392C00737230382C737230382C00737243
:1011700030372C737230372C00737230362C737208
:1011800030362C00737230352C737230352C00736E
:101190007230342C737230342C00737230332C73F1
:1011A0007230332C00737230322C737230322C0058
:1011B000737230312C737230312C00737230302CDA
:1011C000737230302C00673539632C6735395F63B3
:1011D0002C5B673539635D206735395F635F6F6608
:1011E000667365742532302E336625530A006735E1
:1011F00039622C6735395F622C5B673539625D2057
:101200006735395F625F6F66667365742532302EAD
:10121000336625530A00673539612C6735395F61BC
:101220002C5B673539615D206735395F615F6F66BB
:10123000667365742532302E336625530A00673590
:10124000397A2C6735395F7A2C5B6735397A5D20BE
:101250006735395F7A5F6F66667365742532302E45
:10126000336625530A00673539792C6735395F793C
:101270002C5B673539795D206735395F795F6F663B
:10128000667365742532302E336625530A00673540
:1012900039782C6735395F782C5B673539785D2074
:1012A0006735395F785F6F66667365742532302EF7
:1012B000336625530A00673538632C6735385F631A
:1012C0002C5B673538635D206735385F635F6F6619
:1012D000667365742532302E336625530A006735F0
:1012E00038622C6735385F622C5B673538625D2069
:1012F0006735385F625F6F66667365742532302EBE
:10130000336625530A00673538612C6735385F61CD
:101310002C5B673538615D206735385F615F6F66CC
:10132000667365742532302E336625530A0067359F
:10133000387A2C6735385F7A2C5B6735387A5D20D0
:101340006735385F7A5F6F66667365742532302E55
:10135000336625530A00673538792C6735385F794D
:101360002C5B673538795D206735385F795F6F664C
:10137000667365742532302E336625530A0067354F
:1013800038782C6735385F782C5B673538785D2086
:101390006735385F785F6F66667365742532302E07
:1013A000336625530A00673537632C6735375F632B
:1013B0002C5B673537635D206735375F635F6F662A
:1013C000667365742532302E336625530A006735FF
:1013D00037622C6735375F622C5B673537625D207B
:1013E0006735375F625F6F66667365742532302ECE
:1013F000336625530A00673537612C6735375F61DF
:101400002C5B673537615D206735375F615F6F66DD
:10141000667365742532302E336625530A006735AE
:10142000377A2C6735375F7A2C5B6735377A5D20E2
:101430006735375F7A5F6F66667365742532302E65
:10144000336625530A00673537792C6735375F795E
:101450002C5B673537795D206735375F795F6F665D
:10146000667365742532302E336625530A0067355E
:1014700037782C6735375F782C5B673537785D2098
:101480006735375F785F6F66667365742532302E17
:10149000336625530A00673536632C6735365F633C
:1014A0002C5B673536635D206735365F635F6F663B
:1014B000667365742532302E336625530A0067350E
:1014C00036622C6735365F622C5B673536625D208D
:1014D0006735365F625F6F66667365742532302EDE
:1014E000336625530A00673536612C6735365F61F0
:1014F0002C5B673536615D206735365F615F6F66EF
:10150000667365742532302E336625530A006735BD
:10151000367A2C6735365F7A2C5B6735367A5D20F4
:101520006735365F7A5F6F66667365742532302E75
:10153000336625530A00673536792C6735365F796F
:101540002C5B673536795D206735365F795F6F666E
:10155000667365742532302E336625530A0067356D
:1015600036782C6735365F782C5B673536785D20AA
:101570006735365F785F6F66667365742532302E27
:10158000336625530A00673535632C6735355F634D
:101590002C5B673535635D206735355F635F6F664C
:1015A000667365742532302E336625530A0067351D
:1015B00035622C6735355F622C5B673535625D209F
:1015C0006735355F625F6F66667365742532302EEE
:1015D000336625530A00673535612C6735355F6101
:1015E0002C5B673535615D206735355F615F6F6600
:1015F000667365742532302E336625530A006735CD
:10160000357A2C6735355F7A2C5B6735357A5D2006
:101610006735355F7A5F6F66667365742532302E85
:10162000336625530A00673535792C6735355F7980
:101630002C5B673535795D206735355F795F6F667F
:10164000667365742532302E336625530A0067357C
:1016500035782C6735355F782C5B673535785D20BC
:101660006735355F785F6F66667365742532302E37
:10167000336625530A00673534632C6735345F635E
:101680002C5B673534635D206735345F635F6F665D
:10169000667365742532302E336625530A0067352C
:1016A00034622C6735345F622C5B673534625D20B1
:1016B0006735345F625F6F66667365742532302EFE
:1016C000336625530A00673534612C6735345F6112
:1016D0002C5B673534615D206735345F615F6F6611
:1016E000667365742532302E336625530A006735DC
:1016F000347A2C6735345F7A2C5B6735347A5D2019
:101700006735345F7A5F6F66667365742532302E95
:10171000336625530A00673534792C6735345F7991
:101720002C5B673534795D206735345F795F6F6690
:10173000667365742532302E336625530A0067358B
:1017400034782C6735345F782C5B673534785D20CE
:101750006735345F785F6F66667365742532302E47
:10176000336625530A0070356F662C705F6F6666AE
:101770002C5B70356F665D2070776D5F706861738C
:10178000655F6F66662020202020202020202020FA
:10179000202025342E33660A00703470682C705F68
:1017A0006363775F705F68692C5B703470685D207D
:1017B00070776D5F6363775F70686173655F686999
:1017C0002020202020202020202025342E33660AAF
:1017D000007034706C2C705F6363775F705F6C6F48
:1017E0002C5B7034706C5D2070776D5F6363775F26
:1017F00070686173655F6C6F20202020202020209E
:10180000202025342E33660A00703473682C705FF4
:101810006363775F735F68692C5B703473685D2006
:1018200070776D5F6363775F73706565645F686928
:101830002531352E33660A007034736C2C705F636B
:1018400063775F735F6C6F2C5B7034736C5D2070BB
:10185000776D5F6363775F73706565645F6C6F2539
:1018600031352E33660A00703370682C705F6377F1
:101870005F705F68692C5B703370685D2070776D96
:101880005F63775F70686173655F686920202020FF
:1018900020202020202025342E33660A007033704B
:1018A0006C2C705F63775F705F6C6F2C5B70337054
:1018B0006C5D2070776D5F63775F70686173655FE3
:1018C0006C6F202020202020202020202025342E56
:1018D00033660A00703373682C705F63775F735FE1
:1018E00068692C5B703373685D2070776D5F637718
:1018F0005F73706565645F6869202531352E3366D6
:101900000A007033736C2C705F63775F735F6C6F6A
:101910002C5B7033736C5D2070776D5F63775F73E2
:10192000706565645F6C6F202531352E33660A0063
:1019300070776D662C705F662C5B70776D665D20CE
:1019400070776D5F6672657175656E6379202020B2
:101950002531352E3366487A0A00637A622C635F3C
:101960007A2C5B637A625D20635F7A65726F5F6277
:1019700061636B6F66662531392E336625530A0025
:10198000636C622C635F6C617463685F622C5B6381
:101990006C625D20635F6C617463685F6261636B3E
:1019A0006F66662531382E336625530A00636C76E0
:1019B0002C635F6C617463685F762C5B636C765D2F
:1019C00020635F6C617463685F76656C6F636974D4
:1019D000792531372E336625532F6D696E0A0063E2
:1019E00073762C635F732C5B6373765D20635F7328
:1019F00065617263685F76656C6F636974792531C0
:101A0000362E336625532F6D696E0A0063736D2C75
:101A1000635F732C5B63736D5D20635F73776974C1
:101A200063685F6D6F646525313664205B302C31EF
:101A30002C322C332C345D0A006372612C635F728C
:101A40002C5B6372615D20635F7261646975735FB3
:101A500076616C75652532302E346625530A006335
:101A60006A642C635F6A752C5B636A645D20635FE4
:101A70006A756E6374696F6E5F64657669617469B7
:101A80006F6E2531342E346625530A00636A6D2C3F
:101A9000635F6A652C5B636A6D5D20635F6A657274
:101AA0006B5F6D6178696D756D2531352E306625FA
:101AB000532F6D696E5E330A0063746D2C635F741F
:101AC0002C5B63746D5D20635F74726176656C5F1F
:101AD0006D6178696D756D2531372E336625530A32
:101AE0000063766D2C635F762C5B63766D5D20639F
:101AF0005F76656C6F636974795F6D6178696D7528
:101B00006D2531352E336625532F6D696E0A0063BE
:101B100066722C635F662C5B6366725D20635F6632
:101B2000656564726174655F6D6178696D756D2559
:101B300031352E336625532F6D696E0A0063616D52
:101B40002C635F612C5B63616D5D20635F6178690D
:101B5000735F6D6F6465253138642025530A006218
:101B60007A622C625F7A2C5B627A625D20625F7AB5
:101B700065726F5F6261636B6F66662531392E3304
:101B80006625530A00626C622C625F6C6174636844
:101B90005F622C5B626C625D20625F6C6174636883
:101BA0005F6261636B6F66662531382E336625533D
:101BB0000A00626C762C625F6C617463685F762CDD
:101BC0005B626C765D20625F6C617463685F7665F2
:101BD0006C6F636974792531372E336625532F6D09
:101BE000696E0A006273762C625F732C5B62737697
:101BF0005D20625F7365617263685F76656C6F63B9
:101C00006974792531362E336625532F6D696E0A36
:101C10000062736D2C625F732C5B62736D5D20627A
:101C20005F7377697463685F6D6F646525313664CF
:101C3000205B302C312C322C332C345D0A00627244
:101C4000612C625F722C5B6272615D20625F726107
:101C5000646975735F76616C75652532302E346604
:101C600025530A00626A642C625F6A752C5B626AA3
:101C7000645D20625F6A756E6374696F6E5F646530
:101C800076696174696F6E2531342E346625530A86
:101C900000626A6D2C625F6A652C5B626A6D5D2012
:101CA000625F6A65726B5F6D6178696D756D253114
:101CB000352E306625532F6D696E5E330A006274CF
:101CC0006D2C625F742C5B62746D5D20625F747258
:101CD0006176656C5F6D6178696D756D2531372E44
:101CE000336625530A0062766D2C625F762C5B6248
:101CF000766D5D20625F76656C6F636974795F6D88
:101D00006178696D756D2531352E336625532F6DDC
:101D1000696E0A006266722C625F662C5B62667294
:101D20005D20625F66656564726174655F6D617890
:101D3000696D756D2531352E336625532F6D696EAE
:101D40000A0062616D2C625F612C5B62616D5D20D7
:101D5000625F617869735F6D6F64652531386420F7
:101D600025530A00617A622C615F7A2C5B617A628A
:101D70005D20615F7A65726F5F6261636B6F66663B
:101D80002531392E336625530A00616C622C615F60
:101D90006C617463685F622C5B616C625D20615F83
:101DA0006C617463685F6261636B6F66662531386E
:101DB0002E336625530A00616C762C615F6C61746A
:101DC00063685F762C5B616C765D20615F6C61742B
:101DD00063685F76656C6F636974792531372E337C
:101DE0006625532F6D696E0A006173762C615F73EF
:101DF0002C5B6173765D20615F7365617263685F00
:101E000076656C6F636974792531362E3366255398
:101E10002F6D696E0A0061736D2C615F732C5B61BD
:101E2000736D5D20615F7377697463685F6D6F6464
:101E30006525313664205B302C312C322C332C3428
:101E40005D0A006172612C615F722C5B6172615D81
:101E500020615F7261646975735F76616C75652579
:101E600032302E346625530A00616A642C615F6A41
:101E7000752C5B616A645D20615F6A756E6374696D
:101E80006F6E5F646576696174696F6E2531342E9B
:101E9000346625530A00616A6D2C615F6A652C5BAC
:101EA000616A6D5D20615F6A65726B5F6D61786903
:101EB0006D756D2531352E306625532F6D696E5E3B
:101EC000330A0061746D2C615F742C5B61746D5D0D
:101ED00020615F74726176656C5F6D6178696D75A4
:101EE0006D20202531352E336625530A0061766D2D
:101EF0002C615F762C5B61766D5D20615F76656C31
:101F00006F636974795F6D6178696D756D253135C1
:101F10002E336625532F6D696E0A006166722C613F
:101F20005F662C5B6166725D20615F6665656472E9
:101F30006174655F6D6178696D756D2531352E331E
:101F40006625532F6D696E0A0061616D2C615F61BA
:101F50002C5B61616D5D20615F617869735F6D6F9E
:101F60006465253138642025530A007A7A622C7A18
:101F70005F7A2C5B7A7A625D207A5F7A65726F5F36
:101F80006261636B6F66662531392E336625530AAD
:101F9000007A6C622C7A5F6C617463685F622C5BA0
:101FA0007A6C625D207A5F6C617463685F62616302
:101FB0006B6F66662531382E336625530A007A6CBE
:101FC000762C7A5F6C617463685F762C5B7A6C76D2
:101FD0005D207A5F6C617463685F76656C6F6369BE
:101FE00074792531372E336625532F6D696E0A00BB
:101FF0007A73762C7A5F732C5B7A73765D207A5FC6
:102000007365617263685F76656C6F636974792567
:1020100031362E336625532F6D696E0A007A736D43
:102020002C7A5F732C5B7A736D5D207A5F737769AE
:102030007463685F6D6F646525313664205B302C96
:10204000312C322C332C345D0A007A6A642C7A5F8E
:102050006A752C5B7A6A645D207A5F6A756E637458
:10206000696F6E5F646576696174696F6E2531347E
:102070002E3466255320286C61726765722069735F
:1020800020666173746572290A007A6A6D2C7A5F22
:102090006A652C5B7A6A6D5D207A5F6A65726B5F38
:1020A0006D6178696D756D2531352E306625532F3C
:1020B0006D696E5E330A007A746D2C7A5F742C5BE6
:1020C0007A746D5D207A5F74726176656C5F6D61A4
:1020D00078696D756D2531372E336625530A007A80
:1020E000766D2C7A5F762C5B7A766D5D207A5F76E2
:1020F000656C6F636974795F6D6178696D756D2565
:1021000031352E336625532F6D696E0A007A66725B
:102110002C7A5F662C5B7A66725D207A5F666565F5
:1021200064726174655F6D6178696D756D253135B7
:102130002E336625532F6D696E0A007A616D2C7AF5
:102140005F612C5B7A616D5D207A5F617869735F96
:102150006D6F6465253138642025530A00797A62F1
:102160002C795F7A2C5B797A625D20795F7A65726F
:102170006F5F6261636B6F66662531392E3366254A
:10218000530A00796C622C795F6C617463685F62DA
:102190002C5B796C625D20795F6C617463685F624F
:1021A00061636B6F66662531382E336625530A00EE
:1021B000796C762C795F6C617463685F762C5B79DF
:1021C0006C765D20795F6C617463685F76656C6FB7
:1021D000636974792531372E336625532F6D696E07
:1021E0000A007973762C795F732C5B7973765D20A6
:1021F000795F7365617263685F76656C6F6369743C
:10220000792531362E336625532F6D696E0A007994
:10221000736D2C795F732C5B79736D5D20795F73BF
:1022200077697463685F6D6F646525313664205B20
:10223000302C312C322C332C345D0A00796A642C1A
:10224000795F6A752C5B796A645D20795F6A756E67
:102250006374696F6E5F646576696174696F6E251A
:1022600031342E3466255320286C617267657220E4
:10227000697320666173746572290A00796A6D2C2E
:10228000795F6A652C5B796A6D5D20795F6A65723A
:102290006B5F6D6178696D756D2531352E30662502
:1022A000532F6D696E5E330A0079746D2C795F74FB
:1022B0002C5B79746D5D20795F74726176656C5FFB
:1022C0006D6178696D756D2531372E336625530A3A
:1022D0000079766D2C795F762C5B79766D5D20794F
:1022E0005F76656C6F636974795F6D6178696D7530
:1022F0006D2531352E336625532F6D696E0A0079B1
:1023000066722C795F662C5B7966725D20795F66F8
:10231000656564726174655F6D6178696D756D2561
:1023200031352E336625532F6D696E0A0079616D44
:102330002C795F612C5B79616D5D20795F617869D3
:10234000735F6D6F6465253138642025530A00780A
:102350007A622C785F7A2C5B787A625D20785F7A7B
:1023600065726F5F6261636B6F66662531392E330C
:102370006625530A00786C622C785F6C6174636820
:102380005F622C5B786C625D20785F6C617463685F
:102390005F6261636B6F66662531382E3366255345
:1023A0000A00786C762C785F6C617463685F762CB9
:1023B0005B786C765D20785F6C617463685F7665CE
:1023C0006C6F636974792531372E336625532F6D11
:1023D000696E0A007873762C785F732C5B7873765D
:1023E0005D20785F7365617263685F76656C6F63AB
:1023F0006974792531362E336625532F6D696E0A3F
:102400000078736D2C785F732C5B78736D5D20782A
:102410005F7377697463685F6D6F646525313664D7
:10242000205B302C312C322C332C345D0A00786A3E
:10243000642C785F6A752C5B786A645D20785F6ACB
:10244000756E6374696F6E5F646576696174696FD8
:102450006E2531342E3466255320286C61726765F1
:102460007220697320666173746572290A00786A44
:102470006D2C785F6A652C5B786A6D5D20785F6A89
:1024800065726B5F6D6178696D756D2531352E30C4
:102490006625532F6D696E5E330A0078746D2C7853
:1024A0005F742C5B78746D5D20785F747261766503
:1024B0006C5F6D6178696D756D2531372E336625DA
:1024C000530A0078766D2C785F762C5B78766D5D9C
:1024D00020785F76656C6F636974795F6D61786988
:1024E0006D756D2531352E336625532F6D696E0A56
:1024F000007866722C785F662C5B7866725D207857
:102500005F66656564726174655F6D6178696D753C
:102510006D2531352E336625532F6D696E0A00788F
:10252000616D2C785F612C5B78616D5D20785F61F7
:102530007869735F6D6F6465253138642025530AAF
:102540000034706D2C6D345F706F772C5B34706D60
:102550005D206D345F706F7765725F6D616E61676E
:10256000656D656E7425313064205B302C315D0AF9
:102570000034706F2C6D345F706F6C2C5B34706F37
:102580005D206D345F706F6C6172697479202020FA
:1025900025313564205B302C315D0A00346D692CA7
:1025A0006D345F6D692C205B346D695D206D345F27
:1025B0006D6963726F7374657073202531356420A3
:1025C0005B312C322C342C385D0A003474722C6D43
:1025D000345F74722C205B3474725D206D345F74D0
:1025E000726176656C5F7065725F7265766F6C752F
:1025F00074696F6E25392E336625530A0034736172
:102600002C6D345F732C20205B3473615D206D343E
:102610005F737465705F616E676C652532302E3351
:102620006625530A00346D612C6D345F6D612C207A
:102630005B346D615D206D345F6D61705F746F5FE1
:102640006178697325313564205B303D582C203129
:102650003D592E2E2E5D0A0033706D2C6D335F7048
:102660006F772C5B33706D5D206D335F706F7765B6
:10267000725F6D616E6167656D656E742531306482
:10268000205B302C315D0A0033706F2C6D335F702E
:102690006F6C2C5B33706F5D206D335F706F6C619E
:1026A0007269747920202025313564205B302C310B
:1026B0005D0A00336D692C6D335F6D692C205B33CF
:1026C0006D695D206D335F6D6963726F73746570E2
:1026D000732025313564205B312C322C342C385D4D
:1026E0000A003374722C6D335F74722C205B337468
:1026F000725D206D335F74726176656C5F706572B8
:102700005F7265766F6C7574696F6E25392E3366EE
:1027100025530A003373612C6D335F732C20205BCB
:102720003373615D206D335F737465705F616E67D5
:102730006C652532302E336625530A00336D612CCB
:102740006D335F6D612C205B336D615D206D335F98
:102750006D61705F746F5F617869732531356420D6
:102760005B303D582C20313D592E2E2E5D0A003213
:10277000706D2C6D325F706F772C5B32706D5D20E9
:102780006D325F706F7765725F6D616E6167656DE9
:10279000656E7425313064205B302C315D0A003267
:1027A000706F2C6D325F706F6C2C5B32706F5D20C0
:1027B0006D325F706F6C61726974792020202531F1
:1027C0003564205B302C315D0A00326D692C6D322E
:1027D0005F6D692C205B326D695D206D325F6D69C4
:1027E00063726F73746570732025313564205B31BB
:1027F0002C322C342C385D0A003274722C6D325F0E
:1028000074722C205B3274725D206D325F74726161
:1028100076656C5F7065725F7265766F6C757469F2
:102820006F6E25392E336625530A003273612C6D85
:10283000325F732C20205B3273615D206D325F73D9
:102840007465705F616E676C652532302E33662566
:10285000530A00326D612C6D325F6D612C205B324A
:102860006D615D206D325F6D61705F746F5F617867
:10287000697325313564205B303D582C20313D593A
:102880002E2E2E5D0A0031706D2C6D315F706F77CA
:102890002C5B31706D5D206D315F706F7765725F9D
:1028A0006D616E6167656D656E7425313064205BA6
:1028B000302C315D0A0031706F2C6D315F706F6CA0
:1028C0002C5B31706F5D206D315F706F6C61726970
:1028D000747920202025313564205B302C315D0A4D
:1028E00000316D692C6D315F6D692C205B316D6934
:1028F0005D206D315F6D6963726F737465707320F5
:1029000025313564205B312C322C342C385D0A00A3
:102910003174722C6D315F74722C205B3174725D76
:10292000206D315F74726176656C5F7065725F7285
:1029300065766F6C7574696F6E25392E3366255315
:102940000A003173612C6D315F732C20205B317371
:10295000615D206D315F737465705F616E676C657A
:102960002532302E336625530A00316D612C6D31CE
:102970005F6D612C205B316D615D206D315F6D613C
:10298000705F746F5F6178697325313564205B30E7
:102990003D582C20313D592E2E2E5D0A00656A2CA3
:1029A000656E61626C655F6A2C5B656A5D2020659F
:1029B0006E61626C655F6A736F6E5F6D6F646520D8
:1029C00025313264205B302C315D0A0065782C653E
:1029D0006E61626C655F782C5B65785D2020656E4A
:1029E00061626C655F786F6E5F786F666620202528
:1029F000313264205B302C315D0A0065652C656ED8
:102A000061626C655F652C5B65655D2020656E614C
:102A1000626C655F6563686F20202020202025316F
:102A20003264205B302C315D0A0065632C656E6179
:102A3000626C655F632C5B65635D2020656E61621F
:102A40006C655F435220286F6E205458292531321F
:102A500064205B302C315D0A0069632C69676E6FFE
:102A600072655F632C5B69635D202069676E6F72BE
:102A700065204352206F72204C46206F6E205258C2
:102A800020253764205B302C313D43522C323D4CA5
:102A9000465D0A006D742C6D696E5F732C5B6D74FE
:102AA0005D20206D696E5F7365676D656E745F7420
:102AB000696D652020202531302E306620755365E4
:102AC000630A006D612C6D696E5F612C5B6D615DE9
:102AD00020206D696E5F6172635F7365676D656EFF
:102AE00074202020202531342E336625530A006DB2
:102AF0006C2C6D696E5F6C2C5B6D6C5D20206D695C
:102B00006E5F6C696E655F7365676D656E742020BE
:102B1000202531342E336625530A006A612C6A75EC
:102B20006E632C5B6A615D20206A756E6374696FE9
:102B30006E5F616363656C65726174696F6E253881
:102B40002E306625530A0067632C67636F642C5B25
:102B500067635D006764692C67636F64655F642CFD
:102B6000205B6764695D2067636F64655F64697398
:102B700074616E63655F6D6F646525313064205BE1
:102B8000302C315D0A006770612C67636F64655F8C
:102B900070612C5B6770615D2067636F64655F7057
:102BA0006174685F636F6E74726F6C20253130647E
:102BB000205B302C312C325D0A0067636F2C676319
:102BC0006F64655F632C205B67636F5D2067636F75
:102BD00064655F636F6F72645F73797374656D2092
:102BE00025313064205B312D365D0A0067756E2C0F
:102BF00067636F64655F752C205B67756E5D20672A
:102C0000636F64655F756E6974735F6D6F64652073
:102C1000202025313064205B302C315D0A00677044
:102C20006C2C67636F64655F706C2C5B67706C5DA8
:102C30002067636F64655F73656C6563745F706C58
:102C4000616E652025313064205B302C312C325D83
:102C50000A006D73672C6D73672C25730A00646519
:102C60002C646566612C0074652C746573742C008B
:102C700068652C68656C702C00673932632C673985
:102C800032632C43206F726967696E206F666673CA
:102C900065743A2531302E336625530A0067393280
:102CA000622C673932622C42206F726967696E202C
:102CB0006F66667365743A2531302E336625530A84
:102CC00000673932612C673932612C41206F72699B
:102CD00067696E206F66667365743A2531302E33EE
:102CE0006625530A006739327A2C6739327A2C5AB2
:102CF000206F726967696E206F66667365743A2526
:102D000031302E336625530A00673932792C673902
:102D100032792C59206F726967696E206F6666730D
:102D200065743A2531302E336625530A00673932EF
:102D3000782C673932782C58206F726967696E2059
:102D40006F66667365743A2531302E336625530AF3
:102D5000006D706F632C6D706F632C43206D616329
:102D60006820706F736974696F6E3A2531302E3345
:102D70006625530A006D706F622C6D706F622C4275
:102D8000206D61636820706F736974696F6E3A2596
:102D900031302E336625530A006D706F612C6D70D3
:102DA0006F612C41206D61636820706F7369746975
:102DB0006F6E3A2531302E336625530A006D706FE1
:102DC0007A2C6D706F7A2C5A206D61636820706F59
:102DD000736974696F6E3A2531302E336625530A54
:102DE000006D706F792C6D706F792C59206D616357
:102DF0006820706F736974696F6E3A2531302E33B5
:102E00006625530A006D706F782C6D706F782C58A2
:102E1000206D61636820706F736974696F6E3A2505
:102E200031302E336625530A00706F73632C706F38
:102E300073632C4320706F736974696F6E3A253128
:102E4000352E336625530A00706F73622C706F73D2
:102E5000622C4220706F736974696F6E3A25313548
:102E60002E336625530A00706F73612C706F736187
:102E70002C4120706F736974696F6E3A2531352E5D
:102E8000336625530A00706F737A2C706F737A2C37
:102E90005A20706F736974696F6E3A2531352E331D
:102EA0006625530A00706F73792C706F73792C59F3
:102EB00020706F736974696F6E3A2531352E3366F1
:102EC00025530A00706F73782C706F73782C58201C
:102ED000706F736974696F6E3A2531352E336625CC
:102EE000530A0066726D6F2C66726D6F2C466565B5
:102EF000642072617465206D6F64653A2020202023
:102F0000202025730A00646973742C646973742C1F
:102F100044697374616E6365206D6F64653A202047
:102F2000202020202025730A00706174682C7061B5
:102F300074682C50617468204D6F64653A202020BD
:102F4000202020202020202025730A00706C616E34
:102F50002C706C616E2C506C616E653A20202020C4
:102F6000202020202020202020202025730A006DF2
:102F70006F6D6F2C6D6F6D6F2C4D6F74696F6E2060
:102F80006D6F64653A2020202020202020202573AA
:102F90000A00636F6F722C636F6F722C436F6F72D6
:102FA00064696E6174652073797374656D3A20206D
:102FB0002025730A00756E69742C756E69742C5522
:102FC0006E6974733A2020202020202020202020A9
:102FD0002020202025730A00686F6C642C686F6CB9
:102FE000642C46656564686F6C64207374617465F5
:102FF0003A20202020202025730A006D6F74732C46
:103000006D6F74732C4D6F74696F6E20737461747F
:10301000653A202020202020202025730A00637993
:1030200063732C637963732C4379636C65207374C9
:103030006174653A20202020202020202025730A5A
:10304000006D6163732C6D6163732C526177206D29
:10305000616368696E652073746174653A2020202D
:1030600025730A00737461742C737461742C4D6140
:103070006368696E652073746174653A202020204E
:1030800020202025730A00666565642C66656564EA
:103090002C4665656420726174653A2531362E339D
:1030A0006625532F6D696E0A006C696E652C6C691C
:1030B0006E652C4C696E65206E756D6265723A2581
:1030C00031302E30660A0076656C2C76656C6F6345
:1030D0006974792C56656C6F636974793A25313758
:1030E0002E336625532F6D696E0A0073722C73742C
:1030F000617475735F722C0073692C7374617475DD
:10310000735F692C5B73695D2020737461747573E0
:103110005F696E74657276616C20202020253130E5
:103120002E3066206D73205B303D6F66665D0A0051
:1031300069642C69642C5B69645D202069645F6448
:103140006576696365253136640A0066762C6669A2
:10315000726D776172655F762C5B66765D202066A6
:1031600069726D776172655F76657273696F6E25DE
:1031700031362E32660A0066622C6669726D77619E
:1031800072655F622C5B66625D20206669726D7796
:103190006172655F6275696C642531382E32660A2A
:1031A000005E32693274328032893293329D32A7A6
:1031B00032B232BD32C832D43205331D333A335ABB
:1031C000335A33703386339533A433B333D033E279
:1031D00033FB331C34433463347D349734B134CB04
:1031E00034E534FF34033508350D35133518351DF6
:1031F00035213526352A35323539353F3545354B7C
:10320000355035543558355D35643568357A3590E7
:1032100035943598352E000A00720062640073639D
:1032200000736D00627566006C6E00636B73002541
:10323000733A25312E33660025733A25312E3066D8
:103240000025733A2573000A002C0025312E3366C1
:103250000025312E3066002573000A002C005B64C7
:10326000697361626C65645D005B7374616E646157
:1032700072645D005B696E686962697465645D00B3
:103280005B7261646975735D005B736C6176652068
:10329000585D005B736C61766520595D005B736CF3
:1032A000617665205A5D005B736C617665205859C4
:1032B0005D005B736C61766520585A5D005B736CD2
:1032C00061766520595A5D005B736C6176652058A4
:1032D000595A5D00473934202D20756E6974732D5D
:1032E0007065722D6D696E757465206D6F646520F3
:1032F00028692E652E206665656472617465206D8F
:103300006F64652900473933202D20696E76657218
:1033100073652074696D65206D6F64650047393091
:10332000202D206162736F6C7574652064697374FD
:10333000616E6365206D6F646500473931202D2013
:10334000696E6372656D656E74616C206469737417
:10335000616E6365206D6F646500473631202D20F6
:1033600065786163742073746F70206D6F6465009D
:10337000473634202D20636F6E74696E756F7573D8
:10338000206D6F646500473137202D20585920701B
:103390006C616E6500473138202D20585A20706CC2
:1033A000616E6500473139202D20595A20706C61BB
:1033B0006E6500473020202D206C696E656172209B
:1033C000747261766572736520287365656B290078
:1033D000473120202D206C696E656172206665651D
:1033E0006400473220202D20636C6F636B77697314
:1033F0006520617263206665656400473320202D77
:1034000020636F756E74657220636C6F636B776990
:1034100073652061726320666565640047383020FB
:103420002D2063616E63656C206D6F74696F6E2013
:103430006D6F646520286E6F6E65206163746976B8
:10344000652900473533202D206D616368696E65FD
:1034500020636F6F7264696E617465207379737431
:10346000656D00473534202D20636F6F7264696E7F
:103470006174652073797374656D2031004735354B
:10348000202D20636F6F7264696E6174652073799B
:103490007374656D203200473536202D20636F6FC1
:1034A0007264696E6174652073797374656D20331D
:1034B00000473537202D20636F6F7264696E617429
:1034C000652073797374656D203400473538202D7D
:1034D00020636F6F7264696E6174652073797374B1
:1034E000656D203500473539202D20636F6F72647C
:1034F000696E6174652073797374656D2036004F51
:1035000066660053796E6300506C616E00446563BB
:10351000656C00486F6C640053746F700052756E78
:1035200000486F6C64004F66660053746172746586
:103530006400486F6D696E670050726F626500527B
:1035400065736574004379636C650053746F700034
:10355000456E640052756E00486F6C6400486F6D74
:10356000696E67004A6F6700473230202D20696E10
:1035700063686573206D6F646500473231202D20CC
:103580006D696C6C696D65746572206D6F64650042
:1035900020696E00206D6D002064656700BD35A157
:1035A000354C6F6164696E6720636F6E666967731F
:1035B0002066726F6D20454550524F4D003C6E7530
:1035C0006C6C206D6573736167653E005B6D6D5D4E
:1035D000206F6B3E20005B696E63685D206F6B3E01
:1035E000200074696E796700BA39B439AD39A839E9
:1035F0009F3994398C398039743966394F3940395B
:1036000033391F3907390339FF38FB38F738F338B6
:10361000E438CF38BA38AB38A738A3389F389B384E
:10362000973893388F388B38873883387F387B3892
:10363000773873386F386B3856383E382C38133833
:10364000FD37E737CF37B737A537873773376F374A
:103650006B37673763375F375B37573753374F37CA
:103660003E372A3718370337EB36CF36BB36A73607
:103670008C36743641726320737065636966696362
:103680006174696F6E206572726F72004D6178208F
:103690007370696E646C652073706565642065780D
:1036A000636565646564004D617820747261766558
:1036B0006C20657863656564656400486F6D696E4C
:1036C00067206379636C65206661696C6564004797
:1036D000636F6465206D6F64616C2067726F7570D5
:1036E0002076696F6C6174696F6E0047636F646503
:1036F000206178697320776F7264206D69737369D4
:103700006E670047636F6465206665656472617407
:1037100065206572726F720047636F646520696E21
:10372000707574206572726F720047636F646520F4
:10373000626C6F636B20736B6970706564005A65AF
:10374000726F206C656E677468206D6F76650023FC
:10375000353900233538002335370023353600232B
:10376000353500233534002335330023353200232B
:103770003531004F7574206F66206275666665721C
:10378000207370616365004A534F4E20696E7075F7
:10379000742068617320746F6F206D616E79207082
:1037A00061697273004A534F4E2073796E74617869
:1037B000206572726F7200496E7075742076616C4C
:1037C000756520756E737570706F727465640049ED
:1037D0006E7075742076616C75652072616E6765B8
:1037E000206572726F7200496E7075742076616C1C
:1037F000756520746F6F206C6172676500496E702B
:1038000075742076616C756520746F6F20736D61BF
:103810006C6C00496E7075742065786365656473BF
:10382000206D6178206C656E677468004261642069
:103830006E756D62657220666F726D617400457899
:1038400070656374656420636F6D6D616E64206C78
:10385000657474657200556E7265636F676E697A20
:10386000656420636F6D6D616E64002333390023DE
:103870003338002333370023333600233335002316
:103880003334002333330023333200233331002316
:1038900033300023323900233238002332370023FB
:1038A00032360023323500233234004469766964AD
:1038B00065206279207A65726F00466C6F61746969
:1038C0006E6720706F696E74206572726F72004946
:1038D0006E7465726E616C2072616E6765206572D0
:1038E000726F7200496E7465726E616C20657272DF
:1038F0006F72002331390023313800233137002320
:103900003136002331350042756666657220667572
:103910006C6C202D206E6F6E2D666174616C0042A0
:1039200075666665722066756C6C202D2066617404
:10393000616C0042756666657220656D7074790011
:103940004E6F207375636820646576696365004D0A
:1039500061782066696C652073697A652065786393
:1039600065656465640046696C65206E6F74206FE0
:1039700070656E00456E64206F662066696C650038
:10398000456E64206F66206C696E650041626F72DF
:10399000746564005465726D696E6174656400439A
:1039A0006F6D706C657465004E6F6F700045616778
:1039B00061696E004572726F72004F4B00456E6414
:1039C000206F6620636F6D6D616E642066696C6543
:1039D0000A00255325530025532553006572726F45
:1039E000723A2025533A202573200A0023232323EB
:1039F0002054696E79472048656C70202323232367
:103A00000A00546865736520636F6D6D616E647341
:103A100020617265206163746976652066726F6DDE
:103A20002074686520636F6D6D616E64206C696ED3
:103A3000653A0A205E78202020202041626F72744F
:103A40002028636F6E74726F6C207829202D20728D
:103A500065736574732045564552595448494E471D
:103A6000210A20203F20202020204D616368696EBC
:103A70006520706F736974696F6E20616E64206772
:103A8000636F6465206D6F64656C20737461746529
:103A90000A202024202020202053686F7720616E88
:103AA000642073657420636F6E66696775726174F4
:103AB000696F6E2073657474696E67730A202021C4
:103AC000202020202046656564686F6C64202D20CE
:103AD00073746F70206D6F74696F6E20776974688E
:103AE0006F7574206C6F73696E6720706F73697483
:103AF000696F6E0A20207E20202020204379636C8D
:103B000065205374617274202D2072657374617224
:103B1000742066726F6D2066656564686F6C640AF8
:103B2000202068202020202053686F772074686947
:103B3000732068656C702073637265656E0A20205F
:103B400024682020202053686F7720636F6E666999
:103B50006775726174696F6E2068656C702073633D
:103B60007265656E0A20202474657374204C697335
:103B7000742073656C662D74657374730A20202439
:103B800064656661756C74733D3120526573746F42
:103B9000726520616C6C2073657474696E67732044
:103BA000746F2022666163746F7279222064656687
:103BB00061756C74730A000A4E6F74653A2054691B
:103BC0006E79472067656E657261746573206175F3
:103BD000746F6D617469632073746174757320729E
:103BE00065706F7274732062792064656661756CAC
:103BF000740A546869732063616E20626520646989
:103C00007361626C656420627920656E74657269A7
:103C10006E67202473693D300A53656520746865BA
:103C20002077696B692062656C6F7720666F722000
:103C30006D6F72652064657461696C732E0A000A89
:103C4000466F722064657461696C65642054696EA6
:103C5000794720696E666F207365653A20687474D1
:103C6000703A2F2F7777772E73796E746865746F3B
:103C7000732E636F6D2F77696B692F696E6465783A
:103C80002E7068703F7469746C653D50726F6A6520
:103C90006374733A54696E79470A466F7220746888
:103CA00065206C6174657374206669726D776172EA
:103CB00065207365653A2068747470733A2F2F67B6
:103CC00069746875622E636F6D2F73796E746865A1
:103CD000746F732F54696E79470A506C6561736510
:103CE000206C6F6720616E7920697373756573202E
:103CF000617420687474703A2F2F7777772E7379F8
:103D00006E746865746F732E636F6D2F666F727556
:103D10006D730A486176652066756E0A0023232359
:103D2000232054696E794720434F4E4649475552E8
:103D30004154494F4E2048656C7020232323230AA9
:103D400000546865736520636F6D6D616E647320E8
:103D50006172652061637469766520666F722063A5
:103D60006F6E66696775726174696F6E3A0A2020BA
:103D7000247379732053686F772073797374656D3A
:103D8000202867656E6572616C292073657474699B
:103D90006E67730A2020243120202053686F77201B
:103DA0006D6F746F7220312073657474696E677300
:103DB00020286F72207768617465766572206D6F58
:103DC000746F7220796F752077616E7420312C3298
:103DD0002C332C34290A2020247820202053686F8B
:103DE00077205820617869732073657474696E67F1
:103DF0007320286F72207768617465766572206120
:103E000078697320796F752077616E7420782C79CA
:103E10002C7A2C612C622C63290A2020246D20200E
:103E20002053686F7720616C6C206D6F746F722007
:103E300073657474696E67730A2020246E202020D5
:103E400053686F7720616C6C2061786973207365AB
:103E50007474696E67730A2020242420202053681C
:103E60006F7720616C6C2073657474696E67730A78
:103E70002020246820202053686F7720746869739D
:103E80002068656C702073637265656E0A0A004570
:103E9000616368202420636F6D6D616E64206162D0
:103EA0006F766520616C736F20646973706C6179E3
:103EB000732074686520746F6B656E20666F722066
:103EC000656163682073657474696E6720696E202C
:103ED0005B205D20627261636B6574730A546F20AE
:103EE000766965772073657474696E677320656E93
:103EF000746572206120746F6B656E3A0A0A202027
:103F0000243C746F6B656E3E0A0A466F72206578BA
:103F1000616D706C65202479667220746F2064690D
:103F200073706C6179207468652059206D61782008
:103F30006665656420726174650A0A546F20757045
:103F4000646174652073657474696E677320656E4F
:103F500074657220746F6B656E20657175616C732A
:103F60002076616C75653A0A0A2020243C746F6BD8
:103F7000656E3E3D3C76616C75653E0A0A466F7221
:103F8000206578616D706C6520247966723D3830EB
:103F90003020746F20736574207468652059206D1B
:103FA00061782066656564207261746520746F2095
:103FB000383030206D6D2F6D696E7574650A002381
:103FC0002323232054696E79472053454C462054BF
:103FD0004553542048656C7020232323230A00494D
:103FE0006E766F6B652073656C66207465737420E4
:103FF000627920656E746572696E672024746573DA
:10400000743D4E207768657265204E206973206F7D
:104010006E65206F663A0A202024746573743D3102
:104020002020736D6F6B6520746573740A202024E3
:10403000746573743D3220206D6F74696F6E2074E7
:104040006573742020202861207365726965732070
:104050006F662073717561726520616E642063699B
:1040600072636C65206D6F766573290A2020247455
:104070006573743D3320206172632074657374200E
:10408000202020202028736F6D65206C6172676589
:1040900020636972636C6573290A20202474657338
:1040A000743D3420206477656C6C207465737420D3
:1040B000202020286D6F76657320737061636564BE
:1040C0002062792031207365636F6E6420647765A8
:1040D0006C6C73290A202024746573743D3520208C
:1040E000686F6D696E67207465737420202028796D
:1040F0006F75206D757374207472697020686F6DB0
:10410000696E67207377697463686573290A202074
:1041100024746573743D36202066656564686F6C31
:104120006420746573742028656E74657220212084
:10413000616E64207E20746F20686F6C6420616EF5
:104140006420726573746172742C2072657370657B
:1041500063746976656C79290A2020247465737408
:104160003D3720204D20636F646573207465737440
:104170002020284D20636F64657320696E7465721A
:104180006D696E676C65642077697468206D6F7601
:104190006573290A202024746573743D3820204AF1
:1041A000534F4E20746573742020202020286D6F9B
:1041B00074696F6E20746573742072756E207573E8
:1041C000696E67204A534F4E20636F6D6D616E6458
:1041D00073290A202024746573743D392020696E88
:1041E00076657273652074696D6520746573740AF1
:1041F000202024746573743D313020726F746172B5
:1042000079206D6F74696F6E20746573740A002372
:104210002323232054696E794720524553544F522B
:10422000452044454641554C54532048656C702008
:10423000232323230A00456E746572202464656677
:1042400061756C74733D3120746F20726573657491
:10425000207468652073797374656D20746F2074A1
:10426000686520666163746F727920646566617544
:104270006C742076616C7565732E0A5468697320BE
:1042800077696C6C206F76657277726974652061EE
:104290006E79206368616E67657320796F75206839
:1042A000617665206D6164652E0A002A2A2A657888
:1042B00065635F616C696E6528292A2A2A204C494A
:1042C0004E4520544F4F2053484F5254204C3A25CE
:1042D000660A005F63616C63756C6174655F74721C
:1042E0006170657A6F69642829206661696C65640C
:1042F00020746F20636F6E7665726765007372005D
:104300004E312054314D360A4E32204731370A4E55
:1043100033204732310A4E382046313830300A4E89
:10432000392047310A4E3130302047393220582D5C
:1043300032352E313737592D33342E303732205A1B
:104340002D312E303030202854454D502C205245F0
:104350004D4F5645204C41544552290A4E33343373
:1043600020582D32352E353935592D33342E3334EE
:10437000390A4E33343420582D32352E37303159E6
:104380002D33342E3433360A4E33343520582D3203
:10439000352E373931592D33342E3532300A4E33DC
:1043A000343620582D32352E383634592D33342EAC
:1043B0003630310A4E33343720582D32352E3932CB
:1043C00030592D33342E3637390A4E33343820588D
:1043D0002D32352E393630592D33342E3735340AB7
:1043E0004E33343920582D32352E393832592D3349
:1043F000342E3832360A4E33353020582D32352E91
:10440000393837592D33342E3839350A4E33353152
:1044100020582D32352E393736592D33342E393632
:10442000310A4E33353220582D32352E3934385931
:104430002D33352E3032330A4E33353320582D325A
:10444000352E393033592D33352E3038320A4E332C
:10445000353420582D32352E383431592D33352E00
:104460003133380A4E33353520582D32352E373614
:1044700033592D33352E3139300A4E3335362058E5
:104480002D32352E363639592D33352E3233390A01
:104490004E33353720582D32352E353539592D3399
:1044A000352E3238340A4E33353820582D32352ED9
:1044B000343333592D33352E3332350A4E333539B3
:1044C00020582D32352E323931592D33352E333691
:1044D000330A4E33363020582D32352E313334598D
:1044E0002D33352E3339370A4E33363120582D329D
:1044F000342E393633592D33352E3432380A4E3373
:10450000363220582D32342E373737592D33352E49
:104510003435350A4E33363320582D32342E353764
:1045200037592D33352E3437370A4E333634205829
:104530002D32342E333637592D33352E3439360A51
:104540004E33363520582D32342E313434592D33F4
:10455000352E3531310A4E33363620582D32332E32
:10456000393039592D33352E3532320A4E333637FC
:1045700020582D32332E363631592D33352E3532E3
:10458000390A4E33363820582D32332E34303359D1
:104590002D33352E3533320A4E33363920582D32ED
:1045A000332E313333592D33352E3533320A4E33D2
:1045B000373020582D32322E383533592D33352EA1
:1045C0003532370A2F4E3235313820473058302EA9
:1045D000333237592D33332E3532315A2D312E3077
:1045E00030300A4E32353139204D3330004E3120D3
:1045F0004732300A4E3520473430204731370A4E93
:104600003130205431204D30360A284E3135204784
:104610003930204730205830205930205A30290A6C
:104620004E3230205335303030204D3033200A4E5A
:1046300032352058302E3036342059302E33323631
:10464000205A300A4E343020473031204631362E41
:10465000300A4E35302058302E3036342059302E26
:104660003332360A4E35352058302E303630205908
:10467000302E3239330A4E36302058302E3037370C
:104680002059302E3236370A4E36352058302E31EA
:1046900031312059302E3235370A4E3730205830DC
:1046A0002E3134392059302E3235320A4E373520EA
:1046B00058302E3138382059302E3235350A4E38A0
:1046C000302058302E3232372059302E3236380AC8
:1046D0004E38352058302E3235372059302E32376B
:1046E000310A4E39302058302E3333352059302E90
:1046F0003236350A4E39352058302E343132205971
:10470000302E3237310A4E3130302058302E343787
:10471000342059302E3238370A4E31303520583057
:104720002E3439312059302E3238390A4E31313059
:104730002058302E3531372059302E3237330A4E3B
:104740003131352058302E3534342059302E323620
:10475000330A4E3132302058302E3538302059301F
:104760002E3236310A4E3132352058302E35393519
:104770002059302E3236330A4E3133302058302E05
:104780003632312059302E3237340A4E313335200B
:1047900058302E3635392059302E3330360A4E31C6
:1047A00034302058302E3637332059302E333335BD
:1047B0000A4E3134352058302E3637392059302EB4
:1047C0003336310A4E3135302058302E36373820C6
:1047D00059302E3338390A4E3135352058302E367F
:1047E00037302059302E3432300A4E31363020588E
:1047F000302E3637302059302E3434360A4E31368A
:10480000352058302E3638302059302E3437340A7F
:104810004E3137302058302E3730342059302E3436
:1048200039370A4E3137352058302E373332205938
:10483000302E3531350A4E3138302058302E373948
:10484000342059302E3533350A4E31383520583022
:104850002E3837322059302E3536370A4E3139301E
:104860002058302E3935302059302E3630340A4E0B
:104870003139352058312E3033312059302E3634ED
:10488000370A4E3230302058312E313439205930E9
:104890002E3732320A4E3230352058312E333038EE
:1048A0002059302E3835340A4E3231302058312ECE
:1048B0003433302059302E3938340A4E32313520D5
:1048C00058312E3434372059302E3938360A4E328A
:1048D00032302058312E3632382059302E3832328C
:1048E0000A4E3232352058312E3733322059302E8D
:1048F0003731340A4E3233302058322E303039209E
:1049000059302E3338310A4E3233352058322E3159
:1049100031362059302E3236360A4E323430205855
:10492000322E3232382059302E3135370A4E323459
:10493000352058322E3238302059302E3132330A59
:104940004E3235302058322E3333322059302E300B
:1049500039340A4E3235352058322E34323320590C
:10496000302E3037300A4E3236302058322E34381E
:10497000392059302E3036350A4E323635205832ED
:104980002E3535372059302E3036360A4E323730F4
:104990002058322E3632372059302E3038340A4ED5
:1049A0003237352058322E3639332059302E3130B7
:1049B000390A4E3238302058322E373330205930B1
:1049C0002E3133330A4E3238352058322E383035B6
:1049D0002059302E3139300A4E3239302058322E9B
:1049E0003832392059302E3231360A4E323935209C
:1049F00058322E3838302059302E3239310A4E3361
:104A000030302058322E3838342059302E33303060
:104A10000A4E3330352058322E3839382059302E4E
:104A20003333320A4E3331302058322E393035206C
:104A300059302E3336370A4E3331352058322E391D
:104A400031302059302E3430370A4E33323020582E
:104A5000322E3930382059302E3434360A4E333223
:104A6000352058322E3930312059302E3439350A1C
:104A70004E3333302058322E3839372059302E34C7
:104A800039350A4E3333352058322E3839302059D3
:104A9000302E3532340A4E3334302058322E3834EA
:104AA000322059302E3630340A4E333435205832C5
:104AB0002E3831342059302E3636350A4E333530C3
:104AC0002058322E3739342059302E3735300A4E9F
:104AD0003335352058322E3739312059302E38337E
:104AE000380A4E3336302058322E3831392059307A
:104AF0002E3937360A4E3336352058322E38333772
:104B00002059312E3034340A4E3337302058322E6B
:104B10003836322059312E3131320A4E3337352072
:104B200058322E3837372059312E3134350A4E332A
:104B300038302058322E3931322059312E32313727
:104B40000A4E3338352058322E3931372059312E1C
:104B50003232360A4E3339302058322E3935312030
:104B600059312E3238310A4E3339352058322E39E8
:104B700037302059312E3239350A4E3430302058F2
:104B8000322E3939362059312E3239350A4E3430E9
:104B9000352058332E3031332059312E3237350AF3
:104BA0004E3431302058332E3032342059312E32A9
:104BB00035340A4E3431352058332E3037302059B1
:104BC000312E3135310A4E3432302058332E3037C1
:104BD000372059312E3133340A4E34323520583390
:104BE0002E3132352059312E3033390A4E3433309C
:104BF0002058332E3133382059312E3031390A4E76
:104C00003433352058332E3230352059302E393058
:104C1000380A4E3434302058332E3238322059304E
:104C20002E3739370A4E3434352058332E33363147
:104C30002059302E3639310A4E3435302058332E33
:104C40003432362059302E3539320A4E343535203B
:104C500058332E3435362059302E3534330A4E34FD
:104C600036302058332E3437392059302E343933EA
:104C70000A4E3436352058332E3439342059302EEC
:104C80003437320A4E3437302058332E3530352001
:104C900059302E3434360A4E3437352058332E35B9
:104CA00031382059302E3431370A4E3438302058BC
:104CB000332E3533302059302E3339310A4E3438C3
:104CC000352058332E3536342059302E3330300AC3
:104CD0004E3439302058332E3537372059302E3264
:104CE00035330A4E3439352058332E35363820596D
:104CF000302E3231320A4E3530302058332E353492
:104D0000342059302E3137360A4E3530352058335D
:104D10002E3534312059302E3134360A4E3531306B
:104D20002058332E3535332059302E3131390A4E43
:104D30003531352058332E3537362059302E313025
:104D4000360A4E3532302058332E35393720593017
:104D50002E3130320A4E3532352058332E36313826
:104D60002059302E3130390A4E3533302058332E09
:104D70003633392059302E3132390A4E3533352009
:104D800058332E3635302059302E3135390A4E35CC
:104D900034302058332E3636332059302E313738C0
:104DA0000A4E3534352058332E3637382059302EB8
:104DB0003139320A4E3535302058332E36393920C4
:104DC00059302E3139370A4E3535352058332E3784
:104DD00032332059302E3139360A4E35363020588C
:104DE000332E3736342059302E3137390A4E353686
:104DF000352058332E3830352059302E3136350A8B
:104E00004E3537302058332E3838342059302E3133
:104E100035390A4E3537352058332E393439205933
:104E2000302E3136350A4E3538302058332E39364B
:104E3000362059302E3137350A4E35383520583323
:104E40002E3937382059302E3139340A4E35393021
:104E50002058332E3937382059302E3232330A4E0B
:104E60003539352058332E3936302059302E3234EA
:104E7000350A4E3630302058332E383334205930EE
:104E80002E3331310A4E3630352058332E373632F4
:104E90002059302E3334350A4E3631302058332ED7
:104EA0003732362059302E3338390A4E36313520D4
:104EB00058332E3730332059302E3435380A4E3699
:104EC00032302058332E3638322059302E35333098
:104ED0000A4E3632352058332E3637392059302E87
:104EE0003533340A4E3633302058332E363236209E
:104EF00059302E3638310A4E3633352058332E3558
:104F000036382059302E3832380A4E363430205850
:104F1000332E3434342059312E3038300A4E363462
:104F2000352058332E3430352059312E3136370A5A
:104F30004E3635302058332E3430342059312E310E
:104F400036370A4E3635352058332E333837205908
:104F5000312E3230380A4E3636302058332E333820
:104F6000342059312E3230380A4E363635205833F7
:104F70002E3336352059312E3236350A4E363730FB
:104F80002058332E3335352059312E3238350A4EDC
:104F90003637352058332E3334382059312E3330BC
:104FA000380A4E3638302058332E333333205931B7
:104FB0002E3335300A4E3638352058332E333231C1
:104FC0002059312E3339310A4E3639302058332E9C
:104FD0003331312059312E3432380A4E36393520AA
:104FE00058332E3333392059312E3432330A4E3769
:104FF00030302058332E3434302059312E3430366E
:105000000A4E3730352058332E3531302059312E65
:105010003430380A4E3731302058332E3538352069
:1050200059312E3432310A4E3731352058332E362D
:1050300031312059312E3433390A4E37323020582D
:10504000332E3631312059312E3434310A4E373235
:10505000352058332E3631352059312E3434310A2B
:105060004E3733302058332E3633362059312E34D4
:1050700038380A4E3733352058332E3633342059DA
:10508000312E3531370A4E3734302058332E3632F0
:10509000322059312E3534330A4E373435205833C7
:1050A0002E3630352059312E3536330A4E373530CD
:1050B0002058332E3537362059312E3537350A4EA4
:1050C0003735352058332E3534342059312E353884
:1050D000310A4E3736302058332E34373920593183
:1050E0002E3539320A4E3736352058332E34353185
:1050F0002059312E3539380A4E3737302058332E63
:105100003338372059312E3632360A4E373735206C
:1051100058332E3339302059312E3633360A4E3734
:1051200038302058332E3533322059312E36303234
:105130000A4E3738352058332E3630312059312E2B
:105140003539370A4E3739302058332E3636382025
:1051500059312E3539380A4E3739352058332E37E4
:1051600038322059312E3631320A4E3830302058FC
:10517000332E3739342059312E3631380A4E3830F3
:10518000352058332E3836382059312E3633360AEA
:105190004E3831302058332E3931382059312E369F
:1051A00035350A4E3831352058332E3934352059AB
:1051B000312E3636370A4E3832302058332E3936B3
:1051C000342059312E3638350A4E3832352058338E
:1051D0002E3936372059312E3638350A4E3833308D
:1051E0002058332E3937342059312E3639390A4E6A
:1051F0003833352058332E3938342059312E373250
:10520000350A4E3834302058332E3938342059314D
:105210002E3735380A4E3834352058332E3937304A
:105220002059312E3739300A4E3835302058332E38
:105230003934352059312E3831370A4E383535203A
:1052400058332E3931382059312E3832360A4E38FB
:1052500036302058332E3839312059312E383237F4
:105260000A4E3836352058332E3834322059312EF4
:105270003830390A4E3837302058332E37393820F5
:1052800059312E3738340A4E3837352058332E37B7
:1052900034362059312E3737320A4E3838302058BC
:1052A000332E3639382059312E3736340A4E3838B5
:1052B000352058332E3633352059312E3736360ABD
:1052C0004E3839302058332E3535332059312E376A
:1052D00038350A4E3839352058332E34373820596E
:1052E000312E3832300A4E3930302058332E343097
:1052F000392059312E3836340A4E3930352058335A
:105300002E3334352059312E3931380A4E39313067
:105310002058332E3236342059322E3032330A4E52
:105320003931352058332E3234382059322E303529
:10533000310A4E3932302058332E3234302059322F
:105340002E3038310A4E3932352058332E3331362B
:105350002059322E3038360A4E3933302058332E09
:105360003339302059322E3130340A4E393335201A
:1053700058332E3431342059322E3132310A4E39DD
:1053800034302058332E3433312059322E313533D6
:105390000A4E3934352058332E3433332059322EC7
:1053A0003138300A4E3935302058332E34323720D8
:1053B00059322E3230350A4E3935352058332E3495
:1053C00031332059322E3232340A4E393630205899
:1053D000332E3339322059322E3234320A4E393696
:1053E000352058332E3333352059322E3234340A97
:1053F0004E3937302058332E3237382059322E323A
:1054000033360A4E3937352058332E323536205947
:10541000322E3234320A4E3938302058332E32335D
:10542000392059322E3235310A4E39383520583329
:105430002E3231312059322E3238300A4E3939303D
:105440002058332E3137342059322E3335360A4E18
:105450003939352058332E3135392059322E3339E8
:10546000370A4E313030302058332E313530205904
:10547000322E3433380A4E313030352058332E3105
:1054800034302059322E3438310A4E313031302008
:1054900058332E3133322059322E3531300A4E31C5
:1054A0003031352058332E3131382059322E3534B1
:1054B000330A4E313032302058332E3039392059AA
:1054C000322E3537360A4E313032352058332E30B1
:1054D00035312059322E3633310A4E3130333020B7
:1054E00058332E3030332059322E3636360A4E316C
:1054F0003033352058322E3935372059322E363850
:10550000350A4E313034302058322E393037205958
:10551000322E3639390A4E313034352058322E3851
:1055200036302059322E3731310A4E313035302065
:1055300058322E3831392059322E3732370A4E310F
:105540003035352058322E3736382059322E373400
:10555000350A4E313036302058322E373136205908
:10556000322E3735370A4E313036352058322E3606
:1055700037352059322E3735370A4E313037302003
:1055800058322E3537392059322E3733310A4E31C1
:105590003037352058322E3537302059322E3732B9
:1055A000330A4E313038302058322E3535392059B3
:1055B000322E3732300A4E313038352058322E35BF
:1055C00033302059322E3730310A4E3130393020C5
:1055D00058322E3530312059322E3639330A4E3179
:1055E0003039352058322E3437312059322E363862
:1055F000330A4E313130302058322E343433205972
:10560000322E3636380A4E313130352058322E336C
:1056100039362059322E3633340A4E31313130206A
:1056200058322E3335342059322E3539310A4E3125
:105630003131352058322E3335322059322E35391A
:10564000310A4E313132302058322E333235205922
:10565000322E3534330A4E313132352058322E3322
:1056600031352059322E3532310A4E313133302026
:1056700058322E3330372059322E3439380A4E31D1
:105680003133352058322E3239362059322E3436C5
:10569000340A4E313134302058322E3239332059C9
:1056A000322E3432370A4E313134352058322E32D0
:1056B00039352059322E3336360A4E3131353020C5
:1056C00058322E3332312059322E3330330A4E3194
:1056D0003135352058322E3335382059322E323478
:1056E000370A4E313136302058322E343139205974
:1056F000322E3230330A4E313136352058322E3484
:1057000031392059322E3137390A4E313137302074
:1057100058322E3430352059322E3135380A4E3138
:105720003137352058322E3336322059322E31322D
:10573000330A4E313138302058322E333534205927
:10574000322E3130340A4E313138352058322E3332
:1057500035342059322E3039310A4E31313930202A
:1057600058322E3338302059322E3036350A4E31E9
:105770003139352058322E3431302059322E3035DF
:10578000310A4E313230302058322E3431302059E7
:10579000322E3034370A4E313230352058322E34E2
:1057A00030352059322E3032380A4E3132313020E5
:1057B00058322E3430382059322E3031300A4E31A2
:1057C0003231352058322E3431362059312E393984
:1057D000350A4E313232302058322E34333320598C
:1057E000312E3938320A4E313232352058322E3489
:1057F00033382059312E3936330A4E313233302086
:1058000058322E3434372059312E3934380A4E313B
:105810003233352058322E3436312059312E393337
:10582000380A4E313234302058322E343830205934
:10583000312E3933310A4E313234352058322E343C
:1058400037382059312E3839390A4E313235302027
:1058500058322E3438372059312E3837350A4E31E8
:105860003235352058322E3530342059312E3835E6
:10587000340A4E313236302058322E3532372059E4
:10588000312E3834380A4E313236352058322E35E2
:1058900034392059312E3834390A4E3132373020DC
:1058A00058322E3537372059312E3836310A4E319D
:1058B0003237352058322E3630342059312E383692
:1058C000360A4E313238302058322E363331205994
:1058D000312E3835340A4E313238352058322E3692
:1058E00034302059312E3832370A4E313239302097
:1058F00058322E3634302059312E3739320A4E3153
:105900003239352058322E3632392059312E37353A
:10591000390A4E313330302058322E363132205948
:10592000312E3732370A4E313330352058322E354A
:1059300037362059312E3639340A4E313331302042
:1059400058322E3533362059312E3636320A4E3102
:105950003331352058322E3437302059312E3631FC
:10596000360A4E313332302058322E3334352059F6
:10597000312E3535310A4E313332352058322E33FF
:1059800030372059312E3532310A4E313333302001
:1059900058322E3236302059312E3438320A4E31B8
:1059A0003333352058322E3234332059312E3437A8
:1059B000370A4E313334302058322E3232382059A3
:1059C000312E3436390A4E313334352058322E32A6
:1059D00032322059312E3434380A4E3133353020AA
:1059E00058322E3232382059312E3432350A4E3167
:1059F0003335352058322E3235342059312E34305B
:105A0000350A4E313336302058322E32363820594E
:105A1000312E3337330A4E313336352058322E3259
:105A200037392059312E3334320A4E313337302052
:105A300058322E3330382059312E3238370A4E3111
:105A40003337352058322E3334302059312E323509
:105A5000340A4E313338302058322E343037205902
:105A6000312E3230310A4E313338352058322E340F
:105A700034312059312E3135360A4E313339302008
:105A800058322E3435342059312E3133310A4E31CB
:105A90003339352058322E3436302059312E3130BA
:105AA000360A4E313430302058322E3436342059B4
:105AB000312E3130320A4E313430352058322E34C6
:105AC00037312059312E3033360A4E3134313020BF
:105AD00058322E3436362059302E3937310A4E316D
