:100000000C94CF360C94F0360C94F0360C94F036F9
:100010000C94F0360C94F0360C94F0360C94F036C8
:100020000C94F0360C94F0360C94F0360C946E8EE2
:100030000C94F0360C94F0360C94EB8A0C94F03659
:100040000C94F0360C94F0360C94F0360C94F03698
:100050000C94F0360C94F0360C94F0360C94F03688
:100060000C94F0360C9415920C94D0910C94F036BC
:100070000C940B960C94AE950C94E8950C94F03679
:100080000C94F78E0C94F0360C94F0360C94F036F9
:100090000C94F0360C94F0360C94F0360C94F03648
:1000A0000C94F0360C94F0360C94F0360C941E65DB
:1000B0000C94C6650C94F0360C94F0360C947E8A41
:1000C0000C94F0360C94F0360C94F0360C94F03618
:1000D0000C94F0360C94F0360C94F0360C94F03608
:1000E0000C940B9A0C94F0360C94F0360C94F03679
:1000F0000C94F0360C94F0360C94F0360C94F036E8
:100100000C94F4640C949C650C94CA640C94726511
:100110000C94F0360C94F0360C94F0360C94F036C7
:100120000C94F0360C94F0360C94F0360C94F036B7
:100130000C94F0360C94A98A0C94F0360C94F0369A
:100140000C94F0360C94F0360C94F0360C94F03697
:100150000C94F0360C94F0360C94019A0C94F03612
:100160000C94F0360C94F0360C94F0360C94F03677
:100170000C94F0360C94F0360C94F0360C94F03667
:100180000C94F0360C94F0360C94F0360C94F03657
:100190000C94F0360C94F0360C94F0360C94F03647
:1001A0000C9448650C94F0650C94F0360C94F03681
:1001B0000C94FA880C94F0360C94F0360C94F036CB
:1001C0000C94F0360C94F0360C94F0360C94F03617
:1001D0000C94F0360C94F0360C94F0360C94F03607
:1001E0000C94F0360C94F0361E6233624862276439
:1001F0002764A061F45F27645D6272628762C762F0
:100200002A61B1622764B56127649C62CA61936107
:10021000276427642764DF61F4610962084AD73BD9
:100220003BCE016E84BCBFFDC12F3D6C74319ABDC5
:1002300056833DDA3D00C77F11BED9E4BB4C3E91E9
:100240006BAAAABE000000803F05A84CCDB2D44ED8
:10025000B93836A9020C50B9918688083CA6AAAADA
:100260002ABE000000803F07634236B79BD8A71A1A
:1002700039685618AEBAAB558C1D3CB7CC5763BD28
:100280006DEDFD753EF6177231BF000000803F082E
:10029000000000BE922449123EABAAAA2ABECDCCD1
:1002A000CC4C3E00000080BEABAAAAAA3E000000D3
:1002B00000BF000000803F0000000000084178D32C
:1002C000BB4387D1133D190E3CC3BD4282AD2B3ECB
:1002D00068EC8276BED98FE1A93E4C80EFFFBE016B
:1002E000C4FF7F3F00000000006E616E00696E6613
:1002F000007379730066620000000003B91B8D5023
:10030000E64A494A0C31AE87AF437379730066768B
:100310000000000003D51B8D50E64A494A083133DE
:1003200033733F6E756C0069640000000000F31BBE
:100330004D500B4A494A1031000000006E756C00A8
:100340006C696E65000001081C4D50CA4D694A3445
:1003500030000000006E756C00666565640000008A
:100360001C1C04506D4C494A1031000000006E7591
:100370006C0073746174000000341CD34FBD4D4990
:100380004A1031000000006E756C006D61637300EF
:1003900000004D1CD34FB04D494A10310000000001
:1003A0006E756C0063796373000000661CD34FA305
:1003B0004D494A1031000000006E756C006D6F747D
:1003C000730000007F1CD34F964D494A1031000046
:1003D00000006E756C00686F6C64000000981CD3A0
:1003E0004F894D494A1031000000006E756C00685D
:1003F0006F6D65000000B11CD34F7C4D494A103130
:10040000000000006E756C0076656C00000000CA8C
:100410001C04505B4D494A1031000000006E756CA1
:1004200000756E6974000000E11CD34F604C494AAE
:100430001031000000006E756C00636F6F72000079
:1004400000FA1CD34F4E4D494A1031000000006E97
:10045000756C006D6F6D6F000000131DD34F414D23
:10046000494A1031000000006E756C00706C616EBE
:100470000000002C1DD34F344D494A1031000000BC
:10048000006E756C0070617468000000451DD34FEC
:10049000274D494A1031000000006E756C006469F8
:1004A00073740000005E1DD34F1A4D494A1031008D
:1004B0000000006E756C0066726D6F000000771DA5
:1004C000D34F0D4D494A1031000000006E756C008D
:1004D000706F7378000000901D824FFB4C494A10EA
:1004E00031000000006E756C00706F7379000000C1
:1004F000A51D824FFB4C494A1031000000006E756B
:100500006C00706F737A000000BA1D824FFB4C497B
:100510004A1031000000006E756C00706F7361004E
:100520000000CF1D824FFB4C494A103100000000F3
:100530006E756C00706F7362000000E41D824FFBEB
:100540004C494A1031000000006E756C00706F73EA
:1005500063000000F91D824FFB4C494A1031000036
:1005600000006E756C006D706F780000000E1E82CA
:100570004FE94C494A1031000000006E756C006D67
:10058000706F79000000271E824FE94C494A1031F4
:10059000000000006E756C006D706F7A0000004006
:1005A0001E824FE94C494A1031000000006E756C04
:1005B000006D706F61000000591E824FE94C494A7E
:1005C0001031000000006E756C006D706F620000ED
:1005D00000721E824FE94C494A1031000000006E43
:1005E000756C006D706F630000008B1E824FE94CCC
:1005F000494A1031000000006E756C0073720000F3
:10060000000000A41EE74CE34C87571031000000A7
:10061000006E756C0071720000000000A41E054B96
:10062000DF4C494A1031000000006E756C006C7898
:100630000000000000A51E4D50D04CBF4C103100F2
:100640000000006E756C0070620000000000B61EB5
:100650004D50AA4C494A1031000000006E756C00E4
:1006600072780000000000A41E4D50954C494A10BD
:1006700031000000006E756C006D736700000000B3
:10068000CB1ED34FA94A494A1031000000006E75B5
:100690006C0074657374000000A41E9A67AE4AD2A1
:1006A0008D1431000000006E756C00646566610099
:1006B0000000A41EBB67A94A3B5710310000000090
:1006C0006E756C0068656C70000000A41E6567A9FB
:1006D0004A494A1031000000006E756C0068000045
:1006E00000000000A41E6567A94A494A10310000B5
:1006F00000007379730067706C00000003CF1E491F
:100700004FAE4A4B4A8C3300000000737973006788
:10071000756E00000003F61E494FAE4A4B4A8D33FA
:100720000000803F7379730067636F000000031B54
:100730001F494FAE4A4B4A8B330000803F73797399
:100740000067706100000003401F494FAE4A4B4AEA
:100750008E33000000407379730067646900000005
:1007600003671F494FAE4A4B4A8F33000000006EAB
:10077000756C00676300000000008C1F054B064B82
:10078000884C103100000000737973006A6100002A
:10079000000003911F04506D4C254C86330050C35C
:1007A00047737973006D6C0000000003B51F04509F
:1007B0006D4C254C7A330AD7A33D737973006D6174
:1007C0000000000003D51F04506D4C254C7E33CD36
:1007D000CCCC3D737973006D740000000003F41FEE
:1007E0000450E64A8A4A823300409C45737973007C
:1007F000737400000000031720494FAE4A1F4C38A5
:100800003F0000000073797300696300000000037B
:100810003420494FAE4A3D4E9033000000007379BA
:100820007300656500000000036320494FAE4A680D
:100830004E92330000000073797300657800000069
:1008400000038620494FAE4AF54B93330000803FAA
:100850007379730065710000000003A920494FAE51
:100860004A4B4A94330000803F73797300656A00F5
:1008700000000003CE20494FAE4A4B4A9633000099
:10088000803F737973006A650000000003F120491E
:100890004FAE4A4B4A953300004040737973007362
:1008A00069000000000312218D50CA4A0D4A993395
:1008B0000000484373797300626175640000003E74
:1008C00021494FAE4AD65397330000A04031000073
:1008D00000316D61000000035E21494FAE4A4B4A72
:1008E000513400000000310000003173610000004D
:1008F000038621064FE64A254E55346666E63F31AB
:1009000000000031747200000003A32104506D4CFC
:10091000314E59348D17584231000000316D690055
:10092000000003CA21494FAE4A3F53523400000031
:10093000413100000031706F00000003EE21494F8B
:10094000AE4AA54B53340000803F310000003170A7
:100950006D000000030E22494FAE4A4B4A5434004A
:1009600000803F32000000326D610000000333223E
:10097000494FAE4A4B4A61340000803F32000000CC
:10098000327361000000035B22064FE64A254E6584
:10099000346666E63F3200000032747200000003E5
:1009A000782204506D4C314E69348941094232003D
:1009B0000000326D69000000039F22494FAE4A3F9C
:1009C000536234000000413200000032706F0000BA
:1009D0000003C322494FAE4AA54B63340000803F59
:1009E0003200000032706D00000003E322494FAE78
:1009F0004A4B4A64340000803F33000000336D618D
:100A0000000000030823494FAE4A4B4A71340000EE
:100A10000040330000003373610000000330230600
:100A20004FE64A254E753400007041330000003314
:100A30007472000000034D2304506D4C314E793424
:100A400031081C4033000000336D6900000003745E
:100A500023494FAE4A3F53723400008040330000B8
:100A60000033706F000000039823494FAE4AA54B36
:100A700073340000803F3300000033706D000000CD
:100A800003B823494FAE4A4B4A74340000803F34C8
:100A9000000000346D6100000003DD23494FAE4AC1
:100AA0004B4A813400004040340000003473610040
:100AB0000000030524064FE64A254E85346666E6A7
:100AC0003F340000003474720000000322240450FC
:100AD0006D4C314E89340000344334000000346DD5
:100AE00069000000034924494FAE4A3F5382340055
:100AF0000000413400000034706F000000036D24DA
:100B0000494FAE4AA54B83340000803F34000000BB
:100B100034706D000000038D24494FAE4A4B4A8467
:100B2000340000803F7800000078616D0000000311
:100B3000B224C34E484BD25291340000803F78001B
:100B4000000078766D00000003CC2404506D4C2525
:100B50004C963400606A46780000007866720000A7
:100B60000003F22404506D4C254C923400007A446A
:100B70007800000078746D00000003182504506DA3
:100B80004C254C9A340000A04378000000786A6D30
:100B900000000003382504506D4C254C9E34A4936E
:100BA000564E78000000786A64000000035C25045B
:100BB000506D4C254CA2340AD7233C7800000078B5
:100BC000736E000000039325494FAE4A1F4C433F0C
:100BD0000000803F7800000078737800000003B1C7
:100BE00025494FAE4A1F4C443F00000000780000EA
:100BF0000078737600000003CF2504506D4C254C1F
:100C0000AA340000FAC478000000786C7600000076
:100C100003F42504506D4C254CAE340000FA4378A3
:100C2000000000786C6200000003182604506D4C30
:100C3000254CB2340000404178000000787A620010
:100C4000000003372604506D4C254CB6340000A03C
:100C5000407900000079616D000000035526C34E05
:100C6000484BD252BA340000803F790000007976B8
:100C70006D000000036F2604506D4C254CBF3400FE
:100C8000606A4679000000796672000000039526CC
:100C900004506D4C254CBB3400007A4479000000B0
:100CA00079746D00000003BB2604506D4C254CC3C5
:100CB00034000080BF79000000796A6D00000003F5
:100CC000DB2604506D4C254CC734A493564E790056
:100CD0000000796A6400000003FF2604506D4C2573
:100CE0004CCB340AD7233C7900000079736E0000A6
:100CF00000033627494FAE4A1F4C453F0000000015
:100D000079000000797378000000035427494FAE42
:100D10004A1F4C463F0000000079000000797376BE
:100D200000000003722704506D4C254CD3340000A2
:100D30007AC479000000796C7600000003972704DC
:100D4000506D4C254CD73400007A4479000000796E
:100D50006C6200000003BB2704506D4C254CDB3453
:100D60000000803F79000000797A6200000003DA19
:100D70002704506D4C254CDF34000000007A000041
:100D8000007A616D00000003F827C34E484BD25231
:100D9000E3340000803F7A0000007A766D000000A6
:100DA00003122804506D4C254CE83400401C467A50
:100DB0000000007A667200000003382804506D4C71
:100DC000254CE43400007A447A0000007A746D0007
:100DD0000000035E2804506D4C254CEC340000C824
:100DE000417A0000007A6A6D000000037E280450FA
:100DF0006D4C254CF034A493564E7A0000007A6A6C
:100E00006400000003A22804506D4C254CF4340A01
:100E1000D7233C7A0000007A736E00000003D928C3
:100E2000494FAE4A1F4C473F0000803F7A00000008
:100E30007A737800000003F728494FAE4A1F4C48E8
:100E40003F000000007A0000007A73760000000383
:100E5000152904506D4C254CFC3400007A447A006E
:100E600000007A6C76000000033A2904506D4C258E
:100E70004C00350000FA437A0000007A6C620000F2
:100E800000035E2904506D4C254C043500004041A0
:100E90007A0000007A7A62000000037D2904506D18
:100EA0004C254C08350000A4416100000061616DD3
:100EB000000000039B29C34E484BD2520C35000062
:100EC000803F6100000061766D00000003B52906D7
:100ED0004FE64A8A4A113500606A476100000061A6
:100EE000667200000003DB29064FE64A8A4A0D3588
:100EF0000000E1456100000061746D000000030125
:100F00002A064FE64A8A4A15350080BB4361000035
:100F100000616A6D00000003232A064FE64A8A4AF0
:100F200019355ED0B25061000000616A64000000B3
:100F300003472A064FE64A8A4A1D35CDCCCC3D618F
:100F4000000000617261000000036B2A064FE64A50
:100F50008A4A21350000803F6100000061736E0005
:100F6000000003892A494FAE4A1F4C493F000080C8
:100F70003F6100000061737800000003A72A494F19
:100F8000AE4A1F4C4A3F0000000061000000617340
:100F90007600000003C52A064FE64A8A4A25350036
:100FA00080BB4561000000616C7600000003EA2A06
:100FB000064FE64A8A4A29350000164461000000BF
:100FC000616C62000000030E2B064FE64A8A4A2D30
:100FD000350000704161000000617A62000000038A
:100FE0002D2B064FE64A8A4A31350000803F6200C9
:100FF000000062616D000000034B2BC34E484BD2D2
:10100000523535000000006200000062766D00007D
:101010000003652B064FE64A8A4A3A3500006145CF
:1010200062000000626672000000038B2B064FE630
:101030004A8A4A3635000061456200000062746DDC
:1010400000000003B12B064FE64A8A4A3E350000F5
:1010500080BF62000000626A6D00000003D12B06B1
:101060004FE64A8A4A4235A493564E620000006217
:101070006A6400000003F52B064FE64A8A4A4635AB
:101080000AD7233C6200000062726100000003196D
:101090002C064FE64A8A4A4A350000803F6300002A
:1010A0000063616D00000003372CC34E484BD252E1
:1010B0005E35000000006300000063766D000000F4
:1010C00003512C064FE64A8A4A63350000614563A6
:1010D00000000063667200000003772C064FE64AAA
:1010E0008A4A5F35000061456300000063746D004B
:1010F0000000039D2C064FE64A8A4A6735000080AF
:10110000BF63000000636A6D00000003BD2C064F42
:10111000E64A8A4A6B35A493564E63000000636A20
:101120006400000003E12C064FE64A8A4A6F350A44
:10113000D7233C6300000063726100000003052DAB
:10114000064FE64A8A4A73350000803F703100003E
:1011500070316672710003232D8D50E64A8A4A87EA
:10116000350000C84270310000703163736C0003B9
:10117000462D8D50E64A8A4A8B3500007A447031FC
:101180000000703163736800036A2D8D50E64A8A4F
:101190004A8F350000FA4470310000703163706C82
:1011A00000038E2D8D50E64A8A4A93350000003E9A
:1011B0007031000070316370680003B52D8D50E60A
:1011C0004A8A4A9735CDCC4C3E7031000070317759
:1011D000736C0003DC2D8D50E64A8A4A9B35000073
:1011E0007A447031000070317773680003002E8DEF
:1011F00050E64A8A4A9F350000FA44703100007078
:101200003177706C0003242E8D50E64A8A4AA3354C
:101210000000003E70310000703177706800034BB1
:101220002E8D50E64A8A4AA735CDCC4C3E7031000F
:10123000007031706F660003722E064FE64A8A4ACC
:10124000AB35CDCCCC3D6735340067353478000004
:1012500003992E04506D4C254CC1330000000067EB
:1012600035340067353479000003B62E04506D4CD8
:10127000254CC53300000000673534006735347AEB
:10128000000003D32E04506D4C254CC933000000E0
:10129000006735340067353461000003F02E0450D8
:1012A0006D4C254CCD3300000000673534006735A8
:1012B00034620000030D2F04506D4C254CD13300D7
:1012C00000000067353400673534630000032A2FBF
:1012D00004506D4C254CD5330000000067353500B7
:1012E00067353578000003472F04506D4C254CD9E5
:1012F000330000000067353500673535790000039D
:10130000642F04506D4C254CDD3300000000673520
:1013100035006735357A000003812F04506D4C2568
:101320004CE133000000006735350067353561005A
:1013300000039E2F04506D4C254CE5330000000047
:101340006735350067353562000003BB2F04506DEB
:101350004C254CE933000000006735350067353512
:1013600063000003D82F04506D4C254CED33000072
:1013700000006735360067353678000003F52F0426
:10138000506D4C254CF13300000000673536006786
:10139000353679000003123004506D4C254CF5337E
:1013A00000000000673536006735367A0000032FED
:1013B0003004506D4C254CF9330000000067353681
:1013C00000673536610000034C3004506D4C254CED
:1013D000FD330000000067353600673536620000D7
:1013E00003693004506D4C254C0134000000006747
:1013F00035360067353663000003863004506D4C87
:10140000254C053400000000673537006735377814
:10141000000003A33004506D4C254C09340000003B
:10142000006735370067353779000003C030045056
:101430006D4C254C0D3400000000673537006735D2
:10144000377A000003DD3004506D4C254C11340018
:101450000000006735370067353761000003FA3058
:1014600004506D4C254C15340000000067353700E2
:1014700067353762000003173104506D4C254C1955
:10148000340000000067353700673537630000031C
:10149000343104506D4C254C1D340000000067357C
:1014A000380067353878000003513104506D4C2501
:1014B0004C2134000000006735380067353879006A
:1014C00000036E3104506D4C254C253400000000A3
:1014D000673538006735387A0000038B3104506D6A
:1014E0004C254C293400000000673538006735383A
:1014F00061000003A83104506D4C254C2D340000D0
:1015000000006735380067353862000003C53104D4
:10151000506D4C254C3134000000006735380067B1
:10152000353863000003E23104506D4C254C3534EE
:10153000000000006735390067353978000003FF87
:101540003104506D4C254C393400000000673539AA
:1015500000673539790000031C3204506D4C254C6E
:101560003D3400000000673539006735397A0000E6
:1015700003393204506D4C254C41340000000067A3
:1015800035390067353961000003563204506D4C1F
:10159000254C453400000000673539006735396255
:1015A000000003733204506D4C254C493400000098
:1015B0000067353900673539630000039032045005
:1015C0006D4C254C4D3400000000673932006739FE
:1015D0003278000001AD3204506D4C494A68300049
:1015E0000000006739320067393279000001C732E4
:1015F00004506D4C494A6C300000000067393200DD
:101600006739327A000001E13204506D4C494A706A
:101610003000000000673932006739326100000194
:10162000FB32064FE64A494A743000000000673931
:101630003200673932620000011533064FE64A492D
:101640004A783000000000673932006739326300A1
:1016500000012F33064FE64A494A7C300000000063
:101660006E756C0073653030000002A41E054BCA15
:101670004A694A9D33000000006E756C0073653046
:1016800031000002A41E054BCA4A694A9E3300007D
:1016900000006E756C0073653032000002A41E05F8
:1016A0004BCA4A694A9F33000000006E756C007394
:1016B000653033000002A41E054BCA4A694AA033B4
:1016C000000000006E756C0073653034000002A4E9
:1016D0001E054BCA4A694AA133000000006E756CB2
:1016E0000073653035000002A41E054BCA4A694AE2
:1016F000A233000000006E756C0073653036000088
:1017000002A41E054BCA4A694AA333000000006EBA
:10171000756C0073653037000002A41E054BCA4A81
:10172000694AA433000000006E756C0073653038A0
:10173000000002A41E054BCA4A694AA533000000F6
:10174000006E756C0073653039000002A41E054BF5
:10175000CA4A694AA633000000006E756C007365C2
:101760003130000002A41E054BCA4A694AA7330063
:101770000000006E756C0073653131000002A41E1C
:10178000054BCA4A694AA833000000007379730008
:1017900073797300000000A41E054BBF511B571046
:1017A00031000000007031000070310000000000C6
:1017B000A41E054BBF511B57103100000000310023
:1017C000000031000000000000A41E054BBF511BAB
:1017D000571031000000003200000032000000000D
:1017E0000000A41E054BBF511B5710310000000024
:1017F0003300000033000000000000A41E054BBFB2
:10180000511B57103100000000340000003400006C
:1018100000000000A41E054BBF511B5710310000F3
:1018200000007800000078000000000000A41E0501
:101830004BBF511B571031000000007900000079A8
:10184000000000000000A41E054BBF511B571031C3
:10185000000000007A0000007A000000000000A4F0
:101860001E054BBF511B57103100000000610000E6
:101870000061000000000000A41E054BBF511B5773
:101880001031000000006200000062000000000053
:1018900000A41E054BBF511B571031000000006310
:1018A00000000063000000000000A41E054BBF51B3
:1018B0001B571031000000006735340067353400D5
:1018C000000000A41E054BBF511B57103100000043
:1018D000006735350067353500000000A41E054B54
:1018E000BF511B57103100000000673536006735C7
:1018F0003600000000A41E054BBF511B57103100DD
:101900000000006735370067353700000000A41E6F
:10191000054BBF511B5710310000000067353800E0
:1019200067353800000000A41E054BBF511B57103F
:1019300031000000006735390067353900000000CC
:10194000A41E054BBF511B57103100000000673922
:10195000320067393200000000A41E054BBF511B46
:1019600057103100000000706F7300706F7300003B
:101970000000A41E054BBF511B5710310000000092
:101980006D706F006D706F00000000A41E054BBFEE
:10199000511B571031000000006D0000006D000069
:1019A00000000000A41E054B4556494A10310000B6
:1019B00000006E0000006E000000000000A41E0584
:1019C0004B2A56494A1031000000006F0000006F9A
:1019D000000000000000A41E054B0F56494A1031BC
:1019E000000000002400000024000000000000A40B
:1019F0001E054B6056494A1031000000002A2A2A71
:101A0000205741524E494E47202A2A2A20556E73AC
:101A10007570706F72746564206C696E6561722098
:101A200061786973206D6F64652E20417869732039
:101A300044495341424C4544002A2A2A20574152E6
:101A40004E494E47202A2A2A20556E737570706FB2
:101A50007274656420726F74617279206178697341
:101A6000206D6F64652E204178697320444953418D
:101A7000424C454400493354335F336B3374337EF7
:101A800033883392339D33A833B3332A2A2A20571D
:101A900041524E494E47202A2A2A204E6F6E2D73FE
:101AA00074616E64617264206D6963726F737465D2
:101AB000702076616C756500BF33C333C733CC3398
:101AC000CE33D333D933DF33E533EC332A2A2A201C
:101AD0004E4F54494345202A2A2A20526573747474
:101AE000696E672062617564207261746520746F2D
:101AF000202553002A2A2A205741524E494E47207A
:101B00002A2A2A20496C6C6567616C2062617564C1
:101B1000207261746520737065636966696564002D
:101B2000F33324343C345934793479348F34A53444
:101B3000B434C334D234EF3401351A353B35623511
:101B400082359C35B635D035EA3504361E3630360A
:101B50004636503656365A365F3664366A366F36F3
:101B6000743678367D368136893690369636A33689
:101B7000A936AF36B436B836C536CB36D036D436BD
:101B8000D836DD36E336E936F03625733A25312E80
:101B900033660025733A25312E30660025733A25C9
:101BA00073000A002C0025312E33660025312E30BB
:101BB00066002573000A002C005B66625D202066CB
:101BC00069726D776172655F6275696C6425313821
:101BD0002E32660A005B66765D20206669726D773C
:101BE0006172655F76657273696F6E2531362E326C
:101BF000660A005B69645D202069645F64657669DC
:101C00006365253136640A004C696E65206E756D1A
:101C10006265723A2531302E30660A004665656489
:101C200020726174653A2531362E336625532F6D47
:101C3000696E0A004D616368696E65207374617432
:101C4000653A2020202020202025730A0052617749
:101C5000206D616368696E652073746174653A20F4
:101C6000202025730A004379636C652073746174C6
:101C7000653A20202020202020202025730A004DB6
:101C80006F74696F6E2073746174653A2020202030
:101C90002020202025730A0046656564686F6C6407
:101CA0002073746174653A20202020202025730A57
:101CB00000486F6D696E672073746174653A202007
:101CC00020202020202025730A0056656C6F636950
:101CD00074793A2531372E336625532F6D696E0A94
:101CE00000556E6974733A20202020202020202087
:101CF00020202020202025730A00436F6F72646922
:101D00006E6174652073797374656D3A20202025A7
:101D1000730A004D6F74696F6E206D6F64653A20B1
:101D2000202020202020202025730A00506C616E86
:101D3000653A202020202020202020202020202044
:101D40002025730A0050617468204D6F64653A2045
:101D50002020202020202020202025730A004469F4
:101D60007374616E6365206D6F64653A2020202076
:101D700020202025730A0046656564207261746521
:101D8000206D6F64653A20202020202025730A00F2
:101D90005820706F736974696F6E3A2531352E3330
:101DA0006625530A005920706F736974696F6E3A23
:101DB0002531352E336625530A005A20706F73691A
:101DC00074696F6E3A2531352E336625530A00410A
:101DD00020706F736974696F6E3A2531352E3366E2
:101DE00025530A004220706F736974696F6E3A253B
:101DF00031352E336625530A004320706F736974A2
:101E0000696F6E3A2531352E336625530A00582006
:101E10006D616368696E6520706F736E3A2531314C
:101E20002E336625530A0059206D616368696E651B
:101E300020706F736E3A2531312E336625530A00B8
:101E40005A206D616368696E6520706F736E3A2504
:101E500031312E336625530A0041206D6163686974
:101E60006E6520706F736E3A2531312E33662553BF
:101E70000A0042206D616368696E6520706F736E41
:101E80003A2531312E336625530A0043206D6163B4
:101E900068696E6520706F736E3A2531312E336636
:101EA00025530A00004C696E6520696E6465783AB6
:101EB000253133640A00506C616E6E657220627564
:101EC00066666572733A2538640A0025730A005BFA
:101ED00067706C5D2067636F64655F73656C6563D5
:101EE000745F706C616E652025313064205B302C2E
:101EF000312C325D0A005B67756E5D2067636F642D
:101F0000655F756E6974735F6D6F64652020202551
:101F1000313064205B302C315D0A005B67636F5D9C
:101F20002067636F64655F636F6F72645F7379735B
:101F300074656D2025313064205B312D365D0A00DB
:101F40005B6770615D2067636F64655F7061746873
:101F50005F636F6E74726F6C2025313064205B306C
:101F60002C312C325D0A005B6764695D2067636F0A
:101F700064655F64697374616E63655F6D6F6465EA
:101F800025313064205B302C315D0A005B67635D76
:101F9000005B6A615D20206A756E6374696F6E5FB5
:101FA000616363656C65726174696F6E25382E308C
:101FB0006625530A005B6D6C5D20206D696E5F6C59
:101FC000696E655F7365676D656E742531372E3395
:101FD0006625530A005B6D615D20206D696E5F614F
:101FE00072635F7365676D656E742531382E336675
:101FF00025530A005B6D745D20206D696E5F73650B
:10200000676D656E745F74696D652531332E30665A
:1020100020755365630A005B73745D2020737769D4
:102020007463685F7479706525313864205B302C87
:10203000315D0A005B69635D202069676E6F7265C0
:10204000204352206F72204C46206F6E2052582041
:10205000253764205B302C313D43522C323D4C46B9
:102060005D0A005B65655D2020656E61626C655F81
:102070006563686F20202020202025313264205B9A
:10208000302C315D0A005B65785D2020656E6162F1
:102090006C655F786F6E5F786F66662020253132E1
:1020A00064205B302C315D0A005B65715D2020652A
:1020B0006E61626C655F71756575655F7265706F85
:1020C000727473253964205B302C315D0A005B65C6
:1020D0006A5D2020656E61626C655F6A736F6E5F1A
:1020E0006D6F64652025313264205B302C315D0AD0
:1020F000005B6A655D20206A736F6E5F6563686F61
:102100005F6D6F64652025313464205B302D345D54
:102110000A005B73695D20207374617475735F6975
:102120006E74657276616C202020202531302E304F
:1021300066206D73205B303D6F66665D0A005B62F2
:102140006175645D2055534220626175642072613F
:10215000746525313564205B302D365D0A005B31B6
:102160006D615D206D315F6D61705F746F5F61786F
:10217000697325313564205B303D582C20313D5941
:102180002E2E2E5D0A005B3173615D206D315F7311
:102190007465705F616E676C652532302E3366251D
:1021A000530A005B3174725D206D315F7472617629
:1021B000656C5F7065725F7265766F6C7574696F60
:1021C0006E25392E336625530A005B316D695D201B
:1021D0006D315F6D6963726F737465707320253143
:1021E0003564205B312C322C342C385D0A005B3195
:1021F000706F5D206D315F706F6C617269747920F2
:10220000202025313564205B302C315D0A005B31A4
:10221000706D5D206D315F706F7765725F6D616E9F
:102220006167656D656E7425313064205B302C31DB
:102230005D0A005B326D615D206D325F6D61705FC4
:10224000746F5F6178697325313564205B303D5868
:102250002C20313D592E2E2E5D0A005B3273615DBC
:10226000206D325F737465705F616E676C652532D7
:10227000302E336625530A005B3274725D206D3256
:102280005F74726176656C5F7065725F7265766FA0
:102290006C7574696F6E25392E336625530A005BA1
:1022A000326D695D206D325F6D6963726F73746545
:1022B00070732025313564205B312C322C342C385E
:1022C0005D0A005B32706F5D206D325F706F6C6114
:1022D0007269747920202025313564205B302C31DF
:1022E0005D0A005B32706D5D206D325F706F7765E7
:1022F000725F6D616E6167656D656E742531306406
:10230000205B302C315D0A005B336D615D206D33E5
:102310005F6D61705F746F5F6178697325313564DB
:10232000205B303D582C20313D592E2E2E5D0A0069
:102330005B3373615D206D335F737465705F616ED5
:10234000676C652532302E336625530A005B337483
:10235000725D206D335F74726176656C5F7065725B
:102360005F7265766F6C7574696F6E25392E336692
:1023700025530A005B336D695D206D335F6D6963C2
:10238000726F73746570732025313564205B312C56
:10239000322C342C385D0A005B33706F5D206D3356
:1023A0005F706F6C6172697479202020253135640B
:1023B000205B302C315D0A005B33706D5D206D3326
:1023C0005F706F7765725F6D616E6167656D656E79
:1023D0007425313064205B302C315D0A005B346D34
:1023E000615D206D345F6D61705F746F5F617869EE
:1023F0007325313564205B303D582C20313D592EFA
:102400002E2E5D0A005B3473615D206D345F737442
:1024100065705F616E676C652532302E33662553BB
:102420000A005B3474725D206D345F74726176658E
:102430006C5F7065725F7265766F6C7574696F6ED4
:1024400025392E336625530A005B346D695D206D96
:10245000345F6D6963726F737465707320253135F5
:1024600064205B312C322C342C385D0A005B3470D4
:102470006F5D206D345F706F6C61726974792020BC
:102480002025313564205B302C315D0A005B3470CF
:102490006D5D206D345F706F7765725F6D616E6129
:1024A00067656D656E7425313064205B302C315D5D
:1024B0000A005B78616D5D20785F617869735F6D9C
:1024C0006F6465253138642025530A005B78766D8A
:1024D0005D20785F76656C6F636974795F6D617894
:1024E000696D756D2531352E336625532F6D696EF7
:1024F0000A005B7866725D20785F6665656472616C
:1025000074655F6D6178696D756D2531352E336643
:1025100025532F6D696E0A005B78746D5D20785FBE
:1025200074726176656C5F6D6178696D756D25316A
:10253000372E336625530A005B786A6D5D20785F1D
:102540006A65726B5F6D6178696D756D2531352EC9
:10255000306625532F6D696E5E330A005B786A64BE
:102560005D20785F6A756E6374696F6E5F6465760F
:10257000696174696F6E2531342E346625532028C5
:102580006C6172676572206973206661737465722D
:10259000290A005B78736E5D20785F7377697463D6
:1025A000685F6D696E25313764205B302D345D0ABC
:1025B000005B7873785D20785F7377697463685F18
:1025C0006D617825313764205B302D345D0A005B06
:1025D0007873765D20785F7365617263685F766596
:1025E0006C6F636974792531362E336625532F6DF0
:1025F000696E0A005B786C765D20785F6C6174634D
:10260000685F76656C6F636974792531372E336640
:1026100025532F6D696E0A005B786C625D20785FD0
:102620006C617463685F6261636B6F6666253138E5
:102630002E336625530A005B787A625D20785F7AD4
:1026400065726F5F6261636B6F66662531392E3329
:102650006625530A005B79616D5D20795F61786959
:10266000735F6D6F6465253138642025530A005B04
:1026700079766D5D20795F76656C6F636974795FDB
:102680006D6178696D756D2531352E336625532F53
:102690006D696E0A005B7966725D20795F666565BB
:1026A00064726174655F6D6178696D756D25313532
:1026B0002E336625532F6D696E0A005B79746D5D4C
:1026C00020795F74726176656C5F6D6178696D7594
:1026D0006D2531372E336625530A005B796A6D5DAF
:1026E00020795F6A65726B5F6D6178696D756D25C4
:1026F00031352E306625532F6D696E5E330A005BCF
:10270000796A645D20795F6A756E6374696F6E5F64
:10271000646576696174696F6E2531342E3466257F
:102720005320286C6172676572206973206661733B
:10273000746572290A005B79736E5D20795F737727
:10274000697463685F6D696E25313764205B302D75
:10275000345D0A005B7973785D20795F7377697403
:1027600063685F6D617825313764205B302D345D9F
:102770000A005B7973765D20795F736561726368C7
:102780005F76656C6F636974792531362E33662503
:10279000532F6D696E0A005B796C765D20795F6CF2
:1027A000617463685F76656C6F636974792531372E
:1027B0002E336625532F6D696E0A005B796C625D5E
:1027C00020795F6C617463685F6261636B6F6666DA
:1027D0002531382E336625530A005B797A625D20F5
:1027E000795F7A65726F5F6261636B6F66662531D0
:1027F000392E336625530A005B7A616D5D207A5F5E
:10280000617869735F6D6F64652531386420255385
:102810000A005B7A766D5D207A5F76656C6F63691E
:1028200074795F6D6178696D756D2531352E33660C
:1028300025532F6D696E0A005B7A66725D207A5FA0
:1028400066656564726174655F6D6178696D756DEB
:102850002531352E336625532F6D696E0A005B7A5C
:10286000746D5D207A5F74726176656C5F6D6178FE
:10287000696D756D2531372E336625530A005B7AF5
:102880006A6D5D207A5F6A65726B5F6D6178696DF4
:10289000756D2531352E306625532F6D696E5E338B
:1028A0000A005B7A6A645D207A5F6A756E63746998
:1028B0006F6E5F646576696174696F6E2531342E61
:1028C0003466255320286C61726765722069732015
:1028D000666173746572290A005B7A736E5D207A93
:1028E0005F7377697463685F6D696E253137642043
:1028F0005B302D345D0A005B7A73785D207A5F73FC
:1029000077697463685F6D617825313764205B3067
:102910002D345D0A005B7A73765D207A5F736561A2
:102920007263685F76656C6F636974792531362EE2
:10293000336625532F6D696E0A005B7A6C765D20D5
:102940007A5F6C617463685F76656C6F63697479D4
:102950002531372E336625532F6D696E0A005B7A59
:102960006C625D207A5F6C617463685F6261636B47
:102970006F66662531382E336625530A005B7A7AF6
:10298000625D207A5F7A65726F5F6261636B6F660A
:10299000662531392E336625530A005B61616D5D12
:1029A00020615F617869735F6D6F6465253138649C
:1029B0002025530A005B61766D5D20615F76656C52
:1029C0006F636974795F6D6178696D756D253135F7
:1029D0002E336625532F6D696E0A005B6166725D4A
:1029E00020615F66656564726174655F6D617869B9
:1029F0006D756D2531352E336625532F6D696E0A41
:102A0000005B61746D5D20615F74726176656C5FFF
:102A10006D6178696D756D20202531352E33662501
:102A2000530A005B616A6D5D20615F6A65726B5F6E
:102A30006D6178696D756D2531352E306625532FA2
:102A40006D696E5E330A005B616A645D20615F6A76
:102A5000756E6374696F6E5F646576696174696FC2
:102A60006E2531342E346625530A005B6172615D38
:102A700020615F7261646975735F76616C7565254D
:102A800032302E346625530A005B61736E5D20611F
:102A90005F7377697463685F6D696E253137642091
:102AA0005B302D345D0A005B6173785D20615F737C
:102AB00077697463685F6D617825313764205B30B6
:102AC0002D345D0A005B6173765D20615F73656123
:102AD0007263685F76656C6F636974792531362E31
:102AE000336625532F6D696E0A005B616C765D203D
:102AF000615F6C617463685F76656C6F636974793C
:102B00002531372E336625532F6D696E0A005B61C0
:102B10006C625D20615F6C617463685F6261636BAE
:102B20006F66662531382E336625530A005B617A5D
:102B3000625D20615F7A65726F5F6261636B6F6671
:102B4000662531392E336625530A005B62616D5D5F
:102B500020625F617869735F6D6F646525313864E9
:102B60002025530A005B62766D5D20625F76656C9E
:102B70006F636974795F6D6178696D756D25313545
:102B80002E336625532F6D696E0A005B6266725D97
:102B900020625F66656564726174655F6D61786906
:102BA0006D756D2531352E336625532F6D696E0A8F
:102BB000005B62746D5D20625F74726176656C5F4C
:102BC0006D6178696D756D2531372E336625530A31
:102BD000005B626A6D5D20625F6A65726B5F6D614A
:102BE00078696D756D2531352E306625532F6D69E9
:102BF0006E5E330A005B626A645D20625F6A756EB6
:102C00006374696F6E5F646576696174696F6E2560
:102C100031342E346625530A005B6272615D206296
:102C20005F7261646975735F76616C7565253230BA
:102C30002E346625530A005B63616D5D20635F611E
:102C40007869735F6D6F6465253138642025530A98
:102C5000005B63766D5D20635F76656C6F6369749E
:102C6000795F6D6178696D756D2531352E33662517
:102C7000532F6D696E0A005B6366725D20635F6649
:102C8000656564726174655F6D6178696D756D25E8
:102C900031352E336625532F6D696E0A005B6374E0
:102CA0006D5D20635F74726176656C5F6D617869DC
:102CB0006D756D2531372E336625530A005B636AC7
:102CC0006D5D20635F6A65726B5F6D6178696D75BC
:102CD0006D2531352E306625532F6D696E5E330AB2
:102CE000005B636A645D20635F6A756E6374696F1D
:102CF0006E5F646576696174696F6E2531342E3458
:102D00006625530A005B6372615D20635F726164D4
:102D10006975735F76616C75652532302E34662572
:102D2000530A005B70316672715D2070776D5F666B
:102D300072657175656E63792020202531352E33DB
:102D40006620487A0A005B703163736C5D2070778F
:102D50006D5F63775F73706565645F6C6F202531AD
:102D6000352E33662052504D0A005B703163736814
:102D70005D2070776D5F63775F73706565645F6812
:102D800069202531352E33662052504D0A005B7084
:102D90003163706C5D2070776D5F63775F70686121
:102DA00073655F6C6F202531352E3366205B302EC6
:102DB0002E315D0A005B70316370685D2070776D45
:102DC0005F63775F70686173655F6869202531357F
:102DD0002E3366205B302E2E315D0A005B7031771A
:102DE000736C5D2070776D5F6363775F737065658B
:102DF000645F6C6F2531352E33662052504D0A00CA
:102E00005B70317773685D2070776D5F6363775FA8
:102E100073706565645F68692531352E33662052AD
:102E2000504D0A005B703177706C5D2070776D5F7C
:102E30006363775F70686173655F6C6F2531352EF2
:102E40003366205B302E2E315D0A005B7031777067
:102E5000685D2070776D5F6363775F70686173652D
:102E60005F68692531352E3366205B302E2E315D4B
:102E70000A005B7031706F665D2070776D5F7068FF
:102E80006173655F6F66662020202531352E3366BD
:102E9000205B302E2E315D0A005B673534785D2073
:102EA0006735345F785F6F66667365742532302EE0
:102EB000336625530A005B673534795D2067353406
:102EC0005F795F6F66667365742532302E336625D1
:102ED000530A005B6735347A5D206735345F7A5F6B
:102EE0006F66667365742532302E336625530A008B
:102EF0005B673534615D206735345F615F6F66669F
:102F00007365742532302E336625530A005B6735AE
:102F100034625D206735345F625F6F666673657427
:102F20002532302E336625530A005B673534635DE6
:102F3000206735345F635F6F666673657425323072
:102F40002E336625530A005B673535785D2067357B
:102F5000355F785F6F66667365742532302E336631
:102F600025530A005B673535795D206735355F7914
:102F70005F6F66667365742532302E336625530A9B
:102F8000005B6735357A5D206735355F7A5F6F6640
:102F9000667365742532302E336625530A005B67ED
:102FA0003535615D206735355F615F6F66667365D6
:102FB000742532302E336625530A005B673535623F
:102FC0005D206735355F625F6F66667365742532B5
:102FD000302E336625530A005B673535635D206705
:102FE00035355F635F6F66667365742532302E33E7
:102FF0006625530A005B673536785D206735365F96
:10300000785F6F66667365742532302E336625539C
:103010000A005B673536795D206735365F795F6F0B
:1030200066667365742532302E336625530A005B5D
:103030006735367A5D206735365F7A5F6F6666730F
:1030400065742532302E336625530A005B673536AA
:10305000615D206735365F615F6F666673657425F5
:1030600032302E336625530A005B673536625D20A9
:103070006735365F625F6F66667365742532302E22
:10308000336625530A005B673536635D2067353646
:103090005F635F6F66667365742532302E33662515
:1030A000530A005B673537785D206735375F785F97
:1030B0006F66667365742532302E336625530A00B9
:1030C0005B673537795D206735375F795F6F666697
:1030D0007365742532302E336625530A005B6735DD
:1030E000377A5D206735375F7A5F6F666673657420
:1030F0002532302E336625530A005B673537615D14
:10310000206735375F615F6F66667365742532309F
:103110002E336625530A005B673537625D206735BD
:10312000375F625F6F66667365742532302E336673
:1031300025530A005B673537635D206735375F636A
:103140005F6F66667365742532302E336625530AC9
:10315000005B673538785D206735385F785F6F666C
:10316000667365742532302E336625530A005B671B
:103170003538795D206735385F795F6F66667365CE
:10318000742532302E336625530A005B6735387A52
:103190005D206735385F7A5F6F66667365742532C8
:1031A000302E336625530A005B673538615D206732
:1031B00035385F615F6F66667365742532302E3314
:1031C0006625530A005B673538625D206735385FD6
:1031D000625F6F66667365742532302E33662553E1
:1031E0000A005B673538635D206735385F635F6F62
:1031F00066667365742532302E336625530A005B8C
:10320000673539785D206735395F785F6F6666733B
:1032100065742532302E336625530A005B673539D5
:10322000795D206735395F795F6F666673657425F0
:1032300032302E336625530A005B6735397A5D20BC
:103240006735395F7A5F6F66667365742532302E35
:10325000336625530A005B673539615D2067353970
:103260005F615F6F66667365742532302E33662545
:10327000530A005B673539625D206735395F625FED
:103280006F66667365742532302E336625530A00E7
:103290005B673539635D206735395F635F6F6666ED
:1032A0007365742532302E336625530A0058206F1B
:1032B000726967696E206F66667365743A2531308E
:1032C0002E336625530A0059206F726967696E2094
:1032D0006F66667365743A2531302E336625530A5E
:1032E000005A206F726967696E206F666673657435
:1032F0003A2531302E336625530A0041206F72691A
:1033000067696E206F66667365743A2531302E33B7
:103310006625530A0042206F726967696E206F66E6
:10332000667365743A2531302E336625530A00439F
:10333000206F726967696E206F66667365743A25DF
:1033400031302E336625530A005B64697361626C09
:1033500065645D005B7374616E646172645D005BE3
:10336000696E686962697465645D005B7261646955
:1033700075735D005B736C61766520585D005B73EF
:103380006C61766520595D005B736C617665205ACF
:103390005D005B736C6176652058595D005B736CF2
:1033A00061766520585A5D005B736C6176652059C3
:1033B0005A5D005B736C6176652058595A5D002038
:1033C000696E00206D6D002064656700300039363D
:1033D000303000313932303000333834303000355D
:1033E000373630300031313532303000323330341E
:1033F000303000473934202D20756E6974732D707C
:1034000065722D6D696E757465206D6F6465202819
:10341000692E652E206665656472617465206D6F26
:1034200064652900473933202D20696E76657273F3
:10343000652074696D65206D6F64650047393020C3
:103440002D206162736F6C7574652064697374619B
:103450006E6365206D6F646500473931202D2069EA
:103460006E6372656D656E74616C206469737461FE
:103470006E6365206D6F646500473631202D2065D1
:10348000786163742073746F70206D6F646500479A
:103490003634202D20636F6E74696E756F757320DE
:1034A0006D6F646500473137202D20585920706CAE
:1034B000616E6500473138202D20585A20706C61AC
:1034C0006E6500473139202D20595A20706C616E8D
:1034D0006500473020202D206C696E656172207474
:1034E0007261766572736520287365656B29004784
:1034F0003120202D206C696E6561722066656564DF
:1035000000473220202D20636C6F636B77697365F1
:1035100020617263206665656400473320202D209A
:10352000636F756E74657220636C6F636B7769731C
:103530006520617263206665656400473830202D20
:103540002063616E63656C206D6F74696F6E206DB2
:103550006F646520286E6F6E65206163746976659F
:103560002900473533202D206D616368696E652021
:10357000636F6F7264696E617465207379737465CB
:103580006D00473534202D20636F6F7264696E6162
:1035900074652073797374656D203100473535206B
:1035A0002D20636F6F7264696E6174652073797327
:1035B00074656D203200473536202D20636F6F72A1
:1035C00064696E6174652073797374656D2033006E
:1035D000473537202D20636F6F7264696E617465A3
:1035E0002073797374656D203400473538202D20A1
:1035F000636F6F7264696E6174652073797374654B
:103600006D203500473539202D20636F6F72646956
:103610006E6174652073797374656D20360047326E
:1036200030202D20696E63686573206D6F646500BE
:10363000473231202D206D696C6C696D657465723F
:10364000206D6F6465004E6F7420486F6D65640077
:10365000486F6D6564004F66660053796E63005075
:103660006C616E00446563656C00486F6C64005368
:10367000746F700052756E00486F6C64004F666620
:10368000005374617274656400486F6D696E670001
:1036900050726F626500496E697469616C697A691C
:1036A0006E67005265736574004379636C650053FF
:1036B000746F7000456E6400496E697469616C696D
:1036C0007A696E670052657365740053746F700099
:1036D000456E640052756E00486F6C640050726FE6
:1036E0006265004379636C6500486F6D696E6700C1
:1036F0004A6F6700CB37CE37D437DB37E037E9374F
:10370000F437FC37083814382238393848385538F7
:10371000693881388E38923896389A389E38AD3864
:10372000C238D738E638EA38EE38F238F638FA38A0
:10373000FE38023906390A390E39123916391A3962
:103740001E39223926393B39533965397E39943946
:10375000AA39C239DA39EC390A3A1E3A223A263AFB
:103760002A3A2E3A323A363A3A3A3E3A423A533ABC
:10377000673A793A8E3AA63AC23AD63AEA3A053BDD
:10378000456E64206F6620636F6D6D616E642066A8
:10379000696C650A00255325530074696E796700CA
:1037A0005B696E63685D206F6B3E20002553255377
:1037B000005B6D6D5D206F6B3E20006572726F72F5
:1037C0003A2025533A202573200A004F4B004572BA
:1037D000726F720045616761696E004E6F6F7000B5
:1037E000436F6D706C657465005465726D696E61D0
:1037F0007465640041626F7274656400456E642094
:103800006F66206C696E6500456E64206F66206689
:10381000696C650046696C65206E6F74206F706519
:103820006E004D61782066696C652073697A652049
:103830006578636565646564004E6F2073756368C1
:103840002064657669636500427566666572206509
:103850006D707479004275666665722066756C6C71
:10386000202D20666174616C004275666665722069
:1038700066756C6C202D206E6F6E2D666174616CA8
:1038800000496E697469616C697A696E67002331F9
:103890003600233137002331380023313900496E97
:1038A0007465726E616C206572726F7200496E741D
:1038B00065726E616C2072616E6765206572726FF1
:1038C0007200466C6F6174696E6720706F696E7408
:1038D000206572726F72004469766964652062794E
:1038E000207A65726F002332340023323500233290
:1038F0003600233237002332380023323900233395
:103900003000233331002333320023333300233399
:103910003400233335002333360023333700233379
:10392000380023333900556E7265636F676E697AAC
:10393000656420636F6D6D616E64004578706563CA
:1039400074656420636F6D6D616E64206C65747462
:10395000657200426164206E756D62657220666FEB
:10396000726D617400496E70757420657863656569
:103970006473206D6178206C656E67746800496EB1
:103980007075742076616C756520746F6F20736D2F
:10399000616C6C00496E7075742076616C75652081
:1039A000746F6F206C6172676500496E707574206A
:1039B00076616C75652072616E6765206572726FE5
:1039C0007200496E7075742076616C756520756E35
:1039D000737570706F72746564004A534F4E207334
:1039E000796E746178206572726F72004A534F4E1F
:1039F00020696E7075742068617320746F6F206D1C
:103A0000616E79207061697273004F7574206F6602
:103A10002062756666657220737061636500233588
:103A2000310023353200233533002335340023356C
:103A3000350023353600233537002335380023354C
:103A400039005A65726F206C656E677468206D6FFF
:103A500076650047636F646520626C6F636B2073EB
:103A60006B69707065640047636F646520696E7090
:103A70007574206572726F720047636F64652066AB
:103A800065656472617465206572726F7200476368
:103A90006F6465206178697320776F7264206D6947
:103AA0007373696E670047636F6465206D6F64614F
:103AB0006C2067726F75702076696F6C6174696FC6
:103AC0006E00486F6D696E67206379636C65206670
:103AD00061696C6564004D61782074726176656C13
:103AE000206578636565646564004D617820737056
:103AF000696E646C652073706565642065786365C4
:103B0000656465640041726320737065636966690A
:103B1000636174696F6E206572726F72002A2A2A5F
:103B2000205741524E494E47202A2A2A20486F6D7D
:103B3000696E67206572726F723A205370656369AF
:103B400066696564206178697328657329206361FB
:103B50006E6E6F7420626520686F6D6564009F3BB8
:103B6000A13BA33BA53B2A2A2A205741524E494E4E
:103B700047202A2A2A20486F6D696E672065727275
:103B80006F723A20255320617869732073657474CD
:103B9000696E677320696E636F7272656374005833
:103BA0000059005A004100232323232054696E79D1
:103BB000472048656C7020232323230A005468653E
:103BC000736520636F6D6D616E6473206172652033
:103BD0006163746976652066726F6D207468652014
:103BE000636F6D6D616E64206C696E653A0A205E6C
:103BF00078202020202041626F72742028636F6E2D
:103C000074726F6C207829202D207265736574732F
:103C10002045564552595448494E47210A20203FD5
:103C200020202020204D616368696E6520706F73CD
:103C30006974696F6E20616E642067636F646520CC
:103C40006D6F64656C2073746174650A2020242094
:103C50002020202053686F7720616E642073657484
:103C600020636F6E66696775726174696F6E207329
:103C7000657474696E67730A20202120202020203B
:103C800046656564686F6C64202D2073746F7020C6
:103C90006D6F74696F6E20776974686F7574206CCE
:103CA0006F73696E6720706F736974696F6E0A2035
:103CB000207E20202020204379636C65205374618E
:103CC0007274202D20726573746172742066726F35
:103CD0006D2066656564686F6C640A20206820202A
:103CE00020202053686F7720746869732068656CA2
:103CF000702073637265656E0A202024682020207E
:103D00002053686F7720636F6E66696775726174A0
:103D1000696F6E2068656C702073637265656E0AEA
:103D200020202474657374204C6973742073656C4F
:103D3000662D74657374730A20202464656661754A
:103D40006C74733D3120526573746F726520616CC1
:103D50006C2073657474696E677320746F202266BB
:103D60006163746F7279222064656661756C747327
:103D70000A000A4E6F74653A2054696E79472067CD
:103D8000656E657261746573206175746F6D6174C1
:103D9000696320737461747573207265706F7274D7
:103DA000732062792064656661756C740A54686971
:103DB000732063616E2062652064697361626C6563
:103DC0006420627920656E746572696E6720247361
:103DD000693D300A536565207468652077696B69B1
:103DE0002062656C6F7720666F72206D6F72652040
:103DF00064657461696C732E0A000A466F722064F0
:103E0000657461696C65642054696E794720696ED8
:103E1000666F207365653A20687474703A2F2F7747
:103E200077772E73796E746865746F732E636F6D18
:103E30002F77696B692F696E6465782E7068703FA3
:103E40007469746C653D50726F6A656374733A543B
:103E5000696E79470A466F7220746865206C6174D8
:103E6000657374206669726D77617265207365652C
:103E70003A2068747470733A2F2F6769746875629A
:103E80002E636F6D2F73796E746865746F732F5422
:103E9000696E79470A506C65617365206C6F6720A5
:103EA000616E79206973737565732061742068741D
:103EB00074703A2F2F7777772E73796E74686574E4
:103EC0006F732E636F6D2F666F72756D730A486125
:103ED00076652066756E0A00232323232054696EBD
:103EE000794720434F4E46494755524154494F4E1A
:103EF0002048656C7020232323230A0054686573CF
:103F00006520636F6D6D616E647320617265206101
:103F1000637469766520666F7220636F6E66696789
:103F200075726174696F6E3A0A2020247379732068
:103F300053686F772073797374656D202867656E99
:103F40006572616C292073657474696E67730A20E9
:103F500020243120202053686F77206D6F746F729A
:103F600020312073657474696E677320286F722026
:103F70007768617465766572206D6F746F722079F1
:103F80006F752077616E7420312C322C332C3429DC
:103F90000A2020247820202053686F772058206141
:103FA0007869732073657474696E677320286F7203
:103FB000207768617465766572206178697320790D
:103FC0006F752077616E7420782C792C7A2C612C97
:103FD000622C63290A2020246D20202053686F77EB
:103FE00020616C6C206D6F746F72207365747469DE
:103FF0006E67730A2020246E20202053686F77207C
:10400000616C6C20617869732073657474696E6784
:10401000730A2020242420202053686F7720616CAD
:104020006C2073657474696E67730A20202468209D
:10403000202053686F7720746869732068656C70FE
:104040002073637265656E0A0A0045616368202407
:1040500020636F6D6D616E642061626F76652061B3
:104060006C736F20646973706C6179732074686518
:1040700020746F6B656E20666F72206561636820C7
:1040800073657474696E6720696E205B205D2062C1
:104090007261636B6574730A546F2076696577206B
:1040A00073657474696E677320656E7465722061E0
:1040B00020746F6B656E3A0A0A2020243C746F6B83
:1040C000656E3E0A0A466F72206578616D706C6598
:1040D000202479667220746F20646973706C617932
:1040E000207468652059206D6178206665656420BC
:1040F000726174650A0A546F20757064617465207A
:1041000073657474696E677320656E74657220746C
:104110006F6B656E20657175616C732076616C756F
:10412000653A0A0A2020243C746F6B656E3E3D3C64
:1041300076616C75653E0A0A466F72206578616D1E
:10414000706C6520247966723D38303020746F20A1
:10415000736574207468652059206D6178206665E8
:104160006564207261746520746F20383030206D72
:104170006D2F6D696E7574650A0023232323205407
:10418000696E79472053454C462054455354204886
:10419000656C7020232323230A00496E766F6B65BC
:1041A0002073656C66207465737420627920656E77
:1041B000746572696E672024746573743D4E207750
:1041C00068657265204E206973206F6E65206F668A
:1041D0003A0A202024746573743D312020736D6F7A
:1041E0006B6520746573740A202024746573743DB4
:1041F0003220206D6F74696F6E2074657374202097
:1042000020286120736572696573206F6620737161
:104210007561726520616E6420636972636C6520EC
:104220006D6F766573290A202024746573743D339D
:104230002020617263207465737420202020202068
:1042400028736F6D65206C617267652063697263A6
:104250006C6573290A202024746573743D34202012
:104260006477656C6C207465737420202020286D41
:104270006F766573207370616365642062792031A5
:10428000207365636F6E64206477656C6C73290AB4
:10429000202024746573743D352020686F6D696E2D
:1042A00067207465737420202028796F75206D75E0
:1042B0007374207472697020686F6D696E67207303
:1042C00077697463686573290A20202474657374A0
:1042D0003D36202066656564686F6C642074657384
:1042E000742028656E746572202120616E64207EC2
:1042F00020746F20686F6C6420616E642072657337
:10430000746172742C20726573706563746976656C
:104310006C79290A202024746573743D3720204D60
:1043200020636F64657320746573742020284D20AA
:10433000636F64657320696E7465726D696E676C16
:1043400065642077697468206D6F766573290A202B
:104350002024746573743D3820204A534F4E2074D6
:104360006573742020202020286D6F74696F6E2083
:10437000746573742072756E207573696E67204A58
:10438000534F4E20636F6D6D616E6473290A202058
:1043900024746573743D392020696E766572736587
:1043A0002074696D6520746573740A202024746517
:1043B00073743D313020726F74617279206D6F7447
:1043C000696F6E20746573740A00232323232054BD
:1043D000696E794720524553544F52452044454613
:1043E00041554C54532048656C7020232323230AE5
:1043F00000456E746572202464656661756C747323
:104400003D3120746F207265736574207468652077
:1044100073797374656D20746F20746865206661AC
:1044200063746F72792064656661756C742076615F
:104430006C7565732E0A546869732077696C6C20FB
:104440006F766572777269746520616E7920636832
:10445000616E67657320796F752068617665206D80
:104460006164652E0A005F63616C63756C617465DD
:104470005F74726170657A6F69642829206661696A
:104480006C656420746F20636F6E7665726765007B
:104490007172006C78007062007172004E312054AD
:1044A000314D360A4E32204731370A4E33204732DB
:1044B000310A4E382046313830300A4E39204731E3
:1044C0000A4E3130302047393220582D32352E31C6
:1044D0003737592D33342E303732205A2D312E3084
:1044E0003030202854454D502C2052454D4F5645D4
:1044F000204C41544552290A4E33343320582D3232
:10450000352E353935592D33342E3334390A4E335F
:10451000343420582D32352E373031592D33342E46
:104520003433360A4E33343520582D32352E373950
:1045300031592D33342E3532300A4E33343620582B
:104540002D32352E383634592D33342E3630310A4B
:104550004E33343720582D32352E393230592D33E1
:10456000342E3637390A4E33343820582D32352E12
:10457000393630592D33342E3735340A4E333439E9
:1045800020582D32352E393832592D33342E3832C9
:10459000360A4E33353020582D32352E39383759BA
:1045A0002D33342E3839350A4E33353120582D32DB
:1045B000352E393736592D33342E3936310A4E33AC
:1045C000353220582D32352E393438592D33352E89
:1045D0003032330A4E33353320582D32352E3930B0
:1045E00033592D33352E3038320A4E333534205876
:1045F0002D32352E383431592D33352E3133380A9A
:104600004E33353520582D32352E373633592D332C
:10461000352E3139300A4E33353620582D32352E6D
:10462000363639592D33352E3233390A4E33353734
:1046300020582D32352E353539592D33352E323817
:10464000340A4E33353820582D32352E3433335911
:104650002D33352E3332350A4E33353920582D322D
:10466000352E323931592D33352E3336330A4E3308
:10467000363020582D32352E313334592D33352EE6
:104680003339370A4E33363120582D32342E3936ED
:1046900033592D33352E3432380A4E3336322058C2
:1046A0002D32342E373737592D33352E3435350AE0
:1046B0004E33363320582D32342E353737592D337B
:1046C000352E3437370A4E33363420582D32342EB7
:1046D000333637592D33352E3439360A4E33363585
:1046E00020582D32342E313434592D33352E353176
:1046F000310A4E33363620582D32332E393039595F
:104700002D33352E3532320A4E33363720582D327E
:10471000332E363631592D33352E3532390A4E3354
:10472000363820582D32332E343033592D33352E30
:104730003533320A4E33363920582D32332E313349
:1047400033592D33352E3533320A4E333730205816
:104750002D32322E383533592D33352E3532370A36
:104760002F4E3235313820473058302E33323759BA
:104770002D33332E3532315A2D312E3030300A4E12
:1047800032353139204D3330004E31204732300A36
:104790004E3520473430204731370A4E31302054CF
:1047A00031204D30360A284E3135204739302047E8
:1047B00030205830205930205A30290A4E323020CB
:1047C0005335303030204D3033200A4E32352058AA
:1047D000302E3036342059302E333236205A300ABB
:1047E0004E343020473031204631362E300A4E3597
:1047F000302058302E3036342059302E3332360A9D
:104800004E35352058302E3036302059302E323942
:10481000330A4E36302058302E3037372059302E5C
:104820003236370A4E36352058302E313131205944
:10483000302E3235370A4E37302058302E31343949
:104840002059302E3235320A4E37352058302E312D
:1048500038382059302E3235350A4E38302058300D
:104860002E3232372059302E3236380A4E38352023
:1048700058302E3235372059302E3237310A4E39E2
:10488000302058302E3333352059302E3236350A09
:104890004E39352058302E3431322059302E3237AF
:1048A000310A4E3130302058302E343734205930D0
:1048B0002E3238370A4E3130352058302E343931C7
:1048C0002059302E3238390A4E3131302058302EAE
:1048D0003531372059302E3237330A4E31313520B9
:1048E00058302E3534342059302E3236330A4E317A
:1048F00032302058302E3538302059302E32363173
:104900000A4E3132352058302E3539352059302E67
:104910003236330A4E3133302058302E3632312081
:1049200059302E3237340A4E3133352058302E3636
:1049300035392059302E3330360A4E313430205834
:10494000302E3637332059302E3333350A4E31343A
:10495000352058302E3637392059302E3336310A2B
:104960004E3135302058302E3637382059302E33DE
:1049700038390A4E3135352058302E3637302059E7
:10498000302E3432300A4E3136302058302E363701
:10499000302059302E3434360A4E313635205830D6
:1049A0002E3638302059302E3437340A4E313730D5
:1049B0002058302E3730342059302E3439370A4EB3
:1049C0003137352058302E3733322059302E35319B
:1049D000350A4E3138302058302E3739342059308E
:1049E0002E3533350A4E3138352058302E3837328F
:1049F0002059302E3536370A4E3139302058302E76
:104A00003935302059302E3630340A4E3139352080
:104A100058312E3033312059302E3634370A4E3249
:104A200030302058312E3134392059302E3732323F
:104A30000A4E3230352058312E3330382059302E3E
:104A40003835340A4E3231302058312E343330204C
:104A500059302E3938340A4E3231352058312E34FF
:104A600034372059302E3938360A4E3232302058F9
:104A7000312E3632382059302E3832320A4E323208
:104A8000352058312E3733322059302E3731340A01
:104A90004E3233302058322E3030392059302E33B8
:104AA00038310A4E3233352058322E3131362059C2
:104AB000302E3236360A4E3234302058322E3232D0
:104AC000382059302E3135370A4E3234352058329D
:104AD0002E3238302059302E3132330A4E323530B2
:104AE0002058322E3333322059302E3039340A4E8A
:104AF0003235352058322E3432332059302E30376B
:104B0000300A4E3236302058322E3438392059305F
:104B10002E3036350A4E3236352058322E3535375E
:104B20002059302E3036360A4E3237302058322E49
:104B30003632372059302E3038340A4E323735204D
:104B400058322E3639332059302E3130390A4E3210
:104B500038302058322E3733302059302E3133330D
:104B60000A4E3238352058322E3830352059302E02
:104B70003139300A4E3239302058322E383239200D
:104B800059302E3231360A4E3239352058322E38CD
:104B900038302059302E3239310A4E3330302058D7
:104BA000322E3838342059302E3330300A4E3330DC
:104BB000352058322E3839382059302E3333320AC6
:104BC0004E3331302058322E3930352059302E3383
:104BD00036370A4E3331352058322E39313020598C
:104BE000302E3430370A4E3332302058322E39309E
:104BF000382059302E3434360A4E3332352058326C
:104C00002E3930312059302E3439350A4E33333075
:104C10002058322E3839372059302E3439350A4E43
:104C20003333352058322E3839302059302E353232
:104C3000340A4E3334302058322E38343220593032
:104C40002E3630340A4E3334352058322E38313433
:104C50002059302E3636350A4E3335302058322E14
:104C60003739342059302E3735300A4E3335352018
:104C700058322E3739312059302E3833380A4E33D6
:104C800036302058322E3831392059302E393736C7
:104C90000A4E3336352058322E3833372059312ECC
:104CA0003034340A4E3337302058322E38363220E2
:104CB00059312E3131320A4E3337352058322E38A1
:104CC00037372059312E3134350A4E333830205899
:104CD000322E3931322059312E3231370A4E3338A3
:104CE000352058322E3931372059312E3232360A9A
:104CF0004E3339302058322E3935312059312E3249
:104D000038310A4E3339352058322E393730205950
:104D1000312E3239350A4E3430302058322E39395E
:104D2000362059312E3239350A4E34303520583339
:104D30002E3031332059312E3237350A4E3431304E
:104D40002058332E3032342059312E3235340A4E29
:104D50003431352058332E3037302059312E31350B
:104D6000310A4E3432302058332E30373720593103
:104D70002E3133340A4E3432352058332E31323509
:104D80002059312E3033390A4E3433302058332EE7
:104D90003133382059312E3031390A4E34333520F1
:104DA00058332E3230352059302E3930380A4E34AF
:104DB00034302058332E3238322059302E3739379C
:104DC0000A4E3434352058332E3336312059302EA4
:104DD0003639310A4E3435302058332E34323620AD
:104DE00059302E3539320A4E3435352058332E3469
:104DF00035362059302E3534330A4E34363020586B
:104E0000332E3437392059302E3439330A4E343664
:104E1000352058332E3439342059302E3437320A65
:104E20004E3437302058332E3530352059302E341B
:104E300034360A4E3437352058332E353138205920
:104E4000302E3431370A4E3438302058332E353333
:104E5000302059302E3339310A4E3438352058330A
:104E60002E3536342059302E3330300A4E34393016
:104E70002058332E3537372059302E3235330A4EED
:104E80003439352058332E3536382059302E3231CA
:104E9000320A4E3530302058332E353434205930D4
:104EA0002E3137360A4E3530352058332E353431D1
:104EB0002059302E3134360A4E3531302058332EB9
:104EC0003535332059302E3131390A4E35313520C0
:104ED00058332E3537362059302E3130360A4E357C
:104EE00032302058332E3539372059302E31303278
:104EF0000A4E3532352058332E3631382059302E6F
:104F00003130390A4E3533302058332E363339207C
:104F100059302E3132390A4E3533352058332E363A
:104F200035302059302E3135390A4E35343020583D
:104F3000332E3636332059302E3137380A4E353439
:104F4000352058332E3637382059302E3139320A31
:104F50004E3535302058332E3639392059302E31E0
:104F600039370A4E3535352058332E3732332059EC
:104F7000302E3139360A4E3536302058332E3736FA
:104F8000342059302E3137390A4E353635205833D2
:104F90002E3830352059302E3136350A4E353730DF
:104FA0002058332E3838342059302E3135390A4EB6
:104FB0003537352058332E3934392059302E313693
:104FC000350A4E3538302058332E39363620593090
:104FD0002E3137350A4E3538352058332E3937388B
:104FE0002059302E3139340A4E3539302058332E7D
:104FF0003937382059302E3232330A4E3539352080
:1050000058332E3936302059302E3234350A4E3648
:1050100030302058332E3833342059302E3331314C
:105020000A4E3630352058332E3736322059302E3E
:105030003334350A4E3631302058332E373236204D
:1050400059302E3338390A4E3631352058332E3701
:1050500030332059302E3435380A4E36323020580D
:10506000332E3638322059302E3533300A4E363210
:10507000352058332E3637392059302E3533340AFF
:105080004E3633302058332E3632362059302E36B5
:1050900038310A4E3633352058332E3536382059BC
:1050A000302E3832380A4E3634302058332E3434CD
:1050B000342059312E3038300A4E363435205833AA
:1050C0002E3430352059312E3136370A4E363530B0
:1050D0002058332E3430342059312E3136370A4E91
:1050E0003635352058332E3338372059312E32306B
:1050F000380A4E3636302058332E33383420593162
:105100002E3230380A4E3636352058332E33363567
:105110002059312E3236350A4E3637302058332E4C
:105120003335352059312E3238350A4E3637352051
:1051300058332E3334382059312E3330380A4E3616
:1051400038302058332E3333332059312E33353015
:105150000A4E3638352058332E3332312059312E0D
:105160003339310A4E3639302058332E333131201D
:1051700059312E3432380A4E3639352058332E33D1
:1051800033392059312E3432330A4E3730302058DB
:10519000332E3434302059312E3430360A4E3730E5
:1051A000352058332E3531302059312E3430380ADD
:1051B0004E3731302058332E3538352059312E3482
:1051C00032310A4E3731352058332E36313120599D
:1051D000312E3433390A4E3732302058332E36319F
:1051E000312059312E3434310A4E3732352058337C
:1051F0002E3631352059312E3434310A4E37333082
:105200002058332E3633362059312E3438380A4E52
:105210003733352058332E3633342059312E35313B
:10522000370A4E3734302058332E36323220593137
:105230002E3534330A4E3734352058332E36303538
:105240002059312E3536330A4E3735302058332E1B
:105250003537362059312E3537350A4E373535201A
:1052600058332E3534342059312E3538310A4E37E3
:1052700036302058332E3437392059312E353932D3
:105280000A4E3736352058332E3435312059312ED9
:105290003539380A4E3737302058332E33383720D7
:1052A00059312E3632360A4E3737352058332E33A1
:1052B00039302059312E3633360A4E37383020589F
:1052C000332E3533322059312E3630320A4E3738AC
:1052D000352058332E3630312059312E3539370AA2
:1052E0004E3739302058332E3636382059312E3546
:1052F00039380A4E3739352058332E37383220594D
:10530000312E3631320A4E3830302058332E37396C
:10531000342059312E3631380A4E38303520583342
:105320002E3836382059312E3633360A4E38313041
:105330002058332E3931382059312E3635350A4E22
:105340003831352058332E3934352059312E363600
:10535000370A4E3832302058332E393634205931FE
:105360002E3638350A4E3832352058332E393637F6
:105370002059312E3638350A4E3833302058332EE6
:105380003937342059312E3639390A4E38333520E1
:1053900058332E3938342059312E3732350A4E38A9
:1053A00034302058332E3938342059312E3735389F
:1053B0000A4E3834352058332E3937302059312EA3
:1053C0003739300A4E3835302058332E39343520AD
:1053D00059312E3831370A4E3835352058332E3969
:1053E00031382059312E3832360A4E38363020586E
:1053F000332E3839312059312E3832370A4E38366B
:10540000352058332E3834322059312E3830390A6D
:105410004E3837302058332E3739382059312E370F
:1054200038340A4E3837352058332E373436205921
:10543000312E3737320A4E3838302058332E36392D
:10544000382059312E3736340A4E38383520583303
:105450002E3633352059312E3736360A4E3839300C
:105460002058332E3535332059312E3738350A4EF2
:105470003839352058332E3437382059312E3832C8
:10548000300A4E3930302058332E343039205931DB
:105490002E3836340A4E3930352058332E333435D1
:1054A0002059312E3931380A4E3931302058332EB7
:1054B0003236342059322E3032330A4E39313520CB
:1054C00058332E3234382059322E3035310A4E3985
:1054D00032302058332E3234302059322E30383189
:1054E0000A4E3932352058332E3331362059322E78
:1054F0003038360A4E3933302058332E3339302085
:1055000059322E3130340A4E3933352058332E3447
:1055100031342059322E3132310A4E39343020584C
:10552000332E3433312059322E3135330A4E39344B
:10553000352058332E3433332059322E3138300A47
:105540004E3935302058332E3432372059322E32EE
:1055500030350A4E3935352058332E343133205901
:10556000322E3232340A4E3936302058332E333907
:10557000322059322E3234320A4E393635205833E1
:105580002E3333352059322E3234340A4E393730E7
:105590002058332E3237382059322E3233360A4EC5
:1055A0003937352058332E3235362059322E3234A1
:1055B000320A4E3938302058332E3233392059329E
:1055C0002E3235310A4E3938352058332E323131AA
:1055D0002059322E3238300A4E3939302058332E85
:1055E0003137342059322E3335360A4E3939352089
:1055F00058332E3135392059322E3339370A4E314E
:105600003030302058332E3135302059322E34335B
:10561000380A4E313030352058332E31343020594D
:10562000322E3438310A4E313031302058332E3159
:1056300033322059322E3531300A4E313031352057
:1056400058332E3131382059322E3534330A4E3109
:105650003032302058332E3039392059322E3537F8
:10566000360A4E313032352058332E3035312059FC
:10567000322E3633310A4E313033302058332E300B
:1056800030332059322E3636360A4E3130333520FB
:1056900058322E3935372059322E3638350A4E31A8
:1056A0003034302058322E3930372059322E3639A6
:1056B000390A4E313034352058322E3836302059A0
:1056C000322E3731310A4E313035302058322E38B3
:1056D00031392059322E3732370A4E3130353520A4
:1056E00058322E3736382059322E3734350A4E315B
:1056F0003036302058322E3731362059322E373559
:10570000370A4E313036352058322E36373520594B
:10571000322E3735370A4E313037302058322E3559
:1057200037392059322E3733310A4E313037352050
:1057300058322E3537302059322E3732330A4E3117
:105740003038302058322E3535392059322E373204
:10575000300A4E313038352058322E35333020590A
:10576000322E3730310A4E313039302058322E3512
:1057700030312059322E3639330A4E313039352006
:1057800058322E3437312059322E3638330A4E31C2
:105790003130302058322E3434332059322E3636C0
:1057A000380A4E313130352058322E3339362059AF
:1057B000322E3633340A4E313131302058322E33C6
:1057C00035342059322E3539310A4E3131313520B8
:1057D00058322E3335322059322E3539310A4E3176
:1057E0003132302058322E3332352059322E353472
:1057F000330A4E313132352058322E33313520596B
:10580000322E3532310A4E313133302058322E3378
:1058100030372059322E3439380A4E313133352061
:1058200058322E3239362059322E3436340A4E311F
:105830003134302058322E3239332059322E34321E
:10584000370A4E313134352058322E32393520590D
:10585000322E3336360A4E313135302058322E331F
:1058600032312059322E3330330A4E313135352022
:1058700058322E3335382059322E3234370A4E31D1
:105880003136302058322E3431392059322E3230D0
:10589000330A4E313136352058322E3431392059C1
:1058A000322E3137390A4E313137302058322E34CA
:1058B00030352059322E3135380A4E3131373520C6
:1058C00058322E3336322059322E3132330A4E318D
:1058D0003138302058322E3335342059322E313081
:1058E000340A4E313138352058322E333534205970
:1058F000322E3039310A4E313139302058322E3380
:1059000038302059322E3036350A4E313139352073
:1059100058322E3431302059322E3035310A4E3142
:105920003230302058322E3431302059322E30343B
:10593000370A4E313230352058322E343035205926
:10594000322E3032380A4E313231302058322E3435
:1059500030382059322E3031300A4E313231352034
:1059600058322E3431362059312E3939350A4E31DC
:105970003232302058322E3433332059312E3938D8
:10598000320A4E313232352058322E3433382059D3
:10599000312E3936330A4E313233302058322E34DC
:1059A00034372059312E3934380A4E3132333520CC
:1059B00058322E3436312059312E3933380A4E318F
:1059C0003234302058322E3438302059312E393389
:1059D000310A4E313234352058322E34373820597E
:1059E000312E3839390A4E313235302058322E3482
:1059F00038372059312E3837350A4E313235352077
:105A000058322E3530342059312E3835340A4E3143
:105A10003236302058322E3532372059312E383434
:105A2000380A4E313236352058322E353439205925
:105A3000312E3834390A4E313237302058322E3533
:105A400037372059312E3836310A4E31323735202A
:105A500058322E3630342059312E3836360A4E31EF
:105A60003238302058322E3633312059312E3835E5
:105A7000340A4E313238352058322E3634302059DF
:105A8000312E3832370A4E313239302058322E36E4
:105A900034302059312E3739320A4E3132393520DF
:105AA00058322E3632392059312E3735390A4E3197
:105AB0003330302058322E3631322059312E3732A1
:105AC000370A4E313330352058322E35373620598B
:105AD000312E3639340A4E313331302058322E359A
