:100000000C9416370C9437370C9437370C943737D9
:100010000C9437370C9437370C9437370C943737A8
:100020000C9437370C9437370C9437370C94688F0F
:100030000C9437370C9437370C94F08B0C9437377B
:100040000C9437370C9437370C9437370C94373778
:100050000C9437370C9437370C9437370C94373768
:100060000C9437370C94E9920C94A4920C94373783
:100070000C94DD960C9480960C94BA960C943737B9
:100080000C94F18F0C9437370C9437370C94373726
:100090000C9437370C9437370C9437370C94373728
:1000A0000C9437370C9437370C9437370C94AE6672
:1000B0000C945A670C9437370C9437370C94838B15
:1000C0000C9437370C9437370C9437370C943737F8
:1000D0000C9437370C9437370C9437370C943737E8
:1000E0000C94D99A0C9437370C9437370C943737D3
:1000F0000C9437370C9437370C9437370C943737C8
:100100000C94D9660C9485670C9458660C9404671B
:100110000C9437370C9437370C9437370C943737A7
:100120000C9437370C9437370C9437370C94373797
:100130000C9437370C94AE8B0C9437370C943737BC
:100140000C9437370C9437370C9437370C94373777
:100150000C9437370C9437370C94CF9A0C9437376C
:100160000C9437370C9437370C9437370C94373757
:100170000C9437370C9437370C9437370C94373747
:100180000C9437370C9437370C9437370C94373737
:100190000C9437370C9437370C9437370C94373727
:1001A0000C9483660C942F670C9437370C94373774
:1001B0000C94FF890C9437370C9437370C943737ED
:1001C0000C9437370C9437370C9437370C943737F7
:1001D0000C9437370C9437370C9437370C943737E7
:1001E0000C9437370C943737ED6302641764F66567
:1001F000F6656F63C361F6652C644164566496646A
:10020000F9628064F6658463F6656B649963626382
:10021000F665F665F665AE63C363D863084AD73BF7
:100220003BCE016E84BCBFFDC12F3D6C74319ABDC5
:1002300056833DDA3D00C77F11BED9E4BB4C3E91E9
:100240006BAAAABE000000803F05A84CCDB2D44ED8
:10025000B93836A9020C50B9918688083CA6AAAADA
:100260002ABE000000803F07634236B79BD8A71A1A
:1002700039685618AEBAAB558C1D3CB7CC5763BD28
:100280006DEDFD753EF6177231BF000000803F082E
:10029000000000BE922449123EABAAAA2ABECDCCD1
:1002A000CC4C3E00000080BEABAAAAAA3E000000D3
:1002B00000BF000000803F0000000000084178D32C
:1002C000BB4387D1133D190E3CC3BD4282AD2B3ECB
:1002D00068EC8276BED98FE1A93E4C80EFFFBE016B
:1002E000C4FF7F3F00000000006E616E00696E6613
:1002F000001C129D505C4BB04A48315C0FAC434629
:10030000129D505C4BB04A44313333733F72125CE0
:1003100050724AB04A4C31000000008D129D503D91
:100320004B744AD13300004843C5124E4E4A4EFC2E
:10033000584C3100000000D2127E4B464EB04A4C61
:100340003100000000DE125C50314EB04A4C3100EA
:1003500000000007135C50224ED34A7030000000AA
:100360000027135C50134E024E4C31000000004237
:10037000131250F74CB04A4C31000000006413E0F7
:100380004FF54DB04A4C31000000008713E04FE8B4
:100390004DB04A4C3100000000AA13E04FDB4DB0D5
:1003A0004A4C3100000000CD13E04FCE4DB04A4C16
:1003B0003100000000F013E04FC14DB04A4C310055
:1003C0000000001314E04FB44DB04A4C310000005F
:1003D0000036141250934DB04A4C31000000005AC0
:1003E00014E04FEA4CB04A4C31000000007D14E0AC
:1003F0004F864DB04A4C3100000000A014E04F7908
:100400004DB04A4C3100000000C314E04F6C4DB0B9
:100410004A4C3100000000E614E04F5F4DB04A4CFA
:1004200031000000000915E04F524DB04A4C310038
:100430000000002C15E04F454DB04A4C3100000043
:10044000004F158D4F324DB04A4C31000000006E08
:10045000158D4F324DB04A4C31000000008D158D86
:100460004F324DB04A4C3100000000AC158D4F3278
:100470004DB04A4C3100000000CB158D4F324DB0CD
:100480004A4C3100000000EA158D4F324DB04A4C05
:10049000310000000009168D4F1F4DB04A4C31004D
:1004A0000000002D168D4F1F4DB04A4C310000004A
:1004B0000051168D4F1F4DB04A4C310000000075A1
:1004C000168D4F1F4DB04A4C310000000099168D1B
:1004D0004F1F4DB04A4C3100000000BD168D4F1F1C
:1004E0004DB04A4C3100000000E1161250F74CB0FC
:1004F0004AA4300000000005171250F74CB04AA87B
:10050000300000000029171250F74CB04AAC300000
:100510000000004D17494F5C4BB04AB0300000005E
:10052000007117494F5C4BB04AB430000000009591
:1005300017494F5C4BB04AB83000000000B9172291
:10054000691E4BCC8E503100000000C217ED6819B7
:100550004BB04A4C3100000000CB174369194BE403
:10056000594C3100000000D417E04F194BB04A4CF1
:100570003100000000E0170F4F1E4BB24AC7330096
:1005800000000014180F4F1E4BB24AC83300008001
:100590003F46180F4F1E4BB24AC6330000803F78CB
:1005A000180F4F1E4BB24AC93300000040AC180F61
:1005B0004F1E4BB24ACA3300000000DE187E4B7F4C
:1005C0004B124D4C3100000000EB181250F74CAAB2
:1005D0004CC1330050C34717191250F74CAA4CB501
:1005E000330AD7A33D43191250F74CAA4CB933CD67
:1005F000CCCC3D6F1912505C4BF74ABD3300409C88
:10060000459E190F4F1E4BCC58CB3300000000D92C
:10061000190F4F1E4BAF58CC3300000000081A0FC3
:100620004F1E4B9258CD3300000000371A0F4F1E5B
:100630004B7558CE330000803F661A0F4F1E4BB2E9
:100640004ACF330000803F971A0F4F1E4BB24AD05B
:10065000330000803FC61A0F4F1E4BB24AA734002A
:10066000000000F91A494F5C4B9D4EAB346666E6BC
:100670003F211B1250F74CAA4EAF348D17584253EE
:100680001B0F4F1E4B9654A83400000041821B0FD5
:100690004F1E4B894CA9340000803FAD1B0F4F1EED
:1006A0004BB24AAA340000803FDD1B0F4F1E4BB2F5
:1006B0004AB7340000803F101C494F5C4B9D4EBB35
:1006C000346666E63F381C1250F74CAA4EBF348998
:1006D0004109426A1C0F4F1E4B9654B8340000006B
:1006E00041991C0F4F1E4B894CB9340000803FC408
:1006F0001C0F4F1E4BB24ABA340000803FF41C0F4F
:100700004F1E4BB24AC73400000040271D494F5CC2
:100710004B9D4ECB34000070414F1D1250F74CAA38
:100720004ECF3431081C40811D0F4F1E4B9654C8CC
:100730003400008040B01D0F4F1E4B894CC934005F
:1007400000803FDB1D0F4F1E4BB24ACA34000080B1
:100750003F0B1E0F4F1E4BB24AD734000040403EA5
:100760001E494F5C4B9D4EDB346666E63F661E12AB
:1007700050F74CAA4EDF3400003443981E0F4F1E32
:100780004B9654D83400000041C71E0F4F1E4B89B2
:100790004CD9340000803FF21E0F4F1E4BB24ADA94
:1007A000340000803F221FCB4EC14B29540F35002F
:1007B00000803F441F1250F74CAA4C143500606A69
:1007C00046721F1250F74CAA4C103500007A44A014
:1007D0001F1250F74CAA4C18350000A043C81F1236
:1007E00050F74CAA4C1C35A493564EF51F1250F7E7
:1007F0004CAA4C20350AD7233C35200F4F1E4BE323
:100800005328350000803F62201250F74CAA4C2933
:10081000350000FAC48F201250F74CAA4C2D350039
:1008200000FA43C1201250F74CAA4C313500004069
:1008300041EE201250F74CAA4C35350000A0401470
:1008400021CB4EC14B295439350000803F3621124F
:1008500050F74CAA4C3E3500606A4664211250F7AE
:100860004CAA4C3A3500007A4492211250F74CAA17
:100870004C4235000080BFBA211250F74CAA4C46BA
:1008800035A493564EE7211250F74CAA4C4A350A2C
:10089000D7233C27220F4F1E4BE353523500000055
:1008A0000054221250F74CAA4C533500007AC481F0
:1008B000221250F74CAA4C573500007A44B322124A
:1008C00050F74CAA4C5B350000803FE0221250F7F5
:1008D0004CAA4C5F35000000000623CB4EC14B29CB
:1008E0005463350000803F28231250F74CAA4C680F
:1008F0003500401C4656231250F74CAA4C64350074
:10090000007A4484231250F74CAA4C6C350000C87E
:1009100041AC231250F74CAA4C7035A493564ED9D3
:10092000231250F74CAA4C74350AD7233C19240FD4
:100930004F1E4BE3537C350000803F46241250F796
:100940004CAA4C7D3500007A4473241250F74CAA0F
:100950004C81350000FA43A5241250F74CAA4C856F
:100960003500004041D2241250F74CAA4C89350082
:1009700000A441F824CB4EC14B29548D3500008092
:100980003F1A25494F5C4BF74A923500606A474849
:1009900025494F5C4BF74A8E350000E145762549E5
:1009A0004F5C4BF74A96350080BB43A025494F5C0E
:1009B0004BF74A9A355ED0B250CD25494F5C4BF784
:1009C0004A9E35CDCCCC3DFA25494F5C4BF74AA227
:1009D000350000803F20260F4F1E4BE353A6350005
:1009E00000803F4D26494F5C4BF74AA7350080BB3E
:1009F000457A26494F5C4BF74AAB3500001644ACAC
:100A000026494F5C4BF74AAF3500007041D9264963
:100A10004F5C4BF74AB3350000803FFF26CB4EC1F9
:100A20004B2954B735000000002127494F5C4BF794
:100A30004ABC35000061454F27494F5C4BF74AB827
:100A400035000061457D27494F5C4BF74AC03500B2
:100A50000080BFA527494F5C4BF74AC435A4935685
:100A60004ED227494F5C4BF74AC8350AD7233CFF83
:100A700027494F5C4BF74ACC350000803F25280FB3
:100A80004F1E4BE353D0350000803F5228494F5C46
:100A90004BF74AD135000016C47F28494F5C4BF70D
:100AA0004AD5350000C842B128494F5C4BF74AD9B6
:100AB000350000A0C0DE28494F5C4BF74ADD350009
:100AC0000000400429CB4EC14B2954E13500000001
:100AD000002629494F5C4BF74AE635000061455432
:100AE00029494F5C4BF74AE23500006145822949AC
:100AF0004F5C4BF74AEA35000080BFAA29494F5C9A
:100B00004BF74AEE35A493564ED729494F5C4BF725
:100B10004AF2350AD7233C042A494F5C4BF74AF680
:100B2000350000803F2A2A0F4F1E4BE353FA350051
:100B300000803F572A494F5C4BF74AFB35000016AF
:100B4000C4842A494F5C4BF74AFF350000C842B6BF
:100B50002A494F5C4BF74A03360000A0C0E32A49FC
:100B60004F5C4BF74A073600000040092B494F5CA9
:100B70004BF74AE7340000C842332B494F5C4BF730
:100B80004AEB3400007A44642B494F5C4BF74AEF40
:100B9000340000FA44952B494F5C4BF74AF334007C
:100BA00000003ED22B494F5C4BF74AF734CDCC4C7A
:100BB0003E0F2C494F5C4BF74AFB3400007A44410E
:100BC0002C494F5C4BF74AFF340000FA44732C4920
:100BD0004F5C4BF74A03350000003EB22C494F5C96
:100BE0004BF74A0735CDCC4C3EF12C494F5C4BF7C7
:100BF0004A0B35CDCCCC3D2B2D1250F74CAA4C17BF
:100C00003400000000532D1250F74CAA4C1B340046
:100C10000000007B2D1250F74CAA4C1F340000003E
:100C200000A32D1250F74CAA4C233400000000CB37
:100C30002D1250F74CAA4C273400000000F32D125F
:100C400050F74CAA4C2B34000000001B2E1250F71A
:100C50004CAA4C2F3400000000432E1250F74CAA2F
:100C60004C3334000000006B2E1250F74CAA4C3766
:100C70003400000000932E1250F74CAA4C3B340075
:100C8000000000BB2E1250F74CAA4C3F340000006D
:100C900000E32E1250F74CAA4C4334000000000B26
:100CA0002F1250F74CAA4C473400000000332F128B
:100CB00050F74CAA4C4B34000000005B2F1250F749
:100CC0004CAA4C4F3400000000832F1250F74CAA5E
:100CD0004C533400000000AB2F1250F74CAA4C5775
:100CE0003400000000D32F1250F74CAA4C5B3400A4
:100CF000000000FB2F1250F74CAA4C5F340000009C
:100D00000023301250F74CAA4C6334000000004B13
:100D1000301250F74CAA4C673400000000733012B8
:100D200050F74CAA4C6B34000000009B301250F777
:100D30004CAA4C6F3400000000C3301250F74CAA8C
:100D40004C733400000000EB301250F74CAA4C7783
:100D5000340000000013311250F74CAA4C7B3400D1
:100D60000000003B311250F74CAA4C7F34000000C9
:100D70000063311250F74CAA4C8334000000008B02
:100D8000311250F74CAA4C873400000000B33112E6
:100D900050F74CAA4C8B3400000000DB311250F7A6
:100DA0004CAA4C8F340000000003321250F74CAABA
:100DB0004C9334000000002B321250F74CAA4C9791
:100DC000340000000053321250F74CAA4C9B340000
:100DD0000000007B321250F74CAA4C9F34000000F8
:100DE00000A3321250F74CAA4CA33400000000CBF1
:100DF000327E4B3D4BD34AD53300000000D6327EC5
:100E00004B3D4BD34AD73300000000E1327E4B3DCF
:100E10004BD34AD93300000000EC327E4B3D4BD31C
:100E20004ADB3300000000F7327E4B3D4BD34ADDF6
:100E3000330000000002337E4B3D4BD34ADF3300CA
:100E40000000000D337E4B3D4BD34AE133000000E0
:100E50000018337E4B3D4BD34AE3330000000023A0
:100E6000337E4B3D4BD34AE533000000002E337EEA
:100E70004B3D4BD34AE7330000000039337E4B3DF6
:100E80004BD34AE9330000000044337E4B3D4BD343
:100E90004AEB33000000004F337E4B3D4BD34AED0D
:100EA00033000000005A337E4B3D4BD34AEF3300F2
:100EB00000000065337E4B3D4BD34AF13300000008
:100EC0000070337E4B3D4BD34AF333000000007B70
:100ED000337E4B3D4BD34AF5330000000086337E12
:100EE0004B3D4BD34AF7330000000091337E4B3D1E
:100EF0004BD34AF933000000009C337E4B3D4BD36B
:100F00004AFB3300000000A7337E4B8B52CD594C77
:100F10003100000000B0337E4B8B52CD594C310074
:100F2000000000B5337E4B1552CD594C3100000006
:100F300000BA337E4B1552CD594C3100000000BF32
:100F4000337E4B1552CD594C3100000000C4337E26
:100F50004B1552CD594C3100000000C9337E4B1562
:100F600052CD594C3100000000CE337E4B1552CD8E
:100F7000594C3100000000D3337E4B1552CD594CF3
:100F80003100000000D8337E4B1552CD594C310052
:100F9000000000DD337E4B1552CD594C310000006E
:100FA00000E2337E4B1552CD594C3100000000E772
:100FB000337E4B1552CD594C3100000000EC337E8E
:100FC0004B1552CD594C3100000000F5337E4B15C6
:100FD00052CD594C3100000000FE337E4B1552CDEE
:100FE000594C310000000007347E4B1552CD594C4E
:100FF000310000000010347E4B1552CD594C3100A9
:1010000000000019347E4B1552CD594C31000000C0
:101010000022347E4B1552CD594C31000000002B7C
:10102000347E4B1552CD594C310000000034347ED3
:101030004B1552CD594C31000000003D347E4B8A97
:1010400057B04A4C310000000042347E4B6F57B01D
:101050004A4C310000000047347E4B5457B04A4C94
:1010600031000000004C347E4BA557B04A4C310093
:101070000000005134ED68194BB04A4C31000000BB
:10108000002E000A002A2A2A205741524E494E4774
:10109000202A2A2A20556E737570706F72746564E9
:1010A00020737769746368206D6F64652E205377B1
:1010B000697463682044495341424C4544002A2ADC
:1010C0002A205741524E494E47202A2A2A20556E3F
:1010D000737570706F72746564206C696E6561728F
:1010E0002061786973206D6F64652E204178697383
:1010F0002044495341424C4544002A2A2A20574162
:10110000524E494E47202A2A2A20556E7375707018
:101110006F7274656420726F74617279206178698E
:1011200073206D6F64652E204178697320444953A4
:1011300041424C454400563461346C347834813437
:101140008B3495349F34AA34B534C0342A2A2A20EB
:101150005741524E494E47202A2A2A204E6F6E2D63
:101160007374616E64617264206D6963726F73740D
:1011700065702076616C756500CC34D034D434D978
:10118000340A3522353F355F355F3575358B359AF5
:1011900035A935B835D535E73500362136483668B6
:1011A0003682369C36B636D036EA36043716372CB9
:1011B0003736373C37403745374A37503755375A37
:1011C000375E37633767376F3776377C3789378FC6
:1011D0003795379A379E37AB37B137B637BA37BE00
:1011E00037C337C937CF37D6376200660025733A21
:1011F00025312E33660025733A25312E30660025C1
:10120000733A2573000A002C0025312E3366002521
:10121000312E3066002573000A002C0066622C66B1
:1012200069726D776172655F622C5B66625D20201A
:101230006669726D776172655F6275696C6425318C
:10124000382E32660A0066762C6669726D77617296
:10125000655F762C5B66765D20206669726D7761CE
:1012600072655F76657273696F6E2531362E3266F0
:101270000A0069642C69642C5B69645D20206964E0
:101280005F646576696365253136640A0073692C8D
:101290007374617475735F692C5B73695D2020736F
:1012A00074617475735F696E74657276616C202009
:1012B00020202531302E3066206D73205B303D6F4D
:1012C00066665D0A0073722C7374617475735F7265
:1012D0002C0071722C71756575655F722C007062DF
:1012E0002C706C616E6E65725F6275666665725FAA
:1012F000612C506C616E6E657220627566666572F7
:10130000733A2538640A006C696E652C6C696E65E9
:101310005F6E2C4C696E65206E756D6265723A2544
:1013200031302E30660A006C782C6C696E655F690E
:101330002C4C696E6520696E6465783A253133649A
:101340000A00666565642C666565642C466565649F
:1013500020726174653A2531362E336625532F6D20
:10136000696E0A00737461742C737461742C4D611E
:101370006368696E652073746174653A202020206B
:1013800020202025730A006D6163732C6D616373E7
:101390002C526177206D616368696E65207374619A
:1013A00074653A20202025730A00637963732C63E7
:1013B0007963732C4379636C652073746174653A47
:1013C00020202020202020202025730A006D6F740B
:1013D000732C6D6F74732C4D6F74696F6E20737402
:1013E0006174653A202020202020202025730A00E7
:1013F000686F6C642C686F6C642C46656564686FFC
:101400006C642073746174653A20202020202025AC
:10141000730A00686F6D652C686F6D652C486F6D81
:10142000696E672073746174653A20202020202043
:10143000202025730A0076656C2C76656C6F6369D5
:1014400074792C56656C6F636974793A2531372E3F
:10145000336625532F6D696E0A00756E69742C759D
:101460006E69742C556E6974733A202020202020F8
:1014700020202020202020202025730A00636F6F69
:10148000722C636F6F722C436F6F7264696E61743C
:10149000652073797374656D3A20202025730A00E6
:1014A0006D6F6D6F2C6D6F6D6F2C4D6F74696F6EFE
:1014B000206D6F64653A20202020202020202025E8
:1014C000730A00706C616E2C706C616E2C506C61D4
:1014D0006E653A202020202020202020202020205F
:1014E000202025730A00706174682C706174682C68
:1014F00050617468204D6F64653A202020202020C0
:10150000202020202025730A00646973742C6469EC
:1015100073742C44697374616E6365206D6F6465C8
:101520003A2020202020202025730A0066726D6F4B
:101530002C66726D6F2C466565642072617465203F
:101540006D6F64653A20202020202025730A0070EA
:101550006F73782C706F73782C5820706F73697468
:10156000696F6E3A2531352E336625530A00706F48
:1015700073792C706F73792C5920706F736974694B
:101580006F6E3A2531352E336625530A00706F731E
:101590007A2C706F737A2C5A20706F736974696F2C
:1015A0006E3A2531352E336625530A00706F73610C
:1015B0002C706F73612C4120706F736974696F6E4A
:1015C0003A2531352E336625530A00706F73622C2D
:1015D000706F73622C4220706F736974696F6E3A1A
:1015E0002531352E336625530A00706F73632C70D6
:1015F0006F73632C4320706F736974696F6E3A2543
:1016000031352E336625530A006D706F782C6D705E
:101610006F782C58206D61636820706F73697469EE
:101620006F6E3A2531302E336625530A006D706F88
:10163000792C6D706F792C59206D61636820706F03
:10164000736974696F6E3A2531302E336625530AFB
:10165000006D706F7A2C6D706F7A2C5A206D6163FB
:101660006820706F736974696F6E3A2531302E335C
:101670006625530A006D706F612C6D706F612C418F
:10168000206D61636820706F736974696F6E3A25AD
:1016900031302E336625530A006D706F622C6D70E9
:1016A0006F622C42206D61636820706F736974698A
:1016B0006F6E3A2531302E336625530A006D706FF8
:1016C000632C6D706F632C43206D61636820706FB5
:1016D000736974696F6E3A2531302E336625530A6B
:1016E00000673932782C673932782C58206F72694C
:1016F00067696E206F66667365743A2531302E33E4
:101700006625530A00673932792C673932792C59AA
:10171000206F726967696E206F66667365743A251B
:1017200031302E336625530A006739327A2C6739F7
:10173000327A2C5A206F726967696E206F66667301
:1017400065743A2531302E336625530A00673932E5
:10175000612C673932612C41206F726967696E2094
:101760006F66667365743A2531302E336625530AE9
:1017700000673932622C673932622C42206F7269FD
:1017800067696E206F66667365743A2531302E3353
:101790006625530A00673932632C673932632C435C
:1017A000206F726967696E206F66667365743A258B
:1017B00031302E336625530A0074652C74657374BA
:1017C0002C0068652C68656C702C0064652C646561
:1017D00066612C006D73672C6D73672C25730A008E
:1017E00067706C2C67636F64655F706C2C5B6770EF
:1017F0006C5D2067636F64655F73656C6563745FC0
:10180000706C616E652025313064205B302C312C8A
:10181000325D0A0067756E2C67636F64655F752CB7
:10182000205B67756E5D2067636F64655F756E69C9
:1018300074735F6D6F646520202025313064205BF8
:10184000302C315D0A0067636F2C67636F64655FDE
:10185000632C205B67636F5D2067636F64655F6304
:101860006F6F72645F73797374656D2025313064B6
:10187000205B312D365D0A006770612C67636F64F1
:10188000655F70612C5B6770615D2067636F646585
:101890005F706174685F636F6E74726F6C20253166
:1018A0003064205B302C312C325D0A006764692C77
:1018B00067636F64655F642C205B6764695D2067A4
:1018C000636F64655F64697374616E63655F6D6F98
:1018D000646525313064205B302C315D0A0067631C
:1018E0002C67636F642C5B67635D006A612C6A75AB
:1018F0006E632C5B6A615D20206A756E6374696F2C
:101900006E5F616363656C65726174696F6E2538C3
:101910002E306625530A006D6C2C6D696E5F6C2C41
:101920005B6D6C5D20206D696E5F6C696E655F73C9
:1019300065676D656E742020202531342E33662551
:10194000530A006D612C6D696E5F612C5B6D615D8A
:1019500020206D696E5F6172635F7365676D656E90
:1019600074202020202531342E336625530A006D43
:10197000742C6D696E5F732C5B6D745D20206D69D6
:101980006E5F7365676D656E745F74696D65202049
:10199000202531302E306620755365630A00696357
:1019A0002C69676E6F72655F632C5B69635D2020D5
:1019B00069676E6F7265204352206F72204C46201B
:1019C0006F6E20525820253764205B302C313D4308
:1019D000522C323D4C465D0A0065632C656E616297
:1019E0006C655F632C5B65635D2020656E61626C76
:1019F000655F435220286F6E205458292531326488
:101A0000205B302C315D0A0065652C656E61626C6F
:101A1000655F652C5B65655D2020656E61626C6548
:101A20005F6563686F2020202020202531326420EC
:101A30005B302C315D0A0065782C656E61626C65E7
:101A40005F782C5B65785D2020656E61626C655FF8
:101A5000786F6E5F786F6666202025313264205B78
:101A6000302C315D0A0065712C656E61626C655FBA
:101A7000712C5B65715D2020656E61626C655F71C4
:101A8000756575655F7265706F7274732539642052
:101A90005B302C315D0A00656A2C656E61626C6595
:101AA0005F6A2C5B656A5D2020656E61626C655FB4
:101AB0006A736F6E5F6D6F64652025313264205BE1
:101AC000302C315D0A00316D612C6D315F6D612C00
:101AD000205B316D615D206D315F6D61705F746F92
:101AE0005F6178697325313564205B303D582C2067
:101AF000313D592E2E2E5D0A003173612C6D315F00
:101B0000732C20205B3173615D206D315F737465D0
:101B1000705F616E676C652532302E336625530A1F
:101B2000003174722C6D315F74722C205B317472D1
:101B30005D206D315F74726176656C5F7065725F98
:101B40007265766F6C7574696F6E25392E336625F4
:101B5000530A00316D692C6D315F6D692C205B314A
:101B60006D695D206D315F6D6963726F737465704F
:101B7000732025313564205B312C322C342C385DB8
:101B80000A0031706F2C6D315F706F6C2C5B31709F
:101B90006F5D206D315F706F6C61726974792020A8
:101BA0002025313564205B302C315D0A0031706DA9
:101BB0002C6D315F706F772C5B31706D5D206D31F6
:101BC0005F706F7765725F6D616E6167656D656E81
:101BD0007425313064205B302C315D0A00326D6138
:101BE0002C6D325F6D612C205B326D615D206D323A
:101BF0005F6D61705F746F5F617869732531356403
:101C0000205B303D582C20313D592E2E2E5D0A0090
:101C10003273612C6D325F732C20205B3273615DF7
:101C2000206D325F737465705F616E676C6525321D
:101C3000302E336625530A003274722C6D325F7475
:101C4000722C205B3274725D206D325F747261762B
:101C5000656C5F7065725F7265766F6C7574696FC5
:101C60006E25392E336625530A00326D692C6D328C
:101C70005F6D692C205B326D695D206D325F6D692F
:101C800063726F73746570732025313564205B3126
:101C90002C322C342C385D0A0032706F2C6D325F80
:101CA000706F6C2C5B32706F5D206D325F706F6C8B
:101CB000617269747920202025313564205B302CD5
:101CC000315D0A0032706D2C6D325F706F772C5B66
:101CD00032706D5D206D325F706F7765725F6D6120
:101CE0006E6167656D656E7425313064205B302CE4
:101CF000315D0A00336D612C6D335F6D612C205BAB
:101D0000336D615D206D335F6D61705F746F5F6116
:101D100078697325313564205B303D582C20313D86
:101D2000592E2E2E5D0A003373612C6D335F732C98
:101D300020205B3373615D206D335F737465705F6A
:101D4000616E676C652532302E336625530A003389
:101D500074722C6D335F74722C205B3374725D204F
:101D60006D335F74726176656C5F7065725F72650A
:101D7000766F6C7574696F6E25392E336625530A3C
:101D800000336D692C6D335F6D692C205B336D6999
:101D90005D206D335F6D6963726F7374657073205E
:101DA00025313564205B312C322C342C385D0A000F
:101DB00033706F2C6D335F706F6C2C5B33706F5DA5
:101DC000206D335F706F6C617269747920202025FB
:101DD000313564205B302C315D0A0033706D2C6D21
:101DE000335F706F772C5B33706D5D206D335F7088
:101DF0006F7765725F6D616E6167656D656E742585
:101E0000313064205B302C315D0A00346D612C6D03
:101E1000345F6D612C205B346D615D206D345F6DCE
:101E200061705F746F5F6178697325313564205B21
:101E3000303D582C20313D592E2E2E5D0A00347332
:101E4000612C6D345F732C20205B3473615D206DD9
:101E5000345F737465705F616E676C652532302E18
:101E6000336625530A003474722C6D345F74722CFF
:101E7000205B3474725D206D345F74726176656CC2
:101E80005F7065725F7265766F6C7574696F6E25D1
:101E9000392E336625530A00346D692C6D345F6D1D
:101EA000692C205B346D695D206D345F6D696372F0
:101EB0006F73746570732025313564205B312C326B
:101EC0002C342C385D0A0034706F2C6D345F706FC9
:101ED0006C2C5B34706F5D206D345F706F6C617261
:101EE00069747920202025313564205B302C315DE8
:101EF0000A0034706D2C6D345F706F772C5B34701A
:101F00006D5D206D345F706F7765725F6D616E61BE
:101F100067656D656E7425313064205B302C315DF2
:101F20000A0078616D2C785F612C5B78616D5D20B3
:101F3000785F617869735F6D6F64652531386420FF
:101F400025530A0078766D2C785F762C5B78766D59
:101F50005D20785F76656C6F636974795F6D617819
:101F6000696D756D2531352E336625532F6D696E7C
:101F70000A007866722C785F662C5B7866725D204A
:101F8000785F66656564726174655F6D6178696DBF
:101F9000756D2531352E336625532F6D696E0A0018
:101FA00078746D2C785F742C5B78746D5D20785F2D
:101FB00074726176656C5F6D6178696D756D2531E0
:101FC000372E336625530A00786A6D2C785F6A6570
:101FD0002C5B786A6D5D20785F6A65726B5F6D61FE
:101FE00078696D756D2531352E306625532F6D69F5
:101FF0006E5E330A00786A642C785F6A752C5B78B1
:102000006A645D20785F6A756E6374696F6E5F6481
:102010006576696174696F6E2531342E3466255397
:1020200020286C6172676572206973206661737421
:102030006572290A0078736D2C785F732C5B787356
:102040006D5D20785F7377697463685F6D6F646539
:1020500025313664205B302C312C322C332C345D0E
:102060000A007873762C785F732C5B7873765D202A
:10207000785F7365617263685F76656C6F636974BE
:10208000792531362E336625532F6D696E0A007817
:102090006C762C785F6C617463685F762C5B786C0F
:1020A000765D20785F6C617463685F76656C6F63E2
:1020B0006974792531372E336625532F6D696E0A81
:1020C00000786C622C785F6C617463685F622C5B73
:1020D000786C625D20785F6C617463685F626163D5
:1020E0006B6F66662531382E336625530A00787A81
:1020F000622C785F7A2C5B787A625D20785F7A65F3
:10210000726F5F6261636B6F66662531392E33666D
:1021100025530A0079616D2C795F612C5B79616DC3
:102120005D20795F617869735F6D6F646525313813
:10213000642025530A0079766D2C795F762C5B79C3
:10214000766D5D20795F76656C6F636974795F6D1C
:102150006178696D756D2531352E336625532F6D88
:10216000696E0A007966722C795F662C5B796672FB
:102170005D20795F66656564726174655F6D617825
:10218000696D756D2531352E336625532F6D696E5A
:102190000A0079746D2C795F742C5B79746D5D2005
:1021A000795F74726176656C5F6D6178696D756D6C
:1021B0002531372E336625530A00796A6D2C795FF5
:1021C0006A652C5B796A6D5D20795F6A65726B5F09
:1021D0006D6178696D756D2531352E306625532F0B
:1021E0006D696E5E330A00796A642C795F6A752CBA
:1021F0005B796A645D20795F6A756E6374696F6E7E
:102200005F646576696174696F6E2531342E34665A
:10221000255320286C61726765722069732066619E
:1022200073746572290A0079736D2C795F732C5B66
:1022300079736D5D20795F7377697463685F6D6F23
:10224000646525313664205B302C312C322C332CE4
:10225000345D0A007973762C795F732C5B79737621
:102260005D20795F7365617263685F76656C6F632B
:102270006974792531362E336625532F6D696E0AC0
:1022800000796C762C795F6C617463685F762C5B87
:10229000796C765D20795F6C617463685F76656CDC
:1022A0006F636974792531372E336625532F6D6935
:1022B0006E0A00796C622C795F6C617463685F628E
:1022C0002C5B796C625D20795F6C617463685F621E
:1022D00061636B6F66662531382E336625530A00BD
:1022E000797A622C795F7A2C5B797A625D20795FEA
:1022F0007A65726F5F6261636B6F66662531392E36
:10230000336625530A007A616D2C7A5F612C5B7A03
:10231000616D5D207A5F617869735F6D6F646525BB
:102320003138642025530A007A766D2C7A5F762C3A
:102330005B7A766D5D207A5F76656C6F6369747920
:102340005F6D6178696D756D2531352E3366255366
:102350002F6D696E0A007A66722C7A5F662C5B7A42
:1023600066725D207A5F66656564726174655F6D33
:102370006178696D756D2531352E336625532F6D66
:10238000696E0A007A746D2C7A5F742C5B7A746DB6
:102390005D207A5F74726176656C5F6D6178696DDE
:1023A000756D2531372E336625530A007A6A6D2CF8
:1023B0007A5F6A652C5B7A6A6D5D207A5F6A657206
:1023C0006B5F6D6178696D756D2531352E306625D1
:1023D000532F6D696E5E330A007A6A642C7A5F6AE5
:1023E000752C5B7A6A645D207A5F6A756E637469C6
:1023F0006F6E5F646576696174696F6E2531342E26
:102400003466255320286C617267657220697320D9
:10241000666173746572290A007A736D2C7A5F7332
:102420002C5B7A736D5D207A5F7377697463685F84
:102430006D6F646525313664205B302C312C322C75
:10244000332C345D0A007A73762C7A5F732C5B7AB6
:1024500073765D207A5F7365617263685F76656C21
:102460006F636974792531362E336625532F6D6974
:102470006E0A007A6C762C7A5F6C617463685F76A2
:102480002C5B7A6C765D207A5F6C617463685F7632
:10249000656C6F636974792531372E336625532F48
:1024A0006D696E0A007A6C622C7A5F6C6174636885
:1024B0005F622C5B7A6C625D207A5F6C617463682A
:1024C0005F6261636B6F66662531382E3366255314
:1024D0000A007A7A622C7A5F7A2C5B7A7A625D20C3
:1024E0007A5F7A65726F5F6261636B6F66662531D2
:1024F000392E336625530A0061616D2C615F612CB2
:102500005B61616D5D20615F617869735F6D6F64B0
:1025100065253138642025530A0061766D2C615F92
:10252000762C5B61766D5D20615F76656C6F6369AB
:1025300074795F6D6178696D756D2531352E3366FF
:1025400025532F6D696E0A006166722C615F662CDF
:102550005B6166725D20615F66656564726174656A
:102560005F6D6178696D756D2531352E3366255344
:102570002F6D696E0A0061746D2C615F742C5B6154
:10258000746D5D20615F74726176656C5F6D6178FA
:10259000696D756D20202531352E336625530A006F
:1025A000616A6D2C615F6A652C5B616A6D5D20619B
:1025B0005F6A65726B5F6D6178696D756D25313528
:1025C0002E306625532F6D696E5E330A00616A6492
:1025D0002C615F6A752C5B616A645D20615F6A755E
:1025E0006E6374696F6E5F646576696174696F6E3E
:1025F0002531342E346625530A006172612C615FE7
:10260000722C5B6172615D20615F726164697573D8
:102610005F76616C75652532302E346625530A006D
:1026200061736D2C615F732C5B61736D5D20615F05
:102630007377697463685F6D6F64652531366420F4
:102640005B302C312C322C332C345D0A00617376D4
:102650002C615F732C5B6173765D20615F736561D4
:102660007263685F76656C6F636974792531362EA5
:10267000336625532F6D696E0A00616C762C615F9D
:102680006C617463685F762C5B616C765D20615F62
:102690006C617463685F76656C6F6369747925310A
:1026A000372E336625532F6D696E0A00616C622CDC
:1026B000615F6C617463685F622C5B616C625D205A
:1026C000615F6C617463685F6261636B6F666625EE
:1026D00031382E336625530A00617A622C615F7AA5
:1026E0002C5B617A625D20615F7A65726F5F626107
:1026F000636B6F66662531392E336625530A006297
:10270000616D2C625F612C5B62616D5D20625F6157
:102710007869735F6D6F6465253138642025530ACD
:102720000062766D2C625F762C5B62766D5D206256
:102730005F76656C6F636974795F6D6178696D75DB
:102740006D2531352E336625532F6D696E0A006273
:1027500066722C625F662C5B6266725D20625F66E9
:10276000656564726174655F6D6178696D756D250D
:1027700031352E336625532F6D696E0A0062746DF4
:102780002C625F742C5B62746D5D20625F74726199
:1027900076656C5F6D6178696D756D2531372E33A7
:1027A0006625530A00626A6D2C625F6A652C5B6263
:1027B0006A6D5D20625F6A65726B5F6D6178696DDD
:1027C000756D2531352E306625532F6D696E5E335C
:1027D0000A00626A642C625F6A752C5B626A645DDF
:1027E00020625F6A756E6374696F6E5F6465766997
:1027F0006174696F6E2531342E346625530A006288
:1028000072612C625F722C5B6272615D20625F722A
:1028100061646975735F76616C75652532302E343D
:102820006625530A0062736D2C625F732C5B6273C2
:102830006D5D20625F7377697463685F6D6F646557
:1028400025313664205B302C312C322C332C345D16
:102850000A006273762C625F732C5B6273765D2074
:10286000625F7365617263685F76656C6F636974DC
:10287000792531362E336625532F6D696E0A006235
:102880006C762C625F6C617463685F762C5B626C43
:10289000765D20625F6C617463685F76656C6F6300
:1028A0006974792531372E336625532F6D696E0A89
:1028B00000626C622C625F6C617463685F622C5BA7
:1028C000626C625D20625F6C617463685F62616309
:1028D0006B6F66662531382E336625530A00627A9F
:1028E000622C625F7A2C5B627A625D20625F7A653D
:1028F000726F5F6261636B6F66662531392E336676
:1029000025530A0063616D2C635F612C5B63616D0D
:102910005D20635F617869735F6D6F646525313831
:10292000642025530A0063766D2C635F762C5B630D
:10293000766D5D20635F76656C6F636974795F6D3A
:102940006178696D756D2531352E336625532F6D90
:10295000696E0A006366722C635F662C5B63667245
:102960005D20635F66656564726174655F6D617843
:10297000696D756D2531352E336625532F6D696E62
:102980000A0063746D2C635F742C5B63746D5D204F
:10299000635F74726176656C5F6D6178696D756D8A
:1029A0002531372E336625530A00636A6D2C635F29
:1029B0006A652C5B636A6D5D20635F6A65726B5F3D
:1029C0006D6178696D756D2531352E306625532F13
:1029D0006D696E5E330A00636A642C635F6A752CEE
:1029E0005B636A645D20635F6A756E6374696F6EB2
:1029F0005F646576696174696F6E2531342E346663
:102A000025530A006372612C635F722C5B637261F1
:102A10005D20635F7261646975735F76616C756573
:102A20002532302E346625530A0063736D2C635FA4
:102A3000732C5B63736D5D20635F73776974636888
:102A40005F6D6F646525313664205B302C312C322C
:102A50002C332C345D0A006373762C635F732C5B1C
:102A60006373765D20635F7365617263685F76652B
:102A70006C6F636974792531362E336625532F6D5B
:102A8000696E0A00636C762C635F6C617463685FC7
:102A9000762C5B636C765D20635F6C617463685F4A
:102AA00076656C6F636974792531372E33662553EB
:102AB0002F6D696E0A00636C622C635F6C617463D6
:102AC000685F622C5B636C625D20635F6C61746342
:102AD000685F6261636B6F66662531382E336625E9
:102AE000530A00637A622C635F7A2C5B637A625DBF
:102AF00020635F7A65726F5F6261636B6F666625E4
:102B000031392E336625530A0070776D662C705F5D
:102B1000662C5B70776D665D2070776D5F667265A1
:102B20007175656E63792020202531352E33664816
:102B30007A0A007033736C2C705F63775F735F6C1D
:102B40006F2C5B7033736C5D2070776D5F63775FA4
:102B500073706565645F6C6F202531352E33665266
:102B6000504D0A00703373682C705F63775F735F3A
:102B700068692C5B703373685D2070776D5F637775
:102B80005F73706565645F6869202531352E336633
:102B900052504D0A007033706C2C705F63775F7019
:102BA0005F6C6F2C5B7033706C5D2070776D5F6352
:102BB000775F70686173655F6C6F20202020202034
:102BC0002020202025342E3366205B302E2E315DD0
:102BD0000A00703370682C705F63775F705F68699C
:102BE0002C5B703370685D2070776D5F63775F700A
:102BF000686173655F6869202020202020202020E4
:102C00002025342E3366205B302E2E315D0A007075
:102C100034736C2C705F6363775F735F6C6F2C5BD6
:102C20007034736C5D2070776D5F6363775F737072
:102C30006565645F6C6F2531352E336652504D0AE1
:102C400000703473682C705F6363775F735F6869CB
:102C50002C5B703473685D2070776D5F6363775FA2
:102C600073706565645F68692531352E336652502F
:102C70004D0A007034706C2C705F6363775F705F17
:102C80006C6F2C5B7034706C5D2070776D5F63636C
:102C9000775F70686173655F6C6F20202020202053
:102CA0002020202025342E3366205B302E2E315DEF
:102CB0000A00703470682C705F6363775F705F68C0
:102CC000692C5B703470685D2070776D5F6363772B
:102CD0005F70686173655F68692020202020202074
:102CE00020202025342E3366205B302E2E315D0AC5
:102CF0000070356F662C705F6F66662C5B70356F89
:102D0000665D2070776D5F70686173655F6F666682
:102D10002020202020202020202020202025342E8C
:102D20003366205B302E2E315D0A00673534782CF7
:102D30006735345F782C5B673534785D20673534D0
:102D40005F785F6F66667365742532302E33662553
:102D5000530A00673534792C6735345F792C5B670B
:102D60003534795D206735345F795F6F66667365EA
:102D7000742532302E336625530A006735347A2C99
:102D80006735345F7A2C5B6735347A5D206735347C
:102D90005F7A5F6F66667365742532302E33662501
:102DA000530A00673534612C6735345F612C5B67EB
:102DB0003534615D206735345F615F6F66667365CA
:102DC000742532302E336625530A00673534622C61
:102DD0006735345F622C5B673534625D206735345C
:102DE0005F625F6F66667365742532302E336625C9
:102DF000530A00673534632C6735345F632C5B6797
:102E00003534635D206735345F635F6F6666736575
:102E1000742532302E336625530A00673535782CF9
:102E20006735355F782C5B673535785D20673535DC
:102E30005F785F6F66667365742532302E33662562
:102E4000530A00673535792C6735355F792C5B6718
:102E50003535795D206735355F795F6F66667365F7
:102E6000742532302E336625530A006735357A2CA7
:102E70006735355F7A2C5B6735357A5D2067353588
:102E80005F7A5F6F66667365742532302E33662510
:102E9000530A00673535612C6735355F612C5B67F8
:102EA0003535615D206735355F615F6F66667365D7
:102EB000742532302E336625530A00673535622C6F
:102EC0006735355F622C5B673535625D2067353568
:102ED0005F625F6F66667365742532302E336625D8
:102EE000530A00673535632C6735355F632C5B67A4
:102EF0003535635D206735355F635F6F6666736583
:102F0000742532302E336625530A00673536782C07
:102F10006735365F782C5B673536785D20673536E8
:102F20005F785F6F66667365742532302E33662571
:102F3000530A00673536792C6735365F792C5B6725
:102F40003536795D206735365F795F6F6666736504
:102F5000742532302E336625530A006735367A2CB5
:102F60006735365F7A2C5B6735367A5D2067353694
:102F70005F7A5F6F66667365742532302E3366251F
:102F8000530A00673536612C6735365F612C5B6705
:102F90003536615D206735365F615F6F66667365E4
:102FA000742532302E336625530A00673536622C7D
:102FB0006735365F622C5B673536625D2067353674
:102FC0005F625F6F66667365742532302E336625E7
:102FD000530A00673536632C6735365F632C5B67B1
:102FE0003536635D206735365F635F6F6666736590
:102FF000742532302E336625530A00673537782C16
:103000006735375F782C5B673537785D20673537F4
:103010005F785F6F66667365742532302E33662580
:10302000530A00673537792C6735375F792C5B6732
:103030003537795D206735375F795F6F6666736511
:10304000742532302E336625530A006735377A2CC3
:103050006735375F7A2C5B6735377A5D20673537A0
:103060005F7A5F6F66667365742532302E3366252E
:10307000530A00673537612C6735375F612C5B6712
:103080003537615D206735375F615F6F66667365F1
:10309000742532302E336625530A00673537622C8B
:1030A0006735375F622C5B673537625D2067353780
:1030B0005F625F6F66667365742532302E336625F6
:1030C000530A00673537632C6735375F632C5B67BE
:1030D0003537635D206735375F635F6F666673659D
:1030E000742532302E336625530A00673538782C24
:1030F0006735385F782C5B673538785D2067353801
:103100005F785F6F66667365742532302E3366258F
:10311000530A00673538792C6735385F792C5B673F
:103120003538795D206735385F795F6F666673651E
:10313000742532302E336625530A006735387A2CD1
:103140006735385F7A2C5B6735387A5D20673538AC
:103150005F7A5F6F66667365742532302E3366253D
:10316000530A00673538612C6735385F612C5B671F
:103170003538615D206735385F615F6F66667365FE
:10318000742532302E336625530A00673538622C99
:103190006735385F622C5B673538625D206735388C
:1031A0005F625F6F66667365742532302E33662505
:1031B000530A00673538632C6735385F632C5B67CB
:1031C0003538635D206735385F635F6F66667365AA
:1031D000742532302E336625530A00673539782C32
:1031E0006735395F782C5B673539785D206735390D
:1031F0005F785F6F66667365742532302E3366259F
:10320000530A00673539792C6735395F792C5B674C
:103210003539795D206735395F795F6F666673652B
:10322000742532302E336625530A006735397A2CDF
:103230006735395F7A2C5B6735397A5D20673539B8
:103240005F7A5F6F66667365742532302E3366254C
:10325000530A00673539612C6735395F612C5B672C
:103260003539615D206735395F615F6F666673650B
:10327000742532302E336625530A00673539622CA7
:103280006735395F622C5B673539625D2067353998
:103290005F625F6F66667365742532302E33662514
:1032A000530A00673539632C6735395F632C5B67D8
:1032B0003539635D206735395F635F6F66667365B7
:1032C000742532302E336625530A00737230302C49
:1032D000737230302C00737230312C737230312C99
:1032E00000737230322C737230322C0073723033B0
:1032F0002C737230332C00737230342C7372303470
:103300002C00737230352C737230352C0073723090
:10331000362C737230362C00737230372C73723047
:10332000372C00737230382C737230382C00737263
:1033300030392C737230392C00737231302C737227
:1033400031302C00737231312C737231312C007397
:103350007231322C737231322C00737231332C7310
:103360007231332C00737231342C737231342C006F
:10337000737231352C737231352C00737231362CE7
:10338000737231362C00737231372C737231372CD3
:1033900000737231382C737231382C0073723139EA
:1033A0002C737231392C007379732C7379732C0060
:1033B000732C732C00312C312C00322C322C003326
:1033C0002C332C00342C342C00782C782C00792CC5
:1033D000792C007A2C7A2C00612C612C00622C62F2
:1033E0002C00632C632C00702C702C006735342C5F
:1033F0006735342C006735352C6735352C0067353B
:10340000362C6735362C006735372C6735372C005E
:103410006735382C6735382C006735392C673539D6
:103420002C006739322C6739322C00706F732C7086
:103430006F732C006D706F2C6D706F2C006D2C6D88
:103440002C006E2C6E2C006F2C6F2C00242C242C46
:1034500000682C682C005B64697361626C65645D54
:10346000005B7374616E646172645D005B696E68B9
:103470006962697465645D005B7261646975735D3E
:10348000005B736C61766520585D005B736C6176E0
:103490006520595D005B736C617665205A5D005B49
:1034A000736C6176652058595D005B736C6176655D
:1034B00020585A5D005B736C61766520595A5D0037
:1034C0005B736C6176652058595A5D0020696E0007
:1034D000206D6D002064656700473934202D20750C
:1034E0006E6974732D7065722D6D696E75746520CB
:1034F0006D6F64652028692E652E2066656564728F
:10350000617465206D6F64652900473933202D2073
:10351000696E76657273652074696D65206D6F6480
:103520006500473930202D206162736F6C757465BA
:103530002064697374616E6365206D6F6465004714
:103540003931202D20696E6372656D656E74616C12
:103550002064697374616E6365206D6F64650047F4
:103560003631202D2065786163742073746F70206C
:103570006D6F646500473634202D20636F6E74696B
:103580006E756F7573206D6F646500473137202D40
:1035900020585920706C616E6500473138202D200D
:1035A000585A20706C616E6500473139202D2059C2
:1035B0005A20706C616E6500473020202D206C69A8
:1035C0006E6561722074726176657273652028730E
:1035D00065656B2900473120202D206C696E65617F
:1035E00072206665656400473220202D20636C6F71
:1035F000636B77697365206172632066656564003B
:10360000473320202D20636F756E74657220636CC4
:103610006F636B77697365206172632066656564AB
:1036200000473830202D2063616E63656C206D6F1C
:1036300074696F6E206D6F646520286E6F6E6520F3
:103640006163746976652900473533202D206D61EB
:103650006368696E6520636F6F7264696E6174651B
:103660002073797374656D00473534202D20636FA6
:103670006F7264696E6174652073797374656D200F
:103680003100473535202D20636F6F7264696E619C
:1036900074652073797374656D2032004735362068
:1036A0002D20636F6F7264696E6174652073797326
:1036B00074656D203300473537202D20636F6F729E
:1036C00064696E6174652073797374656D2034006C
:1036D000473538202D20636F6F7264696E617465A1
:1036E0002073797374656D203500473539202D209E
:1036F000636F6F7264696E6174652073797374654A
:103700006D203600473230202D20696E6368657366
:10371000206D6F646500473231202D206D696C6C1F
:10372000696D65746572206D6F6465004E6F7420FD
:10373000486F6D656400486F6D6564004F66660094
:1037400053796E6300506C616E00446563656C0074
:10375000486F6C640053746F700052756E00486F50
:103760006C64004F6666005374617274656400484F
:103770006F6D696E670050726F626500496E6974A3
:1037800069616C697A696E6700526573657400439C
:1037900079636C650053746F7000456E6400496E08
:1037A000697469616C697A696E67005265736574E2
:1037B0000053746F7000456E640052756E00486F60
:1037C0006C640050726F6265004379636C650048F9
:1037D0006F6D696E67004A6F6700B538C438E038AE
:1037E000E338E938F038F538FE38093911391D3930
:1037F000293937394E395D396A397E399639A339D5
:10380000A739AB39AF39B339C239D739EC39FB39BC
:10381000FF39033A073A0B3A0F3A133A173A1B3A71
:103820001F3A233A273A2B3A2F3A333A373A3B3A60
:10383000503A683A7A3A933AA93ABF3AD73AEF3AC5
:10384000013B1F3B333B373B3B3B3F3B433B473B12
:103850004B3B4F3B533B573B683B7C3B8E3BA33B37
:10386000BB3BD73BEB3BFF3B1A3C456E64206F668E
:1038700020636F6D6D616E642066696C650A00255A
:103880005325530074696E7967005B696E63685DE8
:10389000206F6B3E200025532553005B6D6D5D202E
:1038A0006F6B3E20006572726F723A2025533A208A
:1038B0002573200A003C6E756C6C206D6573736116
:1038C00067653E004C6F6164696E6720636F6E666A
:1038D0006967732066726F6D20454550524F4D00E9
:1038E0004F4B004572726F720045616761696E00EF
:1038F0004E6F6F7000436F6D706C6574650054653A
:10390000726D696E617465640041626F72746564A2
:1039100000456E64206F66206C696E6500456E64BC
:10392000206F662066696C650046696C65206E6F65
:1039300074206F70656E004D61782066696C65203B
:1039400073697A65206578636565646564004E6FA8
:1039500020737563682064657669636500427566E7
:1039600066657220656D7074790042756666657271
:103970002066756C6C202D20666174616C00427548
:10398000666665722066756C6C202D206E6F6E2DDC
:10399000666174616C00496E697469616C697A6909
:1039A0006E6700233136002331370023313800237E
:1039B000313900496E7465726E616C206572726F88
:1039C0007200496E7465726E616C2072616E67651B
:1039D000206572726F7200466C6F6174696E672049
:1039E000706F696E74206572726F720044697669D7
:1039F0006465206279207A65726F00233234002377
:103A00003235002332360023323700233238002388
:103A10003239002333300023333100233332002383
:103A2000333300233334002333350023333600236C
:103A30003337002333380023333900556E72656302
:103A40006F676E697A656420636F6D6D616E640087
:103A5000457870656374656420636F6D6D616E6435
:103A6000206C657474657200426164206E756D62CD
:103A7000657220666F726D617400496E7075742096
:103A800065786365656473206D6178206C656E6729
:103A9000746800496E7075742076616C7565207469
:103AA0006F6F20736D616C6C00496E707574207659
:103AB000616C756520746F6F206C61726765004979
:103AC0006E7075742076616C75652072616E6765C5
:103AD000206572726F7200496E7075742076616C29
:103AE000756520756E737570706F72746564004AC9
:103AF000534F4E2073796E746178206572726F72C5
:103B0000004A534F4E20696E7075742068617320AF
:103B1000746F6F206D616E79207061697273004FF0
:103B20007574206F662062756666657220737061B9
:103B300063650023353100233532002335330023FC
:103B4000353400233535002335360023353700233F
:103B5000353800233539005A65726F206C656E6701
:103B60007468206D6F76650047636F646520626CD2
:103B70006F636B20736B69707065640047636F647B
:103B80006520696E707574206572726F720047638C
:103B90006F64652066656564726174652065727224
:103BA0006F720047636F6465206178697320776F77
:103BB0007264206D697373696E670047636F646533
:103BC000206D6F64616C2067726F75702076696F0D
:103BD0006C6174696F6E00486F6D696E6720637900
:103BE000636C65206661696C6564004D6178207462
:103BF000726176656C206578636565646564004D07
:103C00006178207370696E646C652073706565649B
:103C10002065786365656465640041726320737034
:103C20006563696669636174696F6E206572726F3E
:103C30007200232323232054696E79472048656C42
:103C40007020232323230A00546865736520636F63
:103C50006D6D616E64732061726520616374697655
:103C6000652066726F6D2074686520636F6D6D618D
:103C70006E64206C696E653A0A205E7820202020F0
:103C80002041626F72742028636F6E74726F6C20B3
:103C90007829202D2072657365747320455645522E
:103CA000595448494E47210A20203F2020202020F7
:103CB0004D616368696E6520706F736974696F6EBA
:103CC00020616E642067636F6465206D6F64656C4E
:103CD0002073746174650A20202420202020205342
:103CE000686F7720616E642073657420636F6E6601
:103CF000696775726174696F6E2073657474696E3B
:103D000067730A20202120202020204665656468F2
:103D10006F6C64202D2073746F70206D6F74696FE9
:103D20006E20776974686F7574206C6F73696E6745
:103D300020706F736974696F6E0A20207E202020C6
:103D400020204379636C65205374617274202D20A8
:103D5000726573746172742066726F6D206665653A
:103D600064686F6C640A202068202020202053683B
:103D70006F7720746869732068656C702073637254
:103D800065656E0A202024682020202053686F7704
:103D900020636F6E66696775726174696F6E206803
:103DA000656C702073637265656E0A2020247465EB
:103DB0007374204C6973742073656C662D7465731D
:103DC00074730A20202464656661756C74733D31D8
:103DD00020526573746F726520616C6C207365741A
:103DE00074696E677320746F2022666163746F72EA
:103DF00079222064656661756C74730A000A4E6FDF
:103E000074653A2054696E79472067656E65726102
:103E1000746573206175746F6D6174696320737468
:103E200061747573207265706F727473206279208B
:103E300064656661756C740A546869732063616EA9
:103E40002062652064697361626C65642062792018
:103E5000656E746572696E67202473693D300A531C
:103E60006565207468652077696B692062656C6F91
:103E70007720666F72206D6F72652064657461696A
:103E80006C732E0A000A466F722064657461696C57
:103E900065642054696E794720696E666F2073658A
:103EA000653A20687474703A2F2F7777772E73797C
:103EB0006E746865746F732E636F6D2F77696B69AD
:103EC0002F696E6465782E7068703F7469746C65D4
:103ED0003D50726F6A656374733A54696E79470A2C
:103EE000466F7220746865206C6174657374206617
:103EF00069726D77617265207365653A20687474C4
:103F000070733A2F2F6769746875622E636F6D2F17
:103F100073796E746865746F732F54696E79470A8C
:103F2000506C65617365206C6F6720616E792069E4
:103F3000737375657320617420687474703A2F2FE1
:103F40007777772E73796E746865746F732E636FED
:103F50006D2F666F72756D730A48617665206675A0
:103F60006E0A00232323232054696E794720434F90
:103F70004E46494755524154494F4E2048656C7052
:103F800020232323230A00546865736520636F6D23
:103F90006D616E647320617265206163746976651A
:103FA00020666F7220636F6E6669677572617469EF
:103FB0006F6E3A0A2020247379732053686F77203C
:103FC00073797374656D202867656E6572616C29FD
:103FD0002073657474696E67730A20202431202071
:103FE0002053686F77206D6F746F72203120736576
:103FF0007474696E677320286F72207768617465C6
:10400000766572206D6F746F7220796F752077619D
:104010006E7420312C322C332C34290A2020247841
:1040200020202053686F77205820617869732073AF
:10403000657474696E677320286F72207768617485
:1040400065766572206178697320796F7520776174
:104050006E7420782C792C7A2C612C622C63290ABE
:104060002020246D20202053686F7720616C6C2005
:104070006D6F746F722073657474696E67730A2054
:1040800020246E20202053686F7720616C6C2061A3
:104090007869732073657474696E67730A202024CD
:1040A0002420202053686F7720616C6C2073657426
:1040B00074696E67730A2020246820202053686F7B
:1040C0007720746869732068656C7020736372650B
:1040D000656E0A0A0045616368202420636F6D6D78
:1040E000616E642061626F766520616C736F20641D
:1040F0006973706C6179732074686520746F6B6587
:104100006E20666F722065616368207365747469E0
:104110006E6720696E205B205D20627261636B6553
:1041200074730A546F2076696577207365747469B7
:104130006E677320656E746572206120746F6B65A5
:104140006E3A0A0A2020243C746F6B656E3E0A0AA0
:10415000466F72206578616D706C65202479667297
:1041600020746F20646973706C61792074686520B5
:1041700059206D6178206665656420726174650AF6
:104180000A546F2075706461746520736574746976
:104190006E677320656E74657220746F6B656E2038
:1041A000657175616C732076616C75653A0A0A20D9
:1041B00020243C746F6B656E3E3D3C76616C75658A
:1041C0003E0A0A466F72206578616D706C65202426
:1041D0007966723D38303020746F207365742074B6
:1041E00068652059206D617820666565642072617C
:1041F000746520746F20383030206D6D2F6D696EBE
:104200007574650A00232323232054696E7947209F
:1042100053454C4620544553542048656C70202328
:104220002323230A00496E766F6B652073656C66E5
:10423000207465737420627920656E746572696E8E
:10424000672024746573743D4E207768657265201D
:104250004E206973206F6E65206F663A0A20202415
:10426000746573743D312020736D6F6B65207465C8
:1042700073740A202024746573743D3220206D6F9E
:1042800074696F6E20746573742020202861207318
:104290006572696573206F66207371756172652040
:1042A000616E6420636972636C65206D6F766573FF
:1042B000290A202024746573743D332020617263C1
:1042C000207465737420202020202028736F6D6572
:1042D000206C6172676520636972636C6573290A7B
:1042E000202024746573743D3420206477656C6CE1
:1042F000207465737420202020286D6F76657320EC
:104300007370616365642062792031207365636F27
:104310006E64206477656C6C73290A2020247465B0
:1043200073743D352020686F6D696E672074657306
:104330007420202028796F75206D75737420747235
:10434000697020686F6D696E672073776974636840
:104350006573290A202024746573743D3620206615
:10436000656564686F6C6420746573742028656E7D
:10437000746572202120616E64207E20746F206835
:104380006F6C6420616E6420726573746172742C4A
:1043900020726573706563746976656C79290A208B
:1043A0002024746573743D3720204D20636F64654D
:1043B0007320746573742020284D20636F646573C7
:1043C00020696E7465726D696E676C6564207769CB
:1043D0007468206D6F766573290A202024746573D4
:1043E000743D3820204A534F4E207465737420204A
:1043F000202020286D6F74696F6E2074657374209F
:1044000072756E207573696E67204A534F4E206334
:104410006F6D6D616E6473290A2020247465737456
:104420003D392020696E76657273652074696D650B
:1044300020746573740A202024746573743D3130D0
:1044400020726F74617279206D6F74696F6E207461
:104450006573740A00232323232054696E7947204F
:10446000524553544F52452044454641554C5453B0
:104470002048656C7020232323230A00456E746551
:1044800072202464656661756C74733D3120746FAD
:104490002072657365742074686520737973746520
:1044A0006D20746F2074686520666163746F727923
:1044B0002064656661756C742076616C7565732E19
:1044C0000A546869732077696C6C206F766572771F
:1044D0007269746520616E79206368616E676573C7
:1044E00020796F752068617665206D6164652E0A9C
:1044F000005F63616C63756C6174655F7472617099
:10450000657A6F69642829206661696C6564207426
:104510006F20636F6E7665726765007372007172EB
:10452000006C78007062007172004E312054314D81
:10453000360A4E32204731370A4E33204732310A8D
:104540004E382046313830300A4E392047310A4E35
:104550003130302047393220582D32352E3137371F
:10456000592D33342E303732205A2D312E30303001
:10457000202854454D502C2052454D4F5645204C37
:1045800041544552290A4E33343320582D32352EAA
:10459000353935592D33342E3334390A4E333434CA
:1045A00020582D32352E373031592D33342E3433B7
:1045B000360A4E33343520582D32352E373931599D
:1045C0002D33342E3532300A4E33343620582D32C6
:1045D000352E383634592D33342E3630310A4E3399
:1045E000343720582D32352E393230592D33342E70
:1045F0003637390A4E33343820582D32352E393675
:1046000030592D33342E3735340A4E33343920584F
:104610002D32352E393832592D33342E3832360A70
:104620004E33353020582D32352E393837592D3309
:10463000342E3839350A4E33353120582D32352E47
:10464000393736592D33342E3936310A4E33353217
:1046500020582D32352E393438592D33352E3032FD
:10466000330A4E33353320582D32352E39303359F5
:104670002D33352E3038320A4E33353420582D3212
:10468000352E383431592D33352E3133380A4E33E7
:10469000353520582D32352E373633592D33352EBA
:1046A0003139300A4E33353620582D32352E3636D4
:1046B00039592D33352E3233390A4E333537205898
:1046C0002D32352E353539592D33352E3238340AC1
:1046D0004E33353820582D32352E343333592D335F
:1046E000352E3332350A4E33353920582D32352E9A
:1046F000323931592D33352E3336330A4E33363075
:1047000020582D32352E313334592D33352E33394F
:10471000370A4E33363120582D32342E393633593C
:104720002D33352E3432380A4E33363220582D325E
:10473000342E373737592D33352E3435350A4E332D
:10474000363320582D32342E353737592D33352E08
:104750003437370A4E33363420582D32342E333620
:1047600037592D33352E3439360A4E3336352058E5
:104770002D32342E313434592D33352E3531310A22
:104780004E33363620582D32332E393039592D33A9
:10479000352E3532320A4E33363720582D32332EED
:1047A000363631592D33352E3532390A4E333638B7
:1047B00020582D32332E343033592D33352E3533A6
:1047C000320A4E33363920582D32332E3133335995
:1047D0002D33352E3533320A4E33373020582D32B3
:1047E000322E383533592D33352E3532370A2F4E88
:1047F0003235313820473058302E333237592D3347
:10480000332E3532315A2D312E3030300A4E32357A
:104810003139204D3330004E31204732300A4E3589
:1048200020473430204731370A4E31302054312070
:104830004D30360A284E3135204739302047302058
:104840005830205930205A30290A4E323020533502
:10485000303030204D3033200A4E32352058302E43
:104860003036342059302E333236205A300A4E3406
:104870003020473031204631362E300A4E35302038
:1048800058302E3036342059302E3332360A4E35D9
:10489000352058302E3036302059302E3239330AF8
:1048A0004E36302058302E3037372059302E3236A1
:1048B000370A4E36352058302E3131312059302EBE
:1048C0003235370A4E37302058302E31343920599E
:1048D000302E3235320A4E37352058302E313838A6
:1048E0002059302E3235350A4E38302058302E328D
:1048F00032372059302E3236380A4E38352058306B
:104900002E3235372059302E3237310A4E39302089
:1049100058302E3333352059302E3236350A4E3941
:10492000352058302E3431322059302E3237310A6A
:104930004E3130302058302E3437342059302E321A
:1049400038370A4E3130352058302E34393120591D
:10495000302E3238390A4E3131302058302E353130
:10496000372059302E3237330A4E31313520583006
:104970002E3534342059302E3236330A4E3132300F
:104980002058302E3538302059302E3236310A4EEC
:104990003132352058302E3539352059302E3236C7
:1049A000330A4E3133302058302E363231205930D0
:1049B0002E3237340A4E3133352058302E363539C1
:1049C0002059302E3330360A4E3134302058302EB4
:1049D0003637332059302E3333350A4E31343520B3
:1049E00058302E3637392059302E3336310A4E3171
:1049F00035302058302E3637382059302E3338395C
:104A00000A4E3135352058302E3637302059302E69
:104A10003432300A4E3136302058302E363730207E
:104A200059302E3434360A4E3136352058302E3631
:104A300038302059302E3437340A4E313730205830
:104A4000302E3730342059302E3439370A4E313732
:104A5000352058302E3733322059302E3531350A33
:104A60004E3138302058302E3739342059302E35D9
:104A700033350A4E3138352058302E3837322059E8
:104A8000302E3536370A4E3139302058302E3935F0
:104A9000302059302E3630340A4E313935205831D5
:104AA0002E3033312059302E3634370A4E323030E2
:104AB0002058312E3134392059302E3732320A4EB7
:104AC0003230352058312E3330382059302E383599
:104AD000340A4E3231302058312E343330205930A0
:104AE0002E3938340A4E3231352058312E3434378D
:104AF0002059302E3938360A4E3232302058312E75
:104B00003632382059302E3832320A4E3232352081
:104B100058312E3733322059302E3731340A4E3245
:104B200033302058322E3030392059302E3338313E
:104B30000A4E3233352058322E3131362059302E3C
:104B40003236360A4E3234302058322E3232382045
:104B500059302E3135370A4E3234352058322E3204
:104B600038302059302E3132330A4E323530205809
:104B7000322E3333322059302E3039340A4E32350A
:104B8000352058322E3432332059302E3037300A07
:104B90004E3236302058322E3438392059302E30AB
:104BA00036350A4E3236352058322E3535372059B3
:104BB000302E3036360A4E3237302058322E3632CA
:104BC000372059302E3038340A4E3237352058329B
:104BD0002E3639332059302E3130390A4E323830A2
:104BE0002058322E3733302059302E3133330A4E8D
:104BF0003238352058322E3830352059302E313960
:104C0000300A4E3239302058322E3832392059305D
:104C10002E3231360A4E3239352058322E3838305D
:104C20002059302E3239310A4E3330302058322E4E
:104C30003838342059302E3330300A4E3330352056
:104C400058322E3839382059302E3333320A4E3309
:104C500031302058322E3930352059302E33363706
:104C60000A4E3331352058322E3931302059302E0A
:104C70003430370A4E3332302058322E3930382013
:104C800059302E3434360A4E3332352058322E39CC
:104C900030312059302E3439350A4E3333302058D4
:104CA000322E3839372059302E3439350A4E3333C5
:104CB000352058322E3839302059302E3532340ACA
:104CC0004E3334302058322E3834322059302E367C
:104CD00030340A4E3334352058322E38313420598E
:104CE000302E3636350A4E3335302058322E37398D
:104CF000342059302E3735300A4E3335352058326E
:104D00002E3739312059302E3833380A4E33363069
:104D10002058322E3831392059302E3937360A4E44
:104D20003336352058322E3833372059312E30342F
:104D3000340A4E3337302058322E3836322059312B
:104D40002E3131320A4E3337352058322E3837372C
:104D50002059312E3134350A4E3338302058322E16
:104D60003931322059312E3231370A4E333835201D
:104D700058322E3931372059312E3232360A4E33DD
:104D800039302058322E3935312059312E323831D0
:104D90000A4E3339352058322E3937302059312ECA
:104DA0003239350A4E3430302058322E39393620D7
:104DB00059312E3239350A4E3430352058332E30A1
:104DC00031332059312E3237350A4E3431302058A4
:104DD000332E3032342059312E3235340A4E3431AC
:104DE000352058332E3037302059312E3135310AA5
:104DF0004E3432302058332E3037372059312E314F
:104E000033340A4E3432352058332E31323520595E
:104E1000312E3033390A4E3433302058332E31336B
:104E2000382059312E3031390A4E34333520583339
:104E30002E3230352059302E3930380A4E34343045
:104E40002058332E3238322059302E3739370A4E17
:104E50003434352058332E3336312059302E3639FC
:104E6000310A4E3435302058332E34323620593002
:104E70002E3539320A4E3435352058332E343536F6
:104E80002059302E3534330A4E3436302058332EE4
:104E90003437392059302E3439330A4E34363520E0
:104EA00058332E3439342059302E3437320A4E34A8
:104EB00037302058332E3530352059302E343436A3
:104EC0000A4E3437352058332E3531382059302E9C
:104ED0003431370A4E3438302058332E35333020B1
:104EE00059302E3339310A4E3438352058332E3567
:104EF00036342059302E3330300A4E343930205871
:104F0000332E3537372059302E3235330A4E343967
:104F1000352058332E3536382059302E3231320A6A
:104F20004E3530302058332E3534342059302E3120
:104F300037360A4E3530352058332E353431205926
:104F4000302E3134360A4E3531302058332E353537
:104F5000332059302E3131390A4E3531352058330E
:104F60002E3537362059302E3130360A4E35323014
:104F70002058332E3539372059302E3130320A4EF1
:104F80003532352058332E3631382059302E3130D5
:104F9000390A4E3533302058332E363339205930C4
:104FA0002E3132390A4E3533352058332E363530CE
:104FB0002059302E3135390A4E3534302058332EB1
:104FC0003636332059302E3137380A4E35343520B5
:104FD00058332E3637382059302E3139320A4E3573
:104FE00035302058332E3639392059302E31393763
:104FF0000A4E3535352058332E3732332059302E6E
:105000003139360A4E3536302058332E3736342073
:1050100059302E3137390A4E3536352058332E382F
:1050200030352059302E3136350A4E35373020583C
:10503000332E3838342059302E3135390A4E353731
:10504000352058332E3934392059302E3136350A2F
:105050004E3538302058332E3936362059302E31DF
:1050600037350A4E3538352058332E3937382059E0
:10507000302E3139340A4E3539302058332E3937F5
:10508000382059302E3232330A4E353935205833D4
:105090002E3936302059302E3234350A4E363030E3
:1050A0002058332E3833342059302E3331310A4EC4
:1050B0003630352058332E3736322059302E33349F
:1050C000350A4E3631302058332E3732362059309B
:1050D0002E3338390A4E3631352058332E37303397
:1050E0002059302E3435380A4E3632302058332E7F
:1050F0003638322059302E3533300A4E363235208C
:1051000058332E3637392059302E3533340A4E363F
:1051100033302058332E3632362059302E3638313F
:105120000A4E3633352058332E3536382059302E36
:105130003832380A4E3634302058332E3434342046
:1051400059312E3038300A4E3634352058332E340B
:1051500030352059312E3136370A4E363530205809
:10516000332E3430342059312E3136370A4E36350D
:10517000352058332E3338372059312E3230380A03
:105180004E3636302058332E3338342059312E32B3
:1051900030380A4E3636352058332E3336352059BE
:1051A000312E3236350A4E3637302058332E3335CD
:1051B000352059312E3238350A4E3637352058339E
:1051C0002E3334382059312E3330380A4E363830A9
:1051D0002058332E3333332059312E3335300A4E95
:1051E0003638352058332E3332312059312E333969
:1051F000310A4E3639302058332E3331312059316F
:105200002E3432380A4E3639352058332E3333395E
:105210002059312E3432330A4E3730302058332E55
:105220003434302059312E3430360A4E3730352060
:1052300058332E3531302059312E3430380A4E371C
:1052400031302058332E3538352059312E34323113
:105250000A4E3731352058332E3631312059312E10
:105260003433390A4E3732302058332E363131201C
:1052700059312E3434310A4E3732352058332E36D8
:1052800031352059312E3434310A4E3733302058DD
:10529000332E3633362059312E3438380A4E3733D0
:1052A000352058332E3633342059312E3531370AD4
:1052B0004E3734302058332E3632322059312E3585
:1052C00034330A4E3734352058332E363035205992
:1052D000312E3536330A4E3735302058332E353798
:1052E000362059312E3537350A4E3735352058336B
:1052F0002E3534342059312E3538310A4E37363078
:105300002058332E3437392059312E3539320A4E50
:105310003736352058332E3435312059312E353932
:10532000380A4E3737302058332E3338372059312A
:105330002E3632360A4E3737352058332E33393031
:105340002059312E3633360A4E3738302058332E16
:105350003533322059312E3630320A4E3738352027
:1053600058332E3630312059312E3539370A4E37E1
:1053700039302058332E3636382059312E353938C9
:105380000A4E3739352058332E3738322059312ECE
:105390003631320A4E3830302058332E37393420E7
:1053A00059312E3631380A4E3830352058332E38A0
:1053B00036382059312E3633360A4E38313020589F
:1053C000332E3931382059312E3635350A4E3831A1
:1053D000352058332E3934352059312E3636370A98
:1053E0004E3832302058332E3936342059312E364B
:1053F00038350A4E3832352058332E393637205951
:10540000312E3638350A4E3833302058332E39375E
:10541000342059312E3639390A4E38333520583335
:105420002E3938342059312E3732350A4E3834303F
:105430002058332E3938342059312E3735380A4E1A
:105440003834352058332E3937302059312E3739FA
:10545000300A4E3835302058332E39343520593102
:105460002E3831370A4E3835352058332E393138F9
:105470002059312E3832360A4E3836302058332EE5
:105480003839312059312E3832370A4E38363520E6
:1054900058332E3834322059312E3830390A4E38AC
:1054A00037302058332E3739382059312E37383499
:1054B0000A4E3837352058332E3734362059312E9E
:1054C0003737320A4E3838302058332E36393820A4
:1054D00059312E3736340A4E3838352058332E3667
:1054E00033352059312E3736360A4E383930205868
:1054F000332E3535332059312E3738350A4E383969
:10550000352058332E3437382059312E3832300A6E
:105510004E3930302058332E3430392059312E381E
:1055200036340A4E3930352058332E33343520592D
:10553000312E3931380A4E3931302058332E323637
:10554000342059322E3032330A4E39313520583317
:105550002E3234382059322E3035310A4E3932301D
:105560002058332E3234302059322E3038310A4E02
:105570003932352058332E3331362059322E3038D7
:10558000360A4E3933302058332E333930205932D1
:105590002E3130340A4E3933352058332E343134DD
:1055A0002059322E3132310A4E3934302058332EC0
:1055B0003433312059322E3135330A4E39343520C7
:1055C00058332E3433332059322E3138300A4E3985
:1055D00035302058332E3432372059322E32303580
:1055E0000A4E3935352058332E3431332059322E76
:1055F0003232340A4E3936302058332E3339322085
:1056000059322E3234320A4E3936352058332E3341
:1056100033352059322E3234340A4E39373020583F
:10562000332E3237382059322E3233360A4E39373C
:10563000352058332E3235362059322E3234320A44
:105640004E3938302058332E3233392059322E32E9
:1056500035310A4E3938352058332E323131205900
:10566000322E3238300A4E3939302058332E313705
:10567000342059322E3335360A4E393935205833D5
:105680002E3135392059322E3339370A4E313030E8
:10569000302058332E3135302059322E3433380AE9
:1056A0004E313030352058332E3134302059322E9F
:1056B0003438310A4E313031302058332E313332C4
:1056C0002059322E3531300A4E31303135205833A1
:1056D0002E3131382059322E3534330A4E313032A2
:1056E000302058332E3039392059322E3537360A8A
:1056F0004E313032352058332E3035312059322E4C
:105700003633310A4E313033302058332E30303377
:105710002059322E3636360A4E3130333520583243
:105720002E3935372059322E3638350A4E3130343D
:10573000302058322E3930372059322E3639390A36
:105740004E313034352058322E3836302059322EF2
:105750003731310A4E313035302058322E38313918
:105760002059322E3732370A4E31303535205832F3
:105770002E3736382059322E3734350A4E313036EE
:10578000302058322E3731362059322E3735370AED
:105790004E313036352058322E3637352059322E9C
:1057A0003735370A4E313037302058322E353739B9
:1057B0002059322E3733310A4E31303735205832A6
:1057C0002E3537302059322E3732330A4E313038A9
:1057D000302058322E3535392059322E3732300AA2
:1057E0004E313038352058322E3533302059322E54
:1057F0003730310A4E313039302058322E35303181
:105800002059322E3639330A4E313039352058324C
:105810002E3437312059322E3638330A4E3131305A
:10582000302058322E3434332059322E3636380A4E
:105830004E313130352058322E3339362059322E00
:105840003633340A4E313131302058322E3335342C
:105850002059322E3539310A4E3131313520583206
:105860002E3335322059322E3539310A4E3131320C
:10587000302058322E3332352059322E3534330A07
:105880004E313132352058322E3331352059322EB7
:105890003532310A4E313133302058322E333037E1
:1058A0002059322E3439380A4E31313335205832AE
:1058B0002E3239362059322E3436340A4E313134B4
:1058C000302058322E3239332059322E3432370AB2
:1058D0004E313134352058322E3239352059322E5E
:1058E0003336360A4E313135302058322E3332318C
:1058F0002059322E3330330A4E313135352058326B
:105900002E3335382059322E3234370A4E31313663
:10591000302058322E3431392059322E3230330A69
:105920004E313136352058322E3431392059322E0D
:105930003137390A4E313137302058322E34303534
:105940002059322E3135380A4E3131373520583210
:105950002E3336322059322E3132330A4E3131381D
:10596000302058322E3335342059322E3130340A1B
:105970004E313138352058322E3335342059322EBD
:105980003039310A4E313139302058322E333830E7
:105990002059322E3036350A4E31313935205832C1
:1059A0002E3431302059322E3035310A4E313230DA
:1059B000302058322E3431302059322E3034370ACC
:1059C0004E313230352058322E3430352059322E77
:1059D0003032380A4E313231302058322E3430389D
:1059E0002059322E3031300A4E3132313520583282
:1059F0002E3431362059312E3939350A4E31323272
:105A0000302058322E3433332059312E3938320A6F
:105A10004E313232352058322E3433382059312E1F
:105A20003936330A4E313233302058322E3434373F
:105A30002059312E3934380A4E313233352058321C
:105A40002E3436312059312E3933380A4E31323422
:105A5000302058322E3438302059312E3933310A23
:105A60004E313234352058322E3437382059312EC9
:105A70003839390A4E313235302058322E343837E1
:105A80002059312E3837350A4E31323535205832CB
:105A90002E3530342059312E3835340A4E313236D5
:105AA000302058322E3532372059312E3834380ACA
:105AB0004E313236352058322E3534392059312E78
:105AC0003834390A4E313237302058322E35373794
:105AD0002059312E3836310A4E313237352058327E
