:100000000C94F4360C9415370C9415370C94153762
:100010000C9415370C9415370C9415370C94153730
:100020000C9415370C9415370C9415370C941F8FBE
:100030000C9415370C9415370C94A78B0C9415372A
:100040000C9415370C9415370C9415370C94153700
:100050000C9415370C9415370C9415370C941537F0
:100060000C9415370C94A0920C945B920C94153759
:100070000C9494960C9437960C9471960C941537B6
:100080000C94A88F0C9415370C9415370C941537D5
:100090000C9415370C9415370C9415370C941537B0
:1000A0000C9415370C9415370C9415370C94656621
:1000B0000C9411670C9415370C9415370C943A8BEB
:1000C0000C9415370C9415370C9415370C94153780
:1000D0000C9415370C9415370C9415370C94153770
:1000E0000C94909A0C9415370C9415370C94153782
:1000F0000C9415370C9415370C9415370C94153750
:100100000C9490660C943C670C940F660C94BB6640
:100110000C9415370C9415370C9415370C9415372F
:100120000C9415370C9415370C9415370C9415371F
:100130000C9415370C94658B0C9415370C9415376B
:100140000C9415370C9415370C9415370C941537FF
:100150000C9415370C9415370C94869A0C9415371B
:100160000C9415370C9415370C9415370C941537DF
:100170000C9415370C9415370C9415370C941537CF
:100180000C9415370C9415370C9415370C941537BF
:100190000C9415370C9415370C9415370C941537AF
:1001A0000C943A660C94E6660C9415370C9415374B
:1001B0000C94B6890C9415370C9415370C9415379C
:1001C0000C9415370C9415370C9415370C9415377F
:1001D0000C9415370C9415370C9415370C9415376F
:1001E0000C9415370C941537A463B963CE63AD65D1
:1001F000AD6526637A61AD65E363F8630D644D64B4
:10020000B0623764AD653B63AD65226450631963CA
:10021000AD65AD65AD6565637A638F63084AD73BAD
:100220003BCE016E84BCBFFDC12F3D6C74319ABDC5
:1002300056833DDA3D00C77F11BED9E4BB4C3E91E9
:100240006BAAAABE000000803F05A84CCDB2D44ED8
:10025000B93836A9020C50B9918688083CA6AAAADA
:100260002ABE000000803F07634236B79BD8A71A1A
:1002700039685618AEBAAB558C1D3CB7CC5763BD28
:100280006DEDFD753EF6177231BF000000803F082E
:10029000000000BE922449123EABAAAA2ABECDCCD1
:1002A000CC4C3E00000080BEABAAAAAA3E000000D3
:1002B00000BF000000803F0000000000084178D32C
:1002C000BB4387D1133D190E3CC3BD4282AD2B3ECB
:1002D00068EC8276BED98FE1A93E4C80EFFFBE016B
:1002E000C4FF7F3F00000000006E616E00696E6613
:1002F000000A126B50374B8B4A48315C0FAC4334C9
:10030000126B50374B8B4A44313333733F60122AA0
:10031000504D4A8B4A4C31000000007B126B501844
:100320004B4F4AD13300004843B3121C4E184ECAFB
:10033000584C3100000000C012594B144E8B4A4CEF
:100340003100000000CC122A50FF4D8B4A4C310086
:10035000000000F5122A50F04DAE4A703000000047
:100360000015132A50E14DD04D4C310000000030F3
:1003700013E04FD24C8B4A4C31000000005213AEB8
:100380004FC34D8B4A4C31000000007513AE4FB681
:100390004D8B4A4C31000000009813AE4FA94D8B95
:1003A0004A4C3100000000BB13AE4F9C4D8B4A4CB1
:1003B0003100000000DE13AE4F8F4D8B4A4C3100F0
:1003C0000000000114E04F6E4D8B4A4C31000000DC
:1003D000002514AE4FC54C8B4A4C3100000000483C
:1003E00014AE4F614D8B4A4C31000000006B14AECF
:1003F0004F544D8B4A4C31000000008E14AE4F47D5
:100400004D8B4A4C3100000000B114AE4F3A4D8B79
:100410004A4C3100000000D414AE4F2D4D8B4A4C95
:100420003100000000F714AE4F204D8B4A4C3100D4
:100430000000001A155B4F0D4D8B4A4C3100000037
:100440000039155B4F0D4D8B4A4C310000000058B0
:10045000155B4F0D4D8B4A4C310000000077155B4A
:100460004F0D4D8B4A4C310000000096155B4F0D2F
:100470004D8B4A4C3100000000B5155B4F0D4D8B84
:100480004A4C3100000000D4155B4FFA4C8B4A4CAB
:100490003100000000F8155B4FFA4C8B4A4C3100DC
:1004A0000000001C165B4FFA4C8B4A4C31000000D8
:1004B0000040165B4FFA4C8B4A4C31000000006440
:1004C000165B4FFA4C8B4A4C310000000088165BDB
:1004D0004FFA4C8B4A4C3100000000AC16E04FD272
:1004E0004C8B4AA43000000000D016E04FD24C8B59
:1004F0004AA83000000000F416E04FD24C8B4AAC02
:1005000030000000001817174F374B8B4AB03000EF
:100510000000003C17174F374B8B4AB430000000E7
:10052000006017174F374B8B4AB83000000000842B
:1005300017D968F94A838E5031000000008D17A446
:1005400068F44A8B4A4C31000000009617FA68F4B0
:100550004AB2594C31000000009F17AE4FF44A8B4D
:100560004A4C3100000000AB17DD4EF94A8D4AC7F6
:100570003300000000DF17DD4EF94A8D4AC8330012
:1005800000803F1118DD4EF94A8D4AC633000080C5
:100590003F4318DD4EF94A8D4AC9330000004077C9
:1005A00018DD4EF94A8D4ACA3300000000A91859D7
:1005B0004B5A4BED4C4C3100000000B618E04FD2C6
:1005C0004C854CC1330050C347E218E04FD24C85F4
:1005D0004CB5330AD7A33D0E19E04FD24C854CB928
:1005E00033CDCCCC3D3A19E04F374BD24ABD330026
:1005F000409C456919DD4EF94A9A58CB33000000FA
:1006000000A419DD4EF94A7D58CC3300000000D318
:1006100019DD4EF94A6058CD3300000000021ADDA2
:100620004EF94A4358CE330000803F311ADD4EF96F
:100630004A8D4ACF330000803F621ADD4EF94A8D61
:100640004AD0330000803F911ADD4EF94A8D4AA707
:100650003400000000C41A174F374B6B4EAB3466A2
:1006600066E63FEC1AE04FD24C784EAF348D175807
:10067000421E1BDD4EF94A6454A834000000414D6F
:100680001BDD4EF94A644CA9340000803F781BDD25
:100690004EF94A8D4AAA340000803FA81BDD4EF96E
:1006A0004A8D4AB7340000803FDB1B174F374B6B36
:1006B0004EBB346666E63F031CE04FD24C784EBF1B
:1006C0003489410942351CDD4EF94A6454B834007E
:1006D000000041641CDD4EF94A644CB934000080CE
:1006E0003F8F1CDD4EF94A8D4ABA340000803FBF6F
:1006F0001CDD4EF94A8D4AC73400000040F21C1739
:100700004F374B6B4ECB34000070411A1DE04FD277
:100710004C784ECF3431081C404C1DDD4EF94A64F4
:1007200054C834000080407B1DDD4EF94A644CC93A
:10073000340000803FA61DDD4EF94A8D4ACA3400C0
:1007400000803FD61DDD4EF94A8D4AD73400004067
:1007500040091E174F374B6B4EDB346666E63F3160
:100760001EE04FD24C784EDF3400003443631EDD70
:100770004EF94A6454D83400000041921EDD4EF90F
:100780004A644CD9340000803FBD1EDD4EF94A8DCD
:100790004ADA340000803FED1E994E9C4BF7530F10
:1007A000350000803F0F1FE04FD24C854C143500C0
:1007B000606A463D1FE04FD24C854C103500007AF0
:1007C000446B1FE04FD24C854C18350000A043937A
:1007D0001FE04FD24C854C1C35A493564EC01FE0F1
:1007E0004FD24C854C20350AD7233C0020DD4EF9F2
:1007F0004AB15328350000803F2D20E04FD24C8570
:100800004C29350000FAC45A20E04FD24C854C2DBB
:10081000350000FA438C20E04FD24C854C31350036
:10082000004041B920E04FD24C854C35350000A046
:1008300040DF20994E9C4BF75339350000803F0133
:1008400021E04FD24C854C3E3500606A462F21E0B6
:100850004FD24C854C3A3500007A445D21E04FD2AE
:100860004C854C4235000080BF8521E04FD24C853D
:100870004C4635A493564EB221E04FD24C854C4A9B
:10088000350AD7233CF221DD4EF94AB153523500E7
:100890000000001F22E04FD24C854C533500007AF7
:1008A000C44C22E04FD24C854C573500007A447E30
:1008B00022E04FD24C854C5B350000803FAB22E0FC
:1008C0004FD24C854C5F3500000000D122994E9CE0
:1008D0004BF75363350000803FF322E04FD24C8545
:1008E0004C683500401C462123E04FD24C854C64B7
:1008F0003500007A444F23E04FD24C854C6C3500D4
:1009000000C8417723E04FD24C854C7035A49356F4
:100910004EA423E04FD24C854C74350AD7233CE4D7
:1009200023DD4EF94AB1537C350000803F1124E0AD
:100930004FD24C854C7D3500007A443E24E04FD2A6
:100940004C854C81350000FA437024E04FD24C8531
:100950004C8535000040419D24E04FD24C854C89A8
:10096000350000A441C324994E9C4BF7538D3500AC
:1009700000803FE524174F374BD24A923500606A1A
:10098000471325174F374BD24A8E350000E14541BA
:1009900025174F374BD24A96350080BB436B25173E
:1009A0004F374BD24A9A355ED0B2509825174F3701
:1009B0004BD24A9E35CDCCCC3DC525174F374BD2B7
:1009C0004AA2350000803FEB25DD4EF94AB153A61F
:1009D000350000803F1826174F374BD24AA7350005
:1009E00080BB454526174F374BD24AAB3500001622
:1009F000447726174F374BD24AAF3500007041A4D9
:100A000026174F374BD24AB3350000803FCA26998C
:100A10004E9C4BF753B73500000000EC26174F37BC
:100A20004BD24ABC35000061451A27174F374BD2CD
:100A30004AB835000061454827174F374BD24AC0A6
:100A400035000080BF7027174F374BD24AC435A4FA
:100A500093564E9D27174F374BD24AC8350AD72396
:100A60003CCA27174F374BD24ACC350000803FF0A5
:100A700027DD4EF94AB153D0350000803F1D2817BD
:100A80004F374BD24AD135000016C44A28174F378A
:100A90004BD24AD5350000C8427C28174F374BD27D
:100AA0004AD9350000A0C0A928174F374BD24ADDDC
:100AB0003500000040CF28994E9C4BF753E135009C
:100AC000000000F128174F374BD24AE6350000618D
:100AD000451F29174F374BD24AE235000061454D7B
:100AE00029174F374BD24AEA35000080BF752917C6
:100AF0004F374BD24AEE35A493564EA229174F37A3
:100B00004BD24AF2350AD7233CCF29174F374BD265
:100B10004AF6350000803FF529DD4EF94AB153FA17
:100B2000350000803F222A174F374BD24AFB350051
:100B30000016C44F2A174F374BD24AFF350000C862
:100B400042812A174F374BD24A03360000A0C0AE6D
:100B50002A174F374BD24A073600000040D42A17D5
:100B60004F374BD24AE7340000C842FE2A174F37AE
:100B70004BD24AEB3400007A442F2B174F374BD21D
:100B80004AEF340000FA44602B174F374BD24AF338
:100B9000340000003E9D2B174F374BD24AF734CD1F
:100BA000CC4C3EDA2B174F374BD24AFB3400007A3D
:100BB000440C2C174F374BD24AFF340000FA443E06
:100BC0002C174F374BD24A03350000003E7D2C17BF
:100BD0004F374BD24A0735CDCC4C3EBC2C174F3744
:100BE0004BD24A0B35CDCCCC3DF62CE04FD24C85C8
:100BF0004C1734000000001E2DE04FD24C854C1BDA
:100C00003400000000462DE04FD24C854C1F3400CC
:100C10000000006E2DE04FD24C854C2334000000C4
:100C200000962DE04FD24C854C273400000000BECA
:100C30002DE04FD24C854C2B3400000000E62DE017
:100C40004FD24C854C2F34000000000E2EE04FD2C6
:100C50004C854C333400000000362EE04FD24C85DA
:100C60004C3734000000005E2EE04FD24C854C3BE8
:100C70003400000000862EE04FD24C854C3F3400FB
:100C8000000000AE2EE04FD24C854C4334000000F3
:100C900000D62EE04FD24C854C473400000000FEB9
:100CA0002EE04FD24C854C4B3400000000262FE044
:100CB0004FD24C854C4F34000000004E2FE04FD2F5
:100CC0004C854C533400000000762FE04FD24C8509
:100CD0004C5734000000009E2FE04FD24C854C5BF7
:100CE0003400000000C62FE04FD24C854C5F34002A
:100CF000000000EE2FE04FD24C854C633400000022
:100D0000001630E04FD24C854C6734000000003EA6
:100D100030E04FD24C854C6B34000000006630E070
:100D20004FD24C854C6F34000000008E30E04FD223
:100D30004C854C733400000000B630E04FD24C8537
:100D40004C773400000000DE30E04FD24C854C7B05
:100D500034000000000631E04FD24C854C7F340057
:100D60000000002E31E04FD24C854C83340000004F
:100D7000005631E04FD24C854C8734000000007E95
:100D800031E04FD24C854C8B3400000000A631E09E
:100D90004FD24C854C8F3400000000CE31E04FD252
:100DA0004C854C933400000000F631E04FD24C8566
:100DB0004C9734000000001E32E04FD24C854C9B13
:100DC00034000000004632E04FD24C854C9F340086
:100DD0000000006E32E04FD24C854CA3340000007E
:100DE000009632594B184BAE4AD53300000000A193
:100DF00032594B184BAE4AD73300000000AC325981
:100E00004B184BAE4AD93300000000B732594B188B
:100E10004BAE4ADB3300000000C232594B184BAED8
:100E20004ADD3300000000CD32594B184BAE4ADF8B
:100E30003300000000D832594B184BAE4AE1330062
:100E4000000000E332594B184BAE4AE33300000078
:100E500000EE32594B184BAE4AE53300000000F962
:100E600032594B184BAE4AE73300000000043359A7
:100E70004B184BAE4AE933000000000F33594B18B2
:100E80004BAE4AEB33000000001A33594B184BAEFF
:100E90004AED33000000002533594B184BAE4AEFA2
:100EA00033000000003033594B184BAE4AF1330089
:100EB0000000003B33594B184BAE4AF3330000009F
:100EC000004633594B184BAE4AF533000000005131
:100ED00033594B184BAE4AF733000000005C3359CE
:100EE0004B184BAE4AF933000000006733594B18DA
:100EF0004BAE4AFB33000000007233594B59529BF2
:100F0000594C31000000007B33594B59529B594CCE
:100F100031000000008033594BE3519B594C3100A4
:100F20000000008533594BE3519B594C31000000C0
:100F3000008A33594BE3519B594C31000000008F1C
:100F400033594BE3519B594C310000000094335905
:100F50004BE3519B594C31000000009933594BE34E
:100F6000519B594C31000000009E33594BE3519B7B
:100F7000594C3100000000A333594BE3519B594CAD
:100F80003100000000A833594BE3519B594C31000C
:100F9000000000AD33594BE3519B594C3100000028
:100FA00000B233594BE3519B594C3100000000B75C
:100FB00033594BE3519B594C3100000000C0335969
:100FC0004BE3519B594C3100000000C933594BE3AE
:100FD000519B594C3100000000D233594BE3519BD7
:100FE000594C3100000000DB33594BE3519B594C05
:100FF0003100000000E433594BE3519B594C310060
:10100000000000ED33594BE3519B594C3100000077
:1010100000F633594BE3519B594C3100000000FF5F
:1010200033594BE3519B594C3100000000083459AF
:101030004B58578B4A4C31000000000D34594B3D42
:10104000578B4A4C31000000001234594B22578B09
:101050004A4C31000000001734594B73578B4A4CEF
:1010600031000000001C34A468F44A8B4A4C310063
:101070000000002E000A002A2A2A205741524E4919
:101080004E47202A2A2A20556E737570706F72742D
:10109000656420737769746368206D6F64652E20C2
:1010A0005377697463682044495341424C45440076
:1010B0002A2A2A205741524E494E47202A2A2A20BE
:1010C000556E737570706F72746564206C696E65AF
:1010D00061722061786973206D6F64652E2041789C
:1010E00069732044495341424C4544002A2A2A202E
:1010F0005741524E494E47202A2A2A20556E737571
:1011000070706F7274656420726F7461727920619F
:10111000786973206D6F64652E204178697320446F
:10112000495341424C45440021342C343734433434
:101130004C34563460346A34753480348B342A2A03
:101140002A205741524E494E47202A2A2A204E6FC4
:101150006E2D7374616E64617264206D6963726F69
:10116000737465702076616C75650097349B349F4D
:1011700034A434D534ED340A352A352A3540355671
:1011800035653574358335A035B235CB35EC35133F
:101190003633364D36673681369B36B536CF36E137
:1011A00036F736FB36003705370B3710371537194A
:1011B000371E3722372A373137373744374A3750C7
:1011C000375537593766376C377137753779377E0A
:1011D0003784378A3791376200660025733A2531A4
:1011E0002E33660025733A25312E30660025733A7A
:1011F0002573000A002C0025312E33660025312E80
:101200003066002573000A002C0066622C66697245
:101210006D776172655F622C5B66625D2020666936
:10122000726D776172655F6275696C642531382E05
:1012300032660A0066762C6669726D776172655F48
:10124000762C5B66765D20206669726D77617265CB
:101250005F76657273696F6E2531362E32660A00CD
:1012600069642C69642C5B69645D202069645F6437
:101270006576696365253136640A0073692C737479
:10128000617475735F692C5B73695D202073746191
:101290007475735F696E74657276616C20202020AE
:1012A0002531302E3066206D73205B303D6F6666D1
:1012B0005D0A0073722C7374617475735F722C0015
:1012C00071722C71756575655F722C0070622C707F
:1012D0006C616E6E65725F6275666665725F612CC9
:1012E000506C616E6E657220627566666572733AE7
:1012F0002538640A006C696E652C6C696E655F6EDA
:101300002C4C696E65206E756D6265723A253130C0
:101310002E30660A006C782C6C696E655F692C4C07
:10132000696E6520696E6465783A253133640A0018
:10133000666565642C666565642C46656564207227
:101340006174653A2531362E336625532F6D696EEB
:101350000A00737461742C737461742C4D6163683A
:10136000696E652073746174653A20202020202006
:101370002025730A006D6163732C6D6163732C52B9
:101380006177206D616368696E652073746174654F
:101390003A20202025730A00637963732C637963F4
:1013A000732C4379636C652073746174653A2020F3
:1013B0002020202020202025730A006D6F74732CBC
:1013C0006D6F74732C4D6F74696F6E2073746174DC
:1013D000653A202020202020202025730A00686FF5
:1013E0006C642C686F6C642C46656564686F6C6413
:1013F0002073746174653A20202020202025730A10
:101400000076656C2C76656C6F636974792C566513
:101410006C6F636974793A2531372E336625532F03
:101420006D696E0A00756E69742C756E69742C5541
:101430006E6974733A202020202020202020202054
:101440002020202025730A00636F6F722C636F6F5A
:10145000722C436F6F7264696E6174652073797367
:1014600074656D3A20202025730A006D6F6D6F2C16
:101470006D6F6D6F2C4D6F74696F6E206D6F64654D
:101480003A20202020202020202025730A00706C84
:10149000616E2C706C616E2C506C616E653A202010
:1014A0002020202020202020202020202025730AFA
:1014B00000706174682C706174682C5061746820CD
:1014C0004D6F64653A2020202020202020202020FD
:1014D00025730A00646973742C646973742C4469FD
:1014E0007374616E6365206D6F64653A20202020FF
:1014F00020202025730A0066726D6F2C66726D6F56
:101500002C466565642072617465206D6F64653A70
:1015100020202020202025730A00706F73782C7003
:101520006F73782C5820706F736974696F6E3A25E9
:1015300031352E336625530A00706F73792C706F26
:1015400073792C5920706F736974696F6E3A253105
:10155000352E336625530A00706F737A2C706F73C3
:101560007A2C5A20706F736974696F6E3A25313521
:101570002E336625530A00706F73612C706F736190
:101580002C4120706F736974696F6E3A2531352E66
:10159000336625530A00706F73622C706F73622C70
:1015A0004220706F736974696F6E3A2531352E333E
:1015B0006625530A00706F73632C706F73632C433E
:1015C00020706F736974696F6E3A2531352E3366FA
:1015D00025530A006D706F782C6D706F782C582031
:1015E0006D61636820706F736974696F6E3A25313D
:1015F000302E336625530A006D706F792C6D706F35
:10160000792C59206D61636820706F736974696FFC
:101610006E3A2531302E336625530A006D706F7A8D
:101620002C6D706F7A2C5A206D61636820706F7317
:101630006974696F6E3A2531302E336625530A007E
:101640006D706F612C6D706F612C41206D616368EE
:1016500020706F736974696F6E3A2531302E33666E
:1016600025530A006D706F622C6D706F622C4220E2
:101670006D61636820706F736974696F6E3A2531AC
:10168000302E336625530A006D706F632C6D706FBA
:10169000632C43206D61636820706F736974696F98
:1016A0006E3A2531302E336625530A006739327879
:1016B0002C673932782C58206F726967696E206FF9
:1016C00066667365743A2531302E336625530A00F9
:1016D000673932792C673932792C59206F726967F2
:1016E000696E206F66667365743A2531302E3366F5
:1016F00025530A006739327A2C6739327A2C5A20FE
:101700006F726967696E206F66667365743A25311A
:10171000302E336625530A00673932612C6739321F
:10172000612C41206F726967696E206F6666736510
:10173000743A2531302E336625530A0067393262F8
:101740002C673932622C42206F726967696E206F94
:1017500066667365743A2531302E336625530A0068
:10176000673932632C673932632C43206F726967A3
:10177000696E206F66667365743A2531302E336664
:1017800025530A0074652C746573742C0068652CED
:1017900068656C702C0064652C646566612C006D56
:1017A00073672C6D73672C25730A0067706C2C6748
:1017B000636F64655F706C2C5B67706C5D20676342
:1017C0006F64655F73656C6563745F706C616E6593
:1017D0002025313064205B302C312C325D0A0067CB
:1017E000756E2C67636F64655F752C205B67756E23
:1017F0005D2067636F64655F756E6974735F6D6F9D
:10180000646520202025313064205B302C315D0A56
:101810000067636F2C67636F64655F632C205B6791
:10182000636F5D2067636F64655F636F6F72645F92
:1018300073797374656D2025313064205B312D36EA
:101840005D0A006770612C67636F64655F70612C6F
:101850005B6770615D2067636F64655F706174686A
:101860005F636F6E74726F6C2025313064205B3063
:101870002C312C325D0A006764692C67636F6465E4
:101880005F642C205B6764695D2067636F64655FDC
:1018900064697374616E63655F6D6F646525313073
:1018A00064205B302C315D0A0067632C67636F64D2
:1018B0002C5B67635D006A612C6A756E632C5B6AE2
:1018C000615D20206A756E6374696F6E5F6163632A
:1018D000656C65726174696F6E25382E30662553AC
:1018E0000A006D6C2C6D696E5F6C2C5B6D6C5D20FD
:1018F000206D696E5F6C696E655F7365676D656E9F
:10190000742020202531342E336625530A006D6162
:101910002C6D696E5F612C5B6D615D20206D696E61
:101920005F6172635F7365676D656E742020202050
:101930002531342E336625530A006D742C6D696E83
:101940005F732C5B6D745D20206D696E5F736567DE
:101950006D656E745F74696D652020202531302EB1
:10196000306620755365630A0069632C69676E6F82
:1019700072655F632C5B69635D202069676E6F72BF
:1019800065204352206F72204C46206F6E205258C3
:1019900020253764205B302C313D43522C323D4CA6
:1019A000465D0A0065632C656E61626C655F632C41
:1019B0005B65635D2020656E61626C655F435220EC
:1019C000286F6E2054582925313264205B302C3129
:1019D0005D0A0065652C656E61626C655F652C5BF8
:1019E00065655D2020656E61626C655F6563686F2B
:1019F00020202020202025313264205B302C315DD6
:101A00000A0065782C656E61626C655F782C5B6599
:101A1000785D2020656E61626C655F786F6E5F78BF
:101A20006F6666202025313264205B302C315D0AE0
:101A30000065712C656E61626C655F712C5B657110
:101A40005D2020656E61626C655F71756575655FAF
:101A50007265706F727473253964205B302C315D50
:101A60000A00656A2C656E61626C655F6A2C5B6555
:101A70006A5D2020656E61626C655F6A736F6E5F80
:101A80006D6F64652025313264205B302C315D0A36
:101A900000316D612C6D315F6D612C205B316D61AA
:101AA0005D206D315F6D61705F746F5F6178697328
:101AB00025313564205B303D582C20313D592E2E88
:101AC0002E5D0A003173612C6D315F732C20205B19
:101AD0003173615D206D315F737465705F616E6736
:101AE0006C652532302E336625530A003174722C12
:101AF0006D315F74722C205B3174725D206D315FCB
:101B000074726176656C5F7065725F7265766F6C1A
:101B10007574696F6E25392E336625530A00316D51
:101B2000692C6D315F6D692C205B316D695D206DB5
:101B3000315F6D6963726F73746570732025313521
:101B400064205B312C322C342C385D0A0031706FEC
:101B50002C6D315F706F6C2C5B31706F5D206D315F
:101B60005F706F6C61726974792020202531356453
:101B7000205B302C315D0A0031706D2C6D315F704F
:101B80006F772C5B31706D5D206D315F706F7765A5
:101B9000725F6D616E6167656D656E74253130646D
:101BA000205B302C315D0A00326D612C6D325F6D2F
:101BB000612C205B326D615D206D325F6D61705F05
:101BC000746F5F6178697325313564205B303D58EF
:101BD0002C20313D592E2E2E5D0A003273612C6D62
:101BE000325F732C20205B3273615D206D325F7336
:101BF0007465705F616E676C652532302E336625C3
:101C0000530A003274722C6D325F74722C205B3276
:101C100074725D206D325F74726176656C5F7065A1
:101C2000725F7265766F6C7574696F6E25392E33CD
:101C30006625530A00326D692C6D325F6D692C2068
:101C40005B326D695D206D325F6D6963726F7374B5
:101C50006570732025313564205B312C322C342C97
:101C6000385D0A0032706F2C6D325F706F6C2C5BC8
:101C700032706F5D206D325F706F6C617269747964
:101C800020202025313564205B302C315D0A003264
:101C9000706D2C6D325F706F772C5B32706D5D20D4
:101CA0006D325F706F7765725F6D616E6167656DD4
:101CB000656E7425313064205B302C315D0A003351
:101CC0006D612C6D335F6D612C205B336D615D2028
:101CD0006D335F6D61705F746F5F6178697325311B
:101CE0003564205B303D582C20313D592E2E2E5D21
:101CF0000A003373612C6D335F732C20205B3373C8
:101D0000615D206D335F737465705F616E676C65D4
:101D10002532302E336625530A003374722C6D330E
:101D20005F74722C205B3374725D206D335F74724C
:101D30006176656C5F7065725F7265766F6C7574E5
:101D4000696F6E25392E336625530A00336D692C71
:101D50006D335F6D692C205B336D695D206D335F82
:101D60006D6963726F7374657073202531356420FB
:101D70005B312C322C342C385D0A0033706F2C6DA3
:101D8000335F706F6C2C5B33706F5D206D335F70F1
:101D90006F6C617269747920202025313564205B75
:101DA000302C315D0A0033706D2C6D335F706F77AE
:101DB0002C5B33706D5D206D335F706F7765725F84
:101DC0006D616E6167656D656E7425313064205B91
:101DD000302C315D0A00346D612C6D345F6D612CE7
:101DE000205B346D615D206D345F6D61705F746F79
:101DF0005F6178697325313564205B303D582C2054
:101E0000313D592E2E2E5D0A003473612C6D345FE6
:101E1000732C20205B3473615D206D345F737465B7
:101E2000705F616E676C652532302E336625530A0C
:101E3000003474722C6D345F74722C205B347472B5
:101E40005D206D345F74726176656C5F7065725F82
:101E50007265766F6C7574696F6E25392E336625E1
:101E6000530A00346D692C6D345F6D692C205B342E
:101E70006D695D206D345F6D6963726F7374657039
:101E8000732025313564205B312C322C342C385DA5
:101E90000A0034706F2C6D345F706F6C2C5B347083
:101EA0006F5D206D345F706F6C6172697479202092
:101EB0002025313564205B302C315D0A0034706D93
:101EC0002C6D345F706F772C5B34706D5D206D34DA
:101ED0005F706F7765725F6D616E6167656D656E6E
:101EE0007425313064205B302C315D0A0078616DDF
:101EF0002C785F612C5B78616D5D20785F6178691B
:101F0000735F6D6F6465253138642025530A00784E
:101F1000766D2C785F762C5B78766D5D20785F76B9
:101F2000656C6F636974795F6D6178696D756D2536
:101F300031352E336625532F6D696E0A007866722F
:101F40002C785F662C5B7866725D20785F666565CD
:101F500064726174655F6D6178696D756D25313589
:101F60002E336625532F6D696E0A0078746D2C78B8
:101F70005F742C5B78746D5D20785F747261766538
:101F80006C5F6D6178696D756D2531372E3366250F
:101F9000530A00786A6D2C785F6A652C5B786A6DED
:101FA0005D20785F6A65726B5F6D6178696D756DD4
:101FB0002531352E306625532F6D696E5E330A004C
:101FC000786A642C785F6A752C5B786A645D207827
:101FD0005F6A756E6374696F6E5F6465766961745C
:101FE000696F6E2531342E3466255320286C61725A
:101FF00067657220697320666173746572290A00CF
:1020000078736D2C785F732C5B78736D5D20785FCF
:102010007377697463685F6D6F646525313664201A
:102020005B302C312C322C332C345D0A00787376E3
:102030002C785F732C5B7873765D20785F736561B5
:102040007263685F76656C6F636974792531362ECB
:10205000336625532F6D696E0A00786C762C785F95
:102060006C617463685F762C5B786C765D20785F5A
:102070006C617463685F76656C6F63697479253130
:10208000372E336625532F6D696E0A00786C622CEB
:10209000785F6C617463685F622C5B786C625D2052
:1020A000785F6C617463685F6261636B6F666625FD
:1020B00031382E336625530A00787A622C785F7A9D
:1020C0002C5B787A625D20785F7A65726F5F6261FF
:1020D000636B6F66662531392E336625530A0079A6
:1020E000616D2C795F612C5B79616D5D20795F6139
:1020F0007869735F6D6F6465253138642025530AF4
:102100000079766D2C795F762C5B79766D5D207920
:102110005F76656C6F636974795F6D6178696D7501
:102120006D2531352E336625532F6D696E0A007982
:1021300066722C795F662C5B7966725D20795F66CA
:10214000656564726174655F6D6178696D756D2533
:1021500031352E336625532F6D696E0A0079746D03
:102160002C795F742C5B79746D5D20795F7472617A
:1021700076656C5F6D6178696D756D2531372E33CD
:102180006625530A00796A6D2C795F6A652C5B7944
:102190006A6D5D20795F6A65726B5F6D6178696DEC
:1021A000756D2531352E306625532F6D696E5E3382
:1021B0000A00796A642C795F6A752C5B796A645DC0
:1021C00020795F6A756E6374696F6E5F64657669A6
:1021D0006174696F6E2531342E3466255320286C66
:1021E0006172676572206973206661737465722914
:1021F0000A0079736D2C795F732C5B79736D5D20A8
:10220000795F7377697463685F6D6F6465253136D4
:1022100064205B302C312C322C332C345D0A007955
:1022200073762C795F732C5B7973765D20795F739D
:1022300065617263685F76656C6F63697479253177
:10224000362E336625532F6D696E0A00796C762C15
:10225000795F6C617463685F762C5B796C765D2066
:10226000795F6C617463685F76656C6F63697479BC
:102270002531372E336625532F6D696E0A00796C30
:10228000622C795F6C617463685F622C5B796C624D
:102290005D20795F6C617463685F6261636B6F6618
:1022A000662531382E336625530A00797A622C79F7
:1022B0005F7A2C5B797A625D20795F7A65726F5FF5
:1022C0006261636B6F66662531392E336625530A6A
:1022D000007A616D2C7A5F612C5B7A616D5D207A8A
:1022E0005F617869735F6D6F64652531386420259F
:1022F000530A007A766D2C7A5F762C5B7A766D5D68
:10230000207A5F76656C6F636974795F6D61786957
:102310006D756D2531352E336625532F6D696E0A27
:10232000007A66722C7A5F662C5B7A66725D207A20
:102330005F66656564726174655F6D6178696D750E
:102340006D2531352E336625532F6D696E0A007A5F
:10235000746D2C7A5F742C5B7A746D5D207A5F7477
:10236000726176656C5F6D6178696D756D25313769
:102370002E336625530A007A6A6D2C7A5F6A652CC3
:102380005B7A6A6D5D207A5F6A65726B5F6D6178FA
:10239000696D756D2531352E306625532F6D696E4B
:1023A0005E330A007A6A642C7A5F6A752C5B7A6AFB
:1023B000645D207A5F6A756E6374696F6E5F6465D1
:1023C00076696174696F6E2531342E346625532029
:1023D000286C617267657220697320666173746529
:1023E00072290A007A736D2C7A5F732C5B7A736D95
:1023F0005D207A5F7377697463685F6D6F646525CC
:10240000313664205B302C312C322C332C345D0A75
:10241000007A73762C7A5F732C5B7A73765D207A00
:102420005F7365617263685F76656C6F6369747909
:102430002531362E336625532F6D696E0A007A6C6E
:10244000762C7A5F6C617463685F762C5B7A6C764D
:102450005D207A5F6C617463685F76656C6F636939
:1024600074792531372E336625532F6D696E0A0036
:102470007A6C622C7A5F6C617463685F622C5B7A41
:102480006C625D207A5F6C617463685F6261636B2C
:102490006F66662531382E336625530A007A7A62D4
:1024A0002C7A5F7A2C5B7A7A625D207A5F7A657229
:1024B0006F5F6261636B6F66662531392E33662507
:1024C000530A0061616D2C615F612C5B61616D5D20
:1024D00020615F617869735F6D6F64652531386471
:1024E0002025530A0061766D2C615F762C5B617646
:1024F0006D5D20615F76656C6F636974795F6D6196
:1025000078696D756D2531352E336625532F6D69CC
:102510006E0A006166722C615F662C5B6166725D9B
:1025200020615F66656564726174655F6D6178697D
:102530006D756D2531352E336625532F6D696E0A05
:102540000061746D2C615F742C5B61746D5D206142
:102550005F74726176656C5F6D6178696D756D2011
:10256000202531352E336625530A00616A6D2C61B2
:102570005F6A652C5B616A6D5D20615F6A65726B85
:102580005F6D6178696D756D2531352E3066255327
:102590002F6D696E5E330A00616A642C615F6A7533
:1025A0002C5B616A645D20615F6A756E6374696F3C
:1025B0006E5F646576696174696F6E2531342E349F
:1025C0006625530A006172612C615F722C5B617237
:1025D000615D20615F7261646975735F76616C75BE
:1025E000652532302E346625530A0061736D2C61E7
:1025F0005F732C5B61736D5D20615F7377697463DA
:10260000685F6D6F646525313664205B302C312C3A
:10261000322C332C345D0A006173762C615F732C8D
:102620005B6173765D20615F7365617263685F767D
:10263000656C6F636974792531362E336625532FA7
:102640006D696E0A00616C762C615F6C6174636801
:102650005F762C5B616C765D20615F6C6174636892
:102660005F76656C6F636974792531372E33662523
:10267000532F6D696E0A00616C622C615F6C61742E
:1026800063685F622C5B616C625D20615F6C61748A
:1026900063685F6261636B6F66662531382E3366EF
:1026A00025530A00617A622C615F7A2C5B617A6241
:1026B0005D20615F7A65726F5F6261636B6F6666F2
:1026C0002531392E336625530A0062616D2C625F15
:1026D000612C5B62616D5D20625F617869735F6D23
:1026E0006F6465253138642025530A0062766D2CAD
:1026F000625F762C5B62766D5D20625F76656C6FE3
:10270000636974795F6D6178696D756D2531352EFA
:10271000336625532F6D696E0A006266722C625F04
:10272000662C5B6266725D20625F666565647261DD
:1027300074655F6D6178696D756D2531352E336611
:1027400025532F6D696E0A0062746D2C625F742CC4
:102750005B62746D5D20625F74726176656C5F6D43
:102760006178696D756D2531372E336625530A0002
:10277000626A6D2C625F6A652C5B626A6D5D2062C5
:102780005F6A65726B5F6D6178696D756D25313556
:102790002E306625532F6D696E5E330A00626A64BF
:1027A0002C625F6A752C5B626A645D20625F6A7589
:1027B0006E6374696F6E5F646576696174696F6E6C
:1027C0002531342E346625530A006272612C625F13
:1027D000722C5B6272615D20625F72616469757305
:1027E0005F76616C75652532302E346625530A009C
:1027F00062736D2C625F732C5B62736D5D20625F30
:102800007377697463685F6D6F6465253136642022
:102810005B302C312C322C332C345D0A0062737601
:102820002C625F732C5B6273765D20625F736561FF
:102830007263685F76656C6F636974792531362ED3
:10284000336625532F6D696E0A00626C762C625FC9
:102850006C617463685F762C5B626C765D20625F8E
:102860006C617463685F76656C6F63697479253138
:10287000372E336625532F6D696E0A00626C622C09
:10288000625F6C617463685F622C5B626C625D2086
:10289000625F6C617463685F6261636B6F6666251B
:1028A00031382E336625530A00627A622C625F7AD1
:1028B0002C5B627A625D20625F7A65726F5F626133
:1028C000636B6F66662531392E336625530A0063C4
:1028D000616D2C635F612C5B63616D5D20635F6183
:1028E0007869735F6D6F6465253138642025530AFC
:1028F0000063766D2C635F762C5B63766D5D206381
:102900005F76656C6F636974795F6D6178696D7509
:102910006D2531352E336625532F6D696E0A0063A0
:1029200066722C635F662C5B6366725D20635F6614
:10293000656564726174655F6D6178696D756D253B
:1029400031352E336625532F6D696E0A0063746D21
:102950002C635F742C5B63746D5D20635F747261C4
:1029600076656C5F6D6178696D756D2531372E33D5
:102970006625530A00636A6D2C635F6A652C5B638E
:102980006A6D5D20635F6A65726B5F6D6178696D0A
:10299000756D2531352E306625532F6D696E5E338A
:1029A0000A00636A642C635F6A752C5B636A645D0A
:1029B00020635F6A756E6374696F6E5F64657669C4
:1029C0006174696F6E2531342E346625530A0063B5
:1029D00072612C635F722C5B6372615D20635F7256
:1029E00061646975735F76616C75652532302E346C
:1029F0006625530A0063736D2C635F732C5B6373EE
:102A00006D5D20635F7377697463685F6D6F646584
:102A100025313664205B302C312C322C332C345D44
:102A20000A006373762C635F732C5B6373765D209F
:102A3000635F7365617263685F76656C6F63697409
:102A4000792531362E336625532F6D696E0A006362
:102A50006C762C635F6C617463685F762C5B636C6F
:102A6000765D20635F6C617463685F76656C6F632D
:102A70006974792531372E336625532F6D696E0AB7
:102A800000636C622C635F6C617463685F622C5BD3
:102A9000636C625D20635F6C617463685F62616335
:102AA0006B6F66662531382E336625530A00637ACC
:102AB000622C635F7A2C5B637A625D20635F7A6568
:102AC000726F5F6261636B6F66662531392E3366A4
:102AD00025530A0070776D662C705F662C5B7077EB
:102AE0006D665D2070776D5F6672657175656E638A
:102AF000792020202531352E3366487A0A0070333C
:102B0000736C2C705F63775F735F6C6F2C5B7033DB
:102B1000736C5D2070776D5F63775F73706565645C
:102B20005F6C6F202531352E336652504D0A007090
:102B30003373682C705F63775F735F68692C5B70B9
:102B40003373685D2070776D5F63775F7370656561
:102B5000645F6869202531352E336652504D0A0076
:102B60007033706C2C705F63775F705F6C6F2C5B81
:102B70007033706C5D2070776D5F63775F70686134
:102B800073655F6C6F2020202020202020202025CE
:102B9000342E3366205B302E2E315D0A0070337088
:102BA000682C705F63775F705F68692C5B7033704F
:102BB000685D2070776D5F63775F70686173655FD4
:102BC00068692020202020202020202025342E333A
:102BD00066205B302E2E315D0A007034736C2C70D1
:102BE0005F6363775F735F6C6F2C5B7034736C5DD6
:102BF0002070776D5F6363775F73706565645F6C8A
:102C00006F2531352E336652504D0A00703473688B
:102C10002C705F6363775F735F68692C5B703473DC
:102C2000685D2070776D5F6363775F73706565645F
:102C30005F68692531352E336652504D0A00703475
:102C4000706C2C705F6363775F705F6C6F2C5B7070
:102C500034706C5D2070776D5F6363775F7068615F
:102C600073655F6C6F2020202020202020202025ED
:102C7000342E3366205B302E2E315D0A00703470A6
:102C8000682C705F6363775F705F68692C5B70347A
:102C900070685D2070776D5F6363775F70686173E4
:102CA000655F6869202020202020202020202534F6
:102CB0002E3366205B302E2E315D0A0070356F6634
:102CC0002C705F6F66662C5B70356F665D20707769
:102CD0006D5F70686173655F6F66662020202020DD
:102CE000202020202020202025342E3366205B3019
:102CF0002E2E315D0A00673534782C6735345F78C5
:102D00002C5B673534785D206735345F785F6F669C
:102D1000667365742532302E336625530A00673595
:102D200034792C6735345F792C5B673534795D20D5
:102D30006735345F795F6F66667365742532302E50
:102D4000336625530A006735347A2C6735345F7A49
:102D50002C5B6735347A5D206735345F7A5F6F6648
:102D6000667365742532302E336625530A00673545
:102D700034612C6735345F612C5B673534615D20CD
:102D80006735345F615F6F66667365742532302E18
:102D9000336625530A00673534622C6735345F6229
:102DA0002C5B673534625D206735345F625F6F6628
:102DB000667365742532302E336625530A006735F5
:102DC00034632C6735345F632C5B673534635D2077
:102DD0006735345F635F6F66667365742532302EC6
:102DE000336625530A00673535782C6735355F78AB
:102DF0002C5B673535785D206735355F785F6F66AA
:102E0000667365742532302E336625530A006735A4
:102E100035792C6735355F792C5B673535795D20E1
:102E20006735355F795F6F66667365742532302E5E
:102E3000336625530A006735357A2C6735355F7A56
:102E40002C5B6735357A5D206735355F7A5F6F6655
:102E5000667365742532302E336625530A00673554
:102E600035612C6735355F612C5B673535615D20D9
:102E70006735355F615F6F66667365742532302E26
:102E8000336625530A00673535622C6735355F6236
:102E90002C5B673535625D206735355F625F6F6635
:102EA000667365742532302E336625530A00673504
:102EB00035632C6735355F632C5B673535635D2083
:102EC0006735355F635F6F66667365742532302ED4
:102ED000336625530A00673536782C6735365F78B8
:102EE0002C5B673536785D206735365F785F6F66B7
:102EF000667365742532302E336625530A006735B4
:102F000036792C6735365F792C5B673536795D20ED
:102F10006735365F795F6F66667365742532302E6C
:102F2000336625530A006735367A2C6735365F7A63
:102F30002C5B6735367A5D206735365F7A5F6F6662
:102F4000667365742532302E336625530A00673563
:102F500036612C6735365F612C5B673536615D20E5
:102F60006735365F615F6F66667365742532302E34
:102F7000336625530A00673536622C6735365F6243
:102F80002C5B673536625D206735365F625F6F6642
:102F9000667365742532302E336625530A00673513
:102FA00036632C6735365F632C5B673536635D208F
:102FB0006735365F635F6F66667365742532302EE2
:102FC000336625530A00673537782C6735375F78C5
:102FD0002C5B673537785D206735375F785F6F66C4
:102FE000667365742532302E336625530A006735C3
:102FF00037792C6735375F792C5B673537795D20FA
:103000006735375F795F6F66667365742532302E7A
:10301000336625530A006735377A2C6735375F7A70
:103020002C5B6735377A5D206735375F7A5F6F666F
:10303000667365742532302E336625530A00673572
:1030400037612C6735375F612C5B673537615D20F1
:103050006735375F615F6F66667365742532302E42
:10306000336625530A00673537622C6735375F6250
:103070002C5B673537625D206735375F625F6F664F
:10308000667365742532302E336625530A00673522
:1030900037632C6735375F632C5B673537635D209B
:1030A0006735375F635F6F66667365742532302EF0
:1030B000336625530A00673538782C6735385F78D2
:1030C0002C5B673538785D206735385F785F6F66D1
:1030D000667365742532302E336625530A006735D2
:1030E00038792C6735385F792C5B673538795D2006
:1030F0006735385F795F6F66667365742532302E89
:10310000336625530A006735387A2C6735385F7A7D
:103110002C5B6735387A5D206735385F7A5F6F667C
:10312000667365742532302E336625530A00673581
:1031300038612C6735385F612C5B673538615D20FD
:103140006735385F615F6F66667365742532302E50
:10315000336625530A00673538622C6735385F625D
:103160002C5B673538625D206735385F625F6F665C
:10317000667365742532302E336625530A00673531
:1031800038632C6735385F632C5B673538635D20A7
:103190006735385F635F6F66667365742532302EFE
:1031A000336625530A00673539782C6735395F78DF
:1031B0002C5B673539785D206735395F785F6F66DE
:1031C000667365742532302E336625530A006735E1
:1031D00039792C6735395F792C5B673539795D2012
:1031E0006735395F795F6F66667365742532302E97
:1031F000336625530A006735397A2C6735395F7A8B
:103200002C5B6735397A5D206735395F7A5F6F6689
:10321000667365742532302E336625530A00673590
:1032200039612C6735395F612C5B673539615D2009
:103230006735395F615F6F66667365742532302E5E
:10324000336625530A00673539622C6735395F626A
:103250002C5B673539625D206735395F625F6F6669
:10326000667365742532302E336625530A00673540
:1032700039632C6735395F632C5B673539635D20B3
:103280006735395F635F6F66667365742532302E0C
:10329000336625530A00737230302C737230302C31
:1032A00000737230312C737230312C0073723032F3
:1032B0002C737230322C00737230332C73723033B3
:1032C0002C00737230342C737230342C00737230D3
:1032D000352C737230352C00737230362C7372308B
:1032E000362C00737230372C737230372C007372A7
:1032F00030382C737230382C00737230392C737262
:1033000030392C00737231302C737231302C0073D1
:103310007231312C737231312C00737231322C7353
:103320007231322C00737231332C737231332C00B2
:10333000737231342C737231342C00737231352C2A
:10334000737231352C00737231362C737231362C16
:1033500000737231372C737231372C00737231382D
:103360002C737231382C00737231392C73723139ED
:103370002C007379732C7379732C00732C732C00CD
:10338000312C312C00322C322C00332C332C0034D5
:103390002C342C00782C782C00792C792C007A2C69
:1033A0007A2C00612C612C00622C622C00632C634F
:1033B0002C00702C702C006735342C6735342C00B1
:1033C0006735352C6735352C006735362C67353633
:1033D0002C006735372C6735372C006735382C675C
:1033E00035382C006735392C6735392C0067393270
:1033F0002C6739322C00706F732C706F732C006D3A
:10340000706F2C6D706F2C006D2C6D2C006E2C6EFF
:103410002C006F2C6F2C00242C242C00682C682C82
:10342000005B64697361626C65645D005B73746109
:103430006E646172645D005B696E6869626974657F
:10344000645D005B7261646975735D005B736C61E0
:10345000766520585D005B736C61766520595D0070
:103460005B736C617665205A5D005B736C61766599
:103470002058595D005B736C61766520585A5D0079
:103480005B736C61766520595A5D005B736C617685
:10349000652058595A5D0020696E00206D6D00202E
:1034A00064656700473934202D20756E6974732D6B
:1034B0007065722D6D696E757465206D6F64652021
:1034C00028692E652E206665656472617465206DBD
:1034D0006F64652900473933202D20696E76657247
:1034E00073652074696D65206D6F646500473930C0
:1034F000202D206162736F6C75746520646973742C
:10350000616E6365206D6F646500473931202D2041
:10351000696E6372656D656E74616C206469737445
:10352000616E6365206D6F646500473631202D2024
:1035300065786163742073746F70206D6F646500CB
:10354000473634202D20636F6E74696E756F757306
:10355000206D6F646500473137202D205859207049
:103560006C616E6500473138202D20585A20706CF0
:10357000616E6500473139202D20595A20706C61E9
:103580006E6500473020202D206C696E65617220C9
:10359000747261766572736520287365656B2900A6
:1035A000473120202D206C696E656172206665654B
:1035B0006400473220202D20636C6F636B77697342
:1035C0006520617263206665656400473320202DA5
:1035D00020636F756E74657220636C6F636B7769BF
:1035E000736520617263206665656400473830202A
:1035F0002D2063616E63656C206D6F74696F6E2042
:103600006D6F646520286E6F6E65206163746976E6
:10361000652900473533202D206D616368696E652B
:1036200020636F6F7264696E61746520737973745F
:10363000656D00473534202D20636F6F7264696EAD
:103640006174652073797374656D20310047353579
:10365000202D20636F6F7264696E617465207379C9
:103660007374656D203200473536202D20636F6FEF
:103670007264696E6174652073797374656D20334B
:1036800000473537202D20636F6F7264696E617457
:10369000652073797374656D203400473538202DAB
:1036A00020636F6F7264696E6174652073797374DF
:1036B000656D203500473539202D20636F6F7264AA
:1036C000696E6174652073797374656D2036004787
:1036D0003230202D20696E63686573206D6F6465DC
:1036E00000473231202D206D696C6C696D65746501
:1036F00072206D6F6465004F66660053796E6300DB
:10370000506C616E00446563656C00486F6C6400CA
:1037100053746F700052756E00486F6C64004F6692
:1037200066005374617274656400486F6D696E67FA
:103730000050726F626500496E697469616C697AE4
:10374000696E67005265736574004379636C650048
:1037500053746F7000456E6400496E697469616CE2
:10376000697A696E670052657365740053746F708F
:1037700000456E640052756E00486F6C64005072B4
:103780006F6265004379636C6500486F6D696E67B1
:10379000004A6F670070387F389B389E38A438AB7A
:1037A00038B038B938C438CC38D838E438F23809A9
:1037B0003918392539393951395E39623966396AEA
:1037C000396E397D399239A739B639BA39BE39C21D
:1037D00039C639CA39CE39D239D639DA39DE39E281
:1037E00039E639EA39EE39F239F6390B3A233A3506
:1037F0003A4E3A643A7A3A923AAA3ABC3ADA3AEE0D
:103800003AF23AF63AFA3AFE3A023B063B0A3B0EE5
:103810003B123B233B373B493B5E3B763B923BA60F
:103820003BBA3BD53B456E64206F6620636F6D6D80
:10383000616E642066696C650A0025532553007427
:10384000696E7967005B696E63685D206F6B3E200F
:103850000025532553005B6D6D5D206F6B3E20008E
:103860006572726F723A2025533A202573200A0040
:103870003C6E756C6C206D6573736167653E004CC2
:103880006F6164696E6720636F6E66696773206637
:10389000726F6D20454550524F4D004F4B004572A1
:1038A000726F720045616761696E004E6F6F7000E4
:1038B000436F6D706C657465005465726D696E61FF
:1038C0007465640041626F7274656400456E6420C3
:1038D0006F66206C696E6500456E64206F662066B9
:1038E000696C650046696C65206E6F74206F706549
:1038F0006E004D61782066696C652073697A652079
:103900006578636565646564004E6F2073756368F0
:103910002064657669636500427566666572206538
:103920006D707479004275666665722066756C6CA0
:10393000202D20666174616C004275666665722098
:1039400066756C6C202D206E6F6E2D666174616CD7
:1039500000496E697469616C697A696E6700233128
:103960003600233137002331380023313900496EC6
:103970007465726E616C206572726F7200496E744C
:1039800065726E616C2072616E6765206572726F20
:103990007200466C6F6174696E6720706F696E7437
:1039A000206572726F72004469766964652062797D
:1039B000207A65726F0023323400233235002332BF
:1039C00036002332370023323800233239002333C4
:1039D00030002333310023333200233333002333C9
:1039E00034002333350023333600233337002333A9
:1039F000380023333900556E7265636F676E697ADC
:103A0000656420636F6D6D616E64004578706563F9
:103A100074656420636F6D6D616E64206C65747491
:103A2000657200426164206E756D62657220666F1A
:103A3000726D617400496E70757420657863656598
:103A40006473206D6178206C656E67746800496EE0
:103A50007075742076616C756520746F6F20736D5E
:103A6000616C6C00496E7075742076616C756520B0
:103A7000746F6F206C6172676500496E7075742099
:103A800076616C75652072616E6765206572726F14
:103A90007200496E7075742076616C756520756E64
:103AA000737570706F72746564004A534F4E207363
:103AB000796E746178206572726F72004A534F4E4E
:103AC00020696E7075742068617320746F6F206D4B
:103AD000616E79207061697273004F7574206F6632
:103AE00020627566666572207370616365002335B8
:103AF000310023353200233533002335340023359C
:103B0000350023353600233537002335380023357B
:103B100039005A65726F206C656E677468206D6F2E
:103B200076650047636F646520626C6F636B20731A
:103B30006B69707065640047636F646520696E70BF
:103B40007574206572726F720047636F64652066DA
:103B500065656472617465206572726F7200476397
:103B60006F6465206178697320776F7264206D6976
:103B70007373696E670047636F6465206D6F64617E
:103B80006C2067726F75702076696F6C6174696FF5
:103B90006E00486F6D696E67206379636C6520669F
:103BA00061696C6564004D61782074726176656C42
:103BB000206578636565646564004D617820737085
:103BC000696E646C652073706565642065786365F3
:103BD000656465640041726320737065636966693A
:103BE000636174696F6E206572726F7200232323A4
:103BF000232054696E79472048656C702023232365
:103C0000230A00546865736520636F6D6D616E648F
:103C10007320617265206163746976652066726FD6
:103C20006D2074686520636F6D6D616E64206C69D2
:103C30006E653A0A205E78202020202041626F7253
:103C4000742028636F6E74726F6C207829202D2089
:103C50007265736574732045564552595448494EF0
:103C600047210A20203F20202020204D61636869E1
:103C70006E6520706F736974696F6E20616E642069
:103C800067636F6465206D6F64656C207374617425
:103C9000650A202024202020202053686F7720618F
:103CA0006E642073657420636F6E666967757261F8
:103CB00074696F6E2073657474696E67730A20206F
:103CC00021202020202046656564686F6C64202DCB
:103CD0002073746F70206D6F74696F6E20776974D4
:103CE000686F7574206C6F73696E6720706F73698D
:103CF00074696F6E0A20207E202020202043796383
:103D00006C65205374617274202D20726573746128
:103D100072742066726F6D2066656564686F6C648E
:103D20000A202068202020202053686F77207468A4
:103D300069732068656C702073637265656E0A2014
:103D40002024682020202053686F7720636F6E66E0
:103D5000696775726174696F6E2068656C70207335
:103D6000637265656E0A20202474657374204C6943
:103D700073742073656C662D74657374730A2020E8
:103D80002464656661756C74733D3120526573748B
:103D90006F726520616C6C2073657474696E6773F3
:103DA00020746F2022666163746F727922206465CB
:103DB0006661756C74730A000A4E6F74653A20541C
:103DC000696E79472067656E6572617465732061FD
:103DD00075746F6D61746963207374617475732099
:103DE0007265706F727473206279206465666175A4
:103DF0006C740A546869732063616E206265206484
:103E0000697361626C656420627920656E746572A5
:103E1000696E67202473693D300A536565207468B4
:103E2000652077696B692062656C6F7720666F72B9
:103E3000206D6F72652064657461696C732E0A0071
:103E40000A466F722064657461696C656420546908
:103E50006E794720696E666F207365653A206874D5
:103E600074703A2F2F7777772E73796E7468657434
:103E70006F732E636F6D2F77696B692F696E646541
:103E8000782E7068703F7469746C653D50726F6A0B
:103E9000656374733A54696E79470A466F72207489
:103EA0006865206C6174657374206669726D7761F2
:103EB0007265207365653A2068747470733A2F2FA9
:103EC0006769746875622E636F6D2F73796E74689D
:103ED00065746F732F54696E79470A506C6561730E
:103EE00065206C6F6720616E7920697373756573E7
:103EF00020617420687474703A2F2F7777772E734F
:103F0000796E746865746F732E636F6D2F666F7250
:103F1000756D730A486176652066756E0A00232305
:103F200023232054696E794720434F4E4649475515
:103F3000524154494F4E2048656C7020232323235F
:103F40000A00546865736520636F6D6D616E6473FC
:103F5000206172652061637469766520666F7220E6
:103F6000636F6E66696775726174696F6E3A0A2075
:103F700020247379732053686F7720737973746585
:103F80006D202867656E6572616C29207365747495
:103F9000696E67730A2020243120202053686F77D0
:103FA000206D6F746F7220312073657474696E6751
:103FB0007320286F72207768617465766572206D52
:103FC0006F746F7220796F752077616E7420312C59
:103FD000322C332C34290A202024782020205368C6
:103FE0006F77205820617869732073657474696EE7
:103FF000677320286F722077686174657665722018
:104000006178697320796F752077616E7420782CE0
:10401000792C7A2C612C622C63290A2020246D20B3
:10402000202053686F7720616C6C206D6F746F7205
:104030002073657474696E67730A2020246E2020D3
:104040002053686F7720616C6C20617869732073EE
:10405000657474696E67730A20202424202020531D
:10406000686F7720616C6C2073657474696E677318
:104070000A2020246820202053686F772074686904
:10408000732068656C702073637265656E0A0A0040
:1040900045616368202420636F6D6D616E642061EB
:1040A000626F766520616C736F20646973706C61F8
:1040B00079732074686520746F6B656E20666F720B
:1040C00020656163682073657474696E6720696E2A
:1040D000205B205D20627261636B6574730A546FAC
:1040E00020766965772073657474696E67732065DF
:1040F0006E746572206120746F6B656E3A0A0A20D7
:1041000020243C746F6B656E3E0A0A466F72206510
:1041100078616D706C65202479667220746F2064FC
:104120006973706C6179207468652059206D6178BD
:10413000206665656420726174650A0A546F207593
:1041400070646174652073657474696E677320654B
:104150006E74657220746F6B656E20657175616C2D
:10416000732076616C75653A0A0A2020243C746FCE
:104170006B656E3E3D3C76616C75653E0A0A466F26
:1041800072206578616D706C6520247966723D38A7
:10419000303020746F207365742074686520592056
:1041A0006D61782066656564207261746520746F46
:1041B00020383030206D6D2F6D696E7574650A0082
:1041C000232323232054696E79472053454C4620EE
:1041D000544553542048656C7020232323230A0040
:1041E000496E766F6B652073656C662074657374B9
:1041F00020627920656E746572696E67202474652B
:1042000073743D4E207768657265204E2069732077
:104210006F6E65206F663A0A202024746573743DC2
:10422000312020736D6F6B6520746573740A2020D4
:1042300024746573743D3220206D6F74696F6E2035
:10424000746573742020202861207365726965731A
:10425000206F662073717561726520616E642063E2
:104260006972636C65206D6F766573290A2020245E
:10427000746573743D3320206172632074657374B8
:1042800020202020202028736F6D65206C617267CC
:104290006520636972636C6573290A202024746544
:1042A00073743D3420206477656C6C20746573747E
:1042B00020202020286D6F76657320737061636500
:1042C000642062792031207365636F6E64206477A7
:1042D000656C6C73290A202024746573743D352045
:1042E00020686F6D696E67207465737420202028C4
:1042F000796F75206D757374207472697020686FA2
:104300006D696E67207377697463686573290A2025
:104310002024746573743D36202066656564686F7B
:104320006C6420746573742028656E746572202136
:1043300020616E64207E20746F20686F6C64206141
:104340006E6420726573746172742C207265737070
:104350006563746976656C79290A20202474657315
:10436000743D3720204D20636F646573207465733E
:10437000742020284D20636F64657320696E746516
:10438000726D696E676C65642077697468206D6F03
:10439000766573290A202024746573743D382020C3
:1043A0004A534F4E20746573742020202020286DBE
:1043B0006F74696F6E20746573742072756E2075EA
:1043C00073696E67204A534F4E20636F6D6D616E47
:1043D0006473290A202024746573743D3920206990
:1043E0006E76657273652074696D6520746573748B
:1043F0000A202024746573743D313020726F74611B
:104400007279206D6F74696F6E20746573740A0021
:10441000232323232054696E794720524553544F58
:1044200052452044454641554C54532048656C70D4
:1044300020232323230A00456E74657220246465BB
:104440006661756C74733D3120746F20726573659D
:1044500074207468652073797374656D20746F209F
:1044600074686520666163746F7279206465666143
:10447000756C742076616C7565732E0A5468697367
:104480002077696C6C206F7665727772697465202D
:10449000616E79206368616E67657320796F75203E
:1044A00068617665206D6164652E0A005F63616CEA
:1044B00063756C6174655F74726170657A6F69644D
:1044C0002829206661696C656420746F20636F6EB3
:1044D0007665726765007372007172006C780070A7
:1044E00062007172004E312054314D360A4E322036
:1044F0004731370A4E33204732310A4E3820463191
:104500003830300A4E392047310A4E31303020479A
:10451000393220582D32352E313737592D33342E3C
:10452000303732205A2D312E303030202854454D2E
:10453000502C2052454D4F5645204C415445522950
:104540000A4E33343320582D32352E353935592D16
:1045500033342E3334390A4E33343420582D323527
:104560002E373031592D33342E3433360A4E33340E
:104570003520582D32352E373931592D33342E35DB
:1045800032300A4E33343620582D32352E383634F8
:10459000592D33342E3630310A4E33343720582DCE
:1045A00032352E393230592D33342E3637390A4EC2
:1045B00033343820582D32352E393630592D333496
:1045C0002E3735340A4E33343920582D32352E39B2
:1045D0003832592D33342E3832360A4E33353020A6
:1045E000582D32352E393837592D33342E38393548
:1045F0000A4E33353120582D32352E393736592D64
:1046000033342E3936310A4E33353220582D323577
:104610002E393438592D33352E3032330A4E333556
:104620003320582D32352E393033592D33352E3035
:1046300038320A4E33353420582D32352E38343145
:10464000592D33352E3133380A4E33353520582D18
:1046500032352E373633592D33352E3139300A4E17
:1046600033353620582D32352E363639592D3335DF
:104670002E3233390A4E33353720582D32352E3508
:104680003539592D33352E3238340A4E33353820EA
:10469000582D32352E343333592D33352E333235B0
:1046A0000A4E33353920582D32352E323931592DB5
:1046B00033352E3336330A4E33363020582D3235CB
:1046C0002E313334592D33352E3339370A4E3336A4
:1046D0003120582D32342E393633592D33352E347E
:1046E00032380A4E33363220582D32342E3737378F
:1046F000592D33352E3435350A4E33363320582D67
:1047000032342E353737592D33352E3437370A4E5C
:1047100033363420582D32342E333637592D333535
:104720002E3439360A4E33363520582D32342E3158
:104730003434592D33352E3531310A4E3336362047
:10474000582D32332E393039592D33352E353232FA
:104750000A4E33363720582D32332E363631592D06
:1047600033352E3532390A4E33363820582D323310
:104770002E343033592D33352E3533320A4E3336FD
:104780003920582D32332E313333592D33352E35D0
:1047900033320A4E33373020582D32322E383533EB
:1047A000592D33352E3532370A2F4E3235313820D8
:1047B000473058302E333237592D33332E3532317E
:1047C0005A2D312E3030300A4E32353139204D33AA
:1047D00030004E31204732300A4E352047343020E9
:1047E0004731370A4E3130205431204D30360A28B7
:1047F0004E3135204739302047302058302059304D
:10480000205A30290A4E3230205335303030204D76
:104810003033200A4E32352058302E30363420596D
:10482000302E333236205A300A4E34302047303161
:10483000204631362E300A4E35302058302E303654
:10484000342059302E3332360A4E35352058302E2A
:104850003036302059302E3239330A4E3630205817
:10486000302E3037372059302E3236370A4E363513
:104870002058302E3131312059302E3235370A4E02
:1048800037302058302E3134392059302E323532DD
:104890000A4E37352058302E3138382059302E32D4
:1048A00035350A4E38302058302E323237205930C4
:1048B0002E3236380A4E38352058302E32353720D1
:1048C00059302E3237310A4E39302058302E33339A
:1048D000352059302E3236350A4E39352058302E93
:1048E0003431322059302E3237310A4E31303020B7
:1048F00058302E3437342059302E3238370A4E3162
:1049000030352058302E3439312059302E32383954
:104910000A4E3131302058302E3531372059302E63
:104920003237330A4E3131352058302E3534342069
:1049300059302E3236330A4E3132302058302E352F
:1049400038302059302E3236310A4E313235205827
:10495000302E3539352059302E3236330A4E313328
:10496000302058302E3632312059302E3237340A2A
:104970004E3133352058302E3635392059302E33CC
:1049800030360A4E3134302058302E3637332059E5
:10499000302E3333350A4E3134352058302E3637E9
:1049A000392059302E3336310A4E313530205830C7
:1049B0002E3637382059302E3338390A4E313535B6
:1049C0002058302E3637302059302E3432300A4EAF
:1049D0003136302058302E3637302059302E34348E
:1049E000360A4E3136352058302E36383020593080
:1049F0002E3437340A4E3137302058302E37303489
:104A00002059302E3439370A4E3137352058302E60
:104A10003733322059302E3531350A4E3138302077
:104A200058302E3739342059302E3533350A4E312F
:104A300038352058302E3837322059302E35363719
:104A40000A4E3139302058302E3935302059302E29
:104A50003630340A4E3139352058312E303331203A
:104A600059302E3634370A4E3230302058312E31FC
:104A700034392059302E3732320A4E3230352058F0
:104A8000312E3330382059302E3835340A4E3231F9
:104A9000302058312E3433302059302E3938340AF2
:104AA0004E3231352058312E3434372059302E399A
:104AB00038360A4E3232302058312E3632382059AC
:104AC000302E3832320A4E3232352058312E3733BA
:104AD000322059302E3731340A4E3233302058329A
:104AE0002E3030392059302E3338310A4E3233359A
:104AF0002058322E3131362059302E3236360A4E79
:104B00003234302058322E3232382059302E31355E
:104B1000370A4E3234352058322E32383020593050
:104B20002E3132330A4E3235302058322E33333262
:104B30002059302E3039340A4E3235352058322E35
:104B40003432332059302E3037300A4E323630204E
:104B500058322E3438392059302E3036350A4E32FC
:104B600036352058322E3535372059302E303636EE
:104B70000A4E3237302058322E3632372059302EF6
:104B80003038340A4E3237352058322E36393320F9
:104B900059302E3130390A4E3238302058322E37C3
:104BA00033302059302E3133330A4E3238352058C5
:104BB000322E3830352059302E3139300A4E3239C4
:104BC000302058322E3832392059302E3231360AC0
:104BD0004E3239352058322E3838302059302E3266
:104BE00039310A4E3330302058322E38383420597B
:104BF000302E3330300A4E3330352058322E38398B
:104C0000382059302E3333320A4E33313020583267
:104C10002E3930352059302E3336370A4E33313560
:104C20002058322E3931302059302E3430370A4E48
:104C30003332302058322E3930382059302E343427
:104C4000360A4E3332352058322E39303120593021
:104C50002E3439350A4E3333302058322E38393716
:104C60002059302E3439350A4E3333352058322E00
:104C70003839302059302E3532340A4E3334302012
:104C800058322E3834322059302E3630340A4E33D2
:104C900034352058322E3831342059302E363635BE
:104CA0000A4E3335302058322E3739342059302EC1
:104CB0003735300A4E3335352058322E37393120CA
:104CC00059302E3833380A4E3336302058322E3889
:104CD00031392059302E3937360A4E33363520587F
:104CE000322E3833372059312E3034340A4E333790
:104CF000302058322E3836322059312E3131320A96
:104D00004E3337352058322E3837372059312E312F
:104D100034350A4E3338302058322E39313220594A
:104D2000312E3231370A4E3338352058322E393150
:104D3000372059312E3232360A4E3339302058322C
:104D40002E3935312059312E3238310A4E3339352A
:104D50002058322E3937302059312E3239350A4E0B
:104D60003430302058322E3939362059312E3239EC
:104D7000350A4E3430352058332E303133205931F6
:104D80002E3237350A4E3431302058332E303234FB
:104D90002059312E3235340A4E3431352058332ED5
:104DA0003037302059312E3135310A4E34323020EF
:104DB00058332E3037372059312E3133340A4E34A0
:104DC00032352058332E3132352059312E30333997
:104DD0000A4E3433302058332E3133382059312E97
:104DE0003031390A4E3433352058332E32303520A5
:104DF00059302E3930380A4E3434302058332E3260
:104E000038322059302E3739370A4E34343520584D
:104E1000332E3336312059302E3639310A4E34355F
:104E2000302058332E3432362059302E3539320A5C
:104E30004E3435352058332E3435362059302E3502
:104E400034330A4E3436302058332E343739205913
:104E5000302E3439330A4E3436352058332E343917
:104E6000342059302E3437320A4E343730205833FC
:104E70002E3530352059302E3434360A4E343735FD
:104E80002058332E3531382059302E3431370A4EE0
:104E90003438302058332E3533302059302E3339C2
:104EA000310A4E3438352058332E353634205930B7
:104EB0002E3330300A4E3439302058332E353737C0
:104EC0002059302E3235330A4E3439352058332E9E
:104ED0003536382059302E3231320A4E35303020B6
:104EE00058332E3534342059302E3137360A4E356A
:104EF00030352058332E3534312059302E31343668
:104F00000A4E3531302058332E3535332059302E66
:104F10003131390A4E3531352058332E3537362068
:104F200059302E3130360A4E3532302058332E3536
:104F300039372059302E3130320A4E35323520582B
:104F4000332E3631382059302E3130390A4E353330
:104F5000302058332E3633392059302E3132390A29
:104F60004E3533352058332E3635302059302E31DA
:104F700035390A4E3534302058332E3636332059E1
:104F8000302E3137380A4E3534352058332E3637E7
:104F9000382059302E3139320A4E353530205833C9
:104FA0002E3639392059302E3139370A4E353535BC
:104FB0002058332E3732332059302E3139360A4EAD
:104FC0003536302058332E3736342059302E31378D
:104FD000390A4E3536352058332E38303520593081
:104FE0002E3136350A4E3537302058332E38383486
:104FF0002059302E3135390A4E3537352058332E69
:105000003934392059302E3136350A4E3538302072
:1050100058332E3936362059302E3137350A4E3531
:1050200038352058332E3937382059302E3139341D
:105030000A4E3539302058332E3937382059302E22
:105040003232330A4E3539352058332E3936302036
:1050500059302E3234350A4E3630302058332E38FF
:1050600033342059302E3331310A4E363035205802
:10507000332E3736322059302E3334350A4E3631FE
:10508000302058332E3732362059302E3338390AF3
:105090004E3631352058332E3730332059302E34A8
:1050A00035380A4E3632302058332E3638322059B1
:1050B000302E3533300A4E3632352058332E3637BF
:1050C000392059302E3533340A4E36333020583398
:1050D0002E3632362059302E3638310A4E36333598
:1050E0002058332E3536382059302E3832380A4E73
:1050F0003634302058332E3434342059312E303861
:10510000300A4E3634352058332E3430352059315C
:105110002E3136370A4E3635302058332E3430345F
:105120002059312E3136370A4E3635352058332E38
:105130003338372059312E3230380A4E3636302047
:1051400058332E3338342059312E3230380A4E3607
:1051500036352058332E3336352059312E323635F8
:105160000A4E3637302058332E3335352059312EFC
:105170003238350A4E3637352058332E33343820FE
:1051800059312E3330380A4E3638302058332E33CA
:1051900033332059312E3335300A4E3638352058C6
:1051A000332E3332312059312E3339310A4E3639CC
:1051B000302058332E3331312059312E3432380AD1
:1051C0004E3639352058332E3333392059312E3469
:1051D00032330A4E3730302058332E343430205991
:1051E000312E3430360A4E3730352058332E353193
:1051F000302059312E3430380A4E37313020583370
:105200002E3538352059312E3432310A4E3731356A
:105210002058332E3631312059312E3433390A4E4D
:105220003732302058332E3631312059312E343434
:10523000310A4E3732352058332E36313520593128
:105240002E3434310A4E3733302058332E3633362D
:105250002059312E3438380A4E3733352058332E02
:105260003633342059312E3531370A4E3734302019
:1052700058332E3632322059312E3534330A4E37D8
:1052800034352058332E3630352059312E353633CB
:105290000A4E3735302058332E3537362059312EC7
:1052A0003537350A4E3735352058332E35343420CE
:1052B00059312E3538310A4E3736302058332E3496
:1052C00037392059312E3539320A4E373635205884
:1052D000332E3435312059312E3539380A4E37378F
:1052E000302058332E3338372059312E3632360A93
:1052F0004E3737352058332E3339302059312E363A
:1053000033360A4E3738302058332E353332205951
:10531000312E3630320A4E3738352058332E36305B
:10532000312059312E3539370A4E3739302058332C
:105330002E3636382059312E3539380A4E37393520
:105340002058332E3738322059312E3631320A4E1A
:105350003830302058332E3739342059312E3631F9
:10536000380A4E3830352058332E383638205931E7
:105370002E3633360A4E3831302058332E393138F4
:105380002059312E3635350A4E3831352058332ED6
:105390003934352059312E3636370A4E38323020DE
:1053A00058332E3936342059312E3638350A4E3896
:1053B00032352058332E3936372059312E3638358C
:1053C0000A4E3833302058332E3937342059312E95
:1053D0003639390A4E3833352058332E393834208F
:1053E00059312E3732350A4E3834302058332E3961
:1053F00038342059312E3735380A4E383435205854
:10540000332E3937302059312E3739300A4E38355E
:10541000302058332E3934352059312E3831370A5F
:105420004E3835352058332E3931382059312E3801
:1054300032360A4E3836302058332E38393120591A
:10544000312E3832370A4E3836352058332E38341C
:10545000322059312E3830390A4E383730205833FF
:105460002E3739382059312E3738340A4E383735EF
:105470002058332E3734362059312E3737320A4EE2
:105480003838302058332E3639382059312E3736B7
:10549000340A4E3838352058332E363335205931BA
:1054A0002E3736360A4E3839302058332E353533BC
:1054B0002059312E3738350A4E3839352058332E99
:1054C0003437382059312E3832300A4E39303020B6
:1054D00058332E3430392059312E3836340A4E396B
:1054E00030352058332E3334352059312E39313868
:1054F0000A4E3931302058332E3236342059322E6C
:105500003032330A4E3931352058332E3234382078
:1055100059322E3035310A4E3932302058332E323E
:1055200034302059322E3038310A4E393235205835
:10553000332E3331362059322E3038360A4E393335
:10554000302058332E3339302059322E3130340A3E
:105550004E3933352058332E3431342059322E31E0
:1055600032310A4E3934302058332E3433312059F9
:10557000322E3135330A4E3934352058332E3433F8
:10558000332059322E3138300A4E393530205833D5
:105590002E3432372059322E3230350A4E393535D5
:1055A0002058332E3431332059322E3232340A4EC1
:1055B0003936302058332E3339322059322E323496
:1055C000320A4E3936352058332E3333352059328E
:1055D0002E3234340A4E3937302058332E32373891
:1055E0002059322E3233360A4E3937352058332E71
:1055F0003235362059322E3234320A4E3938302084
:1056000058332E3233392059322E3235310A4E3941
:1056100038352058332E3231312059322E3238303D
:105620000A4E3939302058332E3137342059322E32
:105630003335360A4E3939352058332E3135392035
:1056400059322E3339370A4E313030302058332E0C
:105650003135302059322E3433380A4E313030351E
:105660002058332E3134302059322E3438310A4EFE
:10567000313031302058332E3133322059322E35EB
:1056800031300A4E313031352058332E3131382007
:1056900059322E3534330A4E313032302058332EC1
:1056A0003039392059322E3537360A4E31303235BD
:1056B0002058332E3035312059322E3633310A4EB0
:1056C000313033302058332E3030332059322E369B
:1056D00036360A4E313033352058322E39353720A0
:1056E00059322E3638350A4E313034302058322E69
:1056F0003930372059322E3639390A4E3130343567
:105700002058322E3836302059322E3731310A4E59
:10571000313035302058322E3831392059322E3739
:1057200032370A4E313035352058322E3736382050
:1057300059322E3734350A4E313036302058322E19
:105740003731362059322E3735370A4E313036351B
:105750002058322E3637352059322E3735370A4EFB
:10576000313037302058322E3537392059322E37E4
:1057700033310A4E313037352058322E353730200C
:1057800059322E3732330A4E313038302058322ECB
:105790003535392059322E3732300A4E31303835CE
:1057A0002058322E3533302059322E3730310A4EC0
:1057B000313039302058322E3530312059322E36A2
:1057C00039330A4E313039352058322E34373120B2
:1057D00059322E3638330A4E313130302058322E7D
:1057E0003434332059322E3636380A4E3131303582
:1057F0002058322E3339362059322E3633340A4E61
:10580000313131302058322E3335342059322E3553
:1058100039310A4E313131352058322E333532206C
:1058200059322E3539310A4E313132302058322E2C
:105830003332352059322E3534330A4E3131323538
:105840002058322E3331352059322E3532310A4E1E
:10585000313133302058322E3330372059322E3404
:1058600039380A4E313133352058322E323936200C
:1058700059322E3436340A4E313134302058322EDB
:105880003239332059322E3432370A4E31313435E1
:105890002058322E3239352059322E3336360A4EC0
:1058A000313135302058322E3332312059322E33B7
:1058B00030330A4E313135352058322E33353820C9
:1058C00059322E3234370A4E313136302058322E8A
:1058D0003431392059322E3230330A4E3131363597
:1058E0002058322E3431392059322E3137390A4E70
:1058F000313137302058322E3430352059322E3164
:1059000035380A4E313137352058322E3336322071
:1059100059322E3132330A4E313138302058322E3E
:105920003335342059322E3130340A4E3131383546
:105930002058322E3335342059322E3039310A4E28
:10594000313139302058322E3338302059322E3010
:1059500036350A4E313139352058322E3431302027
:1059600059322E3035310A4E313230302058322EF5
:105970003431302059322E3034370A4E31323035FE
:105980002058322E3430352059322E3032380A4EDB
:10599000313231302058322E3430382059322E30C6
:1059A00031300A4E313231352058322E34313620E2
:1059B00059312E3939350A4E313232302058322E93
:1059C0003433332059312E3938320A4E31323235A0
:1059D0002058322E3433382059312E3936330A4E7E
:1059E000313233302058322E3434372059312E3969
:1059F00034380A4E313233352058322E3436312085
:105A000059312E3933380A4E313234302058322E43
:105A10003438302059312E3933310A4E3132343551
:105A20002058322E3437382059312E3839390A4E21
:105A3000313235302058322E3438372059312E3813
:105A400037350A4E313235352058322E3530342034
:105A500059312E3835340A4E313236302058322EF4
:105A60003532372059312E3834380A4E31323635F6
:105A70002058322E3534392059312E3834390A4ED7
:105A8000313237302058322E3537372059312E38C1
:105A900036310A4E313237352058322E36303420E6
:105AA00059312E3836360A4E313238302058322E9F
:105AB0003633312059312E3835340A4E31323835AB
:105AC0002058322E3634302059312E3832370A4E93
:105AD000313239302058322E3634302059312E3779
