:100000000C944D360C946E360C946E360C946E3601
:100010000C946E360C946E360C946E360C946E36D0
:100020000C946E360C946E360C946E360C94258AB5
:100030000C946E360C946E360C94A9860C946E3625
:100040000C946E360C946E360C946E360C946E36A0
:100050000C946E360C946E360C946E360C946E3690
:100060000C946E360C94BD8D0C94618D0C946E3690
:100070000C94B1910C9454910C948E910C946E3616
:100080000C94AE8A0C946E360C946E360C946E36CC
:100090000C946E360C946E360C946E360C946E3650
:1000A0000C946E360C946E360C946E360C94EB6495
:1000B0000C9497650C946E360C946E360C943C86BA
:1000C0000C946E360C946E360C946E360C946E3620
:1000D0000C946E360C946E360C946E360C946E3610
:1000E0000C94AD950C946E360C946E360C946E3662
:1000F0000C946E360C946E360C946E360C946E36F0
:100100000C9416650C94C2650C9495640C9441652E
:100110000C946E360C946E360C946E360C946E36CF
:100120000C946E360C946E360C946E360C946E36BF
:100130000C946E360C9467860C946E360C946E3666
:100140000C946E360C946E360C946E360C946E369F
:100150000C946E360C946E360C94A3950C946E36FB
:100160000C946E360C946E360C946E360C946E367F
:100170000C946E360C946E360C946E360C946E366F
:100180000C946E360C946E360C946E360C946E365F
:100190000C946E360C946E360C946E360C946E364F
:1001A0000C94C0640C946C650C946E360C946E3692
:1001B0000C941B850C946E360C946E360C946E3633
:1001C0000C946E360C946E360C946E360C946E361F
:1001D0000C946E360C946E360C946E360C946E360F
:1001E0000C946E360C946E3628623D625262316415
:1001F0003164AA61FE5F316467627C629162D162A0
:100200003461BB623164BF613164A662D4619D61B7
:10021000316431643164E961FE611362084AD73B9D
:100220003BCE016E84BCBFFDC12F3D6C74319ABDC5
:1002300056833DDA3D00C77F11BED9E4BB4C3E91E9
:100240006BAAAABE000000803F05A84CCDB2D44ED8
:10025000B93836A9020C50B9918688083CA6AAAADA
:100260002ABE000000803F07634236B79BD8A71A1A
:1002700039685618AEBAAB558C1D3CB7CC5763BD28
:100280006DEDFD753EF6177231BF000000803F082E
:10029000000000BE922449123EABAAAA2ABECDCCD1
:1002A000CC4C3E00000080BEABAAAAAA3E000000D3
:1002B00000BF000000803F0000000000084178D32C
:1002C000BB4387D1133D190E3CC3BD4282AD2B3ECB
:1002D00068EC8276BED98FE1A93E4C80EFFFBE016B
:1002E000C4FF7F3F00000000006E616E00696E6613
:1002F000001A113C4F254A8B49FA31A410AB4344F4
:10030000113C4F254A8B49F6313333733F7011FB53
:100310004E4D498B49FE31000000008B113C4F06C9
:100320004A4F49D93400004843C311B84CB44C6D0E
:1003300057FE3100000000D011464AB04C8B49FEF8
:100340003100000000DC11FB4E9B4C8B49FE31005C
:100350000000000612FB4E8C4CA8491E3100000024
:10036000002612FB4E7D4CA84922310000000042BD
:1003700012B14E7F4B8B49FE310000000064127FAA
:100380004E704C8B49FE310000000087127F4E6397
:100390004C8B49FE3100000000AA127F4E564C8B58
:1003A00049FE3100000000CD127F4E494C8B49FEC2
:1003B0003100000000F0127F4E3C4C8B49FE3100B2
:1003C0000000001313B14E1B4C8B49FE310000009E
:1003D0000037137F4E724B8B49FE31000000005AEC
:1003E000137F4E0E4C8B49FE31000000007D137FC1
:1003F0004E014C8B49FE3100000000A0137F4EF4EB
:100400004B8B49FE3100000000C3137F4EE74B8B3E
:1004100049FE3100000000E6137F4EDA4B8B49FEA7
:10042000310000000009147F4ECD4B8B49FE310096
:100430000000002C142C4EBA4B8B49FE31000000FA
:10044000004B142C4EBA4B8B49FE31000000006A61
:10045000142C4EBA4B8B49FE310000000089142C3D
:100460004EBA4B8B49FE3100000000A8142C4EBA46
:100470004B8B49FE3100000000C7142C4EBA4B8B49
:1004800049FE3100000000E6142C4EA74B8B49FEBC
:1004900031000000000A152C4EA74B8B49FE31009D
:1004A0000000002E152C4EA74B8B49FE310000009A
:1004B0000052152C4EA74B8B49FE310000000076F0
:1004C000152C4EA74B8B49FE31000000009A152CCD
:1004D0004EA74B8B49FE3100000000BE15B14E7F88
:1004E0004B8B49563100000000E215B14E7F4B8B1B
:1004F000495A31000000000616B14E7F4B8B495E11
:1005000031000000002A16E84D254A8B496231006F
:100510000000004E16E84D254A8B49663100000068
:10052000007216E84D254A8B496A3100000000969A
:10053000165F67E74989890232000000009F162A8A
:1005400067E2498B49FE3100000000A8168067E28F
:10055000495558FE3100000000B1167F4EE2498B2C
:1005600049FE3100000000BD16AE4DE7498D49D06F
:100570003400000000F116AE4DE7498D49D134003A
:1005800000803F2317AE4DE7498D49CF34000080EE
:100590003F5517AE4DE7498D49D2340000004089E0
:1005A00017AE4DE7498D49D33400000000BB174614
:1005B0004A474A9A4BFE3100000000C817B14E7FEF
:1005C0004B0B4DCA340050C347F417B14E7F4B0B51
:1005D0004DBE340AD7A33D2018B14E7F4B0B4DC200
:1005E00034CDCCCC3D4C18B14E254AC649C634005A
:1005F000409C457B18AE4DE7493D57D43400000080
:1006000000B618AE4DE7492057D53400000000E58C
:1006100018AE4DE7490357D634000000001419AE58
:100620004DE749E656D7340000803F4319AE4DE709
:10063000498D49D8340000803F7219AE4DE7498D8D
:1006400049AF3500000000A519E84D254AFE4CB31E
:10065000356666E63FCD19B14E7F4B494DB7358DB6
:10066000175842FF19AE4DE7492C53B03500000032
:10067000412E1AAE4DE749514BB1350000803F592C
:100680001AAE4DE7498D49B2350000803F891AAE58
:100690004DE7498D49BF350000803FBC1AE84D2524
:1006A0004AFE4CC3356666E63FE41AB14E7F4B49BD
:1006B0004DC73589410942161BAE4DE7492C53C041
:1006C0003500000041451BAE4DE749514BC1350097
:1006D00000803F701BAE4DE7498D49C23500008058
:1006E0003FA01BAE4DE7498D49CF3500000040D3F8
:1006F0001BE84D254AFE4CD33500007041FB1BB171
:100700004E7F4B494DD73531081C402D1CAE4DE76F
:10071000492C53D035000080405C1CAE4DE7495158
:100720004BD1350000803F871CAE4DE7498D49D243
:10073000350000803FB71CAE4DE7498D49DF3500DD
:10074000004040EA1CE84D254AFE4CE3356666E66B
:100750003F121DB14E7F4B494DE7350000344344F5
:100760001DAE4DE7492C53E03500000041731DAE2E
:100770004DE749514BE1350000803F9E1DAE4DE7EE
:10078000498D49E2350000803FCE1D6A4D894AD926
:1007900052EF350000803FF01DB14E7F4B0B4DF402
:1007A0003500606A461E1EB14E7F4B0B4DF0350082
:1007B000007A444C1EB14E7F4B0B4DF8350000A023
:1007C00043741EB14E7F4B0B4DFC35A493564EA186
:1007D0001EB14E7F4B0B4D00360AD7233CE11EAEB7
:1007E0004DE749B75208360000803F0E1FB14E7FDB
:1007F0004B0B4D09360000FAC43B1FB14E7F4B0B2B
:100800004D0D360000C8426D1FB14E7F4B0B4D1190
:1008100036000010419A1FB14E7F4B0B4D1536002C
:1008200000803FC01F6A4D894AD9521936000080A6
:100830003FE21FB14E7F4B0B4D1E3600606A4610E3
:1008400020B14E7F4B0B4D1A3600007A443E20B14A
:100850004E7F4B0B4D2236000080BF6620B14E7F8D
:100860004B0B4D2636A493564E9320B14E7F4B0B27
:100870004D2A360AD7233CD320AE4DE749B7523232
:1008800036000000000021B14E7F4B0B4D33360087
:10089000007AC42D21B14E7F4B0B4D373600007AC4
:1008A000445F21B14E7F4B0B4D3B360000803F8CA7
:1008B00021B14E7F4B0B4D3F360000803FB2216A85
:1008C0004D894AD95243360000803FD421B14E7F32
:1008D0004B0B4D483600401C460222B14E7F4B0B5D
:1008E0004D443600007A443022B14E7F4B0B4D4CC4
:1008F000360000C8415822B14E7F4B0B4D5036A4F4
:1009000093564E8522B14E7F4B0B4D54360AD7235A
:100910003CC522AE4DE749B7525C360000803FF23D
:1009200022B14E7F4B0B4D5D3600007A441F23B140
:100930004E7F4B0B4D61360000FA435123B14E7F81
:100940004B0B4D6536000010417E23B14E7F4B0BA3
:100950004D69360000A441A4236A4D894AD9526DDD
:10096000360000803FC623E84D254AC6497236004E
:10097000606A47F423E84D254AC6496E360000E117
:10098000452224E84D254AC64976360080BB434CB3
:1009900024E84D254AC6497A365ED0B2507924E81B
:1009A0004D254AC6497E36CDCCCC3DA624E84D2502
:1009B0004AC64982360000803FCC24AE4DE749B795
:1009C0005286360000803FF924E84D254AC6498703
:1009D000360080BB452625E84D254AC6498B3600A2
:1009E0000016445825E84D254AC6498F3600007048
:1009F000418525E84D254AC64993360000803FAB26
:100A0000256A4D894AD952973600000000CD25E865
:100A10004D254AC6499C3600006145FB25E84D2519
:100A20004AC6499836000061452926E84D254AC640
:100A300049A036000080BF5126E84D254AC649A48A
:100A400036A493564E7E26E84D254AC649A8360A56
:100A5000D7233CAB26E84D254AC649AC360000807A
:100A60003FD126AE4DE749B752B0360000803FFE79
:100A700026E84D254AC649B136000016C42B27E8A2
:100A80004D254AC649B5360000C8425D27E84D25C8
:100A90004AC649B9360000A0C08A27E84D254AC693
:100AA00049BD3600000040B0276A4D894AD952C17D
:100AB0003600000000D227E84D254AC649C6360058
:100AC0000061450028E84D254AC649C2360000614C
:100AD000452E28E84D254AC649CA36000080BF5633
:100AE00028E84D254AC649CE36A493564E8328E8B9
:100AF0004D254AC649D2360AD7233CB028E84D25B1
:100B00004AC649D6360000803FD628AE4DE749B7E1
:100B100052DA360000803F0329E84D254AC649DBFA
:100B200036000016C43029E84D254AC649DF360094
:100B300000C8426229E84D254AC649E3360000A0B4
:100B4000C08F29E84D254AC649E73600000040B568
:100B500029E84D254AC649EB360000C842DF29E89E
:100B60004D254AC649EF3600007A44102AE84D2543
:100B70004AC649F3360000FA44412AE84D254AC6E0
:100B800049F7360000003E7E2AE84D254AC649FB5B
:100B900036CDCC4C3EBB2AE84D254AC649FF36002F
:100BA000007A44ED2AE84D254AC64903370000FA89
:100BB000441F2BE84D254AC64907370000003E5E1A
:100BC0002BE84D254AC6490B37CDCC4C3E9D2BE832
:100BD0004D254AC6490F37CDCCCC3DD72BB14E7FE2
:100BE0004B0B4D1F3500000000FF2BB14E7F4B0B10
:100BF0004D233500000000272CB14E7F4B0B4D27B5
:100C000035000000004F2CB14E7F4B0B4D2B3500B3
:100C1000000000772CB14E7F4B0B4D2F35000000AC
:100C2000009F2CB14E7F4B0B4D333500000000C7A9
:100C30002CB14E7F4B0B4D373500000000EF2CB12F
:100C40004E7F4B0B4D3B3500000000172DB14E7F02
:100C50004B0B4D3F35000000003F2DB14E7F4B0B3D
:100C60004D433500000000672DB14E7F4B0B4D47C3
:100C700035000000008F2DB14E7F4B0B4D4B3500E2
:100C8000000000B72DB14E7F4B0B4D4F35000000DB
:100C900000DF2DB14E7F4B0B4D5335000000000798
:100CA0002EB14E7F4B0B4D5735000000002F2EB15B
:100CB0004E7F4B0B4D5B3500000000572EB14E7F31
:100CC0004B0B4D5F35000000007F2EB14E7F4B0B6C
:100CD0004D633500000000A72EB14E7F4B0B4D67D2
:100CE0003500000000CF2EB14E7F4B0B4D6B350011
:100CF000000000F72EB14E7F4B0B4D6F350000000A
:100D0000001F2FB14E7F4B0B4D7335000000004785
:100D10002FB14E7F4B0B4D7735000000006F2FB188
:100D20004E7F4B0B4D7B3500000000972FB14E7F5F
:100D30004B0B4D7F3500000000BF2FB14E7F4B0B9A
:100D40004D833500000000E72FB14E7F4B0B4D87E0
:100D500035000000000F30B14E7F4B0B4D8B35003E
:100D60000000003730B14E7F4B0B4D8F3500000037
:100D7000005F30B14E7F4B0B4D9335000000008774
:100D800030B14E7F4B0B4D973500000000AF30B1B6
:100D90004E7F4B0B4D9B3500000000D730B14E7F8E
:100DA0004B0B4D9F3500000000FF30B14E7F4B0BC9
:100DB0004DA335000000002731B14E7F4B0B4DA7EE
:100DC00035000000004F31B14E7F4B0B4DAB35006D
:100DD0000000007731464A064AA849DD3400000089
:100DE000008231464A064AA849DF34000000008DDF
:100DF00031464A064AA849E13400000000983146CD
:100E00004A064AA849E33400000000A331464A06D6
:100E10004AA849E53400000000AE31464A064AA817
:100E200049E73400000000B931464A064AA849E9BA
:100E30003400000000C431464A064AA849EB340099
:100E4000000000CF31464A064AA849ED34000000B0
:100E500000DA31464A064AA849EF3400000000E5AE
:100E600031464A064AA849F13400000000F03146F4
:100E70004A064AA849F33400000000FB31464A06FE
:100E80004AA849F534000000000632464A064AA83E
:100E900049F734000000001132464A064AA849F9D1
:100EA00034000000001C32464A064AA849FB3400C0
:100EB0000000002732464A064AA849FD34000000D7
:100EC000003232464A064AA849FF34000000003D7D
:100ED00032464A064AA84901350000000048324619
:100EE0004A064AA8490335000000005332464A32F8
:100EF000513E58FE31000000005C32464A32513EFD
:100F000058FE31000000006132464ABC503E58FE97
:100F100031000000006632464ABC503E58FE3100A7
:100F20000000006B32464ABC503E58FE31000000C3
:100F3000007032464ABC503E58FE31000000007539
:100F400032464ABC503E58FE31000000007A32461C
:100F50004ABC503E58FE31000000007F32464ABC79
:100F6000503E58FE31000000008432464ABC503EDC
:100F700058FE31000000008932464ABC503E58FEFF
:100F800031000000008E32464ABC503E58FE31000F
:100F90000000009332464ABC503E58FE310000002B
:100FA000009832464ABC503E58FE3100000000A175
:100FB00032464ABC503E58FE3100000000AA32467C
:100FC0004ABC503E58FE3100000000B332464ABCD5
:100FD000503E58FE3100000000BC32464ABC503E34
:100FE00058FE3100000000C532464ABC503E58FE53
:100FF0003100000000CE32464ABC503E58FE31005F
:10100000000000D732464ABC503E58FE3100000076
:1010100000E032464ABC503E58FE3100000000E974
:1010200032464AF9558B49FE3100000000EE324647
:101030004ADE558B49FE3100000000F332464AC3B8
:10104000558B49FE3100000000F832464A14568B99
:1010500049FE3100000000FD322A67E2498B49FE5B
:1010600031000000002E000A0002330D3318332433
:10107000332D33373341334B33563361336C33784D
:10108000337C3380338533B633CE33EB330B340BC1
:10109000342134373446345534643481349334AC99
:1010A00034CD34F43414352E35483562357C3596DC
:1010B00035B035C235D835DC35E135E635EC35F1BE
:1010C00035F635FA35FF3503360B36123618362528
:1010D000362B36313636363A363E3643364A367257
:1010E00000626400736300636B730025733A2531FB
:1010F0002E33660025733A25312E30660025733A6B
:101100002573000A002C0025312E33660025312E70
:101110003066002573000A002C0066622C66697236
:101120006D776172655F622C5B66625D2020666927
:10113000726D776172655F6275696C642531382EF6
:1011400032660A0066762C6669726D776172655F39
:10115000762C5B66765D20206669726D77617265BC
:101160005F76657273696F6E2531362E32660A00BE
:1011700069642C69642C5B69645D202069645F6428
:101180006576696365253136640A0073692C73746A
:10119000617475735F692C5B73695D202073746182
:1011A0007475735F696E74657276616C202020209F
:1011B0002531302E3066206D73205B303D6F6666C2
:1011C0005D0A0073722C7374617475735F722C0006
:1011D00071722C71756575655F722C007062612C7F
:1011E000706C616E6E65725F6275666665725F6176
:1011F0002C506C616E6E65722062756666657273E6
:101200003A2538640A006C696E652C6C696E655FFE
:101210006E2C4C696E65206E756D6265723A253173
:10122000302E30660A006C69782C6C696E655F69D7
:101230002C4C696E6520696E6465783A253133649B
:101240000A00666565642C666565642C46656564A0
:1012500020726174653A2531362E336625532F6D21
:10126000696E0A00737461742C737461742C4D611F
:101270006368696E652073746174653A202020206C
:1012800020202025730A006D6163732C6D616373E8
:101290002C526177206D616368696E65207374619B
:1012A00074653A20202025730A00637963732C63E8
:1012B0007963732C4379636C652073746174653A48
:1012C00020202020202020202025730A006D6F740C
:1012D000732C6D6F74732C4D6F74696F6E20737403
:1012E0006174653A202020202020202025730A00E8
:1012F000686F6C642C686F6C642C46656564686FFD
:101300006C642073746174653A20202020202025AD
:10131000730A0076656C2C76656C6F636974792C42
:1013200056656C6F636974793A2531372E336625BB
:10133000532F6D696E0A00756E69742C756E697431
:101340002C556E6974733A20202020202020202004
:1013500020202020202025730A00636F6F722C63E9
:101360006F6F722C436F6F7264696E617465207366
:10137000797374656D3A20202025730A006D6F6DB6
:101380006F2C6D6F6D6F2C4D6F74696F6E206D6F6C
:1013900064653A20202020202020202025730A0088
:1013A000706C616E2C706C616E2C506C616E653A65
:1013B0002020202020202020202020202020202528
:1013C000730A00706174682C706174682C506174C9
:1013D00068204D6F64653A202020202020202020A6
:1013E000202025730A00646973742C646973742C5B
:1013F00044697374616E6365206D6F64653A202083
:10140000202020202025730A0066726D6F2C6672E2
:101410006D6F2C466565642072617465206D6F6424
:10142000653A20202020202025730A00706F7378F1
:101430002C706F73782C5820706F736974696F6E9D
:101440003A2531352E336625530A00706F73792C97
:10145000706F73792C5920706F736974696F6E3A6D
:101460002531352E336625530A00706F737A2C7040
:101470006F737A2C5A20706F736974696F6E3A2596
:1014800031352E336625530A00706F73612C706FEF
:1014900073612C4120706F736974696F6E3A2531E6
:1014A000352E336625530A00706F73622C706F738C
:1014B000622C4220706F736974696F6E3A25313502
:1014C0002E336625530A00706F73632C706F73633D
:1014D0002C4320706F736974696F6E3A2531352E15
:1014E000336625530A006D706F782C6D706F782C01
:1014F00058206D61636820706F736974696F6E3A0C
:101500002531302E336625530A006D706F792C6DAE
:10151000706F792C59206D61636820706F736974E6
:10152000696F6E3A2531302E336625530A006D708F
:101530006F7A2C6D706F7A2C5A206D616368207001
:101540006F736974696F6E3A2531302E3366255397
:101550000A006D706F612C6D706F612C41206D61A0
:10156000636820706F736974696F6E3A2531302E2D
:10157000336625530A006D706F622C6D706F622C9C
:1015800042206D61636820706F736974696F6E3A91
:101590002531302E336625530A006D706F632C6D34
:1015A000706F632C43206D61636820706F73697482
:1015B000696F6E3A2531302E336625530A0067393C
:1015C00032782C673932782C58206F726967696ECF
:1015D000206F66667365743A2531302E3366255365
:1015E0000A00673932792C673932792C59206F72A9
:1015F0006967696E206F66667365743A2531302EAF
:10160000336625530A006739327A2C6739327A2CCF
:101610005A206F726967696E206F66667365743AE7
:101620002531302E336625530A00673932612C6725
:101630003932612C41206F726967696E206F66666E
:101640007365743A2531302E336625530A006739A5
:1016500032622C673932622C42206F726967696E80
:10166000206F66667365743A2531302E33662553D4
:101670000A00673932632C673932632C43206F725A
:101680006967696E206F66667365743A2531302E1E
:10169000336625530A0074652C746573742C0068D6
:1016A000652C68656C702C0064652C646566612C23
:1016B000006D73672C6D73672C25730A0067706C5F
:1016C0002C67636F64655F706C2C5B67706C5D206A
:1016D00067636F64655F73656C6563745F706C618D
:1016E0006E652025313064205B302C312C325D0A50
:1016F0000067756E2C67636F64655F752C205B6790
:10170000756E5D2067636F64655F756E6974735F86
:101710006D6F646520202025313064205B302C31D2
:101720005D0A0067636F2C67636F64655F632C20DD
:101730005B67636F5D2067636F64655F636F6F7284
:10174000645F73797374656D2025313064205B317B
:101750002D365D0A006770612C67636F64655F708A
:10176000612C5B6770615D2067636F64655F7061AA
:1017700074685F636F6E74726F6C20253130642003
:101780005B302C312C325D0A006764692C67636F13
:1017900064655F642C205B6764695D2067636F64C8
:1017A000655F64697374616E63655F6D6F64652501
:1017B000313064205B302C315D0A0067632C676335
:1017C0006F642C5B67635D006A612C6A756E632CC5
:1017D0005B6A615D20206A756E6374696F6E5F611C
:1017E0006363656C65726174696F6E25382E30664F
:1017F00025530A006D6C2C6D696E5F6C2C5B6D6CF3
:101800005D20206D696E5F6C696E655F7365676DE5
:10181000656E742020202531342E336625530A004E
:101820006D612C6D696E5F612C5B6D615D20206D5B
:10183000696E5F6172635F7365676D656E742020AA
:1018400020202531342E336625530A006D742C6D0B
:10185000696E5F732C5B6D745D20206D696E5F73C4
:1018600065676D656E745F74696D65202020253134
:10187000302E306620755365630A0069632C6967F2
:101880006E6F72655F632C5B69635D202069676EB4
:101890006F7265204352206F72204C46206F6E207D
:1018A000525820253764205B302C313D43522C3276
:1018B0003D4C465D0A0065632C656E61626C655F38
:1018C000632C5B65635D2020656E61626C655F43C0
:1018D0005220286F6E2054582925313264205B3005
:1018E0002C315D0A0065652C656E61626C655F6513
:1018F0002C5B65655D2020656E61626C655F65636C
:10190000686F20202020202025313264205B302C7D
:10191000315D0A0065782C656E61626C655F782CBC
:101920005B65785D2020656E61626C655F786F6EC7
:101930005F786F6666202025313264205B302C3161
:101940005D0A00656A2C656E61626C655F6A2C5B7E
:10195000656A5D2020656E61626C655F6A736F6E9B
:101960005F6D6F64652025313264205B302C315D02
:101970000A00316D612C6D315F6D612C205B316D22
:10198000615D206D315F6D61705F746F5F6178695B
:101990007325313564205B303D582C20313D592E64
:1019A0002E2E5D0A003173612C6D315F732C202067
:1019B0005B3173615D206D315F737465705F616E63
:1019C000676C652532302E336625530A00317472F8
:1019D0002C6D315F74722C205B3174725D206D311F
:1019E0005F74726176656C5F7065725F7265766F49
:1019F0006C7574696F6E25392E336625530A003174
:101A00006D692C6D315F6D692C205B316D695D20D6
:101A10006D315F6D6963726F73746570732025310A
:101A20003564205B312C322C342C385D0A00317047
:101A30006F2C6D315F706F6C2C5B31706F5D206D42
:101A4000315F706F6C6172697479202020253135A7
:101A500064205B302C315D0A0031706D2C6D315F7C
:101A6000706F772C5B31706D5D206D315F706F77BB
:101A700065725F6D616E6167656D656E742531308D
:101A800064205B302C315D0A00326D612C6D325F59
:101A90006D612C205B326D615D206D325F6D617018
:101AA0005F746F5F6178697325313564205B303D09
:101AB000582C20313D592E2E2E5D0A003273612C98
:101AC0006D325F732C20205B3273615D206D325F5D
:101AD000737465705F616E676C652532302E336696
:101AE00025530A003274722C6D325F74722C205BA5
:101AF0003274725D206D325F74726176656C5F70F6
:101B000065725F7265766F6C7574696F6E25392EBC
:101B1000336625530A00326D692C6D325F6D692C76
:101B2000205B326D695D206D325F6D6963726F732A
:101B3000746570732025313564205B312C322C3470
:101B40002C385D0A0032706F2C6D325F706F6C2C18
:101B50005B32706F5D206D325F706F6C61726974A3
:101B60007920202025313564205B302C315D0A003E
:101B700032706D2C6D325F706F772C5B32706D5DE3
:101B8000206D325F706F7765725F6D616E61676542
:101B90006D656E7425313064205B302C315D0A0038
:101BA000336D612C6D335F6D612C205B336D615D36
:101BB000206D335F6D61705F746F5F61786973254D
:101BC000313564205B303D582C20313D592E2E2E6E
:101BD0005D0A003373612C6D335F732C20205B33FF
:101BE00073615D206D335F737465705F616E676CE8
:101BF000652532302E336625530A003374722C6DFE
:101C0000335F74722C205B3374725D206D335F74AC
:101C1000726176656C5F7065725F7265766F6C7508
:101C200074696F6E25392E336625530A00336D694A
:101C30002C6D335F6D692C205B336D695D206D33D6
:101C40005F6D6963726F73746570732025313564DD
:101C5000205B312C322C342C385D0A0033706F2C11
:101C60006D335F706F6C2C5B33706F5D206D335F15
:101C7000706F6C6172697479202020253135642081
:101C80005B302C315D0A0033706D2C6D335F706FEB
:101C9000772C5B33706D5D206D335F706F7765728D
:101CA0005F6D616E6167656D656E742531306420AE
:101CB0005B302C315D0A00346D612C6D345F6D61D9
:101CC0002C205B346D615D206D345F6D61705F74DD
:101CD0006F5F6178697325313564205B303D582C26
:101CE00020313D592E2E2E5D0A003473612C6D3447
:101CF0005F732C20205B3473615D206D345F7374DF
:101D000065705F616E676C652532302E33662553D2
:101D10000A003474722C6D345F74722C205B34743E
:101D2000725D206D345F74726176656C5F70657290
:101D30005F7265766F6C7574696F6E25392E3366C8
:101D400025530A00346D692C6D345F6D692C205B5E
:101D5000346D695D206D345F6D6963726F73746596
:101D600070732025313564205B312C322C342C38B3
:101D70005D0A0034706F2C6D345F706F6C2C5B34B7
:101D8000706F5D206D345F706F6C61726974792063
:101D9000202025313564205B302C315D0A00347001
:101DA0006D2C6D345F706F772C5B34706D5D206DC2
:101DB000345F706F7765725F6D616E6167656D65C9
:101DC0006E7425313064205B302C315D0A007861FF
:101DD0006D2C785F612C5B78616D5D20785F617838
:101DE00069735F6D6F6465253138642025530A007F
:101DF00078766D2C785F762C5B78766D5D20785FD9
:101E000076656C6F636974795F6D6178696D756D06
:101E10002531352E336625532F6D696E0A0078669D
:101E2000722C785F662C5B7866725D20785F6665E1
:101E30006564726174655F6D6178696D756D25317A
:101E4000352E336625532F6D696E0A0078746D2C1C
:101E5000785F742C5B78746D5D20785F7472617646
:101E6000656C5F6D6178696D756D2531372E3366F0
:101E700025530A00786A6D2C785F6A652C5B786A56
:101E80006D5D20785F6A65726B5F6D6178696D75F5
:101E90006D2531352E306625532F6D696E5E330A00
:101EA00000786A642C785F6A752C5B786A645D20C0
:101EB000785F6A756E6374696F6E5F646576696179
:101EC00074696F6E2531342E3466255320286C6179
:101ED0007267657220697320666173746572290A7E
:101EE0000078736D2C785F732C5B78736D5D207850
:101EF0005F7377697463685F6D6F646525313664FD
:101F0000205B302C312C322C332C345D0A0078735A
:101F1000762C785F732C5B7873765D20785F7365C1
:101F2000617263685F76656C6F63697479253136B9
:101F30002E336625532F6D696E0A00786C762C78E7
:101F40005F6C617463685F762C5B786C765D20787B
:101F50005F6C617463685F76656C6F636974792523
:101F600031372E336625532F6D696E0A00786C6207
:101F70002C785F6C617463685F622C5B786C625D67
:101F800020785F6C617463685F6261636B6F666623
:101F90002531382E336625530A00787A622C785F13
:101FA0007A2C5B787A625D20785F7A65726F5F6207
:101FB00061636B6F66662531392E336625530A00DF
:101FC00079616D2C795F612C5B79616D5D20795F42
:101FD000617869735F6D6F646525313864202553BE
:101FE0000A0079766D2C795F762C5B79766D5D20B1
:101FF000795F76656C6F636974795F6D6178696D1F
:10200000756D2531352E336625532F6D696E0A00A7
:102010007966722C795F662C5B7966725D20795FD8
:1020200066656564726174655F6D6178696D756D13
:102030002531352E336625532F6D696E0A0079746C
:102040006D2C795F742C5B79746D5D20795F74728F
:102050006176656C5F6D6178696D756D2531372EC0
:10206000336625530A00796A6D2C795F6A652C5BAB
:10207000796A6D5D20795F6A65726B5F6D61786901
:102080006D756D2531352E306625532F6D696E5E69
:10209000330A00796A642C795F6A752C5B796A640B
:1020A0005D20795F6A756E6374696F6E5F646576D3
:1020B000696174696F6E2531342E3466255320288A
:1020C0006C617267657220697320666173746572F2
:1020D000290A0079736D2C795F732C5B79736D5DC0
:1020E00020795F7377697463685F6D6F646525310C
:1020F0003664205B302C312C322C332C345D0A00BA
:102100007973762C795F732C5B7973765D20795FB8
:102110007365617263685F76656C6F636974792556
:1021200031362E336625532F6D696E0A00796C7631
:102130002C795F6C617463685F762C5B796C765D7B
:1021400020795F6C617463685F76656C6F63697436
:10215000792531372E336625532F6D696E0A007944
:102160006C622C795F6C617463685F622C5B796C64
:10217000625D20795F6C617463685F6261636B6F3D
:1021800066662531382E336625530A00797A622C2B
:10219000795F7A2C5B797A625D20795F7A65726FFC
:1021A0005F6261636B6F66662531392E3366255336
:1021B0000A007A616D2C7A5F612C5B7A616D5D201B
:1021C0007A5F617869735F6D6F646525313864206B
:1021D00025530A007A766D2C7A5F762C5B7A766DC1
:1021E0005D207A5F76656C6F636974795F6D617885
:1021F000696D756D2531352E336625532F6D696EEA
:102200000A007A66722C7A5F662C5B7A66725D20B1
:102210007A5F66656564726174655F6D6178696D2A
:10222000756D2531352E336625532F6D696E0A0085
:102230007A746D2C7A5F742C5B7A746D5D207A5F92
:1022400074726176656C5F6D6178696D756D25314D
:10225000372E336625530A007A6A6D2C7A5F6A65D9
:102260002C5B7A6A6D5D207A5F6A65726B5F6D6167
:1022700078696D756D2531352E306625532F6D6962
:102280006E5E330A007A6A642C7A5F6A752C5B7A18
:102290006A645D207A5F6A756E6374696F6E5F64ED
:1022A0006576696174696F6E2531342E3466255305
:1022B00020286C617267657220697320666173748F
:1022C0006572290A007A736D2C7A5F732C5B7A73BE
:1022D0006D5D207A5F7377697463685F6D6F6465A5
:1022E00025313664205B302C312C322C332C345D7C
:1022F0000A007A73762C7A5F732C5B7A73765D2092
:102300007A5F7365617263685F76656C6F63697429
:10231000792531362E336625532F6D696E0A007A82
:102320006C762C7A5F6C617463685F762C5B7A6C78
:10233000765D207A5F6C617463685F76656C6F634D
:102340006974792531372E336625532F6D696E0AEE
:10235000007A6C622C7A5F6C617463685F622C5BDC
:102360007A6C625D207A5F6C617463685F6261633E
:102370006B6F66662531382E336625530A007A7AEC
:10238000622C7A5F7A2C5B7A7A625D207A5F7A655A
:10239000726F5F6261636B6F66662531392E3366DB
:1023A00025530A0061616D2C615F612C5B61616D79
:1023B0005D20615F617869735F6D6F646525313899
:1023C000642025530A0061766D2C615F762C5B6179
:1023D000766D5D20615F76656C6F636974795F6DA2
:1023E0006178696D756D2531352E336625532F6DF6
:1023F000696E0A006166722C615F662C5B616672B1
:102400005D20615F66656564726174655F6D6178AA
:10241000696D756D2531352E336625532F6D696EC7
:102420000A0061746D2C615F742C5B61746D5D20BA
:10243000615F74726176656C5F6D6178696D756DF1
:1024400020202531352E336625530A00616A6D2C14
:10245000615F6A652C5B616A6D5D20615F6A6572B0
:102460006B5F6D6178696D756D2531352E30662530
:10247000532F6D696E5E330A00616A642C615F6A76
:10248000752C5B616A645D20615F6A756E63746957
:102490006F6E5F646576696174696F6E2531342E85
:1024A000346625530A006172612C615F722C5B6196
:1024B00072615D20615F7261646975735F76616CE2
:1024C00075652532302E346625530A0061736D2CF4
:1024D000615F732C5B61736D5D20615F73776974FD
:1024E00063685F6D6F646525313664205B302C3125
:1024F0002C322C332C345D0A006173762C615F73AF
:102500002C5B6173765D20615F7365617263685FE8
:1025100076656C6F636974792531362E3366255381
:102520002F6D696E0A00616C762C615F6C6174635B
:10253000685F762C5B616C765D20615F6C617463B3
:10254000685F76656C6F636974792531372E336601
:1025500025532F6D696E0A00616C622C615F6C619E
:102560007463685F622C5B616C625D20615F6C61AB
:102570007463685F6261636B6F66662531382E3302
:102580006625530A00617A622C615F7A2C5B617A5E
:10259000625D20615F7A65726F5F6261636B6F6617
:1025A000662531392E336625530A0062616D2C622F
:1025B0005F612C5B62616D5D20625F617869735F52
:1025C0006D6F6465253138642025530A0062766D8D
:1025D0002C625F762C5B62766D5D20625F76656C47
:1025E0006F636974795F6D6178696D756D253135DB
:1025F0002E336625532F6D696E0A006266722C6257
:102600005F662C5B6266725D20625F666565647200
:102610006174655F6D6178696D756D2531352E3337
:102620006625532F6D696E0A0062746D2C625F74AB
:102630002C5B62746D5D20625F74726176656C5FA5
:102640006D6178696D756D2531372E336625530AB6
:1026500000626A6D2C625F6A652C5B626A6D5D2048
:10266000625F6A65726B5F6D6178696D756D25314A
:10267000352E306625532F6D696E5E330A00626A0F
:10268000642C625F6A752C5B626A645D20625F6ABB
:10269000756E6374696F6E5F646576696174696F86
:1026A0006E2531342E346625530A006272612C6225
:1026B0005F722C5B6272615D20625F72616469753A
:1026C000735F76616C75652532302E346625530A4A
:1026D0000062736D2C625F732C5B62736D5D2062B0
:1026E0005F7377697463685F6D6F64652531366405
:1026F000205B302C312C322C332C345D0A00627379
:10270000762C625F732C5B6273765D20625F73650B
:10271000617263685F76656C6F63697479253136C1
:102720002E336625532F6D696E0A00626C762C621B
:102730005F6C617463685F762C5B626C765D2062AF
:102740005F6C617463685F76656C6F63697479252B
:1027500031372E336625532F6D696E0A00626C6225
:102760002C625F6C617463685F622C5B626C625D9B
:1027700020625F6C617463685F6261636B6F666641
:102780002531382E336625530A00627A622C625F47
:102790007A2C5B627A625D20625F7A65726F5F623B
:1027A00061636B6F66662531392E336625530A00E7
:1027B00063616D2C635F612C5B63616D5D20635FA2
:1027C000617869735F6D6F646525313864202553C6
:1027D0000A0063766D2C635F762C5B63766D5D20FB
:1027E000635F76656C6F636974795F6D6178696D3D
:1027F000756D2531352E336625532F6D696E0A00B0
:102800006366722C635F662C5B6366725D20635F38
:1028100066656564726174655F6D6178696D756D1B
:102820002531352E336625532F6D696E0A0063748A
:102830006D2C635F742C5B63746D5D20635F7472D9
:102840006176656C5F6D6178696D756D2531372EC8
:10285000336625530A00636A6D2C635F6A652C5BDF
:10286000636A6D5D20635F6A65726B5F6D61786935
:102870006D756D2531352E306625532F6D696E5E71
:10288000330A00636A642C635F6A752C5B636A6455
:102890005D20635F6A756E6374696F6E5F646576F1
:1028A000696174696F6E2531342E346625530A00D0
:1028B0006372612C635F722C5B6372615D20635F86
:1028C0007261646975735F76616C75652532302E4F
:1028D000346625530A0063736D2C635F732C5B634E
:1028E000736D5D20635F7377697463685F6D6F6498
:1028F0006525313664205B302C312C322C332C345E
:102900005D0A006373762C635F732C5B6373765D83
:1029100020635F7365617263685F76656C6F63697E
:1029200074792531362E336625532F6D696E0A0072
:10293000636C762C635F6C617463685F762C5B6399
:102940006C765D20635F6C617463685F76656C6F45
:10295000636974792531372E336625532F6D696E7F
:102960000A00636C622C635F6C617463685F622C45
:102970005B636C625D20635F6C617463685F62615E
:10298000636B6F66662531382E336625530A006304
:102990007A622C635F7A2C5B637A625D20635F7A74
:1029A00065726F5F6261636B6F66662531392E33C6
:1029B0006625530A0070776D662C705F662C5B701D
:1029C000776D665D2070776D5F6672657175656E97
:1029D00063792020202531352E3366487A0A00702D
:1029E00033736C2C705F63775F735F6C6F2C5B70FD
:1029F00033736C5D2070776D5F63775F73706565AF
:102A0000645F6C6F202531352E336652504D0A00BD
:102A1000703373682C705F63775F735F68692C5BDA
:102A2000703373685D2070776D5F63775F73706577
:102A300065645F6869202531352E336652504D0A32
:102A4000007033706C2C705F63775F705F6C6F2CFD
:102A50005B7033706C5D2070776D5F63775F70685B
:102A60006173655F6C6F20202020202020202020B3
:102A700025342E3366205B302E2E315D0A007033F4
:102A800070682C705F63775F705F68692C5B703370
:102A900070685D2070776D5F63775F7068617365E4
:102AA0005F68692020202020202020202025342E2F
:102AB0003366205B302E2E315D0A007034736C2C2F
:102AC000705F6363775F735F6C6F2C5B7034736CE4
:102AD0005D2070776D5F6363775F73706565645FBA
:102AE0006C6F2531352E336652504D0A00703473A9
:102AF000682C705F6363775F735F68692C5B703409
:102B000073685D2070776D5F6363775F7370656571
:102B1000645F68692531352E336652504D0A007066
:102B200034706C2C705F6363775F705F6C6F2C5BCD
:102B30007034706C5D2070776D5F6363775F706871
:102B40006173655F6C6F20202020202020202020D2
:102B500025342E3366205B302E2E315D0A00703412
:102B600070682C705F6363775F705F68692C5B705F
:102B70003470685D2070776D5F6363775F70686144
:102B800073655F68692020202020202020202025D8
:102B9000342E3366205B302E2E315D0A0070356F87
:102BA000662C705F6F66662C5B70356F665D20709B
:102BB000776D5F70686173655F6F666620202020A7
:102BC00020202020202020202025342E3366205B4A
:102BD000302E2E315D0A00673534782C6735345F2E
:102BE000782C5B673534785D206735345F785F6FAC
:102BF00066667365742532302E336625530A006786
:102C00003534792C6735345F792C5B673534795DE1
:102C1000206735345F795F6F66667365742532307F
:102C20002E336625530A006735347A2C6735345FB6
:102C30007A2C5B6735347A5D206735345F7A5F6F55
:102C400066667365742532302E336625530A006735
:102C50003534612C6735345F612C5B673534615DD9
:102C6000206735345F615F6F666673657425323047
:102C70002E336625530A00673534622C6735345F7E
:102C8000622C5B673534625D206735345F625F6F4D
:102C900066667365742532302E336625530A0067E5
:102CA0003534632C6735345F632C5B673534635D83
:102CB000206735345F635F6F6666736574253230F5
:102CC0002E336625530A00673535782C6735355F16
:102CD000782C5B673535785D206735355F785F6FB9
:102CE00066667365742532302E336625530A006795
:102CF0003535792C6735355F792C5B673535795DEE
:102D0000206735355F795F6F66667365742532308D
:102D10002E336625530A006735357A2C6735355FC3
:102D20007A2C5B6735357A5D206735355F7A5F6F62
:102D300066667365742532302E336625530A006744
:102D40003535612C6735355F612C5B673535615DE5
:102D5000206735355F615F6F666673657425323055
:102D60002E336625530A00673535622C6735355F8B
:102D7000622C5B673535625D206735355F625F6F5A
:102D800066667365742532302E336625530A0067F4
:102D90003535632C6735355F632C5B673535635D8F
:102DA000206735355F635F6F666673657425323003
:102DB0002E336625530A00673536782C6735365F23
:102DC000782C5B673536785D206735365F785F6FC6
:102DD00066667365742532302E336625530A0067A4
:102DE0003536792C6735365F792C5B673536795DFA
:102DF000206735365F795F6F66667365742532309C
:102E00002E336625530A006735367A2C6735365FD0
:102E10007A2C5B6735367A5D206735365F7A5F6F6F
:102E200066667365742532302E336625530A006753
:102E30003536612C6735365F612C5B673536615DF1
:102E4000206735365F615F6F666673657425323063
:102E50002E336625530A00673536622C6735365F98
:102E6000622C5B673536625D206735365F625F6F67
:102E700066667365742532302E336625530A006703
:102E80003536632C6735365F632C5B673536635D9B
:102E9000206735365F635F6F666673657425323011
:102EA0002E336625530A00673537782C6735375F30
:102EB000782C5B673537785D206735375F785F6FD3
:102EC00066667365742532302E336625530A0067B3
:102ED0003537792C6735375F792C5B673537795D06
:102EE000206735375F795F6F6666736574253230AA
:102EF0002E336625530A006735377A2C6735375FDE
:102F00007A2C5B6735377A5D206735375F7A5F6F7C
:102F100066667365742532302E336625530A006762
:102F20003537612C6735375F612C5B673537615DFD
:102F3000206735375F615F6F666673657425323071
:102F40002E336625530A00673537622C6735375FA5
:102F5000622C5B673537625D206735375F625F6F74
:102F600066667365742532302E336625530A006712
:102F70003537632C6735375F632C5B673537635DA7
:102F8000206735375F635F6F66667365742532301F
:102F90002E336625530A00673538782C6735385F3D
:102FA000782C5B673538785D206735385F785F6FE0
:102FB00066667365742532302E336625530A0067C2
:102FC0003538792C6735385F792C5B673538795D12
:102FD000206735385F795F6F6666736574253230B8
:102FE0002E336625530A006735387A2C6735385FEB
:102FF0007A2C5B6735387A5D206735385F7A5F6F8A
:1030000066667365742532302E336625530A006771
:103010003538612C6735385F612C5B673538615D09
:10302000206735385F615F6F66667365742532307F
:103030002E336625530A00673538622C6735385FB2
:10304000622C5B673538625D206735385F625F6F81
:1030500066667365742532302E336625530A006721
:103060003538632C6735385F632C5B673538635DB3
:10307000206735385F635F6F66667365742532302D
:103080002E336625530A00673539782C6735395F4A
:10309000782C5B673539785D206735395F785F6FED
:1030A00066667365742532302E336625530A0067D1
:1030B0003539792C6735395F792C5B673539795D1E
:1030C000206735395F795F6F6666736574253230C6
:1030D0002E336625530A006735397A2C6735395FF8
:1030E0007A2C5B6735397A5D206735395F7A5F6F97
:1030F00066667365742532302E336625530A006781
:103100003539612C6735395F612C5B673539615D15
:10311000206735395F615F6F66667365742532308D
:103120002E336625530A00673539622C6735395FBF
:10313000622C5B673539625D206735395F625F6F8E
:1031400066667365742532302E336625530A006730
:103150003539632C6735395F632C5B673539635DBF
:10316000206735395F635F6F66667365742532303B
:103170002E336625530A00737230302C7372303050
:103180002C00737230312C737230312C007372301A
:10319000322C737230322C00737230332C737230D5
:1031A000332C00737230342C737230342C007372F1
:1031B00030352C737230352C00737230362C7372AC
:1031C00030362C00737230372C737230372C00730A
:1031D0007230382C737230382C00737230392C7383
:1031E0007230392C00737231302C737231302C00F4
:1031F000737231312C737231312C00737231322C75
:10320000737231322C00737231332C737231332C60
:1032100000737231342C737231342C007372313577
:103220002C737231352C00737231362C7372313637
:103230002C00737231372C737231372C007372315A
:10324000382C737231382C00737231392C7372310F
:10325000392C007379732C7379732C00732C732CB5
:1032600000312C312C00322C322C00332C332C002A
:10327000342C342C00782C782C00792C792C007A82
:103280002C7A2C00612C612C00622C622C00632CA7
:10329000632C00702C702C006735342C6735342C6F
:1032A000006735352C6735352C006735362C67358A
:1032B000362C006735372C6735372C006735382CAE
:1032C0006735382C006735392C6735392C0067395C
:1032D000322C6739322C00706F732C706F732C0096
:1032E0006D706F2C6D706F2C006D2C6D2C006E2C22
:1032F0006E2C006F2C6F2C00242C242C00682C6862
:103300002C005B64697361626C65645D005B73745F
:10331000616E646172645D005B696E6869626974A4
:1033200065645D005B7261646975735D005B736CFD
:1033300061766520585D005B736C61766520595D30
:10334000005B736C617665205A5D005B736C61761F
:10335000652058595D005B736C61766520585A5D35
:10336000005B736C61766520595A5D005B736C611C
:1033700076652058595A5D0020696E00206D6D00F9
:103380002064656700473934202D20756E69747399
:103390002D7065722D6D696E757465206D6F646535
:1033A0002028692E652E206665656472617465202B
:1033B0006D6F64652900473933202D20696E76656D
:1033C0007273652074696D65206D6F64650047399F
:1033D00030202D206162736F6C7574652064697391
:1033E00074616E6365206D6F646500473931202D0F
:1033F00020696E6372656D656E74616C20646973BB
:1034000074616E6365206D6F646500473631202DF1
:103410002065786163742073746F70206D6F6465CC
:1034200000473634202D20636F6E74696E756F759A
:1034300073206D6F646500473137202D2058592067
:10344000706C616E6500473138202D20585A20700D
:103450006C616E6500473139202D20595A20706CFF
:10346000616E6500473020202D206C696E656172A9
:1034700020747261766572736520287365656B29A7
:1034800000473120202D206C696E656172206665D1
:10349000656400473220202D20636C6F636B776971
:1034A0007365206172632066656564004733202080
:1034B0002D20636F756E74657220636C6F636B771C
:1034C0006973652061726320666565640047383002
:1034D000202D2063616E63656C206D6F74696F6E63
:1034E000206D6F646520286E6F6E6520616374695E
:1034F00076652900473533202D206D616368696E3C
:103500006520636F6F7264696E617465207379738F
:1035100074656D00473534202D20636F6F726469C8
:103520006E6174652073797374656D203100473561
:1035300035202D20636F6F7264696E61746520732E
:10354000797374656D203200473536202D20636F06
:103550006F7264696E6174652073797374656D2030
:103560003300473537202D20636F6F7264696E61B9
:1035700074652073797374656D2034004735382085
:103580002D20636F6F7264696E6174652073797347
:1035900074656D203500473539202D20636F6F72BB
:1035A00064696E6174652073797374656D2036008B
:1035B000473230202D20696E63686573206D6F641B
:1035C0006500473231202D206D696C6C696D657422
:1035D0006572206D6F6465004F66660053796E6397
:1035E00000506C616E00446563656C00486F6C64EC
:1035F0000053746F700052756E00486F6C64004F1A
:103600006666005374617274656400486F6D696E1C
:10361000670050726F626500496E697469616C6918
:103620007A696E67005265736574004379636C65EF
:103630000053746F7000456E640052756E00486FE1
:103640006C6400486F6D696E67004A6F67002937C8
:103650003837543757375D376437693772377D37B6
:10366000853791379D37AB37C237D137DE37F237E1
:103670000A380E38123816381A381E382D384238A3
:10368000573866386A386E38723876387A387E3805
:10369000823886388A388E38923896389A389E38EA
:1036A000A238A638BB38D338E538FE3814392A3961
:1036B00042395A396C398A399E39A239A639AA3920
:1036C000AE39B239B639BA39BE39C239D339E73928
:1036D000F9390E3A263A423A563A6A3A853A456EEE
:1036E00064206F6620636F6D6D616E642066696C27
:1036F000650A00255325530074696E7967005B697C
:103700006E63685D206F6B3E200025532553005B80
:103710006D6D5D206F6B3E20006572726F723A2096
:1037200025533A202573200A003C6E756C6C206D81
:103730006573736167653E004C6F6164696E6720F5
:10374000636F6E666967732066726F6D20454550C2
:10375000524F4D004F4B004572726F7200456167CA
:1037600061696E004E6F6F7000436F6D706C6574B1
:1037700065005465726D696E617465640041626FC5
:103780007274656400456E64206F66206C696E65B6
:1037900000456E64206F662066696C650046696C42
:1037A00065206E6F74206F70656E004D61782066C5
:1037B000696C652073697A65206578636565646501
:1037C00064004E6F20737563682064657669636575
:1037D0000042756666657220656D70747900427589
:1037E000666665722066756C6C202D20666174615A
:1037F0006C004275666665722066756C6C202D20C3
:103800006E6F6E2D666174616C002331350023315B
:103810003600233137002331380023313900496E17
:103820007465726E616C206572726F7200496E749D
:1038300065726E616C2072616E6765206572726F71
:103840007200466C6F6174696E6720706F696E7488
:10385000206572726F7200446976696465206279CE
:10386000207A65726F002332340023323500233210
:103870003600233237002332380023323900233315
:10388000300023333100233332002333330023331A
:1038900034002333350023333600233337002333FA
:1038A000380023333900556E7265636F676E697A2D
:1038B000656420636F6D6D616E640045787065634B
:1038C00074656420636F6D6D616E64206C657474E3
:1038D000657200426164206E756D62657220666F6C
:1038E000726D617400496E707574206578636565EA
:1038F0006473206D6178206C656E67746800496E32
:103900007075742076616C756520746F6F20736DAF
:10391000616C6C00496E7075742076616C75652001
:10392000746F6F206C6172676500496E70757420EA
:1039300076616C75652072616E6765206572726F65
:103940007200496E7075742076616C756520756EB5
:10395000737570706F72746564004A534F4E2073B4
:10396000796E746178206572726F72004A534F4E9F
:1039700020696E7075742068617320746F6F206D9C
:10398000616E79207061697273004F7574206F6683
:103990002062756666657220737061636500233509
:1039A00031002335320023353300233534002335ED
:1039B00035002335360023353700233538002335CD
:1039C00039005A65726F206C656E677468206D6F80
:1039D00076650047636F646520626C6F636B20736C
:1039E0006B69707065640047636F646520696E7011
:1039F0007574206572726F720047636F646520662C
:103A000065656472617465206572726F72004763E8
:103A10006F6465206178697320776F7264206D69C7
:103A20007373696E670047636F6465206D6F6461CF
:103A30006C2067726F75702076696F6C6174696F46
:103A40006E00486F6D696E67206379636C652066F0
:103A500061696C6564004D61782074726176656C93
:103A6000206578636565646564004D6178207370D6
:103A7000696E646C65207370656564206578636544
:103A8000656465640041726320737065636966698B
:103A9000636174696F6E206572726F7200232323F5
:103AA000232054696E79472048656C7020232323B6
:103AB000230A00546865736520636F6D6D616E64E1
:103AC0007320617265206163746976652066726F28
:103AD0006D2074686520636F6D6D616E64206C6924
:103AE0006E653A0A205E78202020202041626F72A5
:103AF000742028636F6E74726F6C207829202D20DB
:103B00007265736574732045564552595448494E41
:103B100047210A20203F20202020204D6163686932
:103B20006E6520706F736974696F6E20616E6420BA
:103B300067636F6465206D6F64656C207374617476
:103B4000650A202024202020202053686F772061E0
:103B50006E642073657420636F6E66696775726149
:103B600074696F6E2073657474696E67730A2020C0
:103B700021202020202046656564686F6C64202D1C
:103B80002073746F70206D6F74696F6E2077697425
:103B9000686F7574206C6F73696E6720706F7369DE
:103BA00074696F6E0A20207E2020202020437963D4
:103BB0006C65205374617274202D2072657374617A
:103BC00072742066726F6D2066656564686F6C64E0
:103BD0000A202068202020202053686F77207468F6
:103BE00069732068656C702073637265656E0A2066
:103BF0002024682020202053686F7720636F6E6632
:103C0000696775726174696F6E2068656C70207386
:103C1000637265656E0A20202474657374204C6994
:103C200073742073656C662D74657374730A202039
:103C30002464656661756C74733D312052657374DC
:103C40006F726520616C6C2073657474696E677344
:103C500020746F2022666163746F7279222064651C
:103C60006661756C74730A000A4E6F74653A20546D
:103C7000696E79472067656E65726174657320614E
:103C800075746F6D617469632073746174757320EA
:103C90007265706F727473206279206465666175F5
:103CA0006C740A546869732063616E2062652064D5
:103CB000697361626C656420627920656E746572F7
:103CC000696E67202473693D300A53656520746806
:103CD000652077696B692062656C6F7720666F720B
:103CE000206D6F72652064657461696C732E0A00C3
:103CF0000A466F722064657461696C65642054695A
:103D00006E794720696E666F207365653A20687426
:103D100074703A2F2F7777772E73796E7468657485
:103D20006F732E636F6D2F77696B692F696E646592
:103D3000782E7068703F7469746C653D50726F6A5C
:103D4000656374733A54696E79470A466F722074DA
:103D50006865206C6174657374206669726D776143
:103D60007265207365653A2068747470733A2F2FFA
:103D70006769746875622E636F6D2F73796E7468EE
:103D800065746F732F54696E79470A506C6561735F
:103D900065206C6F6720616E792069737375657338
:103DA00020617420687474703A2F2F7777772E73A0
:103DB000796E746865746F732E636F6D2F666F72A2
:103DC000756D730A486176652066756E0A00232357
:103DD00023232054696E794720434F4E4649475567
:103DE000524154494F4E2048656C702023232323B1
:103DF0000A00546865736520636F6D6D616E64734E
:103E0000206172652061637469766520666F722037
:103E1000636F6E66696775726174696F6E3A0A20C6
:103E200020247379732053686F77207379737465D6
:103E30006D202867656E6572616C292073657474E6
:103E4000696E67730A2020243120202053686F7721
:103E5000206D6F746F7220312073657474696E67A2
:103E60007320286F72207768617465766572206DA3
:103E70006F746F7220796F752077616E7420312CAA
:103E8000322C332C34290A20202478202020536817
:103E90006F77205820617869732073657474696E38
:103EA000677320286F722077686174657665722069
:103EB0006178697320796F752077616E7420782C32
:103EC000792C7A2C612C622C63290A2020246D2005
:103ED000202053686F7720616C6C206D6F746F7257
:103EE0002073657474696E67730A2020246E202025
:103EF0002053686F7720616C6C2061786973207340
:103F0000657474696E67730A20202424202020536E
:103F1000686F7720616C6C2073657474696E677369
:103F20000A2020246820202053686F772074686955
:103F3000732068656C702073637265656E0A0A0091
:103F400045616368202420636F6D6D616E6420613C
:103F5000626F766520616C736F20646973706C6149
:103F600079732074686520746F6B656E20666F725C
:103F700020656163682073657474696E6720696E7B
:103F8000205B205D20627261636B6574730A546FFD
:103F900020766965772073657474696E6773206530
:103FA0006E746572206120746F6B656E3A0A0A2028
:103FB00020243C746F6B656E3E0A0A466F72206562
:103FC00078616D706C65202479667220746F20644E
:103FD0006973706C6179207468652059206D61780F
:103FE000206665656420726174650A0A546F2075E5
:103FF00070646174652073657474696E677320659D
:104000006E74657220746F6B656E20657175616C7E
:10401000732076616C75653A0A0A2020243C746F1F
:104020006B656E3E3D3C76616C75653E0A0A466F77
:1040300072206578616D706C6520247966723D38F8
:10404000303020746F2073657420746865205920A7
:104050006D61782066656564207261746520746F97
:1040600020383030206D6D2F6D696E7574650A00D3
:10407000232323232054696E79472053454C46203F
:10408000544553542048656C7020232323230A0091
:10409000496E766F6B652073656C6620746573740A
:1040A00020627920656E746572696E67202474657C
:1040B00073743D4E207768657265204E20697320C9
:1040C0006F6E65206F663A0A202024746573743D14
:1040D000312020736D6F6B6520746573740A202026
:1040E00024746573743D3220206D6F74696F6E2087
:1040F000746573742020202861207365726965736C
:10410000206F662073717561726520616E64206333
:104110006972636C65206D6F766573290A202024AF
:10412000746573743D332020617263207465737409
:1041300020202020202028736F6D65206C6172671D
:104140006520636972636C6573290A202024746595
:1041500073743D3420206477656C6C2074657374CF
:1041600020202020286D6F76657320737061636551
:10417000642062792031207365636F6E64206477F8
:10418000656C6C73290A202024746573743D352096
:1041900020686F6D696E6720746573742020202815
:1041A000796F75206D757374207472697020686FF3
:1041B0006D696E67207377697463686573290A2077
:1041C0002024746573743D36202066656564686FCD
:1041D0006C6420746573742028656E746572202188
:1041E00020616E64207E20746F20686F6C64206193
:1041F0006E6420726573746172742C2072657370C2
:104200006563746976656C79290A20202474657366
:10421000743D3720204D20636F646573207465738F
:10422000742020284D20636F64657320696E746567
:10423000726D696E676C65642077697468206D6F54
:10424000766573290A202024746573743D38202014
:104250004A534F4E20746573742020202020286D0F
:104260006F74696F6E20746573742072756E20753B
:1042700073696E67204A534F4E20636F6D6D616E98
:104280006473290A202024746573743D39202069E1
:104290006E76657273652074696D652074657374DC
:1042A0000A202024746573743D313020726F74616C
:1042B0007279206D6F74696F6E20746573740A0073
:1042C000232323232054696E794720524553544FAA
:1042D00052452044454641554C54532048656C7026
:1042E00020232323230A00456E746572202464650D
:1042F0006661756C74733D3120746F2072657365EF
:1043000074207468652073797374656D20746F20F0
:1043100074686520666163746F7279206465666194
:10432000756C742076616C7565732E0A54686973B8
:104330002077696C6C206F7665727772697465207E
:10434000616E79206368616E67657320796F75208F
:1043500068617665206D6164652E0A005F63616C3B
:1043600063756C6174655F74726170657A6F69649E
:104370002829206661696C656420746F20636F6E04
:104380007665726765007372007172006C697800FF
:10439000706261007172004E312054314D360A4E08
:1043A00032204731370A4E33204732310A4E382007
:1043B00046313830300A4E392047310A4E313030DC
:1043C0002047393220582D32352E313737592D3389
:1043D000342E303732205A2D312E303030202854B0
:1043E000454D502C2052454D4F5645204C4154458B
:1043F00052290A4E33343320582D32352E35393573
:10440000592D33342E3334390A4E33343420582D59
:1044100032352E373031592D33342E3433360A4E5F
:1044200033343520582D32352E373931592D333428
:104430002E3532300A4E33343620582D32352E3850
:104440003634592D33342E3630310A4E333437203A
:10445000582D32352E393230592D33342E363739E6
:104460000A4E33343820582D32352E393630592DF6
:1044700033342E3735340A4E33343920582D323503
:104480002E393832592D33342E3832360A4E3335E0
:104490003020582D32352E393837592D33342E38B7
:1044A00039350A4E33353120582D32352E393736CD
:1044B000592D33342E3936310A4E33353220582DAA
:1044C00032352E393438592D33352E3032330A4EA9
:1044D00033353320582D32352E393033592D33357D
:1044E0002E3038320A4E33353420582D32352E389E
:1044F0003431592D33352E3133380A4E333535208A
:10450000582D32352E373633592D33352E3139303B
:104510000A4E33353620582D32352E363639592D40
:1045200033352E3233390A4E33353720582D323554
:104530002E353539592D33352E3238340A4E333530
:104540003820582D32352E343333592D33352E3310
:1045500032350A4E33353920582D32352E32393125
:10456000592D33352E3336330A4E33363020582DFD
:1045700032352E313334592D33352E3339370A4EF7
:1045800033363120582D32342E393633592D3335C8
:104590002E3432380A4E33363220582D32342E37EC
:1045A0003737592D33352E3435350A4E33363320CF
:1045B000582D32342E353737592D33352E34373781
:1045C0000A4E33363420582D32342E333637592D97
:1045D00033352E3439360A4E33363520582D3234A1
:1045E0002E313434592D33352E3531310A4E333690
:1045F0003620582D32332E393039592D33352E355A
:1046000032320A4E33363720582D32332E36363179
:10461000592D33352E3532390A4E33363820582D40
:1046200032332E343033592D33352E3533320A4E52
:1046300033363920582D32332E313333592D33351B
:104640002E3533320A4E33373020582D32322E3841
:104650003533592D33352E3532370A2F4E32353119
:104660003820473058302E333237592D33332E35DA
:1046700032315A2D312E3030300A4E323531392018
:104680004D3330004E31204732300A4E352047340A
:1046900030204731370A4E3130205431204D3036EA
:1046A0000A284E31352047393020473020583020F5
:1046B0005930205A30290A4E3230205335303030AC
:1046C000204D3033200A4E32352058302E303634CB
:1046D0002059302E333236205A300A4E343020479B
:1046E0003031204631362E300A4E35302058302EAB
:1046F0003036342059302E3332360A4E3535205874
:10470000302E3036302059302E3239330A4E363082
:104710002058302E3037372059302E3236370A4E57
:1047200036352058302E3131312059302E32353740
:104730000A4E37302058302E3134392059302E323D
:1047400035320A4E37352058302E3138382059301E
:104750002E3235350A4E38302058302E323237203E
:1047600059302E3236380A4E38352058302E3235F0
:10477000372059302E3237310A4E39302058302EFA
:104780003333352059302E3236350A4E39352058DC
:10479000302E3431322059302E3237310A4E3130FA
:1047A000302058302E3437342059302E3238370AE2
:1047B0004E3130352058302E3439312059302E3298
:1047C00038390A4E3131302058302E3531372059A2
:1047D000302E3237330A4E3131352058302E3534B1
:1047E000342059302E3236330A4E31323020583090
:1047F0002E3538302059302E3236310A4E3132358E
:104800002058302E3539352059302E3236330A4E65
:104810003133302058302E3632312059302E323755
:10482000340A4E3133352058302E36353920593040
:104830002E3330360A4E3134302058302E3637334E
:104840002059302E3333350A4E3134352058302E2E
:104850003637392059302E3336310A4E3135302033
:1048600058302E3637382059302E3338390A4E31E9
:1048700035352058302E3637302059302E343230EE
:104880000A4E3136302058302E3637302059302EEF
:104890003434360A4E3136352058302E36383020F2
:1048A00059302E3437340A4E3137302058302E37B5
:1048B00030342059302E3439370A4E3137352058AC
:1048C000302E3733322059302E3531350A4E3138BB
:1048D000302058302E3739342059302E3533350AB0
:1048E0004E3138352058302E3837322059302E3559
:1048F00036370A4E3139302058302E39353020596C
:10490000302E3630340A4E3139352058312E30337E
:10491000312059302E3634370A4E3230302058315B
:104920002E3134392059302E3732320A4E3230355A
:104930002058312E3330382059302E3835340A4E35
:104940003231302058312E3433302059302E39381E
:10495000340A4E3231352058312E34343720593014
:104960002E3938360A4E3232302058312E3632380F
:104970002059302E3832320A4E3232352058312EFC
:104980003733322059302E3731340A4E323330200B
:1049900058322E3030392059302E3338310A4E32C9
:1049A00033352058322E3131362059302E323636BA
:1049B0000A4E3234302058322E3232382059302EBE
:1049C0003135370A4E3234352058322E32383020C5
:1049D00059302E3132330A4E3235302058322E3390
:1049E00033322059302E3039340A4E323535205882
:1049F000322E3432332059302E3037300A4E323690
:104A0000302058322E3438392059302E3036350A7D
:104A10004E3236352058322E3535372059302E302B
:104A200036360A4E3237302058322E363237205939
:104A3000302E3038340A4E3237352058322E36393F
:104A4000332059302E3130390A4E32383020583226
:104A50002E3733302059302E3133330A4E32383529
:104A60002058322E3830352059302E3139300A4E08
:104A70003239302058322E3832392059302E3231E6
:104A8000360A4E3239352058322E383830205930D7
:104A90002E3239310A4E3330302058322E383834E5
:104AA0002059302E3330300A4E3330352058322ED4
:104AB0003839382059302E3333320A4E33313020D2
:104AC00058322E3930352059302E3336370A4E338E
:104AD00031352058322E3931302059302E3430378C
:104AE0000A4E3332302058322E3930382059302E89
:104AF0003434360A4E3332352058322E3930312094
:104B000059302E3439350A4E3333302058322E384E
:104B100039372059302E3439350A4E333335205841
:104B2000322E3839302059302E3532340A4E333453
:104B3000302058322E3834322059302E3630340A54
:104B40004E3334352058322E3831342059302E36F9
:104B500036350A4E3335302058322E373934205905
:104B6000302E3735300A4E3335352058322E37390E
:104B7000312059302E3833380A4E333630205832EF
:104B80002E3831392059302E3937360A4E333635E2
:104B90002058322E3833372059312E3034340A4ED3
:104BA0003337302058322E3836322059312E3131B9
:104BB000320A4E3337352058322E383737205931A4
:104BC0002E3134350A4E3338302058322E393132B6
:104BD0002059312E3231370A4E3338352058322E93
:104BE0003931372059312E3232360A4E333930209E
:104BF00058322E3935312059312E3238310A4E3360
:104C000039352058322E3937302059312E32393546
:104C10000A4E3430302058322E3939362059312E50
:104C20003239350A4E3430352058332E3031332066
:104C300059312E3237350A4E3431302058332E3028
:104C400032342059312E3235340A4E343135205821
:104C5000332E3037302059312E3135310A4E34322F
:104C6000302058332E3037372059312E3133340A23
:104C70004E3432352058332E3132352059312E30D2
:104C800033390A4E3433302058332E3133382059DB
:104C9000312E3031390A4E3433352058332E3230EC
:104CA000352059302E3930380A4E343430205833BC
:104CB0002E3238322059302E3739370A4E343435B7
:104CC0002058332E3336312059302E3639310A4EA2
:104CD0003435302058332E3432362059302E353981
:104CE000320A4E3435352058332E3435362059307B
:104CF0002E3534330A4E3436302058332E3437397B
:104D00002059302E3439330A4E3436352058332E5C
:104D10003439342059302E3437320A4E343730206B
:104D200058332E3530352059302E3434360A4E342F
:104D300037352058332E3531382059302E3431371D
:104D40000A4E3438302058332E3533302059302E27
:104D50003339310A4E3438352058332E3536342025
:104D600059302E3330300A4E3439302058332E35F6
:104D700037372059302E3235330A4E3439352058E2
:104D8000332E3536382059302E3231320A4E3530F6
:104D9000302058332E3534342059302E3137360AEE
:104DA0004E3530352058332E3534312059302E31A0
:104DB00034360A4E3531302058332E3535332059AC
:104DC000302E3131390A4E3531352058332E3537B2
:104DD000362059302E3130360A4E35323020583395
:104DE0002E3539372059302E3130320A4E35323592
:104DF0002058332E3631382059302E3130390A4E72
:104E00003533302058332E3633392059302E313255
:104E1000390A4E3533352058332E36353020593047
:104E20002E3135390A4E3534302058332E3636334C
:104E30002059302E3137380A4E3534352058332E2C
:104E40003637382059302E3139320A4E3535302038
:104E500058332E3639392059302E3139370A4E35EC
:104E600035352058332E3732332059302E313936EC
:104E70000A4E3536302058332E3736342059302EEE
:104E80003137390A4E3536352058332E38303520F3
:104E900059302E3136350A4E3537302058332E38BA
:104EA00038342059302E3135390A4E3537352058AF
:104EB000332E3934392059302E3136350A4E3538B3
:104EC000302058332E3936362059302E3137350AB6
:104ED0004E3538352058332E3937382059302E3159
:104EE00039340A4E3539302058332E393738205965
:104EF000302E3232330A4E3539352058332E39367A
:104F0000302059302E3234350A4E36303020583366
:104F10002E3833342059302E3331310A4E36303565
:104F20002058332E3736322059302E3334350A4E3E
:104F30003631302058332E3732362059302E333820
:104F4000390A4E3631352058332E37303320593018
:104F50002E3435380A4E3632302058332E36383219
:104F60002059302E3533300A4E3632352058332E04
:104F70003637392059302E3533340A4E3633302007
:104F800058332E3632362059302E3638310A4E36C6
:104F900033352058332E3536382059302E383238B4
:104FA0000A4E3634302058332E3434342059312EC2
:104FB0003038300A4E3634352058332E34303520D0
:104FC00059312E3136370A4E3635302058332E348B
:104FD00030342059312E3136370A4E363535205887
:104FE000332E3338372059312E3230380A4E363688
:104FF000302058332E3338342059312E3230380A8D
:105000004E3636352058332E3336352059312E3230
:1050100036350A4E3637302058332E333535205941
:10502000312E3238350A4E3637352058332E333448
:10503000382059312E3330380A4E36383020583324
:105040002E3333332059312E3335300A4E3638352E
:105050002058332E3332312059312E3339310A4E14
:105060003639302058332E3331312059312E3432F5
:10507000380A4E3639352058332E333339205931DA
:105080002E3432330A4E3730302058332E343430F9
:105090002059312E3430360A4E3730352058332ED1
:1050A0003531302059312E3430380A4E37313020E6
:1050B00058332E3538352059312E3432310A4E3797
:1050C00031352058332E3631312059312E34333991
:1050D0000A4E3732302058332E3631312059312E96
:1050E0003434310A4E3732352058332E363135209C
:1050F00059312E3434310A4E3733302058332E365E
:1051000033362059312E3438380A4E37333520584B
:10511000332E3633342059312E3531370A4E373459
:10512000302058332E3632322059312E3534330A5E
:105130004E3734352058332E3630352059312E3500
:1051400036330A4E3735302058332E35373620590E
:10515000312E3537350A4E3735352058332E353414
:10516000342059312E3538310A4E373630205833F5
:105170002E3437392059312E3539320A4E373635EB
:105180002058332E3435312059312E3539380A4ED6
:105190003737302058332E3338372059312E3632B6
:1051A000360A4E3737352058332E333930205931AF
:1051B0002E3633360A4E3738302058332E353332B8
:1051C0002059312E3630320A4E3738352058332E9A
:1051D0003630312059312E3539370A4E37393020A3
:1051E00058332E3636382059312E3539380A4E3755
:1051F00039352058332E3738322059312E36313256
:105200000A4E3830302058332E3739342059312E59
:105210003631380A4E3830352058332E383638205B
:1052200059312E3633360A4E3831302058332E3924
:1052300031382059312E3635350A4E38313520581F
:10524000332E3934352059312E3636370A4E38321E
:10525000302058332E3936342059312E3638350A1D
:105260004E3832352058332E3936372059312E36C4
:1052700038350A4E3833302058332E3937342059D8
:10528000312E3639390A4E3833352058332E3938D5
:10529000342059312E3732350A4E383430205833C5
:1052A0002E3938342059312E3735380A4E383435B6
:1052B0002058332E3937302059312E3739300A4EA5
:1052C0003835302058332E3934352059312E383185
:1052D000370A4E3835352058332E39313820593178
:1052E0002E3832360A4E3836302058332E3839317F
:1052F0002059312E3832370A4E3836352058332E61
:105300003834322059312E3830390A4E383730206F
:1053100058332E3739382059312E3738340A4E3821
:1053200037352058332E3734362059312E3737321F
:105330000A4E3838302058332E3639382059312E1D
:105340003736340A4E3838352058332E3633352028
:1053500059312E3736360A4E3839302058332E35EB
:1053600035332059312E3738350A4E3839352058E3
:10537000332E3437382059312E3832300A4E3930F6
:10538000302058332E3430392059312E3836340AF3
:105390004E3930352058332E3334352059312E399B
:1053A00031380A4E3931302058332E3236342059B4
:1053B000322E3032330A4E3931352058332E3234C2
:1053C000382059322E3035310A4E39323020583398
:1053D0002E3234302059322E3038310A4E3932359F
:1053E0002058332E3331362059322E3038360A4E7B
:1053F0003933302058332E3339302059322E313062
:10540000340A4E3933352058332E34313420593252
:105410002E3132310A4E3934302058332E34333164
:105420002059322E3135330A4E3934352058332E37
:105430003433332059322E3138300A4E393530204A
:1054400058332E3432372059322E3230350A4E3905
:1054500035352058332E3431332059322E32323400
:105460000A4E3936302058332E3339322059322EF5
:105470003234320A4E3936352058332E3333352004
:1054800059322E3234340A4E3937302058332E32C6
:1054900037382059322E3233360A4E3937352058B4
:1054A000332E3235362059322E3234320A4E3938C4
:1054B000302058332E3233392059322E3235310ACA
:1054C0004E3938352058332E3231312059322E3270
:1054D00038300A4E3939302058332E31373420597C
:1054E000322E3335360A4E3939352058332E313580
:1054F000392059322E3339370A4E31303030205866
:10550000332E3135302059322E3433380A4E313073
:1055100030352058332E3134302059322E34383142
:105520000A4E313031302058332E31333220593247
:105530002E3531300A4E313031352058332E31314D
:10554000382059322E3534330A4E3130323020581B
:10555000332E3039392059322E3537360A4E313014
:1055600032352058332E3035312059322E363331F2
:105570000A4E313033302058332E303033205932F8
:105580002E3636360A4E313033352058322E3935E4
:10559000372059322E3638350A4E313034302058C3
:1055A000322E3930372059322E3639390A4E3130C1
:1055B00034352058322E3836302059322E3731319A
:1055C0000A4E313035302058322E38313920593298
:1055D0002E3732370A4E313035352058322E373695
:1055E000382059322E3734350A4E31303630205873
:1055F000322E3731362059322E3735370A4E313078
:1056000036352058322E3637352059322E37353739
:105610000A4E313037302058322E35373920593242
:105620002E3733310A4E313037352058322E353748
:10563000302059322E3732330A4E3130383020582C
:10564000322E3535392059322E3732300A4E31302C
:1056500038352058322E3533302059322E373031FC
:105660000A4E313039302058322E353031205932FF
:105670002E3639330A4E313039352058322E3437F0
:10568000312059322E3638330A4E313130302058DD
:10569000322E3434332059322E3636380A4E3131D8
:1056A00030352058322E3339362059322E363334A5
:1056B0000A4E313131302058322E333534205932B0
:1056C0002E3539310A4E313131352058322E3335AD
:1056D000322059322E3539310A4E3131323020588C
:1056E000322E3332352059322E3534330A4E313191
:1056F00032352058322E3331352059322E35323161
:105700000A4E313133302058322E3330372059325F
:105710002E3439380A4E313133352058322E323951
:10572000362059322E3436340A4E31313430205836
:10573000322E3239332059322E3432370A4E31313B
:1057400034352058322E3239352059322E33363600
:105750000A4E313135302058322E33323120593211
:105760002E3330330A4E313135352058322E333511
:10577000382059322E3234370A4E313136302058E3
:10578000322E3431392059322E3230330A4E3131F3
:1057900036352058322E3431392059322E313739AE
:1057A0000A4E313137302058322E343035205932BC
:1057B0002E3135380A4E313137352058322E3336B6
:1057C000322059322E3132330A4E3131383020589E
:1057D000322E3335342059322E3130340A4E3131A5
:1057E00038352058322E3335342059322E30393165
:1057F0000A4E313139302058322E33383020593268
:105800002E3036350A4E313139352058322E34316A
:10581000302059322E3035310A4E31323030205856
:10582000322E3431302059322E3034370A4E313254
:1058300030352058322E3430352059322E3032381F
:105840000A4E313231302058322E3430382059321D
:105850002E3031300A4E313231352058322E34312B
:10586000362059312E3939350A4E313232302058EE
:10587000322E3433332059312E3938320A4E3132F8
:1058800032352058322E3433382059312E393633C0
:105890000A4E313233302058322E343437205931C9
:1058A0002E3934380A4E313233352058322E3436C0
:1058B000312059312E3933380A4E313234302058A4
:1058C000322E3438302059312E3933310A4E3132AC
:1058D00034352058322E3437382059312E38393962
:1058E0000A4E313235302058322E34383720593173
:1058F0002E3837350A4E313235352058322E353074
:10590000342059312E3835340A4E31323630205851
:10591000322E3532372059312E3834380A4E313252
:1059200036352058322E3534392059312E38343915
:105930000A4E313237302058322E35373720593120
:105940002E3836310A4E313237352058322E363025
:10595000342059312E3836360A4E313238302058FC
:10596000322E3633312059312E3835340A4E313209
:1059700038352058322E3634302059312E383237CF
:105980000A4E313239302058322E363430205931D7
:105990002E3739320A4E313239352058322E3632CE
:1059A000392059312E3735390A4E313330302058AD
:1059B000322E3631322059312E3732370A4E3133BA
:1059C00030352058322E3537362059312E3639347D
:1059D0000A4E313331302058322E3533362059318A
:1059E0002E3636320A4E313331352058322E343786
:1059F000302059312E3631360A4E3133323020586C
:105A0000322E3334352059312E3535310A4E31336B
:105A100032352058322E3330372059312E3532313D
:105A20000A4E313333302058322E3236302059313D
:105A30002E3438320A4E313333352058322E323438
:105A4000332059312E3437370A4E31333430205811
:105A5000322E3232382059312E3436390A4E313313
:105A600034352058322E3232322059312E343438E7
:105A70000A4E313335302058322E323238205931E7
:105A80002E3432350A4E313335352058322E3235E8
:105A9000342059312E3430350A4E313336302058C7
:105AA000322E3236382059312E3337330A4E3133C5
:105AB00036352058322E3237392059312E33343290
:105AC0000A4E313337302058322E33303820593196
:105AD0002E3238370A4E313337352058322E333490
